{
    "_format": "hh-sol-artifact-1",
    "contractName": "GardenExplorerBadges",
    "sourceName": "contracts/GardenBadges.sol",
    "abi": [
        {
            "inputs": [
                {
                    "internalType": "address",
                    "name": "initialOwner",
                    "type": "address"
                },
                {
                    "internalType": "string",
                    "name": "uri",
                    "type": "string"
                }
            ],
            "stateMutability": "nonpayable",
            "type": "constructor"
        },
        {
            "inputs": [
                {
                    "internalType": "address",
                    "name": "sender",
                    "type": "address"
                },
                {
                    "internalType": "uint256",
                    "name": "balance",
                    "type": "uint256"
                },
                {
                    "internalType": "uint256",
                    "name": "needed",
                    "type": "uint256"
                },
                {
                    "internalType": "uint256",
                    "name": "tokenId",
                    "type": "uint256"
                }
            ],
            "name": "ERC1155InsufficientBalance",
            "type": "error"
        },
        {
            "inputs": [
                {
                    "internalType": "address",
                    "name": "approver",
                    "type": "address"
                }
            ],
            "name": "ERC1155InvalidApprover",
            "type": "error"
        },
        {
            "inputs": [
                {
                    "internalType": "uint256",
                    "name": "idsLength",
                    "type": "uint256"
                },
                {
                    "internalType": "uint256",
                    "name": "valuesLength",
                    "type": "uint256"
                }
            ],
            "name": "ERC1155InvalidArrayLength",
            "type": "error"
        },
        {
            "inputs": [
                {
                    "internalType": "address",
                    "name": "operator",
                    "type": "address"
                }
            ],
            "name": "ERC1155InvalidOperator",
            "type": "error"
        },
        {
            "inputs": [
                {
                    "internalType": "address",
                    "name": "receiver",
                    "type": "address"
                }
            ],
            "name": "ERC1155InvalidReceiver",
            "type": "error"
        },
        {
            "inputs": [
                {
                    "internalType": "address",
                    "name": "sender",
                    "type": "address"
                }
            ],
            "name": "ERC1155InvalidSender",
            "type": "error"
        },
        {
            "inputs": [
                {
                    "internalType": "address",
                    "name": "operator",
                    "type": "address"
                },
                {
                    "internalType": "address",
                    "name": "owner",
                    "type": "address"
                }
            ],
            "name": "ERC1155MissingApprovalForAll",
            "type": "error"
        },
        {
            "inputs": [
                {
                    "internalType": "address",
                    "name": "owner",
                    "type": "address"
                }
            ],
            "name": "OwnableInvalidOwner",
            "type": "error"
        },
        {
            "inputs": [
                {
                    "internalType": "address",
                    "name": "account",
                    "type": "address"
                }
            ],
            "name": "OwnableUnauthorizedAccount",
            "type": "error"
        },
        {
            "anonymous": false,
            "inputs": [
                {
                    "indexed": true,
                    "internalType": "address",
                    "name": "account",
                    "type": "address"
                },
                {
                    "indexed": true,
                    "internalType": "address",
                    "name": "operator",
                    "type": "address"
                },
                {
                    "indexed": false,
                    "internalType": "bool",
                    "name": "approved",
                    "type": "bool"
                }
            ],
            "name": "ApprovalForAll",
            "type": "event"
        },
        {
            "anonymous": false,
            "inputs": [
                {
                    "indexed": true,
                    "internalType": "address",
                    "name": "previousOwner",
                    "type": "address"
                },
                {
                    "indexed": true,
                    "internalType": "address",
                    "name": "newOwner",
                    "type": "address"
                }
            ],
            "name": "OwnershipTransferred",
            "type": "event"
        },
        {
            "anonymous": false,
            "inputs": [
                {
                    "indexed": true,
                    "internalType": "address",
                    "name": "operator",
                    "type": "address"
                },
                {
                    "indexed": true,
                    "internalType": "address",
                    "name": "from",
                    "type": "address"
                },
                {
                    "indexed": true,
                    "internalType": "address",
                    "name": "to",
                    "type": "address"
                },
                {
                    "indexed": false,
                    "internalType": "uint256[]",
                    "name": "ids",
                    "type": "uint256[]"
                },
                {
                    "indexed": false,
                    "internalType": "uint256[]",
                    "name": "values",
                    "type": "uint256[]"
                }
            ],
            "name": "TransferBatch",
            "type": "event"
        },
        {
            "anonymous": false,
            "inputs": [
                {
                    "indexed": true,
                    "internalType": "address",
                    "name": "operator",
                    "type": "address"
                },
                {
                    "indexed": true,
                    "internalType": "address",
                    "name": "from",
                    "type": "address"
                },
                {
                    "indexed": true,
                    "internalType": "address",
                    "name": "to",
                    "type": "address"
                },
                {
                    "indexed": false,
                    "internalType": "uint256",
                    "name": "id",
                    "type": "uint256"
                },
                {
                    "indexed": false,
                    "internalType": "uint256",
                    "name": "value",
                    "type": "uint256"
                }
            ],
            "name": "TransferSingle",
            "type": "event"
        },
        {
            "anonymous": false,
            "inputs": [
                {
                    "indexed": false,
                    "internalType": "string",
                    "name": "value",
                    "type": "string"
                },
                {
                    "indexed": true,
                    "internalType": "uint256",
                    "name": "id",
                    "type": "uint256"
                }
            ],
            "name": "URI",
            "type": "event"
        },
        {
            "inputs": [],
            "name": "NEXT_BADGE_ID",
            "outputs": [
                {
                    "internalType": "uint256",
                    "name": "",
                    "type": "uint256"
                }
            ],
            "stateMutability": "view",
            "type": "function"
        },
        {
            "inputs": [
                {
                    "internalType": "uint256",
                    "name": "supply",
                    "type": "uint256"
                },
                {
                    "internalType": "string",
                    "name": "name",
                    "type": "string"
                }
            ],
            "name": "addNewBadge",
            "outputs": [],
            "stateMutability": "nonpayable",
            "type": "function"
        },
        {
            "inputs": [
                {
                    "internalType": "address",
                    "name": "to",
                    "type": "address"
                },
                {
                    "internalType": "uint256",
                    "name": "badgeId",
                    "type": "uint256"
                }
            ],
            "name": "awardBadge",
            "outputs": [],
            "stateMutability": "nonpayable",
            "type": "function"
        },
        {
            "inputs": [
                {
                    "internalType": "uint256",
                    "name": "",
                    "type": "uint256"
                }
            ],
            "name": "badgeNames",
            "outputs": [
                {
                    "internalType": "string",
                    "name": "",
                    "type": "string"
                }
            ],
            "stateMutability": "view",
            "type": "function"
        },
        {
            "inputs": [
                {
                    "internalType": "address",
                    "name": "account",
                    "type": "address"
                },
                {
                    "internalType": "uint256",
                    "name": "id",
                    "type": "uint256"
                }
            ],
            "name": "balanceOf",
            "outputs": [
                {
                    "internalType": "uint256",
                    "name": "",
                    "type": "uint256"
                }
            ],
            "stateMutability": "view",
            "type": "function"
        },
        {
            "inputs": [
                {
                    "internalType": "address[]",
                    "name": "accounts",
                    "type": "address[]"
                },
                {
                    "internalType": "uint256[]",
                    "name": "ids",
                    "type": "uint256[]"
                }
            ],
            "name": "balanceOfBatch",
            "outputs": [
                {
                    "internalType": "uint256[]",
                    "name": "",
                    "type": "uint256[]"
                }
            ],
            "stateMutability": "view",
            "type": "function"
        },
        {
            "inputs": [
                {
                    "internalType": "address",
                    "name": "account",
                    "type": "address"
                },
                {
                    "internalType": "uint256",
                    "name": "badgeId",
                    "type": "uint256"
                }
            ],
            "name": "hasBadge",
            "outputs": [
                {
                    "internalType": "bool",
                    "name": "",
                    "type": "bool"
                }
            ],
            "stateMutability": "view",
            "type": "function"
        },
        {
            "inputs": [
                {
                    "internalType": "address",
                    "name": "account",
                    "type": "address"
                },
                {
                    "internalType": "address",
                    "name": "operator",
                    "type": "address"
                }
            ],
            "name": "isApprovedForAll",
            "outputs": [
                {
                    "internalType": "bool",
                    "name": "",
                    "type": "bool"
                }
            ],
            "stateMutability": "view",
            "type": "function"
        },
        {
            "inputs": [],
            "name": "owner",
            "outputs": [
                {
                    "internalType": "address",
                    "name": "",
                    "type": "address"
                }
            ],
            "stateMutability": "view",
            "type": "function"
        },
        {
            "inputs": [],
            "name": "renounceOwnership",
            "outputs": [],
            "stateMutability": "nonpayable",
            "type": "function"
        },
        {
            "inputs": [
                {
                    "internalType": "address",
                    "name": "from",
                    "type": "address"
                },
                {
                    "internalType": "address",
                    "name": "to",
                    "type": "address"
                },
                {
                    "internalType": "uint256[]",
                    "name": "ids",
                    "type": "uint256[]"
                },
                {
                    "internalType": "uint256[]",
                    "name": "values",
                    "type": "uint256[]"
                },
                {
                    "internalType": "bytes",
                    "name": "data",
                    "type": "bytes"
                }
            ],
            "name": "safeBatchTransferFrom",
            "outputs": [],
            "stateMutability": "nonpayable",
            "type": "function"
        },
        {
            "inputs": [
                {
                    "internalType": "address",
                    "name": "from",
                    "type": "address"
                },
                {
                    "internalType": "address",
                    "name": "to",
                    "type": "address"
                },
                {
                    "internalType": "uint256",
                    "name": "id",
                    "type": "uint256"
                },
                {
                    "internalType": "uint256",
                    "name": "value",
                    "type": "uint256"
                },
                {
                    "internalType": "bytes",
                    "name": "data",
                    "type": "bytes"
                }
            ],
            "name": "safeTransferFrom",
            "outputs": [],
            "stateMutability": "nonpayable",
            "type": "function"
        },
        {
            "inputs": [
                {
                    "internalType": "address",
                    "name": "operator",
                    "type": "address"
                },
                {
                    "internalType": "bool",
                    "name": "approved",
                    "type": "bool"
                }
            ],
            "name": "setApprovalForAll",
            "outputs": [],
            "stateMutability": "nonpayable",
            "type": "function"
        },
        {
            "inputs": [
                {
                    "internalType": "bytes4",
                    "name": "interfaceId",
                    "type": "bytes4"
                }
            ],
            "name": "supportsInterface",
            "outputs": [
                {
                    "internalType": "bool",
                    "name": "",
                    "type": "bool"
                }
            ],
            "stateMutability": "view",
            "type": "function"
        },
        {
            "inputs": [
                {
                    "internalType": "address",
                    "name": "newOwner",
                    "type": "address"
                }
            ],
            "name": "transferOwnership",
            "outputs": [],
            "stateMutability": "nonpayable",
            "type": "function"
        },
        {
            "inputs": [
                {
                    "internalType": "uint256",
                    "name": "badgeId",
                    "type": "uint256"
                },
                {
                    "internalType": "string",
                    "name": "newName",
                    "type": "string"
                }
            ],
            "name": "updateBadgeName",
            "outputs": [],
            "stateMutability": "nonpayable",
            "type": "function"
        },
        {
            "inputs": [
                {
                    "internalType": "uint256",
                    "name": "badgeId",
                    "type": "uint256"
                },
                {
                    "internalType": "uint256",
                    "name": "newSupply",
                    "type": "uint256"
                }
            ],
            "name": "updateSupply",
            "outputs": [],
            "stateMutability": "nonpayable",
            "type": "function"
        },
        {
            "inputs": [
                {
                    "internalType": "uint256",
                    "name": "",
                    "type": "uint256"
                }
            ],
            "name": "uri",
            "outputs": [
                {
                    "internalType": "string",
                    "name": "",
                    "type": "string"
                }
            ],
            "stateMutability": "view",
            "type": "function"
        }
    ],
    "bytecode": "0x608060405260006004553480156200001657600080fd5b50604051620042ab380380620042ab83398181016040528101906200003c9190620010e5565b81816200004f81620003ad60201b60201c565b50600073ffffffffffffffffffffffffffffffffffffffff168173ffffffffffffffffffffffffffffffffffffffff1603620000c55760006040517f1e4fbdf7000000000000000000000000000000000000000000000000000000008152600401620000bc91906200115c565b60405180910390fd5b620000d681620003c260201b60201c565b506000612710905062000125816040518060400160405280600f81526020017f47657474696e67205374617274656400000000000000000000000000000000008152506200048860201b60201c565b6200016c816040518060400160405280601581526020017f5370726f7574696e6720616e20496e74657265737400000000000000000000008152506200048860201b60201c565b620001b3816040518060400160405280601281526020017f42756464696e67204e61747572616c69737400000000000000000000000000008152506200048860201b60201c565b620001fa816040518060400160405280600d81526020017f547261696c20547261636b6572000000000000000000000000000000000000008152506200048860201b60201c565b62000241816040518060400160405280600c81526020017f4b65656e205761746368657200000000000000000000000000000000000000008152506200048860201b60201c565b62000288816040518060400160405280600a81526020017f53686172702045796564000000000000000000000000000000000000000000008152506200048860201b60201c565b620002cf816040518060400160405280601081526020017f536561736f6e65642053706f74746572000000000000000000000000000000008152506200048860201b60201c565b62000316816040518060400160405280601381526020017f457870657269656e63656420547261636b6572000000000000000000000000008152506200048860201b60201c565b6200035d816040518060400160405280601a81526020017f54686520417274206f662053697474696e672051756965746c790000000000008152506200048860201b60201c565b620003a4816040518060400160405280600f81526020017f4d6173746572204f6273657276657200000000000000000000000000000000008152506200048860201b60201c565b505050620018b8565b8060029081620003be9190620013c4565b5050565b6000600360009054906101000a900473ffffffffffffffffffffffffffffffffffffffff16905081600360006101000a81548173ffffffffffffffffffffffffffffffffffffffff021916908373ffffffffffffffffffffffffffffffffffffffff1602179055508173ffffffffffffffffffffffffffffffffffffffff168173ffffffffffffffffffffffffffffffffffffffff167f8be0079c531659141344cd1fd0a4f28419497f9722a3daafe3b4186f6b6457e060405160405180910390a35050565b620004986200050060201b60201c565b620004bd336004548460405180602001604052806000815250620005a260201b60201c565b806005600060045481526020019081526020016000209081620004e19190620013c4565b5060046000815480929190620004f790620014da565b91905055505050565b620005106200064e60201b60201c565b73ffffffffffffffffffffffffffffffffffffffff16620005366200065660201b60201c565b73ffffffffffffffffffffffffffffffffffffffff1614620005a057620005626200064e60201b60201c565b6040517f118cdaa70000000000000000000000000000000000000000000000000000000081526004016200059791906200115c565b60405180910390fd5b565b600073ffffffffffffffffffffffffffffffffffffffff168473ffffffffffffffffffffffffffffffffffffffff1603620006175760006040517f57f447ce0000000000000000000000000000000000000000000000000000000081526004016200060e91906200115c565b60405180910390fd5b6000806200062c85856200068060201b60201c565b9150915062000646600087848487620006b060201b60201c565b505050505050565b600033905090565b6000600360009054906101000a900473ffffffffffffffffffffffffffffffffffffffff16905090565b60608060405191506001825283602083015260408201905060018152826020820152604081016040529250929050565b620006c4858585856200078960201b60201c565b600073ffffffffffffffffffffffffffffffffffffffff168473ffffffffffffffffffffffffffffffffffffffff1614620007825760006200070b6200064e60201b60201c565b90506001845103620007695760006200072f60008662000b5360201b90919060201c565b905060006200074960008662000b5360201b90919060201c565b90506200076183898985858962000b6760201b60201c565b505062000780565b6200077f81878787878762000d2a60201b60201c565b5b505b5050505050565b8051825114620007d657815181516040517f5b059991000000000000000000000000000000000000000000000000000000008152600401620007cd92919062001538565b60405180910390fd5b6000620007e86200064e60201b60201c565b905060005b835181101562000a045760006200080e828662000b5360201b90919060201c565b9050600062000827838662000b5360201b90919060201c565b9050600073ffffffffffffffffffffffffffffffffffffffff168873ffffffffffffffffffffffffffffffffffffffff16146200095857600080600084815260200190815260200160002060008a73ffffffffffffffffffffffffffffffffffffffff1673ffffffffffffffffffffffffffffffffffffffff168152602001908152602001600020549050818110156200090057888183856040517f03dee4c5000000000000000000000000000000000000000000000000000000008152600401620008f7949392919062001565565b60405180910390fd5b81810360008085815260200190815260200160002060008b73ffffffffffffffffffffffffffffffffffffffff1673ffffffffffffffffffffffffffffffffffffffff16815260200190815260200160002081905550505b600073ffffffffffffffffffffffffffffffffffffffff168773ffffffffffffffffffffffffffffffffffffffff1614620009f6578060008084815260200190815260200160002060008973ffffffffffffffffffffffffffffffffffffffff1673ffffffffffffffffffffffffffffffffffffffff1681526020019081526020016000206000828254620009ee9190620015b2565b925050819055505b5050806001019050620007ed565b50600183510362000acb57600062000a2760008562000b5360201b90919060201c565b9050600062000a4160008562000b5360201b90919060201c565b90508573ffffffffffffffffffffffffffffffffffffffff168773ffffffffffffffffffffffffffffffffffffffff168473ffffffffffffffffffffffffffffffffffffffff167fc3d58168c5ae7397731d063d5bbf3d657854427343f4c083240f7aacaa2d0f62858560405162000abb92919062001538565b60405180910390a4505062000b4c565b8373ffffffffffffffffffffffffffffffffffffffff168573ffffffffffffffffffffffffffffffffffffffff168273ffffffffffffffffffffffffffffffffffffffff167f4a39dc06d4c0dbc64b70af90fd698a233a518aa5d07e595d983b8c0526c8f7fb868660405162000b43929190620016bb565b60405180910390a45b5050505050565b600060208202602084010151905092915050565b60008473ffffffffffffffffffffffffffffffffffffffff163b111562000d22578373ffffffffffffffffffffffffffffffffffffffff1663f23a6e6187878686866040518663ffffffff1660e01b815260040162000bcb95949392919062001753565b6020604051808303816000875af192505050801562000c0a57506040513d601f19601f8201168201806040525081019062000c07919062001814565b60015b62000c94573d806000811462000c3d576040519150601f19603f3d011682016040523d82523d6000602084013e62000c42565b606091505b50600081510362000c8c57846040517f57f447ce00000000000000000000000000000000000000000000000000000000815260040162000c8391906200115c565b60405180910390fd5b805181602001fd5b63f23a6e6160e01b7bffffffffffffffffffffffffffffffffffffffffffffffffffffffff1916817bffffffffffffffffffffffffffffffffffffffffffffffffffffffff19161462000d2057846040517f57f447ce00000000000000000000000000000000000000000000000000000000815260040162000d1791906200115c565b60405180910390fd5b505b505050505050565b60008473ffffffffffffffffffffffffffffffffffffffff163b111562000ee5578373ffffffffffffffffffffffffffffffffffffffff1663bc197c8187878686866040518663ffffffff1660e01b815260040162000d8e95949392919062001846565b6020604051808303816000875af192505050801562000dcd57506040513d601f19601f8201168201806040525081019062000dca919062001814565b60015b62000e57573d806000811462000e00576040519150601f19603f3d011682016040523d82523d6000602084013e62000e05565b606091505b50600081510362000e4f57846040517f57f447ce00000000000000000000000000000000000000000000000000000000815260040162000e4691906200115c565b60405180910390fd5b805181602001fd5b63bc197c8160e01b7bffffffffffffffffffffffffffffffffffffffffffffffffffffffff1916817bffffffffffffffffffffffffffffffffffffffffffffffffffffffff19161462000ee357846040517f57f447ce00000000000000000000000000000000000000000000000000000000815260040162000eda91906200115c565b60405180910390fd5b505b505050505050565b6000604051905090565b600080fd5b600080fd5b600073ffffffffffffffffffffffffffffffffffffffff82169050919050565b600062000f2e8262000f01565b9050919050565b62000f408162000f21565b811462000f4c57600080fd5b50565b60008151905062000f608162000f35565b92915050565b600080fd5b600080fd5b6000601f19601f8301169050919050565b7f4e487b7100000000000000000000000000000000000000000000000000000000600052604160045260246000fd5b62000fbb8262000f70565b810181811067ffffffffffffffff8211171562000fdd5762000fdc62000f81565b5b80604052505050565b600062000ff262000eed565b905062001000828262000fb0565b919050565b600067ffffffffffffffff82111562001023576200102262000f81565b5b6200102e8262000f70565b9050602081019050919050565b60005b838110156200105b5780820151818401526020810190506200103e565b60008484015250505050565b60006200107e620010788462001005565b62000fe6565b9050828152602081018484840111156200109d576200109c62000f6b565b5b620010aa8482856200103b565b509392505050565b600082601f830112620010ca57620010c962000f66565b5b8151620010dc84826020860162001067565b91505092915050565b60008060408385031215620010ff57620010fe62000ef7565b5b60006200110f8582860162000f4f565b925050602083015167ffffffffffffffff81111562001133576200113262000efc565b5b6200114185828601620010b2565b9150509250929050565b620011568162000f21565b82525050565b60006020820190506200117360008301846200114b565b92915050565b600081519050919050565b7f4e487b7100000000000000000000000000000000000000000000000000000000600052602260045260246000fd5b60006002820490506001821680620011cc57607f821691505b602082108103620011e257620011e162001184565b5b50919050565b60008190508160005260206000209050919050565b60006020601f8301049050919050565b600082821b905092915050565b6000600883026200124c7fffffffffffffffffffffffffffffffffffffffffffffffffffffffffffffffff826200120d565b6200125886836200120d565b95508019841693508086168417925050509392505050565b6000819050919050565b6000819050919050565b6000620012a56200129f620012998462001270565b6200127a565b62001270565b9050919050565b6000819050919050565b620012c18362001284565b620012d9620012d082620012ac565b8484546200121a565b825550505050565b600090565b620012f0620012e1565b620012fd818484620012b6565b505050565b5b81811015620013255762001319600082620012e6565b60018101905062001303565b5050565b601f82111562001374576200133e81620011e8565b6200134984620011fd565b8101602085101562001359578190505b620013716200136885620011fd565b83018262001302565b50505b505050565b600082821c905092915050565b6000620013996000198460080262001379565b1980831691505092915050565b6000620013b4838362001386565b9150826002028217905092915050565b620013cf8262001179565b67ffffffffffffffff811115620013eb57620013ea62000f81565b5b620013f78254620011b3565b6200140482828562001329565b600060209050601f8311600181146200143c576000841562001427578287015190505b620014338582620013a6565b865550620014a3565b601f1984166200144c86620011e8565b60005b8281101562001476578489015182556001820191506020850194506020810190506200144f565b8683101562001496578489015162001492601f89168262001386565b8355505b6001600288020188555050505b505050505050565b7f4e487b7100000000000000000000000000000000000000000000000000000000600052601160045260246000fd5b6000620014e78262001270565b91507fffffffffffffffffffffffffffffffffffffffffffffffffffffffffffffffff82036200151c576200151b620014ab565b5b600182019050919050565b620015328162001270565b82525050565b60006040820190506200154f600083018562001527565b6200155e602083018462001527565b9392505050565b60006080820190506200157c60008301876200114b565b6200158b602083018662001527565b6200159a604083018562001527565b620015a9606083018462001527565b95945050505050565b6000620015bf8262001270565b9150620015cc8362001270565b9250828201905080821115620015e757620015e6620014ab565b5b92915050565b600081519050919050565b600082825260208201905092915050565b6000819050602082019050919050565b620016248162001270565b82525050565b600062001638838362001619565b60208301905092915050565b6000602082019050919050565b60006200165e82620015ed565b6200166a8185620015f8565b9350620016778362001609565b8060005b83811015620016ae5781516200169288826200162a565b97506200169f8362001644565b9250506001810190506200167b565b5085935050505092915050565b60006040820190508181036000830152620016d7818562001651565b90508181036020830152620016ed818462001651565b90509392505050565b600081519050919050565b600082825260208201905092915050565b60006200171f82620016f6565b6200172b818562001701565b93506200173d8185602086016200103b565b620017488162000f70565b840191505092915050565b600060a0820190506200176a60008301886200114b565b6200177960208301876200114b565b62001788604083018662001527565b62001797606083018562001527565b8181036080830152620017ab818462001712565b90509695505050505050565b60007fffffffff0000000000000000000000000000000000000000000000000000000082169050919050565b620017ee81620017b7565b8114620017fa57600080fd5b50565b6000815190506200180e81620017e3565b92915050565b6000602082840312156200182d576200182c62000ef7565b5b60006200183d84828501620017fd565b91505092915050565b600060a0820190506200185d60008301886200114b565b6200186c60208301876200114b565b818103604083015262001880818662001651565b9050818103606083015262001896818562001651565b90508181036080830152620018ac818462001712565b90509695505050505050565b6129e380620018c86000396000f3fe608060405234801561001057600080fd5b50600436106101155760003560e01c80638da5cb5b116100a2578063d9983b4911610071578063d9983b49146102dc578063e985e9c51461030c578063f242432a1461033c578063f2fde38b14610358578063f9007a481461037457610115565b80638da5cb5b1461026a5780639e2dcbfd14610288578063a22cb465146102a4578063d3abac03146102c057610115565b806317872b21116100e957806317872b21146101c85780632eb2c2d6146101e45780634c6a70ce146102005780634e1273f414610230578063715018a61461026057610115565b8062fdd58e1461011a57806301ffc9a71461014a5780630e89341c1461017a57806311304728146101aa575b600080fd5b610134600480360381019061012f91906119a0565b610390565b60405161014191906119ef565b60405180910390f35b610164600480360381019061015f9190611a62565b6103ea565b6040516101719190611aaa565b60405180910390f35b610194600480360381019061018f9190611ac5565b6104cc565b6040516101a19190611b82565b60405180910390f35b6101b2610560565b6040516101bf91906119ef565b60405180910390f35b6101e260048036038101906101dd91906119a0565b610566565b005b6101fe60048036038101906101f99190611da1565b6105de565b005b61021a600480360381019061021591906119a0565b610686565b6040516102279190611aaa565b60405180910390f35b61024a60048036038101906102459190611f33565b61069c565b6040516102579190612069565b60405180910390f35b6102686107a5565b005b6102726107b9565b60405161027f919061209a565b60405180910390f35b6102a2600480360381019061029d91906120b5565b6107e3565b005b6102be60048036038101906102b99190612121565b61080a565b005b6102da60048036038101906102d59190612202565b610820565b005b6102f660048036038101906102f19190611ac5565b61084d565b6040516103039190611b82565b60405180910390f35b6103266004803603810190610321919061225e565b6108ed565b6040516103339190611aaa565b60405180910390f35b6103566004803603810190610351919061229e565b610981565b005b610372600480360381019061036d9190612335565b610a29565b005b61038e60048036038101906103899190612202565b610aaf565b005b600080600083815260200190815260200160002060008473ffffffffffffffffffffffffffffffffffffffff1673ffffffffffffffffffffffffffffffffffffffff16815260200190815260200160002054905092915050565b60007fd9b67a26000000000000000000000000000000000000000000000000000000007bffffffffffffffffffffffffffffffffffffffffffffffffffffffff1916827bffffffffffffffffffffffffffffffffffffffffffffffffffffffff191614806104b557507f0e89341c000000000000000000000000000000000000000000000000000000007bffffffffffffffffffffffffffffffffffffffffffffffffffffffff1916827bffffffffffffffffffffffffffffffffffffffffffffffffffffffff1916145b806104c557506104c482610b13565b5b9050919050565b6060600280546104db90612391565b80601f016020809104026020016040519081016040528092919081815260200182805461050790612391565b80156105545780601f1061052957610100808354040283529160200191610554565b820191906000526020600020905b81548152906001019060200180831161053757829003601f168201915b50505050509050919050565b60045481565b600015156105748383610686565b1515146105b6576040517f08c379a00000000000000000000000000000000000000000000000000000000081526004016105ad9061240e565b60405180910390fd5b6105da6105c16107b9565b8383600160405180602001604052806000815250610981565b5050565b60006105e8610b7d565b90508073ffffffffffffffffffffffffffffffffffffffff168673ffffffffffffffffffffffffffffffffffffffff161415801561062d575061062b86826108ed565b155b156106715780866040517fe237d92200000000000000000000000000000000000000000000000000000000815260040161066892919061242e565b60405180910390fd5b61067e8686868686610b85565b505050505050565b6000806106938484610390565b11905092915050565b606081518351146106e857815183516040517f5b0599910000000000000000000000000000000000000000000000000000000081526004016106df929190612457565b60405180910390fd5b6000835167ffffffffffffffff81111561070557610704611ba9565b5b6040519080825280602002602001820160405280156107335781602001602082028036833780820191505090505b50905060005b845181101561079a576107706107588287610c7d90919063ffffffff16565b61076b8387610c9190919063ffffffff16565b610390565b82828151811061078357610782612480565b5b602002602001018181525050806001019050610739565b508091505092915050565b6107ad610ca5565b6107b76000610d2c565b565b6000600360009054906101000a900473ffffffffffffffffffffffffffffffffffffffff16905090565b6107eb610ca5565b61080633838360405180602001604052806000815250610df2565b5050565b61081c610815610b7d565b8383610e8b565b5050565b610828610ca5565b80600560008481526020019081526020016000209081610848919061265b565b505050565b6005602052806000526040600020600091509050805461086c90612391565b80601f016020809104026020016040519081016040528092919081815260200182805461089890612391565b80156108e55780601f106108ba576101008083540402835291602001916108e5565b820191906000526020600020905b8154815290600101906020018083116108c857829003601f168201915b505050505081565b6000600160008473ffffffffffffffffffffffffffffffffffffffff1673ffffffffffffffffffffffffffffffffffffffff16815260200190815260200160002060008373ffffffffffffffffffffffffffffffffffffffff1673ffffffffffffffffffffffffffffffffffffffff16815260200190815260200160002060009054906101000a900460ff16905092915050565b600061098b610b7d565b90508073ffffffffffffffffffffffffffffffffffffffff168673ffffffffffffffffffffffffffffffffffffffff16141580156109d057506109ce86826108ed565b155b15610a145780866040517fe237d922000000000000000000000000000000000000000000000000000000008152600401610a0b92919061242e565b60405180910390fd5b610a218686868686610ffb565b505050505050565b610a31610ca5565b600073ffffffffffffffffffffffffffffffffffffffff168173ffffffffffffffffffffffffffffffffffffffff1603610aa35760006040517f1e4fbdf7000000000000000000000000000000000000000000000000000000008152600401610a9a919061209a565b60405180910390fd5b610aac81610d2c565b50565b610ab7610ca5565b610ad4336004548460405180602001604052806000815250610df2565b806005600060045481526020019081526020016000209081610af6919061265b565b5060046000815480929190610b0a9061275c565b91905055505050565b60007f01ffc9a7000000000000000000000000000000000000000000000000000000007bffffffffffffffffffffffffffffffffffffffffffffffffffffffff1916827bffffffffffffffffffffffffffffffffffffffffffffffffffffffff1916149050919050565b600033905090565b600073ffffffffffffffffffffffffffffffffffffffff168473ffffffffffffffffffffffffffffffffffffffff1603610bf75760006040517f57f447ce000000000000000000000000000000000000000000000000000000008152600401610bee919061209a565b60405180910390fd5b600073ffffffffffffffffffffffffffffffffffffffff168573ffffffffffffffffffffffffffffffffffffffff1603610c695760006040517f01a83514000000000000000000000000000000000000000000000000000000008152600401610c60919061209a565b60405180910390fd5b610c768585858585611106565b5050505050565b600060208202602084010151905092915050565b600060208202602084010151905092915050565b610cad610b7d565b73ffffffffffffffffffffffffffffffffffffffff16610ccb6107b9565b73ffffffffffffffffffffffffffffffffffffffff1614610d2a57610cee610b7d565b6040517f118cdaa7000000000000000000000000000000000000000000000000000000008152600401610d21919061209a565b60405180910390fd5b565b6000600360009054906101000a900473ffffffffffffffffffffffffffffffffffffffff16905081600360006101000a81548173ffffffffffffffffffffffffffffffffffffffff021916908373ffffffffffffffffffffffffffffffffffffffff1602179055508173ffffffffffffffffffffffffffffffffffffffff168173ffffffffffffffffffffffffffffffffffffffff167f8be0079c531659141344cd1fd0a4f28419497f9722a3daafe3b4186f6b6457e060405160405180910390a35050565b600073ffffffffffffffffffffffffffffffffffffffff168473ffffffffffffffffffffffffffffffffffffffff1603610e645760006040517f57f447ce000000000000000000000000000000000000000000000000000000008152600401610e5b919061209a565b60405180910390fd5b600080610e7185856111b8565b91509150610e83600087848487611106565b505050505050565b600073ffffffffffffffffffffffffffffffffffffffff168273ffffffffffffffffffffffffffffffffffffffff1603610efd5760006040517fced3e100000000000000000000000000000000000000000000000000000000008152600401610ef4919061209a565b60405180910390fd5b80600160008573ffffffffffffffffffffffffffffffffffffffff1673ffffffffffffffffffffffffffffffffffffffff16815260200190815260200160002060008473ffffffffffffffffffffffffffffffffffffffff1673ffffffffffffffffffffffffffffffffffffffff16815260200190815260200160002060006101000a81548160ff0219169083151502179055508173ffffffffffffffffffffffffffffffffffffffff168373ffffffffffffffffffffffffffffffffffffffff167f17307eab39ab6107e8899845ad3d59bd9653f200f220920489ca2b5937696c3183604051610fee9190611aaa565b60405180910390a3505050565b600073ffffffffffffffffffffffffffffffffffffffff168473ffffffffffffffffffffffffffffffffffffffff160361106d5760006040517f57f447ce000000000000000000000000000000000000000000000000000000008152600401611064919061209a565b60405180910390fd5b600073ffffffffffffffffffffffffffffffffffffffff168573ffffffffffffffffffffffffffffffffffffffff16036110df5760006040517f01a835140000000000000000000000000000000000000000000000000000000081526004016110d6919061209a565b60405180910390fd5b6000806110ec85856111b8565b915091506110fd8787848487611106565b50505050505050565b611112858585856111e8565b600073ffffffffffffffffffffffffffffffffffffffff168473ffffffffffffffffffffffffffffffffffffffff16146111b1576000611150610b7d565b905060018451036111a0576000611171600086610c9190919063ffffffff16565b90506000611189600086610c9190919063ffffffff16565b9050611199838989858589611590565b50506111af565b6111ae818787878787611744565b5b505b5050505050565b60608060405191506001825283602083015260408201905060018152826020820152604081016040529250929050565b805182511461123257815181516040517f5b059991000000000000000000000000000000000000000000000000000000008152600401611229929190612457565b60405180910390fd5b600061123c610b7d565b905060005b835181101561144b57600061125f8286610c9190919063ffffffff16565b905060006112768386610c9190919063ffffffff16565b9050600073ffffffffffffffffffffffffffffffffffffffff168873ffffffffffffffffffffffffffffffffffffffff16146113a357600080600084815260200190815260200160002060008a73ffffffffffffffffffffffffffffffffffffffff1673ffffffffffffffffffffffffffffffffffffffff1681526020019081526020016000205490508181101561134b57888183856040517f03dee4c500000000000000000000000000000000000000000000000000000000815260040161134294939291906127a4565b60405180910390fd5b81810360008085815260200190815260200160002060008b73ffffffffffffffffffffffffffffffffffffffff1673ffffffffffffffffffffffffffffffffffffffff16815260200190815260200160002081905550505b600073ffffffffffffffffffffffffffffffffffffffff168773ffffffffffffffffffffffffffffffffffffffff161461143e578060008084815260200190815260200160002060008973ffffffffffffffffffffffffffffffffffffffff1673ffffffffffffffffffffffffffffffffffffffff168152602001908152602001600020600082825461143691906127e9565b925050819055505b5050806001019050611241565b50600183510361150a57600061146b600085610c9190919063ffffffff16565b90506000611483600085610c9190919063ffffffff16565b90508573ffffffffffffffffffffffffffffffffffffffff168773ffffffffffffffffffffffffffffffffffffffff168473ffffffffffffffffffffffffffffffffffffffff167fc3d58168c5ae7397731d063d5bbf3d657854427343f4c083240f7aacaa2d0f6285856040516114fb929190612457565b60405180910390a45050611589565b8373ffffffffffffffffffffffffffffffffffffffff168573ffffffffffffffffffffffffffffffffffffffff168273ffffffffffffffffffffffffffffffffffffffff167f4a39dc06d4c0dbc64b70af90fd698a233a518aa5d07e595d983b8c0526c8f7fb868660405161158092919061281d565b60405180910390a45b5050505050565b60008473ffffffffffffffffffffffffffffffffffffffff163b111561173c578373ffffffffffffffffffffffffffffffffffffffff1663f23a6e6187878686866040518663ffffffff1660e01b81526004016115f19594939291906128a9565b6020604051808303816000875af192505050801561162d57506040513d601f19601f8201168201806040525081019061162a9190612918565b60015b6116b1573d806000811461165d576040519150601f19603f3d011682016040523d82523d6000602084013e611662565b606091505b5060008151036116a957846040517f57f447ce0000000000000000000000000000000000000000000000000000000081526004016116a0919061209a565b60405180910390fd5b805181602001fd5b63f23a6e6160e01b7bffffffffffffffffffffffffffffffffffffffffffffffffffffffff1916817bffffffffffffffffffffffffffffffffffffffffffffffffffffffff19161461173a57846040517f57f447ce000000000000000000000000000000000000000000000000000000008152600401611731919061209a565b60405180910390fd5b505b505050505050565b60008473ffffffffffffffffffffffffffffffffffffffff163b11156118f0578373ffffffffffffffffffffffffffffffffffffffff1663bc197c8187878686866040518663ffffffff1660e01b81526004016117a5959493929190612945565b6020604051808303816000875af19250505080156117e157506040513d601f19601f820116820180604052508101906117de9190612918565b60015b611865573d8060008114611811576040519150601f19603f3d011682016040523d82523d6000602084013e611816565b606091505b50600081510361185d57846040517f57f447ce000000000000000000000000000000000000000000000000000000008152600401611854919061209a565b60405180910390fd5b805181602001fd5b63bc197c8160e01b7bffffffffffffffffffffffffffffffffffffffffffffffffffffffff1916817bffffffffffffffffffffffffffffffffffffffffffffffffffffffff1916146118ee57846040517f57f447ce0000000000000000000000000000000000000000000000000000000081526004016118e5919061209a565b60405180910390fd5b505b505050505050565b6000604051905090565b600080fd5b600080fd5b600073ffffffffffffffffffffffffffffffffffffffff82169050919050565b60006119378261190c565b9050919050565b6119478161192c565b811461195257600080fd5b50565b6000813590506119648161193e565b92915050565b6000819050919050565b61197d8161196a565b811461198857600080fd5b50565b60008135905061199a81611974565b92915050565b600080604083850312156119b7576119b6611902565b5b60006119c585828601611955565b92505060206119d68582860161198b565b9150509250929050565b6119e98161196a565b82525050565b6000602082019050611a0460008301846119e0565b92915050565b60007fffffffff0000000000000000000000000000000000000000000000000000000082169050919050565b611a3f81611a0a565b8114611a4a57600080fd5b50565b600081359050611a5c81611a36565b92915050565b600060208284031215611a7857611a77611902565b5b6000611a8684828501611a4d565b91505092915050565b60008115159050919050565b611aa481611a8f565b82525050565b6000602082019050611abf6000830184611a9b565b92915050565b600060208284031215611adb57611ada611902565b5b6000611ae98482850161198b565b91505092915050565b600081519050919050565b600082825260208201905092915050565b60005b83811015611b2c578082015181840152602081019050611b11565b60008484015250505050565b6000601f19601f8301169050919050565b6000611b5482611af2565b611b5e8185611afd565b9350611b6e818560208601611b0e565b611b7781611b38565b840191505092915050565b60006020820190508181036000830152611b9c8184611b49565b905092915050565b600080fd5b7f4e487b7100000000000000000000000000000000000000000000000000000000600052604160045260246000fd5b611be182611b38565b810181811067ffffffffffffffff82111715611c0057611bff611ba9565b5b80604052505050565b6000611c136118f8565b9050611c1f8282611bd8565b919050565b600067ffffffffffffffff821115611c3f57611c3e611ba9565b5b602082029050602081019050919050565b600080fd5b6000611c68611c6384611c24565b611c09565b90508083825260208201905060208402830185811115611c8b57611c8a611c50565b5b835b81811015611cb45780611ca0888261198b565b845260208401935050602081019050611c8d565b5050509392505050565b600082601f830112611cd357611cd2611ba4565b5b8135611ce3848260208601611c55565b91505092915050565b600080fd5b600067ffffffffffffffff821115611d0c57611d0b611ba9565b5b611d1582611b38565b9050602081019050919050565b82818337600083830152505050565b6000611d44611d3f84611cf1565b611c09565b905082815260208101848484011115611d6057611d5f611cec565b5b611d6b848285611d22565b509392505050565b600082601f830112611d8857611d87611ba4565b5b8135611d98848260208601611d31565b91505092915050565b600080600080600060a08688031215611dbd57611dbc611902565b5b6000611dcb88828901611955565b9550506020611ddc88828901611955565b945050604086013567ffffffffffffffff811115611dfd57611dfc611907565b5b611e0988828901611cbe565b935050606086013567ffffffffffffffff811115611e2a57611e29611907565b5b611e3688828901611cbe565b925050608086013567ffffffffffffffff811115611e5757611e56611907565b5b611e6388828901611d73565b9150509295509295909350565b600067ffffffffffffffff821115611e8b57611e8a611ba9565b5b602082029050602081019050919050565b6000611eaf611eaa84611e70565b611c09565b90508083825260208201905060208402830185811115611ed257611ed1611c50565b5b835b81811015611efb5780611ee78882611955565b845260208401935050602081019050611ed4565b5050509392505050565b600082601f830112611f1a57611f19611ba4565b5b8135611f2a848260208601611e9c565b91505092915050565b60008060408385031215611f4a57611f49611902565b5b600083013567ffffffffffffffff811115611f6857611f67611907565b5b611f7485828601611f05565b925050602083013567ffffffffffffffff811115611f9557611f94611907565b5b611fa185828601611cbe565b9150509250929050565b600081519050919050565b600082825260208201905092915050565b6000819050602082019050919050565b611fe08161196a565b82525050565b6000611ff28383611fd7565b60208301905092915050565b6000602082019050919050565b600061201682611fab565b6120208185611fb6565b935061202b83611fc7565b8060005b8381101561205c5781516120438882611fe6565b975061204e83611ffe565b92505060018101905061202f565b5085935050505092915050565b60006020820190508181036000830152612083818461200b565b905092915050565b6120948161192c565b82525050565b60006020820190506120af600083018461208b565b92915050565b600080604083850312156120cc576120cb611902565b5b60006120da8582860161198b565b92505060206120eb8582860161198b565b9150509250929050565b6120fe81611a8f565b811461210957600080fd5b50565b60008135905061211b816120f5565b92915050565b6000806040838503121561213857612137611902565b5b600061214685828601611955565b92505060206121578582860161210c565b9150509250929050565b600067ffffffffffffffff82111561217c5761217b611ba9565b5b61218582611b38565b9050602081019050919050565b60006121a56121a084612161565b611c09565b9050828152602081018484840111156121c1576121c0611cec565b5b6121cc848285611d22565b509392505050565b600082601f8301126121e9576121e8611ba4565b5b81356121f9848260208601612192565b91505092915050565b6000806040838503121561221957612218611902565b5b60006122278582860161198b565b925050602083013567ffffffffffffffff81111561224857612247611907565b5b612254858286016121d4565b9150509250929050565b6000806040838503121561227557612274611902565b5b600061228385828601611955565b925050602061229485828601611955565b9150509250929050565b600080600080600060a086880312156122ba576122b9611902565b5b60006122c888828901611955565b95505060206122d988828901611955565b94505060406122ea8882890161198b565b93505060606122fb8882890161198b565b925050608086013567ffffffffffffffff81111561231c5761231b611907565b5b61232888828901611d73565b9150509295509295909350565b60006020828403121561234b5761234a611902565b5b600061235984828501611955565b91505092915050565b7f4e487b7100000000000000000000000000000000000000000000000000000000600052602260045260246000fd5b600060028204905060018216806123a957607f821691505b6020821081036123bc576123bb612362565b5b50919050565b7f426164676520616c726561647920617761726465640000000000000000000000600082015250565b60006123f8601583611afd565b9150612403826123c2565b602082019050919050565b60006020820190508181036000830152612427816123eb565b9050919050565b6000604082019050612443600083018561208b565b612450602083018461208b565b9392505050565b600060408201905061246c60008301856119e0565b61247960208301846119e0565b9392505050565b7f4e487b7100000000000000000000000000000000000000000000000000000000600052603260045260246000fd5b60008190508160005260206000209050919050565b60006020601f8301049050919050565b600082821b905092915050565b6000600883026125117fffffffffffffffffffffffffffffffffffffffffffffffffffffffffffffffff826124d4565b61251b86836124d4565b95508019841693508086168417925050509392505050565b6000819050919050565b600061255861255361254e8461196a565b612533565b61196a565b9050919050565b6000819050919050565b6125728361253d565b61258661257e8261255f565b8484546124e1565b825550505050565b600090565b61259b61258e565b6125a6818484612569565b505050565b5b818110156125ca576125bf600082612593565b6001810190506125ac565b5050565b601f82111561260f576125e0816124af565b6125e9846124c4565b810160208510156125f8578190505b61260c612604856124c4565b8301826125ab565b50505b505050565b600082821c905092915050565b600061263260001984600802612614565b1980831691505092915050565b600061264b8383612621565b9150826002028217905092915050565b61266482611af2565b67ffffffffffffffff81111561267d5761267c611ba9565b5b6126878254612391565b6126928282856125ce565b600060209050601f8311600181146126c557600084156126b3578287015190505b6126bd858261263f565b865550612725565b601f1984166126d3866124af565b60005b828110156126fb578489015182556001820191506020850194506020810190506126d6565b868310156127185784890151612714601f891682612621565b8355505b6001600288020188555050505b505050505050565b7f4e487b7100000000000000000000000000000000000000000000000000000000600052601160045260246000fd5b60006127678261196a565b91507fffffffffffffffffffffffffffffffffffffffffffffffffffffffffffffffff82036127995761279861272d565b5b600182019050919050565b60006080820190506127b9600083018761208b565b6127c660208301866119e0565b6127d360408301856119e0565b6127e060608301846119e0565b95945050505050565b60006127f48261196a565b91506127ff8361196a565b92508282019050808211156128175761281661272d565b5b92915050565b60006040820190508181036000830152612837818561200b565b9050818103602083015261284b818461200b565b90509392505050565b600081519050919050565b600082825260208201905092915050565b600061287b82612854565b612885818561285f565b9350612895818560208601611b0e565b61289e81611b38565b840191505092915050565b600060a0820190506128be600083018861208b565b6128cb602083018761208b565b6128d860408301866119e0565b6128e560608301856119e0565b81810360808301526128f78184612870565b90509695505050505050565b60008151905061291281611a36565b92915050565b60006020828403121561292e5761292d611902565b5b600061293c84828501612903565b91505092915050565b600060a08201905061295a600083018861208b565b612967602083018761208b565b8181036040830152612979818661200b565b9050818103606083015261298d818561200b565b905081810360808301526129a18184612870565b9050969550505050505056fea2646970667358221220ff5c97449d17f971b577396d50ff454d837f2bbd33ea2ed0c7aa7d3a0e42bd0664736f6c63430008180033",
    "linkReferences": {},
    "deployedLinkReferences": {}
}