{
    "_format": "hh-sol-artifact-1",
    "contractName": "GardenExplorerBadges",
    "sourceName": "contracts/GardenBadges.sol",
    "abi": [
        {
            "inputs": [
                {
                    "internalType": "address",
                    "name": "initialOwner",
                    "type": "address"
                },
                {
                    "internalType": "string",
                    "name": "uri",
                    "type": "string"
                }
            ],
            "stateMutability": "nonpayable",
            "type": "constructor"
        },
        {
            "inputs": [
                {
                    "internalType": "address",
                    "name": "sender",
                    "type": "address"
                },
                {
                    "internalType": "uint256",
                    "name": "balance",
                    "type": "uint256"
                },
                {
                    "internalType": "uint256",
                    "name": "needed",
                    "type": "uint256"
                },
                {
                    "internalType": "uint256",
                    "name": "tokenId",
                    "type": "uint256"
                }
            ],
            "name": "ERC1155InsufficientBalance",
            "type": "error"
        },
        {
            "inputs": [
                {
                    "internalType": "address",
                    "name": "approver",
                    "type": "address"
                }
            ],
            "name": "ERC1155InvalidApprover",
            "type": "error"
        },
        {
            "inputs": [
                {
                    "internalType": "uint256",
                    "name": "idsLength",
                    "type": "uint256"
                },
                {
                    "internalType": "uint256",
                    "name": "valuesLength",
                    "type": "uint256"
                }
            ],
            "name": "ERC1155InvalidArrayLength",
            "type": "error"
        },
        {
            "inputs": [
                {
                    "internalType": "address",
                    "name": "operator",
                    "type": "address"
                }
            ],
            "name": "ERC1155InvalidOperator",
            "type": "error"
        },
        {
            "inputs": [
                {
                    "internalType": "address",
                    "name": "receiver",
                    "type": "address"
                }
            ],
            "name": "ERC1155InvalidReceiver",
            "type": "error"
        },
        {
            "inputs": [
                {
                    "internalType": "address",
                    "name": "sender",
                    "type": "address"
                }
            ],
            "name": "ERC1155InvalidSender",
            "type": "error"
        },
        {
            "inputs": [
                {
                    "internalType": "address",
                    "name": "operator",
                    "type": "address"
                },
                {
                    "internalType": "address",
                    "name": "owner",
                    "type": "address"
                }
            ],
            "name": "ERC1155MissingApprovalForAll",
            "type": "error"
        },
        {
            "inputs": [
                {
                    "internalType": "address",
                    "name": "owner",
                    "type": "address"
                }
            ],
            "name": "OwnableInvalidOwner",
            "type": "error"
        },
        {
            "inputs": [
                {
                    "internalType": "address",
                    "name": "account",
                    "type": "address"
                }
            ],
            "name": "OwnableUnauthorizedAccount",
            "type": "error"
        },
        {
            "anonymous": false,
            "inputs": [
                {
                    "indexed": true,
                    "internalType": "address",
                    "name": "account",
                    "type": "address"
                },
                {
                    "indexed": true,
                    "internalType": "address",
                    "name": "operator",
                    "type": "address"
                },
                {
                    "indexed": false,
                    "internalType": "bool",
                    "name": "approved",
                    "type": "bool"
                }
            ],
            "name": "ApprovalForAll",
            "type": "event"
        },
        {
            "anonymous": false,
            "inputs": [
                {
                    "indexed": true,
                    "internalType": "address",
                    "name": "previousOwner",
                    "type": "address"
                },
                {
                    "indexed": true,
                    "internalType": "address",
                    "name": "newOwner",
                    "type": "address"
                }
            ],
            "name": "OwnershipTransferred",
            "type": "event"
        },
        {
            "anonymous": false,
            "inputs": [
                {
                    "indexed": true,
                    "internalType": "address",
                    "name": "operator",
                    "type": "address"
                },
                {
                    "indexed": true,
                    "internalType": "address",
                    "name": "from",
                    "type": "address"
                },
                {
                    "indexed": true,
                    "internalType": "address",
                    "name": "to",
                    "type": "address"
                },
                {
                    "indexed": false,
                    "internalType": "uint256[]",
                    "name": "ids",
                    "type": "uint256[]"
                },
                {
                    "indexed": false,
                    "internalType": "uint256[]",
                    "name": "values",
                    "type": "uint256[]"
                }
            ],
            "name": "TransferBatch",
            "type": "event"
        },
        {
            "anonymous": false,
            "inputs": [
                {
                    "indexed": true,
                    "internalType": "address",
                    "name": "operator",
                    "type": "address"
                },
                {
                    "indexed": true,
                    "internalType": "address",
                    "name": "from",
                    "type": "address"
                },
                {
                    "indexed": true,
                    "internalType": "address",
                    "name": "to",
                    "type": "address"
                },
                {
                    "indexed": false,
                    "internalType": "uint256",
                    "name": "id",
                    "type": "uint256"
                },
                {
                    "indexed": false,
                    "internalType": "uint256",
                    "name": "value",
                    "type": "uint256"
                }
            ],
            "name": "TransferSingle",
            "type": "event"
        },
        {
            "anonymous": false,
            "inputs": [
                {
                    "indexed": false,
                    "internalType": "string",
                    "name": "value",
                    "type": "string"
                },
                {
                    "indexed": true,
                    "internalType": "uint256",
                    "name": "id",
                    "type": "uint256"
                }
            ],
            "name": "URI",
            "type": "event"
        },
        {
            "inputs": [],
            "name": "NEXT_BADGE_ID",
            "outputs": [
                {
                    "internalType": "uint256",
                    "name": "",
                    "type": "uint256"
                }
            ],
            "stateMutability": "view",
            "type": "function"
        },
        {
            "inputs": [
                {
                    "internalType": "uint256",
                    "name": "supply",
                    "type": "uint256"
                },
                {
                    "internalType": "string",
                    "name": "name",
                    "type": "string"
                }
            ],
            "name": "addNewBadge",
            "outputs": [],
            "stateMutability": "nonpayable",
            "type": "function"
        },
        {
            "inputs": [
                {
                    "internalType": "address",
                    "name": "to",
                    "type": "address"
                },
                {
                    "internalType": "uint256",
                    "name": "badgeId",
                    "type": "uint256"
                }
            ],
            "name": "awardBadge",
            "outputs": [],
            "stateMutability": "nonpayable",
            "type": "function"
        },
        {
            "inputs": [
                {
                    "internalType": "uint256",
                    "name": "",
                    "type": "uint256"
                }
            ],
            "name": "badgeNames",
            "outputs": [
                {
                    "internalType": "string",
                    "name": "",
                    "type": "string"
                }
            ],
            "stateMutability": "view",
            "type": "function"
        },
        {
            "inputs": [
                {
                    "internalType": "address",
                    "name": "account",
                    "type": "address"
                }
            ],
            "name": "badgesAwarded",
            "outputs": [
                {
                    "internalType": "uint256[]",
                    "name": "",
                    "type": "uint256[]"
                }
            ],
            "stateMutability": "view",
            "type": "function"
        },
        {
            "inputs": [
                {
                    "internalType": "address",
                    "name": "account",
                    "type": "address"
                },
                {
                    "internalType": "uint256",
                    "name": "id",
                    "type": "uint256"
                }
            ],
            "name": "balanceOf",
            "outputs": [
                {
                    "internalType": "uint256",
                    "name": "",
                    "type": "uint256"
                }
            ],
            "stateMutability": "view",
            "type": "function"
        },
        {
            "inputs": [
                {
                    "internalType": "address[]",
                    "name": "accounts",
                    "type": "address[]"
                },
                {
                    "internalType": "uint256[]",
                    "name": "ids",
                    "type": "uint256[]"
                }
            ],
            "name": "balanceOfBatch",
            "outputs": [
                {
                    "internalType": "uint256[]",
                    "name": "",
                    "type": "uint256[]"
                }
            ],
            "stateMutability": "view",
            "type": "function"
        },
        {
            "inputs": [
                {
                    "internalType": "address",
                    "name": "account",
                    "type": "address"
                },
                {
                    "internalType": "uint256",
                    "name": "badgeId",
                    "type": "uint256"
                }
            ],
            "name": "hasBadge",
            "outputs": [
                {
                    "internalType": "bool",
                    "name": "",
                    "type": "bool"
                }
            ],
            "stateMutability": "view",
            "type": "function"
        },
        {
            "inputs": [
                {
                    "internalType": "address",
                    "name": "account",
                    "type": "address"
                },
                {
                    "internalType": "address",
                    "name": "operator",
                    "type": "address"
                }
            ],
            "name": "isApprovedForAll",
            "outputs": [
                {
                    "internalType": "bool",
                    "name": "",
                    "type": "bool"
                }
            ],
            "stateMutability": "view",
            "type": "function"
        },
        {
            "inputs": [],
            "name": "owner",
            "outputs": [
                {
                    "internalType": "address",
                    "name": "",
                    "type": "address"
                }
            ],
            "stateMutability": "view",
            "type": "function"
        },
        {
            "inputs": [],
            "name": "renounceOwnership",
            "outputs": [],
            "stateMutability": "nonpayable",
            "type": "function"
        },
        {
            "inputs": [
                {
                    "internalType": "address",
                    "name": "from",
                    "type": "address"
                },
                {
                    "internalType": "address",
                    "name": "to",
                    "type": "address"
                },
                {
                    "internalType": "uint256[]",
                    "name": "ids",
                    "type": "uint256[]"
                },
                {
                    "internalType": "uint256[]",
                    "name": "values",
                    "type": "uint256[]"
                },
                {
                    "internalType": "bytes",
                    "name": "data",
                    "type": "bytes"
                }
            ],
            "name": "safeBatchTransferFrom",
            "outputs": [],
            "stateMutability": "nonpayable",
            "type": "function"
        },
        {
            "inputs": [
                {
                    "internalType": "address",
                    "name": "from",
                    "type": "address"
                },
                {
                    "internalType": "address",
                    "name": "to",
                    "type": "address"
                },
                {
                    "internalType": "uint256",
                    "name": "id",
                    "type": "uint256"
                },
                {
                    "internalType": "uint256",
                    "name": "value",
                    "type": "uint256"
                },
                {
                    "internalType": "bytes",
                    "name": "data",
                    "type": "bytes"
                }
            ],
            "name": "safeTransferFrom",
            "outputs": [],
            "stateMutability": "nonpayable",
            "type": "function"
        },
        {
            "inputs": [
                {
                    "internalType": "address",
                    "name": "operator",
                    "type": "address"
                },
                {
                    "internalType": "bool",
                    "name": "approved",
                    "type": "bool"
                }
            ],
            "name": "setApprovalForAll",
            "outputs": [],
            "stateMutability": "nonpayable",
            "type": "function"
        },
        {
            "inputs": [
                {
                    "internalType": "bytes4",
                    "name": "interfaceId",
                    "type": "bytes4"
                }
            ],
            "name": "supportsInterface",
            "outputs": [
                {
                    "internalType": "bool",
                    "name": "",
                    "type": "bool"
                }
            ],
            "stateMutability": "view",
            "type": "function"
        },
        {
            "inputs": [
                {
                    "internalType": "address",
                    "name": "newOwner",
                    "type": "address"
                }
            ],
            "name": "transferOwnership",
            "outputs": [],
            "stateMutability": "nonpayable",
            "type": "function"
        },
        {
            "inputs": [
                {
                    "internalType": "uint256",
                    "name": "badgeId",
                    "type": "uint256"
                },
                {
                    "internalType": "string",
                    "name": "newName",
                    "type": "string"
                }
            ],
            "name": "updateBadgeName",
            "outputs": [],
            "stateMutability": "nonpayable",
            "type": "function"
        },
        {
            "inputs": [
                {
                    "internalType": "uint256",
                    "name": "badgeId",
                    "type": "uint256"
                },
                {
                    "internalType": "uint256",
                    "name": "newSupply",
                    "type": "uint256"
                }
            ],
            "name": "updateSupply",
            "outputs": [],
            "stateMutability": "nonpayable",
            "type": "function"
        },
        {
            "inputs": [
                {
                    "internalType": "uint256",
                    "name": "",
                    "type": "uint256"
                }
            ],
            "name": "uri",
            "outputs": [
                {
                    "internalType": "string",
                    "name": "",
                    "type": "string"
                }
            ],
            "stateMutability": "view",
            "type": "function"
        }
    ],
    "bytecode": "0x608060405260006004553480156200001657600080fd5b50604051620045c2380380620045c283398181016040528101906200003c9190620010e5565b81816200004f81620003ad60201b60201c565b50600073ffffffffffffffffffffffffffffffffffffffff168173ffffffffffffffffffffffffffffffffffffffff1603620000c55760006040517f1e4fbdf7000000000000000000000000000000000000000000000000000000008152600401620000bc91906200115c565b60405180910390fd5b620000d681620003c260201b60201c565b506000612710905062000125816040518060400160405280600f81526020017f47657474696e67205374617274656400000000000000000000000000000000008152506200048860201b60201c565b6200016c816040518060400160405280601581526020017f5370726f7574696e6720616e20496e74657265737400000000000000000000008152506200048860201b60201c565b620001b3816040518060400160405280601281526020017f42756464696e67204e61747572616c69737400000000000000000000000000008152506200048860201b60201c565b620001fa816040518060400160405280600d81526020017f547261696c20547261636b6572000000000000000000000000000000000000008152506200048860201b60201c565b62000241816040518060400160405280600c81526020017f4b65656e205761746368657200000000000000000000000000000000000000008152506200048860201b60201c565b62000288816040518060400160405280600a81526020017f53686172702045796564000000000000000000000000000000000000000000008152506200048860201b60201c565b620002cf816040518060400160405280601081526020017f536561736f6e65642053706f74746572000000000000000000000000000000008152506200048860201b60201c565b62000316816040518060400160405280601381526020017f457870657269656e63656420547261636b6572000000000000000000000000008152506200048860201b60201c565b6200035d816040518060400160405280601a81526020017f54686520417274206f662053697474696e672051756965746c790000000000008152506200048860201b60201c565b620003a4816040518060400160405280600f81526020017f4d6173746572204f6273657276657200000000000000000000000000000000008152506200048860201b60201c565b505050620018b8565b8060029081620003be9190620013c4565b5050565b6000600360009054906101000a900473ffffffffffffffffffffffffffffffffffffffff16905081600360006101000a81548173ffffffffffffffffffffffffffffffffffffffff021916908373ffffffffffffffffffffffffffffffffffffffff1602179055508173ffffffffffffffffffffffffffffffffffffffff168173ffffffffffffffffffffffffffffffffffffffff167f8be0079c531659141344cd1fd0a4f28419497f9722a3daafe3b4186f6b6457e060405160405180910390a35050565b620004986200050060201b60201c565b620004bd306004548460405180602001604052806000815250620005a260201b60201c565b806005600060045481526020019081526020016000209081620004e19190620013c4565b5060046000815480929190620004f790620014da565b91905055505050565b620005106200064e60201b60201c565b73ffffffffffffffffffffffffffffffffffffffff16620005366200065660201b60201c565b73ffffffffffffffffffffffffffffffffffffffff1614620005a057620005626200064e60201b60201c565b6040517f118cdaa70000000000000000000000000000000000000000000000000000000081526004016200059791906200115c565b60405180910390fd5b565b600073ffffffffffffffffffffffffffffffffffffffff168473ffffffffffffffffffffffffffffffffffffffff1603620006175760006040517f57f447ce0000000000000000000000000000000000000000000000000000000081526004016200060e91906200115c565b60405180910390fd5b6000806200062c85856200068060201b60201c565b9150915062000646600087848487620006b060201b60201c565b505050505050565b600033905090565b6000600360009054906101000a900473ffffffffffffffffffffffffffffffffffffffff16905090565b60608060405191506001825283602083015260408201905060018152826020820152604081016040529250929050565b620006c4858585856200078960201b60201c565b600073ffffffffffffffffffffffffffffffffffffffff168473ffffffffffffffffffffffffffffffffffffffff1614620007825760006200070b6200064e60201b60201c565b90506001845103620007695760006200072f60008662000b5360201b90919060201c565b905060006200074960008662000b5360201b90919060201c565b90506200076183898985858962000b6760201b60201c565b505062000780565b6200077f81878787878762000d2a60201b60201c565b5b505b5050505050565b8051825114620007d657815181516040517f5b059991000000000000000000000000000000000000000000000000000000008152600401620007cd92919062001538565b60405180910390fd5b6000620007e86200064e60201b60201c565b905060005b835181101562000a045760006200080e828662000b5360201b90919060201c565b9050600062000827838662000b5360201b90919060201c565b9050600073ffffffffffffffffffffffffffffffffffffffff168873ffffffffffffffffffffffffffffffffffffffff16146200095857600080600084815260200190815260200160002060008a73ffffffffffffffffffffffffffffffffffffffff1673ffffffffffffffffffffffffffffffffffffffff168152602001908152602001600020549050818110156200090057888183856040517f03dee4c5000000000000000000000000000000000000000000000000000000008152600401620008f7949392919062001565565b60405180910390fd5b81810360008085815260200190815260200160002060008b73ffffffffffffffffffffffffffffffffffffffff1673ffffffffffffffffffffffffffffffffffffffff16815260200190815260200160002081905550505b600073ffffffffffffffffffffffffffffffffffffffff168773ffffffffffffffffffffffffffffffffffffffff1614620009f6578060008084815260200190815260200160002060008973ffffffffffffffffffffffffffffffffffffffff1673ffffffffffffffffffffffffffffffffffffffff1681526020019081526020016000206000828254620009ee9190620015b2565b925050819055505b5050806001019050620007ed565b50600183510362000acb57600062000a2760008562000b5360201b90919060201c565b9050600062000a4160008562000b5360201b90919060201c565b90508573ffffffffffffffffffffffffffffffffffffffff168773ffffffffffffffffffffffffffffffffffffffff168473ffffffffffffffffffffffffffffffffffffffff167fc3d58168c5ae7397731d063d5bbf3d657854427343f4c083240f7aacaa2d0f62858560405162000abb92919062001538565b60405180910390a4505062000b4c565b8373ffffffffffffffffffffffffffffffffffffffff168573ffffffffffffffffffffffffffffffffffffffff168273ffffffffffffffffffffffffffffffffffffffff167f4a39dc06d4c0dbc64b70af90fd698a233a518aa5d07e595d983b8c0526c8f7fb868660405162000b43929190620016bb565b60405180910390a45b5050505050565b600060208202602084010151905092915050565b60008473ffffffffffffffffffffffffffffffffffffffff163b111562000d22578373ffffffffffffffffffffffffffffffffffffffff1663f23a6e6187878686866040518663ffffffff1660e01b815260040162000bcb95949392919062001753565b6020604051808303816000875af192505050801562000c0a57506040513d601f19601f8201168201806040525081019062000c07919062001814565b60015b62000c94573d806000811462000c3d576040519150601f19603f3d011682016040523d82523d6000602084013e62000c42565b606091505b50600081510362000c8c57846040517f57f447ce00000000000000000000000000000000000000000000000000000000815260040162000c8391906200115c565b60405180910390fd5b805181602001fd5b63f23a6e6160e01b7bffffffffffffffffffffffffffffffffffffffffffffffffffffffff1916817bffffffffffffffffffffffffffffffffffffffffffffffffffffffff19161462000d2057846040517f57f447ce00000000000000000000000000000000000000000000000000000000815260040162000d1791906200115c565b60405180910390fd5b505b505050505050565b60008473ffffffffffffffffffffffffffffffffffffffff163b111562000ee5578373ffffffffffffffffffffffffffffffffffffffff1663bc197c8187878686866040518663ffffffff1660e01b815260040162000d8e95949392919062001846565b6020604051808303816000875af192505050801562000dcd57506040513d601f19601f8201168201806040525081019062000dca919062001814565b60015b62000e57573d806000811462000e00576040519150601f19603f3d011682016040523d82523d6000602084013e62000e05565b606091505b50600081510362000e4f57846040517f57f447ce00000000000000000000000000000000000000000000000000000000815260040162000e4691906200115c565b60405180910390fd5b805181602001fd5b63bc197c8160e01b7bffffffffffffffffffffffffffffffffffffffffffffffffffffffff1916817bffffffffffffffffffffffffffffffffffffffffffffffffffffffff19161462000ee357846040517f57f447ce00000000000000000000000000000000000000000000000000000000815260040162000eda91906200115c565b60405180910390fd5b505b505050505050565b6000604051905090565b600080fd5b600080fd5b600073ffffffffffffffffffffffffffffffffffffffff82169050919050565b600062000f2e8262000f01565b9050919050565b62000f408162000f21565b811462000f4c57600080fd5b50565b60008151905062000f608162000f35565b92915050565b600080fd5b600080fd5b6000601f19601f8301169050919050565b7f4e487b7100000000000000000000000000000000000000000000000000000000600052604160045260246000fd5b62000fbb8262000f70565b810181811067ffffffffffffffff8211171562000fdd5762000fdc62000f81565b5b80604052505050565b600062000ff262000eed565b905062001000828262000fb0565b919050565b600067ffffffffffffffff82111562001023576200102262000f81565b5b6200102e8262000f70565b9050602081019050919050565b60005b838110156200105b5780820151818401526020810190506200103e565b60008484015250505050565b60006200107e620010788462001005565b62000fe6565b9050828152602081018484840111156200109d576200109c62000f6b565b5b620010aa8482856200103b565b509392505050565b600082601f830112620010ca57620010c962000f66565b5b8151620010dc84826020860162001067565b91505092915050565b60008060408385031215620010ff57620010fe62000ef7565b5b60006200110f8582860162000f4f565b925050602083015167ffffffffffffffff81111562001133576200113262000efc565b5b6200114185828601620010b2565b9150509250929050565b620011568162000f21565b82525050565b60006020820190506200117360008301846200114b565b92915050565b600081519050919050565b7f4e487b7100000000000000000000000000000000000000000000000000000000600052602260045260246000fd5b60006002820490506001821680620011cc57607f821691505b602082108103620011e257620011e162001184565b5b50919050565b60008190508160005260206000209050919050565b60006020601f8301049050919050565b600082821b905092915050565b6000600883026200124c7fffffffffffffffffffffffffffffffffffffffffffffffffffffffffffffffff826200120d565b6200125886836200120d565b95508019841693508086168417925050509392505050565b6000819050919050565b6000819050919050565b6000620012a56200129f620012998462001270565b6200127a565b62001270565b9050919050565b6000819050919050565b620012c18362001284565b620012d9620012d082620012ac565b8484546200121a565b825550505050565b600090565b620012f0620012e1565b620012fd818484620012b6565b505050565b5b81811015620013255762001319600082620012e6565b60018101905062001303565b5050565b601f82111562001374576200133e81620011e8565b6200134984620011fd565b8101602085101562001359578190505b620013716200136885620011fd565b83018262001302565b50505b505050565b600082821c905092915050565b6000620013996000198460080262001379565b1980831691505092915050565b6000620013b4838362001386565b9150826002028217905092915050565b620013cf8262001179565b67ffffffffffffffff811115620013eb57620013ea62000f81565b5b620013f78254620011b3565b6200140482828562001329565b600060209050601f8311600181146200143c576000841562001427578287015190505b620014338582620013a6565b865550620014a3565b601f1984166200144c86620011e8565b60005b8281101562001476578489015182556001820191506020850194506020810190506200144f565b8683101562001496578489015162001492601f89168262001386565b8355505b6001600288020188555050505b505050505050565b7f4e487b7100000000000000000000000000000000000000000000000000000000600052601160045260246000fd5b6000620014e78262001270565b91507fffffffffffffffffffffffffffffffffffffffffffffffffffffffffffffffff82036200151c576200151b620014ab565b5b600182019050919050565b620015328162001270565b82525050565b60006040820190506200154f600083018562001527565b6200155e602083018462001527565b9392505050565b60006080820190506200157c60008301876200114b565b6200158b602083018662001527565b6200159a604083018562001527565b620015a9606083018462001527565b95945050505050565b6000620015bf8262001270565b9150620015cc8362001270565b9250828201905080821115620015e757620015e6620014ab565b5b92915050565b600081519050919050565b600082825260208201905092915050565b6000819050602082019050919050565b620016248162001270565b82525050565b600062001638838362001619565b60208301905092915050565b6000602082019050919050565b60006200165e82620015ed565b6200166a8185620015f8565b9350620016778362001609565b8060005b83811015620016ae5781516200169288826200162a565b97506200169f8362001644565b9250506001810190506200167b565b5085935050505092915050565b60006040820190508181036000830152620016d7818562001651565b90508181036020830152620016ed818462001651565b90509392505050565b600081519050919050565b600082825260208201905092915050565b60006200171f82620016f6565b6200172b818562001701565b93506200173d8185602086016200103b565b620017488162000f70565b840191505092915050565b600060a0820190506200176a60008301886200114b565b6200177960208301876200114b565b62001788604083018662001527565b62001797606083018562001527565b8181036080830152620017ab818462001712565b90509695505050505050565b60007fffffffff0000000000000000000000000000000000000000000000000000000082169050919050565b620017ee81620017b7565b8114620017fa57600080fd5b50565b6000815190506200180e81620017e3565b92915050565b6000602082840312156200182d576200182c62000ef7565b5b60006200183d84828501620017fd565b91505092915050565b600060a0820190506200185d60008301886200114b565b6200186c60208301876200114b565b818103604083015262001880818662001651565b9050818103606083015262001896818562001651565b90508181036080830152620018ac818462001712565b90509695505050505050565b612cfa80620018c86000396000f3fe608060405234801561001057600080fd5b50600436106101205760003560e01c8063715018a6116100ad578063d9983b4911610071578063d9983b4914610317578063e985e9c514610347578063f242432a14610377578063f2fde38b14610393578063f9007a48146103af57610120565b8063715018a61461029b5780638da5cb5b146102a55780639e2dcbfd146102c3578063a22cb465146102df578063d3abac03146102fb57610120565b806317872b21116100f457806317872b21146101d357806324378f3c146101ef5780632eb2c2d61461021f5780634c6a70ce1461023b5780634e1273f41461026b57610120565b8062fdd58e1461012557806301ffc9a7146101555780630e89341c1461018557806311304728146101b5575b600080fd5b61013f600480360381019061013a9190611c43565b6103cb565b60405161014c9190611c92565b60405180910390f35b61016f600480360381019061016a9190611d05565b610425565b60405161017c9190611d4d565b60405180910390f35b61019f600480360381019061019a9190611d68565b610507565b6040516101ac9190611e25565b60405180910390f35b6101bd61059b565b6040516101ca9190611c92565b60405180910390f35b6101ed60048036038101906101e89190611c43565b6105a1565b005b61020960048036038101906102049190611e47565b6106ed565b6040516102169190611f32565b60405180910390f35b61023960048036038101906102349190612151565b610792565b005b61025560048036038101906102509190611c43565b61083a565b6040516102629190611d4d565b60405180910390f35b610285600480360381019061028091906122e3565b610850565b6040516102929190611f32565b60405180910390f35b6102a3610959565b005b6102ad61096d565b6040516102ba919061236a565b60405180910390f35b6102dd60048036038101906102d89190612385565b610997565b005b6102f960048036038101906102f491906123f1565b6109be565b005b610315600480360381019061031091906124d2565b6109d4565b005b610331600480360381019061032c9190611d68565b610a01565b60405161033e9190611e25565b60405180910390f35b610361600480360381019061035c919061252e565b610aa1565b60405161036e9190611d4d565b60405180910390f35b610391600480360381019061038c919061256e565b610b35565b005b6103ad60048036038101906103a89190611e47565b610bdd565b005b6103c960048036038101906103c491906124d2565b610c63565b005b600080600083815260200190815260200160002060008473ffffffffffffffffffffffffffffffffffffffff1673ffffffffffffffffffffffffffffffffffffffff16815260200190815260200160002054905092915050565b60007fd9b67a26000000000000000000000000000000000000000000000000000000007bffffffffffffffffffffffffffffffffffffffffffffffffffffffff1916827bffffffffffffffffffffffffffffffffffffffffffffffffffffffff191614806104f057507f0e89341c000000000000000000000000000000000000000000000000000000007bffffffffffffffffffffffffffffffffffffffffffffffffffffffff1916827bffffffffffffffffffffffffffffffffffffffffffffffffffffffff1916145b8061050057506104ff82610cc7565b5b9050919050565b60606002805461051690612634565b80601f016020809104026020016040519081016040528092919081815260200182805461054290612634565b801561058f5780601f106105645761010080835404028352916020019161058f565b820191906000526020600020905b81548152906001019060200180831161057257829003601f168201915b50505050509050919050565b60045481565b600015156105af838361083a565b1515146105f1576040517f08c379a00000000000000000000000000000000000000000000000000000000081526004016105e8906126b1565b60405180910390fd5b6106cc6040518060400160405280601781526020017f4177617264696e6720626164676520257320746f20257300000000000000000081525060056000848152602001908152602001600020805461064890612634565b80601f016020809104026020016040519081016040528092919081815260200182805461067490612634565b80156106c15780601f10610696576101008083540402835291602001916106c1565b820191906000526020600020905b8154815290600101906020018083116106a457829003601f168201915b505050505084610d31565b6106e9308383600160405180602001604052806000815250610dd0565b5050565b6060600060045467ffffffffffffffff81111561070d5761070c611f59565b5b60405190808252806020026020018201604052801561073b5781602001602082028036833780820191505090505b50905060005b60045481101561078857610755848261083a565b1561077b578082828151811061076e5761076d6126d1565b5b6020026020010181815250505b8080600101915050610741565b5080915050919050565b600061079c610edb565b90508073ffffffffffffffffffffffffffffffffffffffff168673ffffffffffffffffffffffffffffffffffffffff16141580156107e157506107df8682610aa1565b155b156108255780866040517fe237d92200000000000000000000000000000000000000000000000000000000815260040161081c929190612700565b60405180910390fd5b6108328686868686610ee3565b505050505050565b60008061084784846103cb565b11905092915050565b6060815183511461089c57815183516040517f5b059991000000000000000000000000000000000000000000000000000000008152600401610893929190612729565b60405180910390fd5b6000835167ffffffffffffffff8111156108b9576108b8611f59565b5b6040519080825280602002602001820160405280156108e75781602001602082028036833780820191505090505b50905060005b845181101561094e5761092461090c8287610fdb90919063ffffffff16565b61091f8387610fef90919063ffffffff16565b6103cb565b828281518110610937576109366126d1565b5b6020026020010181815250508060010190506108ed565b508091505092915050565b610961611003565b61096b600061108a565b565b6000600360009054906101000a900473ffffffffffffffffffffffffffffffffffffffff16905090565b61099f611003565b6109ba33838360405180602001604052806000815250611150565b5050565b6109d06109c9610edb565b83836111e9565b5050565b6109dc611003565b806005600084815260200190815260200160002090816109fc91906128fe565b505050565b60056020528060005260406000206000915090508054610a2090612634565b80601f0160208091040260200160405190810160405280929190818152602001828054610a4c90612634565b8015610a995780601f10610a6e57610100808354040283529160200191610a99565b820191906000526020600020905b815481529060010190602001808311610a7c57829003601f168201915b505050505081565b6000600160008473ffffffffffffffffffffffffffffffffffffffff1673ffffffffffffffffffffffffffffffffffffffff16815260200190815260200160002060008373ffffffffffffffffffffffffffffffffffffffff1673ffffffffffffffffffffffffffffffffffffffff16815260200190815260200160002060009054906101000a900460ff16905092915050565b6000610b3f610edb565b90508073ffffffffffffffffffffffffffffffffffffffff168673ffffffffffffffffffffffffffffffffffffffff1614158015610b845750610b828682610aa1565b155b15610bc85780866040517fe237d922000000000000000000000000000000000000000000000000000000008152600401610bbf929190612700565b60405180910390fd5b610bd58686868686610dd0565b505050505050565b610be5611003565b600073ffffffffffffffffffffffffffffffffffffffff168173ffffffffffffffffffffffffffffffffffffffff1603610c575760006040517f1e4fbdf7000000000000000000000000000000000000000000000000000000008152600401610c4e919061236a565b60405180910390fd5b610c608161108a565b50565b610c6b611003565b610c88306004548460405180602001604052806000815250611150565b806005600060045481526020019081526020016000209081610caa91906128fe565b5060046000815480929190610cbe906129ff565b91905055505050565b60007f01ffc9a7000000000000000000000000000000000000000000000000000000007bffffffffffffffffffffffffffffffffffffffffffffffffffffffff1916827bffffffffffffffffffffffffffffffffffffffffffffffffffffffff1916149050919050565b610dcb838383604051602401610d4993929190612a47565b6040516020818303038152906040527f95ed0195000000000000000000000000000000000000000000000000000000007bffffffffffffffffffffffffffffffffffffffffffffffffffffffff19166020820180517bffffffffffffffffffffffffffffffffffffffffffffffffffffffff8381831617835250505050611359565b505050565b600073ffffffffffffffffffffffffffffffffffffffff168473ffffffffffffffffffffffffffffffffffffffff1603610e425760006040517f57f447ce000000000000000000000000000000000000000000000000000000008152600401610e39919061236a565b60405180910390fd5b600073ffffffffffffffffffffffffffffffffffffffff168573ffffffffffffffffffffffffffffffffffffffff1603610eb45760006040517f01a83514000000000000000000000000000000000000000000000000000000008152600401610eab919061236a565b60405180910390fd5b600080610ec18585611373565b91509150610ed287878484876113a3565b50505050505050565b600033905090565b600073ffffffffffffffffffffffffffffffffffffffff168473ffffffffffffffffffffffffffffffffffffffff1603610f555760006040517f57f447ce000000000000000000000000000000000000000000000000000000008152600401610f4c919061236a565b60405180910390fd5b600073ffffffffffffffffffffffffffffffffffffffff168573ffffffffffffffffffffffffffffffffffffffff1603610fc75760006040517f01a83514000000000000000000000000000000000000000000000000000000008152600401610fbe919061236a565b60405180910390fd5b610fd485858585856113a3565b5050505050565b600060208202602084010151905092915050565b600060208202602084010151905092915050565b61100b610edb565b73ffffffffffffffffffffffffffffffffffffffff1661102961096d565b73ffffffffffffffffffffffffffffffffffffffff16146110885761104c610edb565b6040517f118cdaa700000000000000000000000000000000000000000000000000000000815260040161107f919061236a565b60405180910390fd5b565b6000600360009054906101000a900473ffffffffffffffffffffffffffffffffffffffff16905081600360006101000a81548173ffffffffffffffffffffffffffffffffffffffff021916908373ffffffffffffffffffffffffffffffffffffffff1602179055508173ffffffffffffffffffffffffffffffffffffffff168173ffffffffffffffffffffffffffffffffffffffff167f8be0079c531659141344cd1fd0a4f28419497f9722a3daafe3b4186f6b6457e060405160405180910390a35050565b600073ffffffffffffffffffffffffffffffffffffffff168473ffffffffffffffffffffffffffffffffffffffff16036111c25760006040517f57f447ce0000000000000000000000000000000000000000000000000000000081526004016111b9919061236a565b60405180910390fd5b6000806111cf8585611373565b915091506111e16000878484876113a3565b505050505050565b600073ffffffffffffffffffffffffffffffffffffffff168273ffffffffffffffffffffffffffffffffffffffff160361125b5760006040517fced3e100000000000000000000000000000000000000000000000000000000008152600401611252919061236a565b60405180910390fd5b80600160008573ffffffffffffffffffffffffffffffffffffffff1673ffffffffffffffffffffffffffffffffffffffff16815260200190815260200160002060008473ffffffffffffffffffffffffffffffffffffffff1673ffffffffffffffffffffffffffffffffffffffff16815260200190815260200160002060006101000a81548160ff0219169083151502179055508173ffffffffffffffffffffffffffffffffffffffff168373ffffffffffffffffffffffffffffffffffffffff167f17307eab39ab6107e8899845ad3d59bd9653f200f220920489ca2b5937696c318360405161134c9190611d4d565b60405180910390a3505050565b61137081611368611455611476565b63ffffffff16565b50565b60608060405191506001825283602083015260408201905060018152826020820152604081016040529250929050565b6113af85858585611481565b600073ffffffffffffffffffffffffffffffffffffffff168473ffffffffffffffffffffffffffffffffffffffff161461144e5760006113ed610edb565b9050600184510361143d57600061140e600086610fef90919063ffffffff16565b90506000611426600086610fef90919063ffffffff16565b9050611436838989858589611829565b505061144c565b61144b8187878787876119dd565b5b505b5050505050565b60006a636f6e736f6c652e6c6f679050600080835160208501845afa505050565b611b91819050919050565b80518251146114cb57815181516040517f5b0599910000000000000000000000000000000000000000000000000000000081526004016114c2929190612729565b60405180910390fd5b60006114d5610edb565b905060005b83518110156116e45760006114f88286610fef90919063ffffffff16565b9050600061150f8386610fef90919063ffffffff16565b9050600073ffffffffffffffffffffffffffffffffffffffff168873ffffffffffffffffffffffffffffffffffffffff161461163c57600080600084815260200190815260200160002060008a73ffffffffffffffffffffffffffffffffffffffff1673ffffffffffffffffffffffffffffffffffffffff168152602001908152602001600020549050818110156115e457888183856040517f03dee4c50000000000000000000000000000000000000000000000000000000081526004016115db9493929190612a8c565b60405180910390fd5b81810360008085815260200190815260200160002060008b73ffffffffffffffffffffffffffffffffffffffff1673ffffffffffffffffffffffffffffffffffffffff16815260200190815260200160002081905550505b600073ffffffffffffffffffffffffffffffffffffffff168773ffffffffffffffffffffffffffffffffffffffff16146116d7578060008084815260200190815260200160002060008973ffffffffffffffffffffffffffffffffffffffff1673ffffffffffffffffffffffffffffffffffffffff16815260200190815260200160002060008282546116cf9190612ad1565b925050819055505b50508060010190506114da565b5060018351036117a3576000611704600085610fef90919063ffffffff16565b9050600061171c600085610fef90919063ffffffff16565b90508573ffffffffffffffffffffffffffffffffffffffff168773ffffffffffffffffffffffffffffffffffffffff168473ffffffffffffffffffffffffffffffffffffffff167fc3d58168c5ae7397731d063d5bbf3d657854427343f4c083240f7aacaa2d0f628585604051611794929190612729565b60405180910390a45050611822565b8373ffffffffffffffffffffffffffffffffffffffff168573ffffffffffffffffffffffffffffffffffffffff168273ffffffffffffffffffffffffffffffffffffffff167f4a39dc06d4c0dbc64b70af90fd698a233a518aa5d07e595d983b8c0526c8f7fb8686604051611819929190612b05565b60405180910390a45b5050505050565b60008473ffffffffffffffffffffffffffffffffffffffff163b11156119d5578373ffffffffffffffffffffffffffffffffffffffff1663f23a6e6187878686866040518663ffffffff1660e01b815260040161188a959493929190612b91565b6020604051808303816000875af19250505080156118c657506040513d601f19601f820116820180604052508101906118c39190612c00565b60015b61194a573d80600081146118f6576040519150601f19603f3d011682016040523d82523d6000602084013e6118fb565b606091505b50600081510361194257846040517f57f447ce000000000000000000000000000000000000000000000000000000008152600401611939919061236a565b60405180910390fd5b805181602001fd5b63f23a6e6160e01b7bffffffffffffffffffffffffffffffffffffffffffffffffffffffff1916817bffffffffffffffffffffffffffffffffffffffffffffffffffffffff1916146119d357846040517f57f447ce0000000000000000000000000000000000000000000000000000000081526004016119ca919061236a565b60405180910390fd5b505b505050505050565b60008473ffffffffffffffffffffffffffffffffffffffff163b1115611b89578373ffffffffffffffffffffffffffffffffffffffff1663bc197c8187878686866040518663ffffffff1660e01b8152600401611a3e959493929190612c2d565b6020604051808303816000875af1925050508015611a7a57506040513d601f19601f82011682018060405250810190611a779190612c00565b60015b611afe573d8060008114611aaa576040519150601f19603f3d011682016040523d82523d6000602084013e611aaf565b606091505b506000815103611af657846040517f57f447ce000000000000000000000000000000000000000000000000000000008152600401611aed919061236a565b60405180910390fd5b805181602001fd5b63bc197c8160e01b7bffffffffffffffffffffffffffffffffffffffffffffffffffffffff1916817bffffffffffffffffffffffffffffffffffffffffffffffffffffffff191614611b8757846040517f57f447ce000000000000000000000000000000000000000000000000000000008152600401611b7e919061236a565b60405180910390fd5b505b505050505050565b611b99612c95565b565b6000604051905090565b600080fd5b600080fd5b600073ffffffffffffffffffffffffffffffffffffffff82169050919050565b6000611bda82611baf565b9050919050565b611bea81611bcf565b8114611bf557600080fd5b50565b600081359050611c0781611be1565b92915050565b6000819050919050565b611c2081611c0d565b8114611c2b57600080fd5b50565b600081359050611c3d81611c17565b92915050565b60008060408385031215611c5a57611c59611ba5565b5b6000611c6885828601611bf8565b9250506020611c7985828601611c2e565b9150509250929050565b611c8c81611c0d565b82525050565b6000602082019050611ca76000830184611c83565b92915050565b60007fffffffff0000000000000000000000000000000000000000000000000000000082169050919050565b611ce281611cad565b8114611ced57600080fd5b50565b600081359050611cff81611cd9565b92915050565b600060208284031215611d1b57611d1a611ba5565b5b6000611d2984828501611cf0565b91505092915050565b60008115159050919050565b611d4781611d32565b82525050565b6000602082019050611d626000830184611d3e565b92915050565b600060208284031215611d7e57611d7d611ba5565b5b6000611d8c84828501611c2e565b91505092915050565b600081519050919050565b600082825260208201905092915050565b60005b83811015611dcf578082015181840152602081019050611db4565b60008484015250505050565b6000601f19601f8301169050919050565b6000611df782611d95565b611e018185611da0565b9350611e11818560208601611db1565b611e1a81611ddb565b840191505092915050565b60006020820190508181036000830152611e3f8184611dec565b905092915050565b600060208284031215611e5d57611e5c611ba5565b5b6000611e6b84828501611bf8565b91505092915050565b600081519050919050565b600082825260208201905092915050565b6000819050602082019050919050565b611ea981611c0d565b82525050565b6000611ebb8383611ea0565b60208301905092915050565b6000602082019050919050565b6000611edf82611e74565b611ee98185611e7f565b9350611ef483611e90565b8060005b83811015611f25578151611f0c8882611eaf565b9750611f1783611ec7565b925050600181019050611ef8565b5085935050505092915050565b60006020820190508181036000830152611f4c8184611ed4565b905092915050565b600080fd5b7f4e487b7100000000000000000000000000000000000000000000000000000000600052604160045260246000fd5b611f9182611ddb565b810181811067ffffffffffffffff82111715611fb057611faf611f59565b5b80604052505050565b6000611fc3611b9b565b9050611fcf8282611f88565b919050565b600067ffffffffffffffff821115611fef57611fee611f59565b5b602082029050602081019050919050565b600080fd5b600061201861201384611fd4565b611fb9565b9050808382526020820190506020840283018581111561203b5761203a612000565b5b835b8181101561206457806120508882611c2e565b84526020840193505060208101905061203d565b5050509392505050565b600082601f83011261208357612082611f54565b5b8135612093848260208601612005565b91505092915050565b600080fd5b600067ffffffffffffffff8211156120bc576120bb611f59565b5b6120c582611ddb565b9050602081019050919050565b82818337600083830152505050565b60006120f46120ef846120a1565b611fb9565b9050828152602081018484840111156121105761210f61209c565b5b61211b8482856120d2565b509392505050565b600082601f83011261213857612137611f54565b5b81356121488482602086016120e1565b91505092915050565b600080600080600060a0868803121561216d5761216c611ba5565b5b600061217b88828901611bf8565b955050602061218c88828901611bf8565b945050604086013567ffffffffffffffff8111156121ad576121ac611baa565b5b6121b98882890161206e565b935050606086013567ffffffffffffffff8111156121da576121d9611baa565b5b6121e68882890161206e565b925050608086013567ffffffffffffffff81111561220757612206611baa565b5b61221388828901612123565b9150509295509295909350565b600067ffffffffffffffff82111561223b5761223a611f59565b5b602082029050602081019050919050565b600061225f61225a84612220565b611fb9565b9050808382526020820190506020840283018581111561228257612281612000565b5b835b818110156122ab57806122978882611bf8565b845260208401935050602081019050612284565b5050509392505050565b600082601f8301126122ca576122c9611f54565b5b81356122da84826020860161224c565b91505092915050565b600080604083850312156122fa576122f9611ba5565b5b600083013567ffffffffffffffff81111561231857612317611baa565b5b612324858286016122b5565b925050602083013567ffffffffffffffff81111561234557612344611baa565b5b6123518582860161206e565b9150509250929050565b61236481611bcf565b82525050565b600060208201905061237f600083018461235b565b92915050565b6000806040838503121561239c5761239b611ba5565b5b60006123aa85828601611c2e565b92505060206123bb85828601611c2e565b9150509250929050565b6123ce81611d32565b81146123d957600080fd5b50565b6000813590506123eb816123c5565b92915050565b6000806040838503121561240857612407611ba5565b5b600061241685828601611bf8565b9250506020612427858286016123dc565b9150509250929050565b600067ffffffffffffffff82111561244c5761244b611f59565b5b61245582611ddb565b9050602081019050919050565b600061247561247084612431565b611fb9565b9050828152602081018484840111156124915761249061209c565b5b61249c8482856120d2565b509392505050565b600082601f8301126124b9576124b8611f54565b5b81356124c9848260208601612462565b91505092915050565b600080604083850312156124e9576124e8611ba5565b5b60006124f785828601611c2e565b925050602083013567ffffffffffffffff81111561251857612517611baa565b5b612524858286016124a4565b9150509250929050565b6000806040838503121561254557612544611ba5565b5b600061255385828601611bf8565b925050602061256485828601611bf8565b9150509250929050565b600080600080600060a0868803121561258a57612589611ba5565b5b600061259888828901611bf8565b95505060206125a988828901611bf8565b94505060406125ba88828901611c2e565b93505060606125cb88828901611c2e565b925050608086013567ffffffffffffffff8111156125ec576125eb611baa565b5b6125f888828901612123565b9150509295509295909350565b7f4e487b7100000000000000000000000000000000000000000000000000000000600052602260045260246000fd5b6000600282049050600182168061264c57607f821691505b60208210810361265f5761265e612605565b5b50919050565b7f426164676520616c726561647920617761726465640000000000000000000000600082015250565b600061269b601583611da0565b91506126a682612665565b602082019050919050565b600060208201905081810360008301526126ca8161268e565b9050919050565b7f4e487b7100000000000000000000000000000000000000000000000000000000600052603260045260246000fd5b6000604082019050612715600083018561235b565b612722602083018461235b565b9392505050565b600060408201905061273e6000830185611c83565b61274b6020830184611c83565b9392505050565b60008190508160005260206000209050919050565b60006020601f8301049050919050565b600082821b905092915050565b6000600883026127b47fffffffffffffffffffffffffffffffffffffffffffffffffffffffffffffffff82612777565b6127be8683612777565b95508019841693508086168417925050509392505050565b6000819050919050565b60006127fb6127f66127f184611c0d565b6127d6565b611c0d565b9050919050565b6000819050919050565b612815836127e0565b61282961282182612802565b848454612784565b825550505050565b600090565b61283e612831565b61284981848461280c565b505050565b5b8181101561286d57612862600082612836565b60018101905061284f565b5050565b601f8211156128b25761288381612752565b61288c84612767565b8101602085101561289b578190505b6128af6128a785612767565b83018261284e565b50505b505050565b600082821c905092915050565b60006128d5600019846008026128b7565b1980831691505092915050565b60006128ee83836128c4565b9150826002028217905092915050565b61290782611d95565b67ffffffffffffffff8111156129205761291f611f59565b5b61292a8254612634565b612935828285612871565b600060209050601f8311600181146129685760008415612956578287015190505b61296085826128e2565b8655506129c8565b601f19841661297686612752565b60005b8281101561299e57848901518255600182019150602085019450602081019050612979565b868310156129bb57848901516129b7601f8916826128c4565b8355505b6001600288020188555050505b505050505050565b7f4e487b7100000000000000000000000000000000000000000000000000000000600052601160045260246000fd5b6000612a0a82611c0d565b91507fffffffffffffffffffffffffffffffffffffffffffffffffffffffffffffffff8203612a3c57612a3b6129d0565b5b600182019050919050565b60006060820190508181036000830152612a618186611dec565b90508181036020830152612a758185611dec565b9050612a84604083018461235b565b949350505050565b6000608082019050612aa1600083018761235b565b612aae6020830186611c83565b612abb6040830185611c83565b612ac86060830184611c83565b95945050505050565b6000612adc82611c0d565b9150612ae783611c0d565b9250828201905080821115612aff57612afe6129d0565b5b92915050565b60006040820190508181036000830152612b1f8185611ed4565b90508181036020830152612b338184611ed4565b90509392505050565b600081519050919050565b600082825260208201905092915050565b6000612b6382612b3c565b612b6d8185612b47565b9350612b7d818560208601611db1565b612b8681611ddb565b840191505092915050565b600060a082019050612ba6600083018861235b565b612bb3602083018761235b565b612bc06040830186611c83565b612bcd6060830185611c83565b8181036080830152612bdf8184612b58565b90509695505050505050565b600081519050612bfa81611cd9565b92915050565b600060208284031215612c1657612c15611ba5565b5b6000612c2484828501612beb565b91505092915050565b600060a082019050612c42600083018861235b565b612c4f602083018761235b565b8181036040830152612c618186611ed4565b90508181036060830152612c758185611ed4565b90508181036080830152612c898184612b58565b90509695505050505050565b7f4e487b7100000000000000000000000000000000000000000000000000000000600052605160045260246000fdfea2646970667358221220063f499eef9d73cc929fcea747fd37d26fea44855a4f7626e1dddec1d4cfe2a964736f6c63430008180033",
    "linkReferences": {},
    "deployedLinkReferences": {}
}