{
  "_format": "hh-sol-artifact-1",
  "contractName": "Observation",
  "sourceName": "contracts/Observation.sol",
  "abi": [
    {
      "inputs": [
        {
          "internalType": "address",
          "name": "initialOwner",
          "type": "address"
        },
        {
          "internalType": "string",
          "name": "initialBaseURI",
          "type": "string"
        },
        {
          "internalType": "address",
          "name": "gardenAuthContractAddress",
          "type": "address"
        },
        {
          "internalType": "address",
          "name": "badgeContractAddress",
          "type": "address"
        }
      ],
      "stateMutability": "nonpayable",
      "type": "constructor"
    },
    {
      "inputs": [],
      "name": "ERC721EnumerableForbiddenBatchMint",
      "type": "error"
    },
    {
      "inputs": [
        {
          "internalType": "address",
          "name": "sender",
          "type": "address"
        },
        {
          "internalType": "uint256",
          "name": "tokenId",
          "type": "uint256"
        },
        {
          "internalType": "address",
          "name": "owner",
          "type": "address"
        }
      ],
      "name": "ERC721IncorrectOwner",
      "type": "error"
    },
    {
      "inputs": [
        {
          "internalType": "address",
          "name": "operator",
          "type": "address"
        },
        {
          "internalType": "uint256",
          "name": "tokenId",
          "type": "uint256"
        }
      ],
      "name": "ERC721InsufficientApproval",
      "type": "error"
    },
    {
      "inputs": [
        {
          "internalType": "address",
          "name": "approver",
          "type": "address"
        }
      ],
      "name": "ERC721InvalidApprover",
      "type": "error"
    },
    {
      "inputs": [
        {
          "internalType": "address",
          "name": "operator",
          "type": "address"
        }
      ],
      "name": "ERC721InvalidOperator",
      "type": "error"
    },
    {
      "inputs": [
        {
          "internalType": "address",
          "name": "owner",
          "type": "address"
        }
      ],
      "name": "ERC721InvalidOwner",
      "type": "error"
    },
    {
      "inputs": [
        {
          "internalType": "address",
          "name": "receiver",
          "type": "address"
        }
      ],
      "name": "ERC721InvalidReceiver",
      "type": "error"
    },
    {
      "inputs": [
        {
          "internalType": "address",
          "name": "sender",
          "type": "address"
        }
      ],
      "name": "ERC721InvalidSender",
      "type": "error"
    },
    {
      "inputs": [
        {
          "internalType": "uint256",
          "name": "tokenId",
          "type": "uint256"
        }
      ],
      "name": "ERC721NonexistentToken",
      "type": "error"
    },
    {
      "inputs": [
        {
          "internalType": "address",
          "name": "owner",
          "type": "address"
        },
        {
          "internalType": "uint256",
          "name": "index",
          "type": "uint256"
        }
      ],
      "name": "ERC721OutOfBoundsIndex",
      "type": "error"
    },
    {
      "inputs": [
        {
          "internalType": "address",
          "name": "owner",
          "type": "address"
        }
      ],
      "name": "OwnableInvalidOwner",
      "type": "error"
    },
    {
      "inputs": [
        {
          "internalType": "address",
          "name": "account",
          "type": "address"
        }
      ],
      "name": "OwnableUnauthorizedAccount",
      "type": "error"
    },
    {
      "anonymous": false,
      "inputs": [
        {
          "indexed": true,
          "internalType": "address",
          "name": "owner",
          "type": "address"
        },
        {
          "indexed": true,
          "internalType": "address",
          "name": "approved",
          "type": "address"
        },
        {
          "indexed": true,
          "internalType": "uint256",
          "name": "tokenId",
          "type": "uint256"
        }
      ],
      "name": "Approval",
      "type": "event"
    },
    {
      "anonymous": false,
      "inputs": [
        {
          "indexed": true,
          "internalType": "address",
          "name": "owner",
          "type": "address"
        },
        {
          "indexed": true,
          "internalType": "address",
          "name": "operator",
          "type": "address"
        },
        {
          "indexed": false,
          "internalType": "bool",
          "name": "approved",
          "type": "bool"
        }
      ],
      "name": "ApprovalForAll",
      "type": "event"
    },
    {
      "anonymous": false,
      "inputs": [
        {
          "indexed": true,
          "internalType": "address",
          "name": "previousOwner",
          "type": "address"
        },
        {
          "indexed": true,
          "internalType": "address",
          "name": "newOwner",
          "type": "address"
        }
      ],
      "name": "OwnershipTransferred",
      "type": "event"
    },
    {
      "anonymous": false,
      "inputs": [
        {
          "indexed": true,
          "internalType": "address",
          "name": "from",
          "type": "address"
        },
        {
          "indexed": true,
          "internalType": "address",
          "name": "to",
          "type": "address"
        },
        {
          "indexed": true,
          "internalType": "uint256",
          "name": "tokenId",
          "type": "uint256"
        }
      ],
      "name": "Transfer",
      "type": "event"
    },
    {
      "inputs": [
        {
          "internalType": "address",
          "name": "to",
          "type": "address"
        },
        {
          "internalType": "uint256",
          "name": "tokenId",
          "type": "uint256"
        }
      ],
      "name": "approve",
      "outputs": [],
      "stateMutability": "nonpayable",
      "type": "function"
    },
    {
      "inputs": [
        {
          "internalType": "address",
          "name": "owner",
          "type": "address"
        }
      ],
      "name": "balanceOf",
      "outputs": [
        {
          "internalType": "uint256",
          "name": "",
          "type": "uint256"
        }
      ],
      "stateMutability": "view",
      "type": "function"
    },
    {
      "inputs": [
        {
          "internalType": "uint256",
          "name": "",
          "type": "uint256"
        }
      ],
      "name": "checksums",
      "outputs": [
        {
          "internalType": "bytes32",
          "name": "",
          "type": "bytes32"
        }
      ],
      "stateMutability": "view",
      "type": "function"
    },
    {
      "inputs": [
        {
          "internalType": "uint256",
          "name": "tokenId",
          "type": "uint256"
        },
        {
          "internalType": "bytes32",
          "name": "checksum",
          "type": "bytes32"
        }
      ],
      "name": "doesChecksumMatch",
      "outputs": [
        {
          "internalType": "bool",
          "name": "",
          "type": "bool"
        }
      ],
      "stateMutability": "view",
      "type": "function"
    },
    {
      "inputs": [
        {
          "internalType": "uint256",
          "name": "tokenId",
          "type": "uint256"
        }
      ],
      "name": "getApproved",
      "outputs": [
        {
          "internalType": "address",
          "name": "",
          "type": "address"
        }
      ],
      "stateMutability": "view",
      "type": "function"
    },
    {
      "inputs": [],
      "name": "getBaseUri",
      "outputs": [
        {
          "internalType": "string",
          "name": "",
          "type": "string"
        }
      ],
      "stateMutability": "view",
      "type": "function"
    },
    {
      "inputs": [
        {
          "internalType": "uint256",
          "name": "tokenId",
          "type": "uint256"
        }
      ],
      "name": "getChecksum",
      "outputs": [
        {
          "internalType": "bytes32",
          "name": "",
          "type": "bytes32"
        }
      ],
      "stateMutability": "view",
      "type": "function"
    },
    {
      "inputs": [],
      "name": "getNextTokenId",
      "outputs": [
        {
          "internalType": "uint256",
          "name": "",
          "type": "uint256"
        }
      ],
      "stateMutability": "view",
      "type": "function"
    },
    {
      "inputs": [
        {
          "internalType": "address",
          "name": "owner",
          "type": "address"
        },
        {
          "internalType": "address",
          "name": "operator",
          "type": "address"
        }
      ],
      "name": "isApprovedForAll",
      "outputs": [
        {
          "internalType": "bool",
          "name": "",
          "type": "bool"
        }
      ],
      "stateMutability": "view",
      "type": "function"
    },
    {
      "inputs": [],
      "name": "name",
      "outputs": [
        {
          "internalType": "string",
          "name": "",
          "type": "string"
        }
      ],
      "stateMutability": "view",
      "type": "function"
    },
    {
      "inputs": [],
      "name": "owner",
      "outputs": [
        {
          "internalType": "address",
          "name": "",
          "type": "address"
        }
      ],
      "stateMutability": "view",
      "type": "function"
    },
    {
      "inputs": [
        {
          "internalType": "uint256",
          "name": "tokenId",
          "type": "uint256"
        }
      ],
      "name": "ownerOf",
      "outputs": [
        {
          "internalType": "address",
          "name": "",
          "type": "address"
        }
      ],
      "stateMutability": "view",
      "type": "function"
    },
    {
      "inputs": [
        {
          "internalType": "address",
          "name": "owner",
          "type": "address"
        }
      ],
      "name": "ownersTokens",
      "outputs": [
        {
          "internalType": "uint256[]",
          "name": "",
          "type": "uint256[]"
        }
      ],
      "stateMutability": "view",
      "type": "function"
    },
    {
      "inputs": [],
      "name": "renounceOwnership",
      "outputs": [],
      "stateMutability": "nonpayable",
      "type": "function"
    },
    {
      "inputs": [
        {
          "internalType": "address",
          "name": "mintTo",
          "type": "address"
        },
        {
          "internalType": "bytes32",
          "name": "metadataChecksum",
          "type": "bytes32"
        }
      ],
      "name": "safeMint",
      "outputs": [],
      "stateMutability": "nonpayable",
      "type": "function"
    },
    {
      "inputs": [
        {
          "internalType": "address",
          "name": "from",
          "type": "address"
        },
        {
          "internalType": "address",
          "name": "to",
          "type": "address"
        },
        {
          "internalType": "uint256",
          "name": "tokenId",
          "type": "uint256"
        }
      ],
      "name": "safeTransferFrom",
      "outputs": [],
      "stateMutability": "nonpayable",
      "type": "function"
    },
    {
      "inputs": [
        {
          "internalType": "address",
          "name": "from",
          "type": "address"
        },
        {
          "internalType": "address",
          "name": "to",
          "type": "address"
        },
        {
          "internalType": "uint256",
          "name": "tokenId",
          "type": "uint256"
        },
        {
          "internalType": "bytes",
          "name": "data",
          "type": "bytes"
        }
      ],
      "name": "safeTransferFrom",
      "outputs": [],
      "stateMutability": "nonpayable",
      "type": "function"
    },
    {
      "inputs": [
        {
          "internalType": "address",
          "name": "operator",
          "type": "address"
        },
        {
          "internalType": "bool",
          "name": "approved",
          "type": "bool"
        }
      ],
      "name": "setApprovalForAll",
      "outputs": [],
      "stateMutability": "nonpayable",
      "type": "function"
    },
    {
      "inputs": [
        {
          "internalType": "address",
          "name": "newBadgeContract",
          "type": "address"
        }
      ],
      "name": "setBadgeContractAddress",
      "outputs": [],
      "stateMutability": "nonpayable",
      "type": "function"
    },
    {
      "inputs": [
        {
          "internalType": "string",
          "name": "newBaseURI",
          "type": "string"
        }
      ],
      "name": "setBaseUri",
      "outputs": [],
      "stateMutability": "nonpayable",
      "type": "function"
    },
    {
      "inputs": [
        {
          "internalType": "address",
          "name": "newGardenExplorerAddress",
          "type": "address"
        }
      ],
      "name": "setGardenAuthContractAddress",
      "outputs": [],
      "stateMutability": "nonpayable",
      "type": "function"
    },
    {
      "inputs": [
        {
          "internalType": "uint256",
          "name": "newMintPrice",
          "type": "uint256"
        }
      ],
      "name": "setMintPrice",
      "outputs": [],
      "stateMutability": "nonpayable",
      "type": "function"
    },
    {
      "inputs": [
        {
          "internalType": "bytes4",
          "name": "interfaceId",
          "type": "bytes4"
        }
      ],
      "name": "supportsInterface",
      "outputs": [
        {
          "internalType": "bool",
          "name": "",
          "type": "bool"
        }
      ],
      "stateMutability": "view",
      "type": "function"
    },
    {
      "inputs": [],
      "name": "symbol",
      "outputs": [
        {
          "internalType": "string",
          "name": "",
          "type": "string"
        }
      ],
      "stateMutability": "view",
      "type": "function"
    },
    {
      "inputs": [
        {
          "internalType": "uint256",
          "name": "index",
          "type": "uint256"
        }
      ],
      "name": "tokenByIndex",
      "outputs": [
        {
          "internalType": "uint256",
          "name": "",
          "type": "uint256"
        }
      ],
      "stateMutability": "view",
      "type": "function"
    },
    {
      "inputs": [
        {
          "internalType": "address",
          "name": "owner",
          "type": "address"
        },
        {
          "internalType": "uint256",
          "name": "index",
          "type": "uint256"
        }
      ],
      "name": "tokenOfOwnerByIndex",
      "outputs": [
        {
          "internalType": "uint256",
          "name": "",
          "type": "uint256"
        }
      ],
      "stateMutability": "view",
      "type": "function"
    },
    {
      "inputs": [
        {
          "internalType": "uint256",
          "name": "tokenId",
          "type": "uint256"
        }
      ],
      "name": "tokenURI",
      "outputs": [
        {
          "internalType": "string",
          "name": "",
          "type": "string"
        }
      ],
      "stateMutability": "view",
      "type": "function"
    },
    {
      "inputs": [],
      "name": "totalSupply",
      "outputs": [
        {
          "internalType": "uint256",
          "name": "",
          "type": "uint256"
        }
      ],
      "stateMutability": "view",
      "type": "function"
    },
    {
      "inputs": [
        {
          "internalType": "address",
          "name": "from",
          "type": "address"
        },
        {
          "internalType": "address",
          "name": "to",
          "type": "address"
        },
        {
          "internalType": "uint256",
          "name": "tokenId",
          "type": "uint256"
        }
      ],
      "name": "transferFrom",
      "outputs": [],
      "stateMutability": "nonpayable",
      "type": "function"
    },
    {
      "inputs": [
        {
          "internalType": "address",
          "name": "newOwner",
          "type": "address"
        }
      ],
      "name": "transferOwnership",
      "outputs": [],
      "stateMutability": "nonpayable",
      "type": "function"
    },
    {
      "inputs": [
        {
          "internalType": "uint256",
          "name": "tokenId",
          "type": "uint256"
        },
        {
          "internalType": "bytes32",
          "name": "newChecksum",
          "type": "bytes32"
        }
      ],
      "name": "updateChecksum",
      "outputs": [],
      "stateMutability": "nonpayable",
      "type": "function"
    },
    {
      "inputs": [
        {
          "internalType": "address",
          "name": "newGardenExplorer",
          "type": "address"
        }
      ],
      "name": "updateGardenExplorer",
      "outputs": [],
      "stateMutability": "nonpayable",
      "type": "function"
    }
  ],
  "bytecode": "0x60806040526000600b556000600d553480156200001b57600080fd5b5060405162004da738038062004da78339818101604052810190620000419190620004b7565b836040518060400160405280601b81526020017f47617264656e204578706c6f726572204f62736572766174696f6e00000000008152506040518060400160405280600781526020017f4f425345525645000000000000000000000000000000000000000000000000008152508160009081620000bf919062000793565b508060019081620000d1919062000793565b505050600073ffffffffffffffffffffffffffffffffffffffff168173ffffffffffffffffffffffffffffffffffffffff1603620001495760006040517f1e4fbdf70000000000000000000000000000000000000000000000000000000081526004016200014091906200088b565b60405180910390fd5b6200015a81620001f960201b60201c565b5081600f60006101000a81548173ffffffffffffffffffffffffffffffffffffffff021916908373ffffffffffffffffffffffffffffffffffffffff16021790555080601060006101000a81548173ffffffffffffffffffffffffffffffffffffffff021916908373ffffffffffffffffffffffffffffffffffffffff16021790555082600c9081620001ee919062000793565b5050505050620008a8565b6000600a60009054906101000a900473ffffffffffffffffffffffffffffffffffffffff16905081600a60006101000a81548173ffffffffffffffffffffffffffffffffffffffff021916908373ffffffffffffffffffffffffffffffffffffffff1602179055508173ffffffffffffffffffffffffffffffffffffffff168173ffffffffffffffffffffffffffffffffffffffff167f8be0079c531659141344cd1fd0a4f28419497f9722a3daafe3b4186f6b6457e060405160405180910390a35050565b6000604051905090565b600080fd5b600080fd5b600073ffffffffffffffffffffffffffffffffffffffff82169050919050565b60006200030082620002d3565b9050919050565b6200031281620002f3565b81146200031e57600080fd5b50565b600081519050620003328162000307565b92915050565b600080fd5b600080fd5b6000601f19601f8301169050919050565b7f4e487b7100000000000000000000000000000000000000000000000000000000600052604160045260246000fd5b6200038d8262000342565b810181811067ffffffffffffffff82111715620003af57620003ae62000353565b5b80604052505050565b6000620003c4620002bf565b9050620003d2828262000382565b919050565b600067ffffffffffffffff821115620003f557620003f462000353565b5b620004008262000342565b9050602081019050919050565b60005b838110156200042d57808201518184015260208101905062000410565b60008484015250505050565b6000620004506200044a84620003d7565b620003b8565b9050828152602081018484840111156200046f576200046e6200033d565b5b6200047c8482856200040d565b509392505050565b600082601f8301126200049c576200049b62000338565b5b8151620004ae84826020860162000439565b91505092915050565b60008060008060808587031215620004d457620004d3620002c9565b5b6000620004e48782880162000321565b945050602085015167ffffffffffffffff811115620005085762000507620002ce565b5b620005168782880162000484565b9350506040620005298782880162000321565b92505060606200053c8782880162000321565b91505092959194509250565b600081519050919050565b7f4e487b7100000000000000000000000000000000000000000000000000000000600052602260045260246000fd5b600060028204905060018216806200059b57607f821691505b602082108103620005b157620005b062000553565b5b50919050565b60008190508160005260206000209050919050565b60006020601f8301049050919050565b600082821b905092915050565b6000600883026200061b7fffffffffffffffffffffffffffffffffffffffffffffffffffffffffffffffff82620005dc565b620006278683620005dc565b95508019841693508086168417925050509392505050565b6000819050919050565b6000819050919050565b6000620006746200066e62000668846200063f565b62000649565b6200063f565b9050919050565b6000819050919050565b620006908362000653565b620006a86200069f826200067b565b848454620005e9565b825550505050565b600090565b620006bf620006b0565b620006cc81848462000685565b505050565b5b81811015620006f457620006e8600082620006b5565b600181019050620006d2565b5050565b601f82111562000743576200070d81620005b7565b6200071884620005cc565b8101602085101562000728578190505b620007406200073785620005cc565b830182620006d1565b50505b505050565b600082821c905092915050565b6000620007686000198460080262000748565b1980831691505092915050565b600062000783838362000755565b9150826002028217905092915050565b6200079e8262000548565b67ffffffffffffffff811115620007ba57620007b962000353565b5b620007c6825462000582565b620007d3828285620006f8565b600060209050601f8311600181146200080b5760008415620007f6578287015190505b62000802858262000775565b86555062000872565b601f1984166200081b86620005b7565b60005b8281101562000845578489015182556001820191506020850194506020810190506200081e565b8683101562000865578489015162000861601f89168262000755565b8355505b6001600288020188555050505b505050505050565b6200088581620002f3565b82525050565b6000602082019050620008a260008301846200087a565b92915050565b6144ef80620008b86000396000f3fe608060405234801561001057600080fd5b50600436106101f05760003560e01c80638da5cb5b1161010f578063d712b744116100a2578063e985e9c511610071578063e985e9c5146105db578063f1139bf71461060b578063f2fde38b14610627578063f4a0a52814610643576101f0565b8063d712b74414610543578063daff94e914610573578063dedfbaa11461058f578063e8eae3cf146105ab576101f0565b8063ab6dad7f116100de578063ab6dad7f146104a9578063b88d4fde146104d9578063c87b56dd146104f5578063caa0f92a14610525576101f0565b80638da5cb5b1461043557806395d89b4114610453578063a0bcfc7f14610471578063a22cb4651461048d576101f0565b80632f745c59116101875780636352211e116101565780636352211e146103af57806367d51cc4146103df57806370a08231146103fb578063715018a61461042b576101f0565b80632f745c591461030357806342842e0e146103335780634c9c27571461034f5780634f6ccce71461037f576101f0565b80630cac36b2116101c35780630cac36b21461028f57806318160ddd146102ad578063217b595e146102cb57806323b872dd146102e7576101f0565b806301ffc9a7146101f557806306fdde0314610225578063081812fc14610243578063095ea7b314610273575b600080fd5b61020f600480360381019061020a91906131dc565b61065f565b60405161021c9190613224565b60405180910390f35b61022d610671565b60405161023a91906132cf565b60405180910390f35b61025d60048036038101906102589190613327565b610703565b60405161026a9190613395565b60405180910390f35b61028d600480360381019061028891906133dc565b61071f565b005b610297610735565b6040516102a491906132cf565b60405180910390f35b6102b56107c7565b6040516102c2919061342b565b60405180910390f35b6102e560048036038101906102e09190613446565b6107d4565b005b61030160048036038101906102fc9190613473565b610820565b005b61031d600480360381019061031891906133dc565b610922565b60405161032a919061342b565b60405180910390f35b61034d60048036038101906103489190613473565b6109cb565b005b61036960048036038101906103649190613327565b6109eb565b60405161037691906134df565b60405180910390f35b61039960048036038101906103949190613327565b610a08565b6040516103a6919061342b565b60405180910390f35b6103c960048036038101906103c49190613327565b610a7e565b6040516103d69190613395565b60405180910390f35b6103f960048036038101906103f49190613526565b610a90565b005b61041560048036038101906104109190613446565b610bb9565b604051610422919061342b565b60405180910390f35b610433610c73565b005b61043d610c87565b60405161044a9190613395565b60405180910390f35b61045b610cb1565b60405161046891906132cf565b60405180910390f35b61048b6004803603810190610486919061369b565b610d43565b005b6104a760048036038101906104a29190613710565b610d5e565b005b6104c360048036038101906104be9190613750565b610d74565b6040516104d09190613224565b60405180910390f35b6104f360048036038101906104ee9190613831565b610d94565b005b61050f600480360381019061050a9190613327565b610db1565b60405161051c91906132cf565b60405180910390f35b61052d610e1a565b60405161053a919061342b565b60405180910390f35b61055d60048036038101906105589190613446565b610e24565b60405161056a9190613972565b60405180910390f35b61058d60048036038101906105889190613446565b610ecc565b005b6105a960048036038101906105a49190613446565b610f18565b005b6105c560048036038101906105c09190613327565b610f64565b6040516105d291906134df565b60405180910390f35b6105f560048036038101906105f09190613994565b610f7c565b6040516106029190613224565b60405180910390f35b61062560048036038101906106209190613750565b611010565b005b610641600480360381019061063c9190613446565b6110a2565b005b61065d60048036038101906106589190613327565b611128565b005b600061066a8261113a565b9050919050565b60606000805461068090613a03565b80601f01602080910402602001604051908101604052809291908181526020018280546106ac90613a03565b80156106f95780601f106106ce576101008083540402835291602001916106f9565b820191906000526020600020905b8154815290600101906020018083116106dc57829003601f168201915b5050505050905090565b600061070e826111b4565b506107188261123c565b9050919050565b610731828261072c611279565b611281565b5050565b6060600c805461074490613a03565b80601f016020809104026020016040519081016040528092919081815260200182805461077090613a03565b80156107bd5780601f10610792576101008083540402835291602001916107bd565b820191906000526020600020905b8154815290600101906020018083116107a057829003601f168201915b5050505050905090565b6000600880549050905090565b6107dc611293565b80600f60006101000a81548173ffffffffffffffffffffffffffffffffffffffff021916908373ffffffffffffffffffffffffffffffffffffffff16021790555050565b600073ffffffffffffffffffffffffffffffffffffffff168273ffffffffffffffffffffffffffffffffffffffff16036108925760006040517f64a0ae920000000000000000000000000000000000000000000000000000000081526004016108899190613395565b60405180910390fd5b60006108a683836108a1611279565b61131a565b90508373ffffffffffffffffffffffffffffffffffffffff168173ffffffffffffffffffffffffffffffffffffffff161461091c578382826040517f64283d7b00000000000000000000000000000000000000000000000000000000815260040161091393929190613a34565b60405180910390fd5b50505050565b600061092d83610bb9565b82106109725782826040517fa57d13dc000000000000000000000000000000000000000000000000000000008152600401610969929190613a6b565b60405180910390fd5b600660008473ffffffffffffffffffffffffffffffffffffffff1673ffffffffffffffffffffffffffffffffffffffff168152602001908152602001600020600083815260200190815260200160002054905092915050565b6109e683838360405180602001604052806000815250610d94565b505050565b6000600e6000838152602001908152602001600020549050919050565b6000610a126107c7565b8210610a58576000826040517fa57d13dc000000000000000000000000000000000000000000000000000000008152600401610a4f929190613a6b565b60405180910390fd5b60088281548110610a6c57610a6b613a94565b5b90600052602060002001549050919050565b6000610a89826111b4565b9050919050565b6000600f60009054906101000a900473ffffffffffffffffffffffffffffffffffffffff1673ffffffffffffffffffffffffffffffffffffffff166370a08231846040518263ffffffff1660e01b8152600401610aed9190613395565b602060405180830381865afa158015610b0a573d6000803e3d6000fd5b505050506040513d601f19601f82011682018060405250810190610b2e9190613ad8565b11610b6e576040517f08c379a0000000000000000000000000000000000000000000000000000000008152600401610b6590613b77565b60405180910390fd5b610b7a82600b54611330565b80600e6000600b54815260200190815260200160002081905550610b9d8261134e565b600b6000815480929190610bb090613bc6565b91905055505050565b60008073ffffffffffffffffffffffffffffffffffffffff168273ffffffffffffffffffffffffffffffffffffffff1603610c2c5760006040517f89c62b64000000000000000000000000000000000000000000000000000000008152600401610c239190613395565b60405180910390fd5b600360008373ffffffffffffffffffffffffffffffffffffffff1673ffffffffffffffffffffffffffffffffffffffff168152602001908152602001600020549050919050565b610c7b611293565b610c856000611eac565b565b6000600a60009054906101000a900473ffffffffffffffffffffffffffffffffffffffff16905090565b606060018054610cc090613a03565b80601f0160208091040260200160405190810160405280929190818152602001828054610cec90613a03565b8015610d395780601f10610d0e57610100808354040283529160200191610d39565b820191906000526020600020905b815481529060010190602001808311610d1c57829003601f168201915b5050505050905090565b610d4b611293565b80600c9081610d5a9190613dba565b5050565b610d70610d69611279565b8383611f72565b5050565b600081600e60008581526020019081526020016000205414905092915050565b610d9f848484610820565b610dab848484846120e1565b50505050565b6060610dbc826111b4565b506000610dc7612298565b90506000815111610de75760405180602001604052806000815250610e12565b80610df18461232a565b604051602001610e02929190613ec8565b6040516020818303038152906040525b915050919050565b6000600b54905090565b60606000610e3183610bb9565b905060008167ffffffffffffffff811115610e4f57610e4e613570565b5b604051908082528060200260200182016040528015610e7d5781602001602082028036833780820191505090505b50905060005b82811015610ec157610e958582610922565b828281518110610ea857610ea7613a94565b5b6020026020010181815250508080600101915050610e83565b508092505050919050565b610ed4611293565b80600f60006101000a81548173ffffffffffffffffffffffffffffffffffffffff021916908373ffffffffffffffffffffffffffffffffffffffff16021790555050565b610f20611293565b80601060006101000a81548173ffffffffffffffffffffffffffffffffffffffff021916908373ffffffffffffffffffffffffffffffffffffffff16021790555050565b600e6020528060005260406000206000915090505481565b6000600560008473ffffffffffffffffffffffffffffffffffffffff1673ffffffffffffffffffffffffffffffffffffffff16815260200190815260200160002060008373ffffffffffffffffffffffffffffffffffffffff1673ffffffffffffffffffffffffffffffffffffffff16815260200190815260200160002060009054906101000a900460ff16905092915050565b3373ffffffffffffffffffffffffffffffffffffffff16611030836123f8565b73ffffffffffffffffffffffffffffffffffffffff1614611086576040517f08c379a000000000000000000000000000000000000000000000000000000000815260040161107d90613f5e565b60405180910390fd5b80600e6000848152602001908152602001600020819055505050565b6110aa611293565b600073ffffffffffffffffffffffffffffffffffffffff168173ffffffffffffffffffffffffffffffffffffffff160361111c5760006040517f1e4fbdf70000000000000000000000000000000000000000000000000000000081526004016111139190613395565b60405180910390fd5b61112581611eac565b50565b611130611293565b80600d8190555050565b60007f780e9d63000000000000000000000000000000000000000000000000000000007bffffffffffffffffffffffffffffffffffffffffffffffffffffffff1916827bffffffffffffffffffffffffffffffffffffffffffffffffffffffff191614806111ad57506111ac82612435565b5b9050919050565b6000806111c0836123f8565b9050600073ffffffffffffffffffffffffffffffffffffffff168173ffffffffffffffffffffffffffffffffffffffff160361123357826040517f7e27328900000000000000000000000000000000000000000000000000000000815260040161122a919061342b565b60405180910390fd5b80915050919050565b60006004600083815260200190815260200160002060009054906101000a900473ffffffffffffffffffffffffffffffffffffffff169050919050565b600033905090565b61128e8383836001612517565b505050565b61129b611279565b73ffffffffffffffffffffffffffffffffffffffff166112b9610c87565b73ffffffffffffffffffffffffffffffffffffffff1614611318576112dc611279565b6040517f118cdaa700000000000000000000000000000000000000000000000000000000815260040161130f9190613395565b60405180910390fd5b565b60006113278484846126dc565b90509392505050565b61134a8282604051806020016040528060008152506127f9565b5050565b600061135982610bb9565b90506001810361149c57601060009054906101000a900473ffffffffffffffffffffffffffffffffffffffff1673ffffffffffffffffffffffffffffffffffffffff16634c6a70ce8360016040518363ffffffff1660e01b81526004016113c1929190613fb9565b602060405180830381865afa1580156113de573d6000803e3d6000fd5b505050506040513d601f19601f820116820180604052508101906114029190613ff7565b61149757601060009054906101000a900473ffffffffffffffffffffffffffffffffffffffff1673ffffffffffffffffffffffffffffffffffffffff166317872b218360016040518363ffffffff1660e01b8152600401611464929190613fb9565b600060405180830381600087803b15801561147e57600080fd5b505af1158015611492573d6000803e3d6000fd5b505050505b611ea8565b600381036115dd57601060009054906101000a900473ffffffffffffffffffffffffffffffffffffffff1673ffffffffffffffffffffffffffffffffffffffff16634c6a70ce8360026040518363ffffffff1660e01b815260040161150292919061405f565b602060405180830381865afa15801561151f573d6000803e3d6000fd5b505050506040513d601f19601f820116820180604052508101906115439190613ff7565b6115d857601060009054906101000a900473ffffffffffffffffffffffffffffffffffffffff1673ffffffffffffffffffffffffffffffffffffffff166317872b218360026040518363ffffffff1660e01b81526004016115a592919061405f565b600060405180830381600087803b1580156115bf57600080fd5b505af11580156115d3573d6000803e3d6000fd5b505050505b611ea7565b6005810361171e57601060009054906101000a900473ffffffffffffffffffffffffffffffffffffffff1673ffffffffffffffffffffffffffffffffffffffff16634c6a70ce8360036040518363ffffffff1660e01b81526004016116439291906140c3565b602060405180830381865afa158015611660573d6000803e3d6000fd5b505050506040513d601f19601f820116820180604052508101906116849190613ff7565b61171957601060009054906101000a900473ffffffffffffffffffffffffffffffffffffffff1673ffffffffffffffffffffffffffffffffffffffff166317872b218360036040518363ffffffff1660e01b81526004016116e69291906140c3565b600060405180830381600087803b15801561170057600080fd5b505af1158015611714573d6000803e3d6000fd5b505050505b611ea6565b600a810361185f57601060009054906101000a900473ffffffffffffffffffffffffffffffffffffffff1673ffffffffffffffffffffffffffffffffffffffff16634c6a70ce8360046040518363ffffffff1660e01b8152600401611784929190614127565b602060405180830381865afa1580156117a1573d6000803e3d6000fd5b505050506040513d601f19601f820116820180604052508101906117c59190613ff7565b61185a57601060009054906101000a900473ffffffffffffffffffffffffffffffffffffffff1673ffffffffffffffffffffffffffffffffffffffff166317872b218360046040518363ffffffff1660e01b8152600401611827929190614127565b600060405180830381600087803b15801561184157600080fd5b505af1158015611855573d6000803e3d6000fd5b505050505b611ea5565b601481036119a057601060009054906101000a900473ffffffffffffffffffffffffffffffffffffffff1673ffffffffffffffffffffffffffffffffffffffff16634c6a70ce8360056040518363ffffffff1660e01b81526004016118c592919061418b565b602060405180830381865afa1580156118e2573d6000803e3d6000fd5b505050506040513d601f19601f820116820180604052508101906119069190613ff7565b61199b57601060009054906101000a900473ffffffffffffffffffffffffffffffffffffffff1673ffffffffffffffffffffffffffffffffffffffff166317872b218360056040518363ffffffff1660e01b815260040161196892919061418b565b600060405180830381600087803b15801561198257600080fd5b505af1158015611996573d6000803e3d6000fd5b505050505b611ea4565b601e8103611ae157601060009054906101000a900473ffffffffffffffffffffffffffffffffffffffff1673ffffffffffffffffffffffffffffffffffffffff16634c6a70ce8360066040518363ffffffff1660e01b8152600401611a069291906141ef565b602060405180830381865afa158015611a23573d6000803e3d6000fd5b505050506040513d601f19601f82011682018060405250810190611a479190613ff7565b611adc57601060009054906101000a900473ffffffffffffffffffffffffffffffffffffffff1673ffffffffffffffffffffffffffffffffffffffff166317872b218360066040518363ffffffff1660e01b8152600401611aa99291906141ef565b600060405180830381600087803b158015611ac357600080fd5b505af1158015611ad7573d6000803e3d6000fd5b505050505b611ea3565b60328103611c2257601060009054906101000a900473ffffffffffffffffffffffffffffffffffffffff1673ffffffffffffffffffffffffffffffffffffffff16634c6a70ce8360076040518363ffffffff1660e01b8152600401611b47929190614253565b602060405180830381865afa158015611b64573d6000803e3d6000fd5b505050506040513d601f19601f82011682018060405250810190611b889190613ff7565b611c1d57601060009054906101000a900473ffffffffffffffffffffffffffffffffffffffff1673ffffffffffffffffffffffffffffffffffffffff166317872b218360076040518363ffffffff1660e01b8152600401611bea929190614253565b600060405180830381600087803b158015611c0457600080fd5b505af1158015611c18573d6000803e3d6000fd5b505050505b611ea2565b604b8103611d6357601060009054906101000a900473ffffffffffffffffffffffffffffffffffffffff1673ffffffffffffffffffffffffffffffffffffffff16634c6a70ce8360086040518363ffffffff1660e01b8152600401611c889291906142b7565b602060405180830381865afa158015611ca5573d6000803e3d6000fd5b505050506040513d601f19601f82011682018060405250810190611cc99190613ff7565b611d5e57601060009054906101000a900473ffffffffffffffffffffffffffffffffffffffff1673ffffffffffffffffffffffffffffffffffffffff166317872b218360086040518363ffffffff1660e01b8152600401611d2b9291906142b7565b600060405180830381600087803b158015611d4557600080fd5b505af1158015611d59573d6000803e3d6000fd5b505050505b611ea1565b60648103611ea057601060009054906101000a900473ffffffffffffffffffffffffffffffffffffffff1673ffffffffffffffffffffffffffffffffffffffff16634c6a70ce8360096040518363ffffffff1660e01b8152600401611dc992919061431b565b602060405180830381865afa158015611de6573d6000803e3d6000fd5b505050506040513d601f19601f82011682018060405250810190611e0a9190613ff7565b611e9f57601060009054906101000a900473ffffffffffffffffffffffffffffffffffffffff1673ffffffffffffffffffffffffffffffffffffffff166317872b218360096040518363ffffffff1660e01b8152600401611e6c92919061431b565b600060405180830381600087803b158015611e8657600080fd5b505af1158015611e9a573d6000803e3d6000fd5b505050505b5b5b5b5b5b5b5b5b5b5050565b6000600a60009054906101000a900473ffffffffffffffffffffffffffffffffffffffff16905081600a60006101000a81548173ffffffffffffffffffffffffffffffffffffffff021916908373ffffffffffffffffffffffffffffffffffffffff1602179055508173ffffffffffffffffffffffffffffffffffffffff168173ffffffffffffffffffffffffffffffffffffffff167f8be0079c531659141344cd1fd0a4f28419497f9722a3daafe3b4186f6b6457e060405160405180910390a35050565b600073ffffffffffffffffffffffffffffffffffffffff168273ffffffffffffffffffffffffffffffffffffffff1603611fe357816040517f5b08ba18000000000000000000000000000000000000000000000000000000008152600401611fda9190613395565b60405180910390fd5b80600560008573ffffffffffffffffffffffffffffffffffffffff1673ffffffffffffffffffffffffffffffffffffffff16815260200190815260200160002060008473ffffffffffffffffffffffffffffffffffffffff1673ffffffffffffffffffffffffffffffffffffffff16815260200190815260200160002060006101000a81548160ff0219169083151502179055508173ffffffffffffffffffffffffffffffffffffffff168373ffffffffffffffffffffffffffffffffffffffff167f17307eab39ab6107e8899845ad3d59bd9653f200f220920489ca2b5937696c31836040516120d49190613224565b60405180910390a3505050565b60008373ffffffffffffffffffffffffffffffffffffffff163b1115612292578273ffffffffffffffffffffffffffffffffffffffff1663150b7a02612125611279565b8685856040518563ffffffff1660e01b81526004016121479493929190614399565b6020604051808303816000875af192505050801561218357506040513d601f19601f8201168201806040525081019061218091906143fa565b60015b612207573d80600081146121b3576040519150601f19603f3d011682016040523d82523d6000602084013e6121b8565b606091505b5060008151036121ff57836040517f64a0ae920000000000000000000000000000000000000000000000000000000081526004016121f69190613395565b60405180910390fd5b805181602001fd5b63150b7a0260e01b7bffffffffffffffffffffffffffffffffffffffffffffffffffffffff1916817bffffffffffffffffffffffffffffffffffffffffffffffffffffffff19161461229057836040517f64a0ae920000000000000000000000000000000000000000000000000000000081526004016122879190613395565b60405180910390fd5b505b50505050565b6060600c80546122a790613a03565b80601f01602080910402602001604051908101604052809291908181526020018280546122d390613a03565b80156123205780601f106122f557610100808354040283529160200191612320565b820191906000526020600020905b81548152906001019060200180831161230357829003601f168201915b5050505050905090565b60606000600161233984612815565b01905060008167ffffffffffffffff81111561235857612357613570565b5b6040519080825280601f01601f19166020018201604052801561238a5781602001600182028036833780820191505090505b509050600082602001820190505b6001156123ed578080600190039150507f3031323334353637383961626364656600000000000000000000000000000000600a86061a8153600a85816123e1576123e0614427565b5b04945060008503612398575b819350505050919050565b60006002600083815260200190815260200160002060009054906101000a900473ffffffffffffffffffffffffffffffffffffffff169050919050565b60007f80ac58cd000000000000000000000000000000000000000000000000000000007bffffffffffffffffffffffffffffffffffffffffffffffffffffffff1916827bffffffffffffffffffffffffffffffffffffffffffffffffffffffff1916148061250057507f5b5e139f000000000000000000000000000000000000000000000000000000007bffffffffffffffffffffffffffffffffffffffffffffffffffffffff1916827bffffffffffffffffffffffffffffffffffffffffffffffffffffffff1916145b80612510575061250f82612968565b5b9050919050565b80806125505750600073ffffffffffffffffffffffffffffffffffffffff168273ffffffffffffffffffffffffffffffffffffffff1614155b15612684576000612560846111b4565b9050600073ffffffffffffffffffffffffffffffffffffffff168373ffffffffffffffffffffffffffffffffffffffff16141580156125cb57508273ffffffffffffffffffffffffffffffffffffffff168173ffffffffffffffffffffffffffffffffffffffff1614155b80156125de57506125dc8184610f7c565b155b1561262057826040517fa9fbf51f0000000000000000000000000000000000000000000000000000000081526004016126179190613395565b60405180910390fd5b811561268257838573ffffffffffffffffffffffffffffffffffffffff168273ffffffffffffffffffffffffffffffffffffffff167f8c5be1e5ebec7d5bd14f71427d1e84f3dd0314c0f7b2291e5b200ac8c7c3b92560405160405180910390a45b505b836004600085815260200190815260200160002060006101000a81548173ffffffffffffffffffffffffffffffffffffffff021916908373ffffffffffffffffffffffffffffffffffffffff16021790555050505050565b6000806126ea8585856129d2565b9050600073ffffffffffffffffffffffffffffffffffffffff168173ffffffffffffffffffffffffffffffffffffffff160361272e5761272984612bec565b61276d565b8473ffffffffffffffffffffffffffffffffffffffff168173ffffffffffffffffffffffffffffffffffffffff161461276c5761276b8185612c35565b5b5b600073ffffffffffffffffffffffffffffffffffffffff168573ffffffffffffffffffffffffffffffffffffffff16036127af576127aa84612d96565b6127ee565b8473ffffffffffffffffffffffffffffffffffffffff168173ffffffffffffffffffffffffffffffffffffffff16146127ed576127ec8585612e67565b5b5b809150509392505050565b6128038383612ef2565b61281060008484846120e1565b505050565b600080600090507a184f03e93ff9f4daa797ed6e38ed64bf6a1f0100000000000000008310612873577a184f03e93ff9f4daa797ed6e38ed64bf6a1f010000000000000000838161286957612868614427565b5b0492506040810190505b6d04ee2d6d415b85acef810000000083106128b0576d04ee2d6d415b85acef810000000083816128a6576128a5614427565b5b0492506020810190505b662386f26fc1000083106128df57662386f26fc1000083816128d5576128d4614427565b5b0492506010810190505b6305f5e1008310612908576305f5e10083816128fe576128fd614427565b5b0492506008810190505b612710831061292d57612710838161292357612922614427565b5b0492506004810190505b60648310612950576064838161294657612945614427565b5b0492506002810190505b600a831061295f576001810190505b80915050919050565b60007f01ffc9a7000000000000000000000000000000000000000000000000000000007bffffffffffffffffffffffffffffffffffffffffffffffffffffffff1916827bffffffffffffffffffffffffffffffffffffffffffffffffffffffff1916149050919050565b6000806129de846123f8565b9050600073ffffffffffffffffffffffffffffffffffffffff168373ffffffffffffffffffffffffffffffffffffffff1614612a2057612a1f818486612feb565b5b600073ffffffffffffffffffffffffffffffffffffffff168173ffffffffffffffffffffffffffffffffffffffff1614612ab157612a62600085600080612517565b6001600360008373ffffffffffffffffffffffffffffffffffffffff1673ffffffffffffffffffffffffffffffffffffffff168152602001908152602001600020600082825403925050819055505b600073ffffffffffffffffffffffffffffffffffffffff168573ffffffffffffffffffffffffffffffffffffffff1614612b34576001600360008773ffffffffffffffffffffffffffffffffffffffff1673ffffffffffffffffffffffffffffffffffffffff168152602001908152602001600020600082825401925050819055505b846002600086815260200190815260200160002060006101000a81548173ffffffffffffffffffffffffffffffffffffffff021916908373ffffffffffffffffffffffffffffffffffffffff160217905550838573ffffffffffffffffffffffffffffffffffffffff168273ffffffffffffffffffffffffffffffffffffffff167fddf252ad1be2c89b69c2b068fc378daa952ba7f163c4a11628f55a4df523b3ef60405160405180910390a4809150509392505050565b6008805490506009600083815260200190815260200160002081905550600881908060018154018082558091505060019003906000526020600020016000909190919091505550565b6000612c4083610bb9565b9050600060076000848152602001908152602001600020549050818114612d25576000600660008673ffffffffffffffffffffffffffffffffffffffff1673ffffffffffffffffffffffffffffffffffffffff168152602001908152602001600020600084815260200190815260200160002054905080600660008773ffffffffffffffffffffffffffffffffffffffff1673ffffffffffffffffffffffffffffffffffffffff168152602001908152602001600020600084815260200190815260200160002081905550816007600083815260200190815260200160002081905550505b6007600084815260200190815260200160002060009055600660008573ffffffffffffffffffffffffffffffffffffffff1673ffffffffffffffffffffffffffffffffffffffff16815260200190815260200160002060008381526020019081526020016000206000905550505050565b60006001600880549050612daa9190614456565b9050600060096000848152602001908152602001600020549050600060088381548110612dda57612dd9613a94565b5b906000526020600020015490508060088381548110612dfc57612dfb613a94565b5b906000526020600020018190555081600960008381526020019081526020016000208190555060096000858152602001908152602001600020600090556008805480612e4b57612e4a61448a565b5b6001900381819060005260206000200160009055905550505050565b60006001612e7484610bb9565b612e7e9190614456565b905081600660008573ffffffffffffffffffffffffffffffffffffffff1673ffffffffffffffffffffffffffffffffffffffff168152602001908152602001600020600083815260200190815260200160002081905550806007600084815260200190815260200160002081905550505050565b600073ffffffffffffffffffffffffffffffffffffffff168273ffffffffffffffffffffffffffffffffffffffff1603612f645760006040517f64a0ae92000000000000000000000000000000000000000000000000000000008152600401612f5b9190613395565b60405180910390fd5b6000612f728383600061131a565b9050600073ffffffffffffffffffffffffffffffffffffffff168173ffffffffffffffffffffffffffffffffffffffff1614612fe65760006040517f73c6ac6e000000000000000000000000000000000000000000000000000000008152600401612fdd9190613395565b60405180910390fd5b505050565b612ff68383836130af565b6130aa57600073ffffffffffffffffffffffffffffffffffffffff168373ffffffffffffffffffffffffffffffffffffffff160361306b57806040517f7e273289000000000000000000000000000000000000000000000000000000008152600401613062919061342b565b60405180910390fd5b81816040517f177e802f0000000000000000000000000000000000000000000000000000000081526004016130a1929190613a6b565b60405180910390fd5b505050565b60008073ffffffffffffffffffffffffffffffffffffffff168373ffffffffffffffffffffffffffffffffffffffff161415801561316757508273ffffffffffffffffffffffffffffffffffffffff168473ffffffffffffffffffffffffffffffffffffffff16148061312857506131278484610f7c565b5b8061316657508273ffffffffffffffffffffffffffffffffffffffff1661314e8361123c565b73ffffffffffffffffffffffffffffffffffffffff16145b5b90509392505050565b6000604051905090565b600080fd5b600080fd5b60007fffffffff0000000000000000000000000000000000000000000000000000000082169050919050565b6131b981613184565b81146131c457600080fd5b50565b6000813590506131d6816131b0565b92915050565b6000602082840312156131f2576131f161317a565b5b6000613200848285016131c7565b91505092915050565b60008115159050919050565b61321e81613209565b82525050565b60006020820190506132396000830184613215565b92915050565b600081519050919050565b600082825260208201905092915050565b60005b8381101561327957808201518184015260208101905061325e565b60008484015250505050565b6000601f19601f8301169050919050565b60006132a18261323f565b6132ab818561324a565b93506132bb81856020860161325b565b6132c481613285565b840191505092915050565b600060208201905081810360008301526132e98184613296565b905092915050565b6000819050919050565b613304816132f1565b811461330f57600080fd5b50565b600081359050613321816132fb565b92915050565b60006020828403121561333d5761333c61317a565b5b600061334b84828501613312565b91505092915050565b600073ffffffffffffffffffffffffffffffffffffffff82169050919050565b600061337f82613354565b9050919050565b61338f81613374565b82525050565b60006020820190506133aa6000830184613386565b92915050565b6133b981613374565b81146133c457600080fd5b50565b6000813590506133d6816133b0565b92915050565b600080604083850312156133f3576133f261317a565b5b6000613401858286016133c7565b925050602061341285828601613312565b9150509250929050565b613425816132f1565b82525050565b6000602082019050613440600083018461341c565b92915050565b60006020828403121561345c5761345b61317a565b5b600061346a848285016133c7565b91505092915050565b60008060006060848603121561348c5761348b61317a565b5b600061349a868287016133c7565b93505060206134ab868287016133c7565b92505060406134bc86828701613312565b9150509250925092565b6000819050919050565b6134d9816134c6565b82525050565b60006020820190506134f460008301846134d0565b92915050565b613503816134c6565b811461350e57600080fd5b50565b600081359050613520816134fa565b92915050565b6000806040838503121561353d5761353c61317a565b5b600061354b858286016133c7565b925050602061355c85828601613511565b9150509250929050565b600080fd5b600080fd5b7f4e487b7100000000000000000000000000000000000000000000000000000000600052604160045260246000fd5b6135a882613285565b810181811067ffffffffffffffff821117156135c7576135c6613570565b5b80604052505050565b60006135da613170565b90506135e6828261359f565b919050565b600067ffffffffffffffff82111561360657613605613570565b5b61360f82613285565b9050602081019050919050565b82818337600083830152505050565b600061363e613639846135eb565b6135d0565b90508281526020810184848401111561365a5761365961356b565b5b61366584828561361c565b509392505050565b600082601f83011261368257613681613566565b5b813561369284826020860161362b565b91505092915050565b6000602082840312156136b1576136b061317a565b5b600082013567ffffffffffffffff8111156136cf576136ce61317f565b5b6136db8482850161366d565b91505092915050565b6136ed81613209565b81146136f857600080fd5b50565b60008135905061370a816136e4565b92915050565b600080604083850312156137275761372661317a565b5b6000613735858286016133c7565b9250506020613746858286016136fb565b9150509250929050565b600080604083850312156137675761376661317a565b5b600061377585828601613312565b925050602061378685828601613511565b9150509250929050565b600067ffffffffffffffff8211156137ab576137aa613570565b5b6137b482613285565b9050602081019050919050565b60006137d46137cf84613790565b6135d0565b9050828152602081018484840111156137f0576137ef61356b565b5b6137fb84828561361c565b509392505050565b600082601f83011261381857613817613566565b5b81356138288482602086016137c1565b91505092915050565b6000806000806080858703121561384b5761384a61317a565b5b6000613859878288016133c7565b945050602061386a878288016133c7565b935050604061387b87828801613312565b925050606085013567ffffffffffffffff81111561389c5761389b61317f565b5b6138a887828801613803565b91505092959194509250565b600081519050919050565b600082825260208201905092915050565b6000819050602082019050919050565b6138e9816132f1565b82525050565b60006138fb83836138e0565b60208301905092915050565b6000602082019050919050565b600061391f826138b4565b61392981856138bf565b9350613934836138d0565b8060005b8381101561396557815161394c88826138ef565b975061395783613907565b925050600181019050613938565b5085935050505092915050565b6000602082019050818103600083015261398c8184613914565b905092915050565b600080604083850312156139ab576139aa61317a565b5b60006139b9858286016133c7565b92505060206139ca858286016133c7565b9150509250929050565b7f4e487b7100000000000000000000000000000000000000000000000000000000600052602260045260246000fd5b60006002820490506001821680613a1b57607f821691505b602082108103613a2e57613a2d6139d4565b5b50919050565b6000606082019050613a496000830186613386565b613a56602083018561341c565b613a636040830184613386565b949350505050565b6000604082019050613a806000830185613386565b613a8d602083018461341c565b9392505050565b7f4e487b7100000000000000000000000000000000000000000000000000000000600052603260045260246000fd5b600081519050613ad2816132fb565b92915050565b600060208284031215613aee57613aed61317a565b5b6000613afc84828501613ac3565b91505092915050565b7f596f75206d757374206f776e20612047617264656e204578706c6f726572207460008201527f6f6b656e20746f206d696e7420616e206f62736572766174696f6e0000000000602082015250565b6000613b61603b8361324a565b9150613b6c82613b05565b604082019050919050565b60006020820190508181036000830152613b9081613b54565b9050919050565b7f4e487b7100000000000000000000000000000000000000000000000000000000600052601160045260246000fd5b6000613bd1826132f1565b91507fffffffffffffffffffffffffffffffffffffffffffffffffffffffffffffffff8203613c0357613c02613b97565b5b600182019050919050565b60008190508160005260206000209050919050565b60006020601f8301049050919050565b600082821b905092915050565b600060088302613c707fffffffffffffffffffffffffffffffffffffffffffffffffffffffffffffffff82613c33565b613c7a8683613c33565b95508019841693508086168417925050509392505050565b6000819050919050565b6000613cb7613cb2613cad846132f1565b613c92565b6132f1565b9050919050565b6000819050919050565b613cd183613c9c565b613ce5613cdd82613cbe565b848454613c40565b825550505050565b600090565b613cfa613ced565b613d05818484613cc8565b505050565b5b81811015613d2957613d1e600082613cf2565b600181019050613d0b565b5050565b601f821115613d6e57613d3f81613c0e565b613d4884613c23565b81016020851015613d57578190505b613d6b613d6385613c23565b830182613d0a565b50505b505050565b600082821c905092915050565b6000613d9160001984600802613d73565b1980831691505092915050565b6000613daa8383613d80565b9150826002028217905092915050565b613dc38261323f565b67ffffffffffffffff811115613ddc57613ddb613570565b5b613de68254613a03565b613df1828285613d2d565b600060209050601f831160018114613e245760008415613e12578287015190505b613e1c8582613d9e565b865550613e84565b601f198416613e3286613c0e565b60005b82811015613e5a57848901518255600182019150602085019450602081019050613e35565b86831015613e775784890151613e73601f891682613d80565b8355505b6001600288020188555050505b505050505050565b600081905092915050565b6000613ea28261323f565b613eac8185613e8c565b9350613ebc81856020860161325b565b80840191505092915050565b6000613ed48285613e97565b9150613ee08284613e97565b91508190509392505050565b7f43616c6c6572206973206e6f7420746865206f776e6572206f6620746869732060008201527f49442e2043616e6e6f742075706461746520636865636b73756d2e0000000000602082015250565b6000613f48603b8361324a565b9150613f5382613eec565b604082019050919050565b60006020820190508181036000830152613f7781613f3b565b9050919050565b6000819050919050565b6000613fa3613f9e613f9984613f7e565b613c92565b6132f1565b9050919050565b613fb381613f88565b82525050565b6000604082019050613fce6000830185613386565b613fdb6020830184613faa565b9392505050565b600081519050613ff1816136e4565b92915050565b60006020828403121561400d5761400c61317a565b5b600061401b84828501613fe2565b91505092915050565b6000819050919050565b600061404961404461403f84614024565b613c92565b6132f1565b9050919050565b6140598161402e565b82525050565b60006040820190506140746000830185613386565b6140816020830184614050565b9392505050565b6000819050919050565b60006140ad6140a86140a384614088565b613c92565b6132f1565b9050919050565b6140bd81614092565b82525050565b60006040820190506140d86000830185613386565b6140e560208301846140b4565b9392505050565b6000819050919050565b600061411161410c614107846140ec565b613c92565b6132f1565b9050919050565b614121816140f6565b82525050565b600060408201905061413c6000830185613386565b6141496020830184614118565b9392505050565b6000819050919050565b600061417561417061416b84614150565b613c92565b6132f1565b9050919050565b6141858161415a565b82525050565b60006040820190506141a06000830185613386565b6141ad602083018461417c565b9392505050565b6000819050919050565b60006141d96141d46141cf846141b4565b613c92565b6132f1565b9050919050565b6141e9816141be565b82525050565b60006040820190506142046000830185613386565b61421160208301846141e0565b9392505050565b6000819050919050565b600061423d61423861423384614218565b613c92565b6132f1565b9050919050565b61424d81614222565b82525050565b60006040820190506142686000830185613386565b6142756020830184614244565b9392505050565b6000819050919050565b60006142a161429c6142978461427c565b613c92565b6132f1565b9050919050565b6142b181614286565b82525050565b60006040820190506142cc6000830185613386565b6142d960208301846142a8565b9392505050565b6000819050919050565b60006143056143006142fb846142e0565b613c92565b6132f1565b9050919050565b614315816142ea565b82525050565b60006040820190506143306000830185613386565b61433d602083018461430c565b9392505050565b600081519050919050565b600082825260208201905092915050565b600061436b82614344565b614375818561434f565b935061438581856020860161325b565b61438e81613285565b840191505092915050565b60006080820190506143ae6000830187613386565b6143bb6020830186613386565b6143c8604083018561341c565b81810360608301526143da8184614360565b905095945050505050565b6000815190506143f4816131b0565b92915050565b6000602082840312156144105761440f61317a565b5b600061441e848285016143e5565b91505092915050565b7f4e487b7100000000000000000000000000000000000000000000000000000000600052601260045260246000fd5b6000614461826132f1565b915061446c836132f1565b925082820390508181111561448457614483613b97565b5b92915050565b7f4e487b7100000000000000000000000000000000000000000000000000000000600052603160045260246000fdfea2646970667358221220a7643e9ca197bd5fc562ddfaa35fe117a35054a6b49be01c0342e75e77b7d35c64736f6c63430008180033",
  "linkReferences": {},
  "deployedLinkReferences": {}
}