{
  "_format": "hh-sol-artifact-1",
  "contractName": "Observation",
  "sourceName": "contracts/Observation.sol",
  "abi": [
    {
      "inputs": [
        {
          "internalType": "address",
          "name": "initialOwner",
          "type": "address"
        },
        {
          "internalType": "string",
          "name": "initialBaseURI",
          "type": "string"
        },
        {
          "internalType": "address",
          "name": "gardenAuthContractAddress",
          "type": "address"
        },
        {
          "internalType": "address",
          "name": "badgeContractAddress",
          "type": "address"
        }
      ],
      "stateMutability": "nonpayable",
      "type": "constructor"
    },
    {
      "inputs": [],
      "name": "ERC721EnumerableForbiddenBatchMint",
      "type": "error"
    },
    {
      "inputs": [
        {
          "internalType": "address",
          "name": "sender",
          "type": "address"
        },
        {
          "internalType": "uint256",
          "name": "tokenId",
          "type": "uint256"
        },
        {
          "internalType": "address",
          "name": "owner",
          "type": "address"
        }
      ],
      "name": "ERC721IncorrectOwner",
      "type": "error"
    },
    {
      "inputs": [
        {
          "internalType": "address",
          "name": "operator",
          "type": "address"
        },
        {
          "internalType": "uint256",
          "name": "tokenId",
          "type": "uint256"
        }
      ],
      "name": "ERC721InsufficientApproval",
      "type": "error"
    },
    {
      "inputs": [
        {
          "internalType": "address",
          "name": "approver",
          "type": "address"
        }
      ],
      "name": "ERC721InvalidApprover",
      "type": "error"
    },
    {
      "inputs": [
        {
          "internalType": "address",
          "name": "operator",
          "type": "address"
        }
      ],
      "name": "ERC721InvalidOperator",
      "type": "error"
    },
    {
      "inputs": [
        {
          "internalType": "address",
          "name": "owner",
          "type": "address"
        }
      ],
      "name": "ERC721InvalidOwner",
      "type": "error"
    },
    {
      "inputs": [
        {
          "internalType": "address",
          "name": "receiver",
          "type": "address"
        }
      ],
      "name": "ERC721InvalidReceiver",
      "type": "error"
    },
    {
      "inputs": [
        {
          "internalType": "address",
          "name": "sender",
          "type": "address"
        }
      ],
      "name": "ERC721InvalidSender",
      "type": "error"
    },
    {
      "inputs": [
        {
          "internalType": "uint256",
          "name": "tokenId",
          "type": "uint256"
        }
      ],
      "name": "ERC721NonexistentToken",
      "type": "error"
    },
    {
      "inputs": [
        {
          "internalType": "address",
          "name": "owner",
          "type": "address"
        },
        {
          "internalType": "uint256",
          "name": "index",
          "type": "uint256"
        }
      ],
      "name": "ERC721OutOfBoundsIndex",
      "type": "error"
    },
    {
      "inputs": [
        {
          "internalType": "address",
          "name": "owner",
          "type": "address"
        }
      ],
      "name": "OwnableInvalidOwner",
      "type": "error"
    },
    {
      "inputs": [
        {
          "internalType": "address",
          "name": "account",
          "type": "address"
        }
      ],
      "name": "OwnableUnauthorizedAccount",
      "type": "error"
    },
    {
      "anonymous": false,
      "inputs": [
        {
          "indexed": true,
          "internalType": "address",
          "name": "owner",
          "type": "address"
        },
        {
          "indexed": true,
          "internalType": "address",
          "name": "approved",
          "type": "address"
        },
        {
          "indexed": true,
          "internalType": "uint256",
          "name": "tokenId",
          "type": "uint256"
        }
      ],
      "name": "Approval",
      "type": "event"
    },
    {
      "anonymous": false,
      "inputs": [
        {
          "indexed": true,
          "internalType": "address",
          "name": "owner",
          "type": "address"
        },
        {
          "indexed": true,
          "internalType": "address",
          "name": "operator",
          "type": "address"
        },
        {
          "indexed": false,
          "internalType": "bool",
          "name": "approved",
          "type": "bool"
        }
      ],
      "name": "ApprovalForAll",
      "type": "event"
    },
    {
      "anonymous": false,
      "inputs": [
        {
          "indexed": true,
          "internalType": "address",
          "name": "previousOwner",
          "type": "address"
        },
        {
          "indexed": true,
          "internalType": "address",
          "name": "newOwner",
          "type": "address"
        }
      ],
      "name": "OwnershipTransferred",
      "type": "event"
    },
    {
      "anonymous": false,
      "inputs": [
        {
          "indexed": true,
          "internalType": "address",
          "name": "from",
          "type": "address"
        },
        {
          "indexed": true,
          "internalType": "address",
          "name": "to",
          "type": "address"
        },
        {
          "indexed": true,
          "internalType": "uint256",
          "name": "tokenId",
          "type": "uint256"
        }
      ],
      "name": "Transfer",
      "type": "event"
    },
    {
      "inputs": [
        {
          "internalType": "address",
          "name": "to",
          "type": "address"
        },
        {
          "internalType": "uint256",
          "name": "tokenId",
          "type": "uint256"
        }
      ],
      "name": "approve",
      "outputs": [],
      "stateMutability": "nonpayable",
      "type": "function"
    },
    {
      "inputs": [
        {
          "internalType": "address",
          "name": "owner",
          "type": "address"
        }
      ],
      "name": "balanceOf",
      "outputs": [
        {
          "internalType": "uint256",
          "name": "",
          "type": "uint256"
        }
      ],
      "stateMutability": "view",
      "type": "function"
    },
    {
      "inputs": [
        {
          "internalType": "uint256",
          "name": "",
          "type": "uint256"
        }
      ],
      "name": "checksums",
      "outputs": [
        {
          "internalType": "bytes32",
          "name": "",
          "type": "bytes32"
        }
      ],
      "stateMutability": "view",
      "type": "function"
    },
    {
      "inputs": [
        {
          "internalType": "address",
          "name": "mintTo",
          "type": "address"
        },
        {
          "internalType": "bytes32",
          "name": "metadataChecksum",
          "type": "bytes32"
        }
      ],
      "name": "createObservation",
      "outputs": [],
      "stateMutability": "nonpayable",
      "type": "function"
    },
    {
      "inputs": [
        {
          "internalType": "uint256",
          "name": "tokenId",
          "type": "uint256"
        },
        {
          "internalType": "bytes32",
          "name": "checksum",
          "type": "bytes32"
        }
      ],
      "name": "doesChecksumMatch",
      "outputs": [
        {
          "internalType": "bool",
          "name": "",
          "type": "bool"
        }
      ],
      "stateMutability": "view",
      "type": "function"
    },
    {
      "inputs": [
        {
          "internalType": "uint256",
          "name": "tokenId",
          "type": "uint256"
        }
      ],
      "name": "getApproved",
      "outputs": [
        {
          "internalType": "address",
          "name": "",
          "type": "address"
        }
      ],
      "stateMutability": "view",
      "type": "function"
    },
    {
      "inputs": [],
      "name": "getBaseUri",
      "outputs": [
        {
          "internalType": "string",
          "name": "",
          "type": "string"
        }
      ],
      "stateMutability": "view",
      "type": "function"
    },
    {
      "inputs": [
        {
          "internalType": "uint256",
          "name": "tokenId",
          "type": "uint256"
        }
      ],
      "name": "getChecksum",
      "outputs": [
        {
          "internalType": "bytes32",
          "name": "",
          "type": "bytes32"
        }
      ],
      "stateMutability": "view",
      "type": "function"
    },
    {
      "inputs": [],
      "name": "getNextTokenId",
      "outputs": [
        {
          "internalType": "uint256",
          "name": "",
          "type": "uint256"
        }
      ],
      "stateMutability": "view",
      "type": "function"
    },
    {
      "inputs": [
        {
          "internalType": "address",
          "name": "owner",
          "type": "address"
        },
        {
          "internalType": "address",
          "name": "operator",
          "type": "address"
        }
      ],
      "name": "isApprovedForAll",
      "outputs": [
        {
          "internalType": "bool",
          "name": "",
          "type": "bool"
        }
      ],
      "stateMutability": "view",
      "type": "function"
    },
    {
      "inputs": [],
      "name": "name",
      "outputs": [
        {
          "internalType": "string",
          "name": "",
          "type": "string"
        }
      ],
      "stateMutability": "view",
      "type": "function"
    },
    {
      "inputs": [],
      "name": "owner",
      "outputs": [
        {
          "internalType": "address",
          "name": "",
          "type": "address"
        }
      ],
      "stateMutability": "view",
      "type": "function"
    },
    {
      "inputs": [
        {
          "internalType": "uint256",
          "name": "tokenId",
          "type": "uint256"
        }
      ],
      "name": "ownerOf",
      "outputs": [
        {
          "internalType": "address",
          "name": "",
          "type": "address"
        }
      ],
      "stateMutability": "view",
      "type": "function"
    },
    {
      "inputs": [
        {
          "internalType": "address",
          "name": "owner",
          "type": "address"
        }
      ],
      "name": "ownersTokens",
      "outputs": [
        {
          "internalType": "uint256[]",
          "name": "",
          "type": "uint256[]"
        }
      ],
      "stateMutability": "view",
      "type": "function"
    },
    {
      "inputs": [],
      "name": "renounceOwnership",
      "outputs": [],
      "stateMutability": "nonpayable",
      "type": "function"
    },
    {
      "inputs": [
        {
          "internalType": "address",
          "name": "from",
          "type": "address"
        },
        {
          "internalType": "address",
          "name": "to",
          "type": "address"
        },
        {
          "internalType": "uint256",
          "name": "tokenId",
          "type": "uint256"
        }
      ],
      "name": "safeTransferFrom",
      "outputs": [],
      "stateMutability": "nonpayable",
      "type": "function"
    },
    {
      "inputs": [
        {
          "internalType": "address",
          "name": "from",
          "type": "address"
        },
        {
          "internalType": "address",
          "name": "to",
          "type": "address"
        },
        {
          "internalType": "uint256",
          "name": "tokenId",
          "type": "uint256"
        },
        {
          "internalType": "bytes",
          "name": "data",
          "type": "bytes"
        }
      ],
      "name": "safeTransferFrom",
      "outputs": [],
      "stateMutability": "nonpayable",
      "type": "function"
    },
    {
      "inputs": [
        {
          "internalType": "address",
          "name": "operator",
          "type": "address"
        },
        {
          "internalType": "bool",
          "name": "approved",
          "type": "bool"
        }
      ],
      "name": "setApprovalForAll",
      "outputs": [],
      "stateMutability": "nonpayable",
      "type": "function"
    },
    {
      "inputs": [
        {
          "internalType": "address",
          "name": "newBadgeContract",
          "type": "address"
        }
      ],
      "name": "setBadgeContractAddress",
      "outputs": [],
      "stateMutability": "nonpayable",
      "type": "function"
    },
    {
      "inputs": [
        {
          "internalType": "string",
          "name": "newBaseURI",
          "type": "string"
        }
      ],
      "name": "setBaseUri",
      "outputs": [],
      "stateMutability": "nonpayable",
      "type": "function"
    },
    {
      "inputs": [
        {
          "internalType": "address",
          "name": "newGardenExplorerAddress",
          "type": "address"
        }
      ],
      "name": "setGardenAuthContractAddress",
      "outputs": [],
      "stateMutability": "nonpayable",
      "type": "function"
    },
    {
      "inputs": [
        {
          "internalType": "uint256",
          "name": "newMintPrice",
          "type": "uint256"
        }
      ],
      "name": "setMintPrice",
      "outputs": [],
      "stateMutability": "nonpayable",
      "type": "function"
    },
    {
      "inputs": [
        {
          "internalType": "bytes4",
          "name": "interfaceId",
          "type": "bytes4"
        }
      ],
      "name": "supportsInterface",
      "outputs": [
        {
          "internalType": "bool",
          "name": "",
          "type": "bool"
        }
      ],
      "stateMutability": "view",
      "type": "function"
    },
    {
      "inputs": [],
      "name": "symbol",
      "outputs": [
        {
          "internalType": "string",
          "name": "",
          "type": "string"
        }
      ],
      "stateMutability": "view",
      "type": "function"
    },
    {
      "inputs": [
        {
          "internalType": "uint256",
          "name": "index",
          "type": "uint256"
        }
      ],
      "name": "tokenByIndex",
      "outputs": [
        {
          "internalType": "uint256",
          "name": "",
          "type": "uint256"
        }
      ],
      "stateMutability": "view",
      "type": "function"
    },
    {
      "inputs": [
        {
          "internalType": "address",
          "name": "owner",
          "type": "address"
        },
        {
          "internalType": "uint256",
          "name": "index",
          "type": "uint256"
        }
      ],
      "name": "tokenOfOwnerByIndex",
      "outputs": [
        {
          "internalType": "uint256",
          "name": "",
          "type": "uint256"
        }
      ],
      "stateMutability": "view",
      "type": "function"
    },
    {
      "inputs": [
        {
          "internalType": "uint256",
          "name": "tokenId",
          "type": "uint256"
        }
      ],
      "name": "tokenURI",
      "outputs": [
        {
          "internalType": "string",
          "name": "",
          "type": "string"
        }
      ],
      "stateMutability": "view",
      "type": "function"
    },
    {
      "inputs": [],
      "name": "totalSupply",
      "outputs": [
        {
          "internalType": "uint256",
          "name": "",
          "type": "uint256"
        }
      ],
      "stateMutability": "view",
      "type": "function"
    },
    {
      "inputs": [
        {
          "internalType": "address",
          "name": "from",
          "type": "address"
        },
        {
          "internalType": "address",
          "name": "to",
          "type": "address"
        },
        {
          "internalType": "uint256",
          "name": "tokenId",
          "type": "uint256"
        }
      ],
      "name": "transferFrom",
      "outputs": [],
      "stateMutability": "nonpayable",
      "type": "function"
    },
    {
      "inputs": [
        {
          "internalType": "address",
          "name": "newOwner",
          "type": "address"
        }
      ],
      "name": "transferOwnership",
      "outputs": [],
      "stateMutability": "nonpayable",
      "type": "function"
    },
    {
      "inputs": [
        {
          "internalType": "uint256",
          "name": "tokenId",
          "type": "uint256"
        },
        {
          "internalType": "bytes32",
          "name": "newChecksum",
          "type": "bytes32"
        }
      ],
      "name": "updateChecksum",
      "outputs": [],
      "stateMutability": "nonpayable",
      "type": "function"
    },
    {
      "inputs": [
        {
          "internalType": "address",
          "name": "newGardenExplorer",
          "type": "address"
        }
      ],
      "name": "updateGardenExplorer",
      "outputs": [],
      "stateMutability": "nonpayable",
      "type": "function"
    }
  ],
  "bytecode": "0x60806040526000600b556000600d553480156200001b57600080fd5b5060405162005084380380620050848339818101604052810190620000419190620004b7565b836040518060400160405280601b81526020017f47617264656e204578706c6f726572204f62736572766174696f6e00000000008152506040518060400160405280600781526020017f4f425345525645000000000000000000000000000000000000000000000000008152508160009081620000bf919062000793565b508060019081620000d1919062000793565b505050600073ffffffffffffffffffffffffffffffffffffffff168173ffffffffffffffffffffffffffffffffffffffff1603620001495760006040517f1e4fbdf70000000000000000000000000000000000000000000000000000000081526004016200014091906200088b565b60405180910390fd5b6200015a81620001f960201b60201c565b5081600f60006101000a81548173ffffffffffffffffffffffffffffffffffffffff021916908373ffffffffffffffffffffffffffffffffffffffff16021790555080601060006101000a81548173ffffffffffffffffffffffffffffffffffffffff021916908373ffffffffffffffffffffffffffffffffffffffff16021790555082600c9081620001ee919062000793565b5050505050620008a8565b6000600a60009054906101000a900473ffffffffffffffffffffffffffffffffffffffff16905081600a60006101000a81548173ffffffffffffffffffffffffffffffffffffffff021916908373ffffffffffffffffffffffffffffffffffffffff1602179055508173ffffffffffffffffffffffffffffffffffffffff168173ffffffffffffffffffffffffffffffffffffffff167f8be0079c531659141344cd1fd0a4f28419497f9722a3daafe3b4186f6b6457e060405160405180910390a35050565b6000604051905090565b600080fd5b600080fd5b600073ffffffffffffffffffffffffffffffffffffffff82169050919050565b60006200030082620002d3565b9050919050565b6200031281620002f3565b81146200031e57600080fd5b50565b600081519050620003328162000307565b92915050565b600080fd5b600080fd5b6000601f19601f8301169050919050565b7f4e487b7100000000000000000000000000000000000000000000000000000000600052604160045260246000fd5b6200038d8262000342565b810181811067ffffffffffffffff82111715620003af57620003ae62000353565b5b80604052505050565b6000620003c4620002bf565b9050620003d2828262000382565b919050565b600067ffffffffffffffff821115620003f557620003f462000353565b5b620004008262000342565b9050602081019050919050565b60005b838110156200042d57808201518184015260208101905062000410565b60008484015250505050565b6000620004506200044a84620003d7565b620003b8565b9050828152602081018484840111156200046f576200046e6200033d565b5b6200047c8482856200040d565b509392505050565b600082601f8301126200049c576200049b62000338565b5b8151620004ae84826020860162000439565b91505092915050565b60008060008060808587031215620004d457620004d3620002c9565b5b6000620004e48782880162000321565b945050602085015167ffffffffffffffff811115620005085762000507620002ce565b5b620005168782880162000484565b9350506040620005298782880162000321565b92505060606200053c8782880162000321565b91505092959194509250565b600081519050919050565b7f4e487b7100000000000000000000000000000000000000000000000000000000600052602260045260246000fd5b600060028204905060018216806200059b57607f821691505b602082108103620005b157620005b062000553565b5b50919050565b60008190508160005260206000209050919050565b60006020601f8301049050919050565b600082821b905092915050565b6000600883026200061b7fffffffffffffffffffffffffffffffffffffffffffffffffffffffffffffffff82620005dc565b620006278683620005dc565b95508019841693508086168417925050509392505050565b6000819050919050565b6000819050919050565b6000620006746200066e62000668846200063f565b62000649565b6200063f565b9050919050565b6000819050919050565b620006908362000653565b620006a86200069f826200067b565b848454620005e9565b825550505050565b600090565b620006bf620006b0565b620006cc81848462000685565b505050565b5b81811015620006f457620006e8600082620006b5565b600181019050620006d2565b5050565b601f82111562000743576200070d81620005b7565b6200071884620005cc565b8101602085101562000728578190505b620007406200073785620005cc565b830182620006d1565b50505b505050565b600082821c905092915050565b6000620007686000198460080262000748565b1980831691505092915050565b600062000783838362000755565b9150826002028217905092915050565b6200079e8262000548565b67ffffffffffffffff811115620007ba57620007b962000353565b5b620007c6825462000582565b620007d3828285620006f8565b600060209050601f8311600181146200080b5760008415620007f6578287015190505b62000802858262000775565b86555062000872565b601f1984166200081b86620005b7565b60005b8281101562000845578489015182556001820191506020850194506020810190506200081e565b8683101562000865578489015162000861601f89168262000755565b8355505b6001600288020188555050505b505050505050565b6200088581620002f3565b82525050565b6000602082019050620008a260008301846200087a565b92915050565b6147cc80620008b86000396000f3fe608060405234801561001057600080fd5b50600436106101f05760003560e01c806395d89b411161010f578063daff94e9116100a2578063f1139bf711610071578063f1139bf7146105ef578063f2fde38b1461060b578063f4a0a52814610627578063f572b00814610643576101f0565b8063daff94e914610557578063dedfbaa114610573578063e8eae3cf1461058f578063e985e9c5146105bf576101f0565b8063b88d4fde116100de578063b88d4fde146104bd578063c87b56dd146104d9578063caa0f92a14610509578063d712b74414610527576101f0565b806395d89b4114610437578063a0bcfc7f14610455578063a22cb46514610471578063ab6dad7f1461048d576101f0565b80632f745c59116101875780636352211e116101565780636352211e146103af57806370a08231146103df578063715018a61461040f5780638da5cb5b14610419576101f0565b80632f745c591461030357806342842e0e146103335780634c9c27571461034f5780634f6ccce71461037f576101f0565b80630cac36b2116101c35780630cac36b21461028f57806318160ddd146102ad578063217b595e146102cb57806323b872dd146102e7576101f0565b806301ffc9a7146101f557806306fdde0314610225578063081812fc14610243578063095ea7b314610273575b600080fd5b61020f600480360381019061020a919061345a565b61065f565b60405161021c91906134a2565b60405180910390f35b61022d610671565b60405161023a919061354d565b60405180910390f35b61025d600480360381019061025891906135a5565b610703565b60405161026a9190613613565b60405180910390f35b61028d6004803603810190610288919061365a565b61071f565b005b610297610735565b6040516102a4919061354d565b60405180910390f35b6102b56107c7565b6040516102c291906136a9565b60405180910390f35b6102e560048036038101906102e091906136c4565b6107d4565b005b61030160048036038101906102fc91906136f1565b610820565b005b61031d6004803603810190610318919061365a565b610922565b60405161032a91906136a9565b60405180910390f35b61034d600480360381019061034891906136f1565b6109cb565b005b610369600480360381019061036491906135a5565b6109eb565b604051610376919061375d565b60405180910390f35b610399600480360381019061039491906135a5565b610a08565b6040516103a691906136a9565b60405180910390f35b6103c960048036038101906103c491906135a5565b610a7e565b6040516103d69190613613565b60405180910390f35b6103f960048036038101906103f491906136c4565b610a90565b60405161040691906136a9565b60405180910390f35b610417610b4a565b005b610421610b5e565b60405161042e9190613613565b60405180910390f35b61043f610b88565b60405161044c919061354d565b60405180910390f35b61046f600480360381019061046a91906138ad565b610c1a565b005b61048b60048036038101906104869190613922565b610c35565b005b6104a760048036038101906104a2919061398e565b610c4b565b6040516104b491906134a2565b60405180910390f35b6104d760048036038101906104d29190613a6f565b610c6b565b005b6104f360048036038101906104ee91906135a5565b610c88565b604051610500919061354d565b60405180910390f35b610511610cf1565b60405161051e91906136a9565b60405180910390f35b610541600480360381019061053c91906136c4565b610cfb565b60405161054e9190613bb0565b60405180910390f35b610571600480360381019061056c91906136c4565b610da3565b005b61058d600480360381019061058891906136c4565b610def565b005b6105a960048036038101906105a491906135a5565b610e3b565b6040516105b6919061375d565b60405180910390f35b6105d960048036038101906105d49190613bd2565b610e53565b6040516105e691906134a2565b60405180910390f35b6106096004803603810190610604919061398e565b610ee7565b005b610625600480360381019061062091906136c4565b610f79565b005b610641600480360381019061063c91906135a5565b610fff565b005b61065d60048036038101906106589190613c12565b611011565b005b600061066a8261113a565b9050919050565b60606000805461068090613c81565b80601f01602080910402602001604051908101604052809291908181526020018280546106ac90613c81565b80156106f95780601f106106ce576101008083540402835291602001916106f9565b820191906000526020600020905b8154815290600101906020018083116106dc57829003601f168201915b5050505050905090565b600061070e826111b4565b506107188261123c565b9050919050565b610731828261072c611279565b611281565b5050565b6060600c805461074490613c81565b80601f016020809104026020016040519081016040528092919081815260200182805461077090613c81565b80156107bd5780601f10610792576101008083540402835291602001916107bd565b820191906000526020600020905b8154815290600101906020018083116107a057829003601f168201915b5050505050905090565b6000600880549050905090565b6107dc611293565b80600f60006101000a81548173ffffffffffffffffffffffffffffffffffffffff021916908373ffffffffffffffffffffffffffffffffffffffff16021790555050565b600073ffffffffffffffffffffffffffffffffffffffff168273ffffffffffffffffffffffffffffffffffffffff16036108925760006040517f64a0ae920000000000000000000000000000000000000000000000000000000081526004016108899190613613565b60405180910390fd5b60006108a683836108a1611279565b61131a565b90508373ffffffffffffffffffffffffffffffffffffffff168173ffffffffffffffffffffffffffffffffffffffff161461091c578382826040517f64283d7b00000000000000000000000000000000000000000000000000000000815260040161091393929190613cb2565b60405180910390fd5b50505050565b600061092d83610a90565b82106109725782826040517fa57d13dc000000000000000000000000000000000000000000000000000000008152600401610969929190613ce9565b60405180910390fd5b600660008473ffffffffffffffffffffffffffffffffffffffff1673ffffffffffffffffffffffffffffffffffffffff168152602001908152602001600020600083815260200190815260200160002054905092915050565b6109e683838360405180602001604052806000815250610c6b565b505050565b6000600e6000838152602001908152602001600020549050919050565b6000610a126107c7565b8210610a58576000826040517fa57d13dc000000000000000000000000000000000000000000000000000000008152600401610a4f929190613ce9565b60405180910390fd5b60088281548110610a6c57610a6b613d12565b5b90600052602060002001549050919050565b6000610a89826111b4565b9050919050565b60008073ffffffffffffffffffffffffffffffffffffffff168273ffffffffffffffffffffffffffffffffffffffff1603610b035760006040517f89c62b64000000000000000000000000000000000000000000000000000000008152600401610afa9190613613565b60405180910390fd5b600360008373ffffffffffffffffffffffffffffffffffffffff1673ffffffffffffffffffffffffffffffffffffffff168152602001908152602001600020549050919050565b610b52611293565b610b5c6000611330565b565b6000600a60009054906101000a900473ffffffffffffffffffffffffffffffffffffffff16905090565b606060018054610b9790613c81565b80601f0160208091040260200160405190810160405280929190818152602001828054610bc390613c81565b8015610c105780601f10610be557610100808354040283529160200191610c10565b820191906000526020600020905b815481529060010190602001808311610bf357829003601f168201915b5050505050905090565b610c22611293565b80600c9081610c319190613eed565b5050565b610c47610c40611279565b83836113f6565b5050565b600081600e60008581526020019081526020016000205414905092915050565b610c76848484610820565b610c8284848484611565565b50505050565b6060610c93826111b4565b506000610c9e61171c565b90506000815111610cbe5760405180602001604052806000815250610ce9565b80610cc8846117ae565b604051602001610cd9929190613ffb565b6040516020818303038152906040525b915050919050565b6000600b54905090565b60606000610d0883610a90565b905060008167ffffffffffffffff811115610d2657610d25613782565b5b604051908082528060200260200182016040528015610d545781602001602082028036833780820191505090505b50905060005b82811015610d9857610d6c8582610922565b828281518110610d7f57610d7e613d12565b5b6020026020010181815250508080600101915050610d5a565b508092505050919050565b610dab611293565b80600f60006101000a81548173ffffffffffffffffffffffffffffffffffffffff021916908373ffffffffffffffffffffffffffffffffffffffff16021790555050565b610df7611293565b80601060006101000a81548173ffffffffffffffffffffffffffffffffffffffff021916908373ffffffffffffffffffffffffffffffffffffffff16021790555050565b600e6020528060005260406000206000915090505481565b6000600560008473ffffffffffffffffffffffffffffffffffffffff1673ffffffffffffffffffffffffffffffffffffffff16815260200190815260200160002060008373ffffffffffffffffffffffffffffffffffffffff1673ffffffffffffffffffffffffffffffffffffffff16815260200190815260200160002060009054906101000a900460ff16905092915050565b3373ffffffffffffffffffffffffffffffffffffffff16610f078361187c565b73ffffffffffffffffffffffffffffffffffffffff1614610f5d576040517f08c379a0000000000000000000000000000000000000000000000000000000008152600401610f5490614091565b60405180910390fd5b80600e6000848152602001908152602001600020819055505050565b610f81611293565b600073ffffffffffffffffffffffffffffffffffffffff168173ffffffffffffffffffffffffffffffffffffffff1603610ff35760006040517f1e4fbdf7000000000000000000000000000000000000000000000000000000008152600401610fea9190613613565b60405180910390fd5b610ffc81611330565b50565b611007611293565b80600d8190555050565b6000600f60009054906101000a900473ffffffffffffffffffffffffffffffffffffffff1673ffffffffffffffffffffffffffffffffffffffff166370a08231846040518263ffffffff1660e01b815260040161106e9190613613565b602060405180830381865afa15801561108b573d6000803e3d6000fd5b505050506040513d601f19601f820116820180604052508101906110af91906140c6565b116110ef576040517f08c379a00000000000000000000000000000000000000000000000000000000081526004016110e690614165565b60405180910390fd5b6110fb82600b546118b9565b80600e6000600b5481526020019081526020016000208190555061111e826118d7565b600b6000815480929190611131906141b4565b91905055505050565b60007f780e9d63000000000000000000000000000000000000000000000000000000007bffffffffffffffffffffffffffffffffffffffffffffffffffffffff1916827bffffffffffffffffffffffffffffffffffffffffffffffffffffffff191614806111ad57506111ac8261252e565b5b9050919050565b6000806111c08361187c565b9050600073ffffffffffffffffffffffffffffffffffffffff168173ffffffffffffffffffffffffffffffffffffffff160361123357826040517f7e27328900000000000000000000000000000000000000000000000000000000815260040161122a91906136a9565b60405180910390fd5b80915050919050565b60006004600083815260200190815260200160002060009054906101000a900473ffffffffffffffffffffffffffffffffffffffff169050919050565b600033905090565b61128e8383836001612610565b505050565b61129b611279565b73ffffffffffffffffffffffffffffffffffffffff166112b9610b5e565b73ffffffffffffffffffffffffffffffffffffffff1614611318576112dc611279565b6040517f118cdaa700000000000000000000000000000000000000000000000000000000815260040161130f9190613613565b60405180910390fd5b565b60006113278484846127d5565b90509392505050565b6000600a60009054906101000a900473ffffffffffffffffffffffffffffffffffffffff16905081600a60006101000a81548173ffffffffffffffffffffffffffffffffffffffff021916908373ffffffffffffffffffffffffffffffffffffffff1602179055508173ffffffffffffffffffffffffffffffffffffffff168173ffffffffffffffffffffffffffffffffffffffff167f8be0079c531659141344cd1fd0a4f28419497f9722a3daafe3b4186f6b6457e060405160405180910390a35050565b600073ffffffffffffffffffffffffffffffffffffffff168273ffffffffffffffffffffffffffffffffffffffff160361146757816040517f5b08ba1800000000000000000000000000000000000000000000000000000000815260040161145e9190613613565b60405180910390fd5b80600560008573ffffffffffffffffffffffffffffffffffffffff1673ffffffffffffffffffffffffffffffffffffffff16815260200190815260200160002060008473ffffffffffffffffffffffffffffffffffffffff1673ffffffffffffffffffffffffffffffffffffffff16815260200190815260200160002060006101000a81548160ff0219169083151502179055508173ffffffffffffffffffffffffffffffffffffffff168373ffffffffffffffffffffffffffffffffffffffff167f17307eab39ab6107e8899845ad3d59bd9653f200f220920489ca2b5937696c318360405161155891906134a2565b60405180910390a3505050565b60008373ffffffffffffffffffffffffffffffffffffffff163b1115611716578273ffffffffffffffffffffffffffffffffffffffff1663150b7a026115a9611279565b8685856040518563ffffffff1660e01b81526004016115cb9493929190614251565b6020604051808303816000875af192505050801561160757506040513d601f19601f8201168201806040525081019061160491906142b2565b60015b61168b573d8060008114611637576040519150601f19603f3d011682016040523d82523d6000602084013e61163c565b606091505b50600081510361168357836040517f64a0ae9200000000000000000000000000000000000000000000000000000000815260040161167a9190613613565b60405180910390fd5b805181602001fd5b63150b7a0260e01b7bffffffffffffffffffffffffffffffffffffffffffffffffffffffff1916817bffffffffffffffffffffffffffffffffffffffffffffffffffffffff19161461171457836040517f64a0ae9200000000000000000000000000000000000000000000000000000000815260040161170b9190613613565b60405180910390fd5b505b50505050565b6060600c805461172b90613c81565b80601f016020809104026020016040519081016040528092919081815260200182805461175790613c81565b80156117a45780601f10611779576101008083540402835291602001916117a4565b820191906000526020600020905b81548152906001019060200180831161178757829003601f168201915b5050505050905090565b6060600060016117bd846128f2565b01905060008167ffffffffffffffff8111156117dc576117db613782565b5b6040519080825280601f01601f19166020018201604052801561180e5781602001600182028036833780820191505090505b509050600082602001820190505b600115611871578080600190039150507f3031323334353637383961626364656600000000000000000000000000000000600a86061a8153600a8581611865576118646142df565b5b0494506000850361181c575b819350505050919050565b60006002600083815260200190815260200160002060009054906101000a900473ffffffffffffffffffffffffffffffffffffffff169050919050565b6118d3828260405180602001604052806000815250612a45565b5050565b60006118e282610a90565b90506119236040518060400160405280601381526020017f4f62736572766174696f6e20636f756e743a200000000000000000000000000081525082612a61565b60018103611aa257601060009054906101000a900473ffffffffffffffffffffffffffffffffffffffff1673ffffffffffffffffffffffffffffffffffffffff16634c6a70ce8360016040518363ffffffff1660e01b8152600401611989929190614349565b602060405180830381865afa1580156119a6573d6000803e3d6000fd5b505050506040513d601f19601f820116820180604052508101906119ca9190614387565b611a9d57611a0c6040518060400160405280601081526020017f6177617264696e67206261646765203100000000000000000000000000000000815250612afd565b601060009054906101000a900473ffffffffffffffffffffffffffffffffffffffff1673ffffffffffffffffffffffffffffffffffffffff166317872b218360016040518363ffffffff1660e01b8152600401611a6a929190614349565b600060405180830381600087803b158015611a8457600080fd5b505af1158015611a98573d6000803e3d6000fd5b505050505b61252a565b60038103611c2157601060009054906101000a900473ffffffffffffffffffffffffffffffffffffffff1673ffffffffffffffffffffffffffffffffffffffff16634c6a70ce8360026040518363ffffffff1660e01b8152600401611b089291906143ef565b602060405180830381865afa158015611b25573d6000803e3d6000fd5b505050506040513d601f19601f82011682018060405250810190611b499190614387565b611c1c57611b8b6040518060400160405280601081526020017f6177617264696e67206261646765203200000000000000000000000000000000815250612afd565b601060009054906101000a900473ffffffffffffffffffffffffffffffffffffffff1673ffffffffffffffffffffffffffffffffffffffff166317872b218360026040518363ffffffff1660e01b8152600401611be99291906143ef565b600060405180830381600087803b158015611c0357600080fd5b505af1158015611c17573d6000803e3d6000fd5b505050505b612529565b60058103611da057601060009054906101000a900473ffffffffffffffffffffffffffffffffffffffff1673ffffffffffffffffffffffffffffffffffffffff16634c6a70ce8360036040518363ffffffff1660e01b8152600401611c87929190614453565b602060405180830381865afa158015611ca4573d6000803e3d6000fd5b505050506040513d601f19601f82011682018060405250810190611cc89190614387565b611d9b57611d0a6040518060400160405280601081526020017f6177617264696e67206261646765203300000000000000000000000000000000815250612afd565b601060009054906101000a900473ffffffffffffffffffffffffffffffffffffffff1673ffffffffffffffffffffffffffffffffffffffff166317872b218360036040518363ffffffff1660e01b8152600401611d68929190614453565b600060405180830381600087803b158015611d8257600080fd5b505af1158015611d96573d6000803e3d6000fd5b505050505b612528565b600a8103611ee157601060009054906101000a900473ffffffffffffffffffffffffffffffffffffffff1673ffffffffffffffffffffffffffffffffffffffff16634c6a70ce8360046040518363ffffffff1660e01b8152600401611e069291906144b7565b602060405180830381865afa158015611e23573d6000803e3d6000fd5b505050506040513d601f19601f82011682018060405250810190611e479190614387565b611edc57601060009054906101000a900473ffffffffffffffffffffffffffffffffffffffff1673ffffffffffffffffffffffffffffffffffffffff166317872b218360046040518363ffffffff1660e01b8152600401611ea99291906144b7565b600060405180830381600087803b158015611ec357600080fd5b505af1158015611ed7573d6000803e3d6000fd5b505050505b612527565b6014810361202257601060009054906101000a900473ffffffffffffffffffffffffffffffffffffffff1673ffffffffffffffffffffffffffffffffffffffff16634c6a70ce8360056040518363ffffffff1660e01b8152600401611f4792919061451b565b602060405180830381865afa158015611f64573d6000803e3d6000fd5b505050506040513d601f19601f82011682018060405250810190611f889190614387565b61201d57601060009054906101000a900473ffffffffffffffffffffffffffffffffffffffff1673ffffffffffffffffffffffffffffffffffffffff166317872b218360056040518363ffffffff1660e01b8152600401611fea92919061451b565b600060405180830381600087803b15801561200457600080fd5b505af1158015612018573d6000803e3d6000fd5b505050505b612526565b601e810361216357601060009054906101000a900473ffffffffffffffffffffffffffffffffffffffff1673ffffffffffffffffffffffffffffffffffffffff16634c6a70ce8360066040518363ffffffff1660e01b815260040161208892919061457f565b602060405180830381865afa1580156120a5573d6000803e3d6000fd5b505050506040513d601f19601f820116820180604052508101906120c99190614387565b61215e57601060009054906101000a900473ffffffffffffffffffffffffffffffffffffffff1673ffffffffffffffffffffffffffffffffffffffff166317872b218360066040518363ffffffff1660e01b815260040161212b92919061457f565b600060405180830381600087803b15801561214557600080fd5b505af1158015612159573d6000803e3d6000fd5b505050505b612525565b603281036122a457601060009054906101000a900473ffffffffffffffffffffffffffffffffffffffff1673ffffffffffffffffffffffffffffffffffffffff16634c6a70ce8360076040518363ffffffff1660e01b81526004016121c99291906145e3565b602060405180830381865afa1580156121e6573d6000803e3d6000fd5b505050506040513d601f19601f8201168201806040525081019061220a9190614387565b61229f57601060009054906101000a900473ffffffffffffffffffffffffffffffffffffffff1673ffffffffffffffffffffffffffffffffffffffff166317872b218360076040518363ffffffff1660e01b815260040161226c9291906145e3565b600060405180830381600087803b15801561228657600080fd5b505af115801561229a573d6000803e3d6000fd5b505050505b612524565b604b81036123e557601060009054906101000a900473ffffffffffffffffffffffffffffffffffffffff1673ffffffffffffffffffffffffffffffffffffffff16634c6a70ce8360086040518363ffffffff1660e01b815260040161230a929190614647565b602060405180830381865afa158015612327573d6000803e3d6000fd5b505050506040513d601f19601f8201168201806040525081019061234b9190614387565b6123e057601060009054906101000a900473ffffffffffffffffffffffffffffffffffffffff1673ffffffffffffffffffffffffffffffffffffffff166317872b218360086040518363ffffffff1660e01b81526004016123ad929190614647565b600060405180830381600087803b1580156123c757600080fd5b505af11580156123db573d6000803e3d6000fd5b505050505b612523565b6064810361252257601060009054906101000a900473ffffffffffffffffffffffffffffffffffffffff1673ffffffffffffffffffffffffffffffffffffffff16634c6a70ce8360096040518363ffffffff1660e01b815260040161244b9291906146ab565b602060405180830381865afa158015612468573d6000803e3d6000fd5b505050506040513d601f19601f8201168201806040525081019061248c9190614387565b61252157601060009054906101000a900473ffffffffffffffffffffffffffffffffffffffff1673ffffffffffffffffffffffffffffffffffffffff166317872b218360096040518363ffffffff1660e01b81526004016124ee9291906146ab565b600060405180830381600087803b15801561250857600080fd5b505af115801561251c573d6000803e3d6000fd5b505050505b5b5b5b5b5b5b5b5b5b5050565b60007f80ac58cd000000000000000000000000000000000000000000000000000000007bffffffffffffffffffffffffffffffffffffffffffffffffffffffff1916827bffffffffffffffffffffffffffffffffffffffffffffffffffffffff191614806125f957507f5b5e139f000000000000000000000000000000000000000000000000000000007bffffffffffffffffffffffffffffffffffffffffffffffffffffffff1916827bffffffffffffffffffffffffffffffffffffffffffffffffffffffff1916145b80612609575061260882612b96565b5b9050919050565b80806126495750600073ffffffffffffffffffffffffffffffffffffffff168273ffffffffffffffffffffffffffffffffffffffff1614155b1561277d576000612659846111b4565b9050600073ffffffffffffffffffffffffffffffffffffffff168373ffffffffffffffffffffffffffffffffffffffff16141580156126c457508273ffffffffffffffffffffffffffffffffffffffff168173ffffffffffffffffffffffffffffffffffffffff1614155b80156126d757506126d58184610e53565b155b1561271957826040517fa9fbf51f0000000000000000000000000000000000000000000000000000000081526004016127109190613613565b60405180910390fd5b811561277b57838573ffffffffffffffffffffffffffffffffffffffff168273ffffffffffffffffffffffffffffffffffffffff167f8c5be1e5ebec7d5bd14f71427d1e84f3dd0314c0f7b2291e5b200ac8c7c3b92560405160405180910390a45b505b836004600085815260200190815260200160002060006101000a81548173ffffffffffffffffffffffffffffffffffffffff021916908373ffffffffffffffffffffffffffffffffffffffff16021790555050505050565b6000806127e3858585612c00565b9050600073ffffffffffffffffffffffffffffffffffffffff168173ffffffffffffffffffffffffffffffffffffffff16036128275761282284612e1a565b612866565b8473ffffffffffffffffffffffffffffffffffffffff168173ffffffffffffffffffffffffffffffffffffffff1614612865576128648185612e63565b5b5b600073ffffffffffffffffffffffffffffffffffffffff168573ffffffffffffffffffffffffffffffffffffffff16036128a8576128a384612fc4565b6128e7565b8473ffffffffffffffffffffffffffffffffffffffff168173ffffffffffffffffffffffffffffffffffffffff16146128e6576128e58585613095565b5b5b809150509392505050565b600080600090507a184f03e93ff9f4daa797ed6e38ed64bf6a1f0100000000000000008310612950577a184f03e93ff9f4daa797ed6e38ed64bf6a1f0100000000000000008381612946576129456142df565b5b0492506040810190505b6d04ee2d6d415b85acef8100000000831061298d576d04ee2d6d415b85acef81000000008381612983576129826142df565b5b0492506020810190505b662386f26fc1000083106129bc57662386f26fc1000083816129b2576129b16142df565b5b0492506010810190505b6305f5e10083106129e5576305f5e10083816129db576129da6142df565b5b0492506008810190505b6127108310612a0a576127108381612a00576129ff6142df565b5b0492506004810190505b60648310612a2d5760648381612a2357612a226142df565b5b0492506002810190505b600a8310612a3c576001810190505b80915050919050565b612a4f8383613120565b612a5c6000848484611565565b505050565b612af98282604051602401612a779291906146d4565b6040516020818303038152906040527fb60e72cc000000000000000000000000000000000000000000000000000000007bffffffffffffffffffffffffffffffffffffffffffffffffffffffff19166020820180517bffffffffffffffffffffffffffffffffffffffffffffffffffffffff8381831617835250505050613219565b5050565b612b9381604051602401612b11919061354d565b6040516020818303038152906040527f41304fac000000000000000000000000000000000000000000000000000000007bffffffffffffffffffffffffffffffffffffffffffffffffffffffff19166020820180517bffffffffffffffffffffffffffffffffffffffffffffffffffffffff8381831617835250505050613219565b50565b60007f01ffc9a7000000000000000000000000000000000000000000000000000000007bffffffffffffffffffffffffffffffffffffffffffffffffffffffff1916827bffffffffffffffffffffffffffffffffffffffffffffffffffffffff1916149050919050565b600080612c0c8461187c565b9050600073ffffffffffffffffffffffffffffffffffffffff168373ffffffffffffffffffffffffffffffffffffffff1614612c4e57612c4d818486613233565b5b600073ffffffffffffffffffffffffffffffffffffffff168173ffffffffffffffffffffffffffffffffffffffff1614612cdf57612c90600085600080612610565b6001600360008373ffffffffffffffffffffffffffffffffffffffff1673ffffffffffffffffffffffffffffffffffffffff168152602001908152602001600020600082825403925050819055505b600073ffffffffffffffffffffffffffffffffffffffff168573ffffffffffffffffffffffffffffffffffffffff1614612d62576001600360008773ffffffffffffffffffffffffffffffffffffffff1673ffffffffffffffffffffffffffffffffffffffff168152602001908152602001600020600082825401925050819055505b846002600086815260200190815260200160002060006101000a81548173ffffffffffffffffffffffffffffffffffffffff021916908373ffffffffffffffffffffffffffffffffffffffff160217905550838573ffffffffffffffffffffffffffffffffffffffff168273ffffffffffffffffffffffffffffffffffffffff167fddf252ad1be2c89b69c2b068fc378daa952ba7f163c4a11628f55a4df523b3ef60405160405180910390a4809150509392505050565b6008805490506009600083815260200190815260200160002081905550600881908060018154018082558091505060019003906000526020600020016000909190919091505550565b6000612e6e83610a90565b9050600060076000848152602001908152602001600020549050818114612f53576000600660008673ffffffffffffffffffffffffffffffffffffffff1673ffffffffffffffffffffffffffffffffffffffff168152602001908152602001600020600084815260200190815260200160002054905080600660008773ffffffffffffffffffffffffffffffffffffffff1673ffffffffffffffffffffffffffffffffffffffff168152602001908152602001600020600084815260200190815260200160002081905550816007600083815260200190815260200160002081905550505b6007600084815260200190815260200160002060009055600660008573ffffffffffffffffffffffffffffffffffffffff1673ffffffffffffffffffffffffffffffffffffffff16815260200190815260200160002060008381526020019081526020016000206000905550505050565b60006001600880549050612fd89190614704565b905060006009600084815260200190815260200160002054905060006008838154811061300857613007613d12565b5b90600052602060002001549050806008838154811061302a57613029613d12565b5b90600052602060002001819055508160096000838152602001908152602001600020819055506009600085815260200190815260200160002060009055600880548061307957613078614738565b5b6001900381819060005260206000200160009055905550505050565b600060016130a284610a90565b6130ac9190614704565b905081600660008573ffffffffffffffffffffffffffffffffffffffff1673ffffffffffffffffffffffffffffffffffffffff168152602001908152602001600020600083815260200190815260200160002081905550806007600084815260200190815260200160002081905550505050565b600073ffffffffffffffffffffffffffffffffffffffff168273ffffffffffffffffffffffffffffffffffffffff16036131925760006040517f64a0ae920000000000000000000000000000000000000000000000000000000081526004016131899190613613565b60405180910390fd5b60006131a08383600061131a565b9050600073ffffffffffffffffffffffffffffffffffffffff168173ffffffffffffffffffffffffffffffffffffffff16146132145760006040517f73c6ac6e00000000000000000000000000000000000000000000000000000000815260040161320b9190613613565b60405180910390fd5b505050565b613230816132286132f7613318565b63ffffffff16565b50565b61323e838383613323565b6132f257600073ffffffffffffffffffffffffffffffffffffffff168373ffffffffffffffffffffffffffffffffffffffff16036132b357806040517f7e2732890000000000000000000000000000000000000000000000000000000081526004016132aa91906136a9565b60405180910390fd5b81816040517f177e802f0000000000000000000000000000000000000000000000000000000081526004016132e9929190613ce9565b60405180910390fd5b505050565b60006a636f6e736f6c652e6c6f679050600080835160208501845afa505050565b6133e4819050919050565b60008073ffffffffffffffffffffffffffffffffffffffff168373ffffffffffffffffffffffffffffffffffffffff16141580156133db57508273ffffffffffffffffffffffffffffffffffffffff168473ffffffffffffffffffffffffffffffffffffffff16148061339c575061339b8484610e53565b5b806133da57508273ffffffffffffffffffffffffffffffffffffffff166133c28361123c565b73ffffffffffffffffffffffffffffffffffffffff16145b5b90509392505050565b6133ec614767565b565b6000604051905090565b600080fd5b600080fd5b60007fffffffff0000000000000000000000000000000000000000000000000000000082169050919050565b61343781613402565b811461344257600080fd5b50565b6000813590506134548161342e565b92915050565b6000602082840312156134705761346f6133f8565b5b600061347e84828501613445565b91505092915050565b60008115159050919050565b61349c81613487565b82525050565b60006020820190506134b76000830184613493565b92915050565b600081519050919050565b600082825260208201905092915050565b60005b838110156134f75780820151818401526020810190506134dc565b60008484015250505050565b6000601f19601f8301169050919050565b600061351f826134bd565b61352981856134c8565b93506135398185602086016134d9565b61354281613503565b840191505092915050565b600060208201905081810360008301526135678184613514565b905092915050565b6000819050919050565b6135828161356f565b811461358d57600080fd5b50565b60008135905061359f81613579565b92915050565b6000602082840312156135bb576135ba6133f8565b5b60006135c984828501613590565b91505092915050565b600073ffffffffffffffffffffffffffffffffffffffff82169050919050565b60006135fd826135d2565b9050919050565b61360d816135f2565b82525050565b60006020820190506136286000830184613604565b92915050565b613637816135f2565b811461364257600080fd5b50565b6000813590506136548161362e565b92915050565b60008060408385031215613671576136706133f8565b5b600061367f85828601613645565b925050602061369085828601613590565b9150509250929050565b6136a38161356f565b82525050565b60006020820190506136be600083018461369a565b92915050565b6000602082840312156136da576136d96133f8565b5b60006136e884828501613645565b91505092915050565b60008060006060848603121561370a576137096133f8565b5b600061371886828701613645565b935050602061372986828701613645565b925050604061373a86828701613590565b9150509250925092565b6000819050919050565b61375781613744565b82525050565b6000602082019050613772600083018461374e565b92915050565b600080fd5b600080fd5b7f4e487b7100000000000000000000000000000000000000000000000000000000600052604160045260246000fd5b6137ba82613503565b810181811067ffffffffffffffff821117156137d9576137d8613782565b5b80604052505050565b60006137ec6133ee565b90506137f882826137b1565b919050565b600067ffffffffffffffff82111561381857613817613782565b5b61382182613503565b9050602081019050919050565b82818337600083830152505050565b600061385061384b846137fd565b6137e2565b90508281526020810184848401111561386c5761386b61377d565b5b61387784828561382e565b509392505050565b600082601f83011261389457613893613778565b5b81356138a484826020860161383d565b91505092915050565b6000602082840312156138c3576138c26133f8565b5b600082013567ffffffffffffffff8111156138e1576138e06133fd565b5b6138ed8482850161387f565b91505092915050565b6138ff81613487565b811461390a57600080fd5b50565b60008135905061391c816138f6565b92915050565b60008060408385031215613939576139386133f8565b5b600061394785828601613645565b92505060206139588582860161390d565b9150509250929050565b61396b81613744565b811461397657600080fd5b50565b60008135905061398881613962565b92915050565b600080604083850312156139a5576139a46133f8565b5b60006139b385828601613590565b92505060206139c485828601613979565b9150509250929050565b600067ffffffffffffffff8211156139e9576139e8613782565b5b6139f282613503565b9050602081019050919050565b6000613a12613a0d846139ce565b6137e2565b905082815260208101848484011115613a2e57613a2d61377d565b5b613a3984828561382e565b509392505050565b600082601f830112613a5657613a55613778565b5b8135613a668482602086016139ff565b91505092915050565b60008060008060808587031215613a8957613a886133f8565b5b6000613a9787828801613645565b9450506020613aa887828801613645565b9350506040613ab987828801613590565b925050606085013567ffffffffffffffff811115613ada57613ad96133fd565b5b613ae687828801613a41565b91505092959194509250565b600081519050919050565b600082825260208201905092915050565b6000819050602082019050919050565b613b278161356f565b82525050565b6000613b398383613b1e565b60208301905092915050565b6000602082019050919050565b6000613b5d82613af2565b613b678185613afd565b9350613b7283613b0e565b8060005b83811015613ba3578151613b8a8882613b2d565b9750613b9583613b45565b925050600181019050613b76565b5085935050505092915050565b60006020820190508181036000830152613bca8184613b52565b905092915050565b60008060408385031215613be957613be86133f8565b5b6000613bf785828601613645565b9250506020613c0885828601613645565b9150509250929050565b60008060408385031215613c2957613c286133f8565b5b6000613c3785828601613645565b9250506020613c4885828601613979565b9150509250929050565b7f4e487b7100000000000000000000000000000000000000000000000000000000600052602260045260246000fd5b60006002820490506001821680613c9957607f821691505b602082108103613cac57613cab613c52565b5b50919050565b6000606082019050613cc76000830186613604565b613cd4602083018561369a565b613ce16040830184613604565b949350505050565b6000604082019050613cfe6000830185613604565b613d0b602083018461369a565b9392505050565b7f4e487b7100000000000000000000000000000000000000000000000000000000600052603260045260246000fd5b60008190508160005260206000209050919050565b60006020601f8301049050919050565b600082821b905092915050565b600060088302613da37fffffffffffffffffffffffffffffffffffffffffffffffffffffffffffffffff82613d66565b613dad8683613d66565b95508019841693508086168417925050509392505050565b6000819050919050565b6000613dea613de5613de08461356f565b613dc5565b61356f565b9050919050565b6000819050919050565b613e0483613dcf565b613e18613e1082613df1565b848454613d73565b825550505050565b600090565b613e2d613e20565b613e38818484613dfb565b505050565b5b81811015613e5c57613e51600082613e25565b600181019050613e3e565b5050565b601f821115613ea157613e7281613d41565b613e7b84613d56565b81016020851015613e8a578190505b613e9e613e9685613d56565b830182613e3d565b50505b505050565b600082821c905092915050565b6000613ec460001984600802613ea6565b1980831691505092915050565b6000613edd8383613eb3565b9150826002028217905092915050565b613ef6826134bd565b67ffffffffffffffff811115613f0f57613f0e613782565b5b613f198254613c81565b613f24828285613e60565b600060209050601f831160018114613f575760008415613f45578287015190505b613f4f8582613ed1565b865550613fb7565b601f198416613f6586613d41565b60005b82811015613f8d57848901518255600182019150602085019450602081019050613f68565b86831015613faa5784890151613fa6601f891682613eb3565b8355505b6001600288020188555050505b505050505050565b600081905092915050565b6000613fd5826134bd565b613fdf8185613fbf565b9350613fef8185602086016134d9565b80840191505092915050565b60006140078285613fca565b91506140138284613fca565b91508190509392505050565b7f43616c6c6572206973206e6f7420746865206f776e6572206f6620746869732060008201527f49442e2043616e6e6f742075706461746520636865636b73756d2e0000000000602082015250565b600061407b603b836134c8565b91506140868261401f565b604082019050919050565b600060208201905081810360008301526140aa8161406e565b9050919050565b6000815190506140c081613579565b92915050565b6000602082840312156140dc576140db6133f8565b5b60006140ea848285016140b1565b91505092915050565b7f596f75206d757374206f776e20612047617264656e204578706c6f726572207460008201527f6f6b656e20746f206d696e7420616e206f62736572766174696f6e0000000000602082015250565b600061414f603b836134c8565b915061415a826140f3565b604082019050919050565b6000602082019050818103600083015261417e81614142565b9050919050565b7f4e487b7100000000000000000000000000000000000000000000000000000000600052601160045260246000fd5b60006141bf8261356f565b91507fffffffffffffffffffffffffffffffffffffffffffffffffffffffffffffffff82036141f1576141f0614185565b5b600182019050919050565b600081519050919050565b600082825260208201905092915050565b6000614223826141fc565b61422d8185614207565b935061423d8185602086016134d9565b61424681613503565b840191505092915050565b60006080820190506142666000830187613604565b6142736020830186613604565b614280604083018561369a565b81810360608301526142928184614218565b905095945050505050565b6000815190506142ac8161342e565b92915050565b6000602082840312156142c8576142c76133f8565b5b60006142d68482850161429d565b91505092915050565b7f4e487b7100000000000000000000000000000000000000000000000000000000600052601260045260246000fd5b6000819050919050565b600061433361432e6143298461430e565b613dc5565b61356f565b9050919050565b61434381614318565b82525050565b600060408201905061435e6000830185613604565b61436b602083018461433a565b9392505050565b600081519050614381816138f6565b92915050565b60006020828403121561439d5761439c6133f8565b5b60006143ab84828501614372565b91505092915050565b6000819050919050565b60006143d96143d46143cf846143b4565b613dc5565b61356f565b9050919050565b6143e9816143be565b82525050565b60006040820190506144046000830185613604565b61441160208301846143e0565b9392505050565b6000819050919050565b600061443d61443861443384614418565b613dc5565b61356f565b9050919050565b61444d81614422565b82525050565b60006040820190506144686000830185613604565b6144756020830184614444565b9392505050565b6000819050919050565b60006144a161449c6144978461447c565b613dc5565b61356f565b9050919050565b6144b181614486565b82525050565b60006040820190506144cc6000830185613604565b6144d960208301846144a8565b9392505050565b6000819050919050565b60006145056145006144fb846144e0565b613dc5565b61356f565b9050919050565b614515816144ea565b82525050565b60006040820190506145306000830185613604565b61453d602083018461450c565b9392505050565b6000819050919050565b600061456961456461455f84614544565b613dc5565b61356f565b9050919050565b6145798161454e565b82525050565b60006040820190506145946000830185613604565b6145a16020830184614570565b9392505050565b6000819050919050565b60006145cd6145c86145c3846145a8565b613dc5565b61356f565b9050919050565b6145dd816145b2565b82525050565b60006040820190506145f86000830185613604565b61460560208301846145d4565b9392505050565b6000819050919050565b600061463161462c6146278461460c565b613dc5565b61356f565b9050919050565b61464181614616565b82525050565b600060408201905061465c6000830185613604565b6146696020830184614638565b9392505050565b6000819050919050565b600061469561469061468b84614670565b613dc5565b61356f565b9050919050565b6146a58161467a565b82525050565b60006040820190506146c06000830185613604565b6146cd602083018461469c565b9392505050565b600060408201905081810360008301526146ee8185613514565b90506146fd602083018461369a565b9392505050565b600061470f8261356f565b915061471a8361356f565b925082820390508181111561473257614731614185565b5b92915050565b7f4e487b7100000000000000000000000000000000000000000000000000000000600052603160045260246000fd5b7f4e487b7100000000000000000000000000000000000000000000000000000000600052605160045260246000fdfea26469706673582212203429ff8f5e36e6b10ae5cc2a8ac579d42478a4204e57e278b1465f3a33795abc64736f6c63430008180033",
  "linkReferences": {},
  "deployedLinkReferences": {}
}