{
  "_format": "hh-sol-artifact-1",
  "contractName": "Observation",
  "sourceName": "contracts/Observation.sol",
  "abi": [
    {
      "inputs": [
        {
          "internalType": "address",
          "name": "initialOwner",
          "type": "address"
        },
        {
          "internalType": "string",
          "name": "initialBaseURI",
          "type": "string"
        },
        {
          "internalType": "address",
          "name": "gardenAuthContractAddress",
          "type": "address"
        },
        {
          "internalType": "address",
          "name": "badgeContractAddress",
          "type": "address"
        }
      ],
      "stateMutability": "nonpayable",
      "type": "constructor"
    },
    {
      "inputs": [
        {
          "internalType": "address",
          "name": "sender",
          "type": "address"
        },
        {
          "internalType": "uint256",
          "name": "tokenId",
          "type": "uint256"
        },
        {
          "internalType": "address",
          "name": "owner",
          "type": "address"
        }
      ],
      "name": "ERC721IncorrectOwner",
      "type": "error"
    },
    {
      "inputs": [
        {
          "internalType": "address",
          "name": "operator",
          "type": "address"
        },
        {
          "internalType": "uint256",
          "name": "tokenId",
          "type": "uint256"
        }
      ],
      "name": "ERC721InsufficientApproval",
      "type": "error"
    },
    {
      "inputs": [
        {
          "internalType": "address",
          "name": "approver",
          "type": "address"
        }
      ],
      "name": "ERC721InvalidApprover",
      "type": "error"
    },
    {
      "inputs": [
        {
          "internalType": "address",
          "name": "operator",
          "type": "address"
        }
      ],
      "name": "ERC721InvalidOperator",
      "type": "error"
    },
    {
      "inputs": [
        {
          "internalType": "address",
          "name": "owner",
          "type": "address"
        }
      ],
      "name": "ERC721InvalidOwner",
      "type": "error"
    },
    {
      "inputs": [
        {
          "internalType": "address",
          "name": "receiver",
          "type": "address"
        }
      ],
      "name": "ERC721InvalidReceiver",
      "type": "error"
    },
    {
      "inputs": [
        {
          "internalType": "address",
          "name": "sender",
          "type": "address"
        }
      ],
      "name": "ERC721InvalidSender",
      "type": "error"
    },
    {
      "inputs": [
        {
          "internalType": "uint256",
          "name": "tokenId",
          "type": "uint256"
        }
      ],
      "name": "ERC721NonexistentToken",
      "type": "error"
    },
    {
      "inputs": [
        {
          "internalType": "address",
          "name": "owner",
          "type": "address"
        }
      ],
      "name": "OwnableInvalidOwner",
      "type": "error"
    },
    {
      "inputs": [
        {
          "internalType": "address",
          "name": "account",
          "type": "address"
        }
      ],
      "name": "OwnableUnauthorizedAccount",
      "type": "error"
    },
    {
      "anonymous": false,
      "inputs": [
        {
          "indexed": true,
          "internalType": "address",
          "name": "owner",
          "type": "address"
        },
        {
          "indexed": true,
          "internalType": "address",
          "name": "approved",
          "type": "address"
        },
        {
          "indexed": true,
          "internalType": "uint256",
          "name": "tokenId",
          "type": "uint256"
        }
      ],
      "name": "Approval",
      "type": "event"
    },
    {
      "anonymous": false,
      "inputs": [
        {
          "indexed": true,
          "internalType": "address",
          "name": "owner",
          "type": "address"
        },
        {
          "indexed": true,
          "internalType": "address",
          "name": "operator",
          "type": "address"
        },
        {
          "indexed": false,
          "internalType": "bool",
          "name": "approved",
          "type": "bool"
        }
      ],
      "name": "ApprovalForAll",
      "type": "event"
    },
    {
      "anonymous": false,
      "inputs": [
        {
          "indexed": true,
          "internalType": "address",
          "name": "previousOwner",
          "type": "address"
        },
        {
          "indexed": true,
          "internalType": "address",
          "name": "newOwner",
          "type": "address"
        }
      ],
      "name": "OwnershipTransferred",
      "type": "event"
    },
    {
      "anonymous": false,
      "inputs": [
        {
          "indexed": true,
          "internalType": "address",
          "name": "from",
          "type": "address"
        },
        {
          "indexed": true,
          "internalType": "address",
          "name": "to",
          "type": "address"
        },
        {
          "indexed": true,
          "internalType": "uint256",
          "name": "tokenId",
          "type": "uint256"
        }
      ],
      "name": "Transfer",
      "type": "event"
    },
    {
      "inputs": [
        {
          "internalType": "address",
          "name": "to",
          "type": "address"
        },
        {
          "internalType": "uint256",
          "name": "tokenId",
          "type": "uint256"
        }
      ],
      "name": "approve",
      "outputs": [],
      "stateMutability": "nonpayable",
      "type": "function"
    },
    {
      "inputs": [
        {
          "internalType": "address",
          "name": "owner",
          "type": "address"
        }
      ],
      "name": "balanceOf",
      "outputs": [
        {
          "internalType": "uint256",
          "name": "",
          "type": "uint256"
        }
      ],
      "stateMutability": "view",
      "type": "function"
    },
    {
      "inputs": [
        {
          "internalType": "uint256",
          "name": "",
          "type": "uint256"
        }
      ],
      "name": "checksums",
      "outputs": [
        {
          "internalType": "bytes32",
          "name": "",
          "type": "bytes32"
        }
      ],
      "stateMutability": "view",
      "type": "function"
    },
    {
      "inputs": [
        {
          "internalType": "uint256",
          "name": "tokenId",
          "type": "uint256"
        },
        {
          "internalType": "bytes32",
          "name": "checksum",
          "type": "bytes32"
        }
      ],
      "name": "doesChecksumMatch",
      "outputs": [
        {
          "internalType": "bool",
          "name": "",
          "type": "bool"
        }
      ],
      "stateMutability": "view",
      "type": "function"
    },
    {
      "inputs": [
        {
          "internalType": "uint256",
          "name": "tokenId",
          "type": "uint256"
        }
      ],
      "name": "getApproved",
      "outputs": [
        {
          "internalType": "address",
          "name": "",
          "type": "address"
        }
      ],
      "stateMutability": "view",
      "type": "function"
    },
    {
      "inputs": [
        {
          "internalType": "uint256",
          "name": "tokenId",
          "type": "uint256"
        }
      ],
      "name": "getChecksum",
      "outputs": [
        {
          "internalType": "bytes32",
          "name": "",
          "type": "bytes32"
        }
      ],
      "stateMutability": "view",
      "type": "function"
    },
    {
      "inputs": [],
      "name": "getNextTokenId",
      "outputs": [
        {
          "internalType": "uint256",
          "name": "",
          "type": "uint256"
        }
      ],
      "stateMutability": "view",
      "type": "function"
    },
    {
      "inputs": [
        {
          "internalType": "address",
          "name": "owner",
          "type": "address"
        },
        {
          "internalType": "address",
          "name": "operator",
          "type": "address"
        }
      ],
      "name": "isApprovedForAll",
      "outputs": [
        {
          "internalType": "bool",
          "name": "",
          "type": "bool"
        }
      ],
      "stateMutability": "view",
      "type": "function"
    },
    {
      "inputs": [],
      "name": "name",
      "outputs": [
        {
          "internalType": "string",
          "name": "",
          "type": "string"
        }
      ],
      "stateMutability": "view",
      "type": "function"
    },
    {
      "inputs": [],
      "name": "owner",
      "outputs": [
        {
          "internalType": "address",
          "name": "",
          "type": "address"
        }
      ],
      "stateMutability": "view",
      "type": "function"
    },
    {
      "inputs": [
        {
          "internalType": "uint256",
          "name": "tokenId",
          "type": "uint256"
        }
      ],
      "name": "ownerOf",
      "outputs": [
        {
          "internalType": "address",
          "name": "",
          "type": "address"
        }
      ],
      "stateMutability": "view",
      "type": "function"
    },
    {
      "inputs": [],
      "name": "renounceOwnership",
      "outputs": [],
      "stateMutability": "nonpayable",
      "type": "function"
    },
    {
      "inputs": [
        {
          "internalType": "address",
          "name": "mintTo",
          "type": "address"
        },
        {
          "internalType": "bytes32",
          "name": "metadataChecksum",
          "type": "bytes32"
        }
      ],
      "name": "safeMint",
      "outputs": [],
      "stateMutability": "nonpayable",
      "type": "function"
    },
    {
      "inputs": [
        {
          "internalType": "address",
          "name": "from",
          "type": "address"
        },
        {
          "internalType": "address",
          "name": "to",
          "type": "address"
        },
        {
          "internalType": "uint256",
          "name": "tokenId",
          "type": "uint256"
        }
      ],
      "name": "safeTransferFrom",
      "outputs": [],
      "stateMutability": "nonpayable",
      "type": "function"
    },
    {
      "inputs": [
        {
          "internalType": "address",
          "name": "from",
          "type": "address"
        },
        {
          "internalType": "address",
          "name": "to",
          "type": "address"
        },
        {
          "internalType": "uint256",
          "name": "tokenId",
          "type": "uint256"
        },
        {
          "internalType": "bytes",
          "name": "data",
          "type": "bytes"
        }
      ],
      "name": "safeTransferFrom",
      "outputs": [],
      "stateMutability": "nonpayable",
      "type": "function"
    },
    {
      "inputs": [
        {
          "internalType": "address",
          "name": "operator",
          "type": "address"
        },
        {
          "internalType": "bool",
          "name": "approved",
          "type": "bool"
        }
      ],
      "name": "setApprovalForAll",
      "outputs": [],
      "stateMutability": "nonpayable",
      "type": "function"
    },
    {
      "inputs": [
        {
          "internalType": "address",
          "name": "newBadgeContract",
          "type": "address"
        }
      ],
      "name": "setBadgeContractAddress",
      "outputs": [],
      "stateMutability": "nonpayable",
      "type": "function"
    },
    {
      "inputs": [
        {
          "internalType": "string",
          "name": "newBaseURI",
          "type": "string"
        }
      ],
      "name": "setBaseUri",
      "outputs": [],
      "stateMutability": "nonpayable",
      "type": "function"
    },
    {
      "inputs": [
        {
          "internalType": "address",
          "name": "newGardenAuthContract",
          "type": "address"
        }
      ],
      "name": "setGardenAuthContractAddress",
      "outputs": [],
      "stateMutability": "nonpayable",
      "type": "function"
    },
    {
      "inputs": [
        {
          "internalType": "uint256",
          "name": "newMintPrice",
          "type": "uint256"
        }
      ],
      "name": "setMintPrice",
      "outputs": [],
      "stateMutability": "nonpayable",
      "type": "function"
    },
    {
      "inputs": [
        {
          "internalType": "bytes4",
          "name": "interfaceId",
          "type": "bytes4"
        }
      ],
      "name": "supportsInterface",
      "outputs": [
        {
          "internalType": "bool",
          "name": "",
          "type": "bool"
        }
      ],
      "stateMutability": "view",
      "type": "function"
    },
    {
      "inputs": [],
      "name": "symbol",
      "outputs": [
        {
          "internalType": "string",
          "name": "",
          "type": "string"
        }
      ],
      "stateMutability": "view",
      "type": "function"
    },
    {
      "inputs": [
        {
          "internalType": "uint256",
          "name": "tokenId",
          "type": "uint256"
        }
      ],
      "name": "tokenURI",
      "outputs": [
        {
          "internalType": "string",
          "name": "",
          "type": "string"
        }
      ],
      "stateMutability": "view",
      "type": "function"
    },
    {
      "inputs": [
        {
          "internalType": "address",
          "name": "from",
          "type": "address"
        },
        {
          "internalType": "address",
          "name": "to",
          "type": "address"
        },
        {
          "internalType": "uint256",
          "name": "tokenId",
          "type": "uint256"
        }
      ],
      "name": "transferFrom",
      "outputs": [],
      "stateMutability": "nonpayable",
      "type": "function"
    },
    {
      "inputs": [
        {
          "internalType": "address",
          "name": "newOwner",
          "type": "address"
        }
      ],
      "name": "transferOwnership",
      "outputs": [],
      "stateMutability": "nonpayable",
      "type": "function"
    },
    {
      "inputs": [
        {
          "internalType": "uint256",
          "name": "tokenId",
          "type": "uint256"
        },
        {
          "internalType": "bytes32",
          "name": "newChecksum",
          "type": "bytes32"
        }
      ],
      "name": "updateChecksum",
      "outputs": [],
      "stateMutability": "nonpayable",
      "type": "function"
    },
    {
      "inputs": [
        {
          "internalType": "address",
          "name": "newGardenExplorer",
          "type": "address"
        }
      ],
      "name": "updateGardenExplorer",
      "outputs": [],
      "stateMutability": "nonpayable",
      "type": "function"
    }
  ],
  "bytecode": "0x608060405260006009556000600c553480156200001b57600080fd5b5060405162003317380380620033178339818101604052810190620000419190620004b7565b836040518060400160405280601b81526020017f47617264656e204578706c6f726572204f62736572766174696f6e00000000008152506040518060400160405280600781526020017f4f425345525645000000000000000000000000000000000000000000000000008152508160009081620000bf919062000793565b508060019081620000d1919062000793565b505050600073ffffffffffffffffffffffffffffffffffffffff168173ffffffffffffffffffffffffffffffffffffffff1603620001495760006040517f1e4fbdf70000000000000000000000000000000000000000000000000000000081526004016200014091906200088b565b60405180910390fd5b6200015a81620001f960201b60201c565b5081600760006101000a81548173ffffffffffffffffffffffffffffffffffffffff021916908373ffffffffffffffffffffffffffffffffffffffff16021790555080600860006101000a81548173ffffffffffffffffffffffffffffffffffffffff021916908373ffffffffffffffffffffffffffffffffffffffff16021790555082600b9081620001ee919062000793565b5050505050620008a8565b6000600660009054906101000a900473ffffffffffffffffffffffffffffffffffffffff16905081600660006101000a81548173ffffffffffffffffffffffffffffffffffffffff021916908373ffffffffffffffffffffffffffffffffffffffff1602179055508173ffffffffffffffffffffffffffffffffffffffff168173ffffffffffffffffffffffffffffffffffffffff167f8be0079c531659141344cd1fd0a4f28419497f9722a3daafe3b4186f6b6457e060405160405180910390a35050565b6000604051905090565b600080fd5b600080fd5b600073ffffffffffffffffffffffffffffffffffffffff82169050919050565b60006200030082620002d3565b9050919050565b6200031281620002f3565b81146200031e57600080fd5b50565b600081519050620003328162000307565b92915050565b600080fd5b600080fd5b6000601f19601f8301169050919050565b7f4e487b7100000000000000000000000000000000000000000000000000000000600052604160045260246000fd5b6200038d8262000342565b810181811067ffffffffffffffff82111715620003af57620003ae62000353565b5b80604052505050565b6000620003c4620002bf565b9050620003d2828262000382565b919050565b600067ffffffffffffffff821115620003f557620003f462000353565b5b620004008262000342565b9050602081019050919050565b60005b838110156200042d57808201518184015260208101905062000410565b60008484015250505050565b6000620004506200044a84620003d7565b620003b8565b9050828152602081018484840111156200046f576200046e6200033d565b5b6200047c8482856200040d565b509392505050565b600082601f8301126200049c576200049b62000338565b5b8151620004ae84826020860162000439565b91505092915050565b60008060008060808587031215620004d457620004d3620002c9565b5b6000620004e48782880162000321565b945050602085015167ffffffffffffffff811115620005085762000507620002ce565b5b620005168782880162000484565b9350506040620005298782880162000321565b92505060606200053c8782880162000321565b91505092959194509250565b600081519050919050565b7f4e487b7100000000000000000000000000000000000000000000000000000000600052602260045260246000fd5b600060028204905060018216806200059b57607f821691505b602082108103620005b157620005b062000553565b5b50919050565b60008190508160005260206000209050919050565b60006020601f8301049050919050565b600082821b905092915050565b6000600883026200061b7fffffffffffffffffffffffffffffffffffffffffffffffffffffffffffffffff82620005dc565b620006278683620005dc565b95508019841693508086168417925050509392505050565b6000819050919050565b6000819050919050565b6000620006746200066e62000668846200063f565b62000649565b6200063f565b9050919050565b6000819050919050565b620006908362000653565b620006a86200069f826200067b565b848454620005e9565b825550505050565b600090565b620006bf620006b0565b620006cc81848462000685565b505050565b5b81811015620006f457620006e8600082620006b5565b600181019050620006d2565b5050565b601f82111562000743576200070d81620005b7565b6200071884620005cc565b8101602085101562000728578190505b620007406200073785620005cc565b830182620006d1565b50505b505050565b600082821c905092915050565b6000620007686000198460080262000748565b1980831691505092915050565b600062000783838362000755565b9150826002028217905092915050565b6200079e8262000548565b67ffffffffffffffff811115620007ba57620007b962000353565b5b620007c6825462000582565b620007d3828285620006f8565b600060209050601f8311600181146200080b5760008415620007f6578287015190505b62000802858262000775565b86555062000872565b601f1984166200081b86620005b7565b60005b8281101562000845578489015182556001820191506020850194506020810190506200081e565b8683101562000865578489015162000861601f89168262000755565b8355505b6001600288020188555050505b505050505050565b6200088581620002f3565b82525050565b6000602082019050620008a260008301846200087a565b92915050565b612a5f80620008b86000396000f3fe608060405234801561001057600080fd5b50600436106101a95760003560e01c806395d89b41116100f9578063daff94e911610097578063e985e9c511610071578063e985e9c5146104c8578063f1139bf7146104f8578063f2fde38b14610514578063f4a0a52814610530576101a9565b8063daff94e914610460578063dedfbaa11461047c578063e8eae3cf14610498576101a9565b8063ab6dad7f116100d3578063ab6dad7f146103c6578063b88d4fde146103f6578063c87b56dd14610412578063caa0f92a14610442576101a9565b806395d89b4114610370578063a0bcfc7f1461038e578063a22cb465146103aa576101a9565b806342842e0e1161016657806367d51cc41161014057806367d51cc4146102fc57806370a0823114610318578063715018a6146103485780638da5cb5b14610352576101a9565b806342842e0e146102805780634c9c27571461029c5780636352211e146102cc576101a9565b806301ffc9a7146101ae57806306fdde03146101de578063081812fc146101fc578063095ea7b31461022c578063217b595e1461024857806323b872dd14610264575b600080fd5b6101c860048036038101906101c39190611d58565b61054c565b6040516101d59190611da0565b60405180910390f35b6101e661062e565b6040516101f39190611e4b565b60405180910390f35b61021660048036038101906102119190611ea3565b6106c0565b6040516102239190611f11565b60405180910390f35b61024660048036038101906102419190611f58565b6106dc565b005b610262600480360381019061025d9190611f98565b6106f2565b005b61027e60048036038101906102799190611fc5565b61073e565b005b61029a60048036038101906102959190611fc5565b610840565b005b6102b660048036038101906102b19190611ea3565b610860565b6040516102c39190612031565b60405180910390f35b6102e660048036038101906102e19190611ea3565b61087d565b6040516102f39190611f11565b60405180910390f35b61031660048036038101906103119190612078565b61088f565b005b610332600480360381019061032d9190611f98565b6108d0565b60405161033f91906120c7565b60405180910390f35b61035061098a565b005b61035a61099e565b6040516103679190611f11565b60405180910390f35b6103786109c8565b6040516103859190611e4b565b60405180910390f35b6103a860048036038101906103a39190612217565b610a5a565b005b6103c460048036038101906103bf919061228c565b610a75565b005b6103e060048036038101906103db91906122cc565b610a8b565b6040516103ed9190611da0565b60405180910390f35b610410600480360381019061040b91906123ad565b610aab565b005b61042c60048036038101906104279190611ea3565b610ac8565b6040516104399190611e4b565b60405180910390f35b61044a610b31565b60405161045791906120c7565b60405180910390f35b61047a60048036038101906104759190611f98565b610b3b565b005b61049660048036038101906104919190611f98565b610b87565b005b6104b260048036038101906104ad9190611ea3565b610bd3565b6040516104bf9190612031565b60405180910390f35b6104e260048036038101906104dd9190612430565b610beb565b6040516104ef9190611da0565b60405180910390f35b610512600480360381019061050d91906122cc565b610c7f565b005b61052e60048036038101906105299190611f98565b610d11565b005b61054a60048036038101906105459190611ea3565b610d97565b005b60007f80ac58cd000000000000000000000000000000000000000000000000000000007bffffffffffffffffffffffffffffffffffffffffffffffffffffffff1916827bffffffffffffffffffffffffffffffffffffffffffffffffffffffff1916148061061757507f5b5e139f000000000000000000000000000000000000000000000000000000007bffffffffffffffffffffffffffffffffffffffffffffffffffffffff1916827bffffffffffffffffffffffffffffffffffffffffffffffffffffffff1916145b80610627575061062682610da9565b5b9050919050565b60606000805461063d9061249f565b80601f01602080910402602001604051908101604052809291908181526020018280546106699061249f565b80156106b65780601f1061068b576101008083540402835291602001916106b6565b820191906000526020600020905b81548152906001019060200180831161069957829003601f168201915b5050505050905090565b60006106cb82610e13565b506106d582610e9b565b9050919050565b6106ee82826106e9610ed8565b610ee0565b5050565b6106fa610ef2565b80600a60006101000a81548173ffffffffffffffffffffffffffffffffffffffff021916908373ffffffffffffffffffffffffffffffffffffffff16021790555050565b600073ffffffffffffffffffffffffffffffffffffffff168273ffffffffffffffffffffffffffffffffffffffff16036107b05760006040517f64a0ae920000000000000000000000000000000000000000000000000000000081526004016107a79190611f11565b60405180910390fd5b60006107c483836107bf610ed8565b610f79565b90508373ffffffffffffffffffffffffffffffffffffffff168173ffffffffffffffffffffffffffffffffffffffff161461083a578382826040517f64283d7b000000000000000000000000000000000000000000000000000000008152600401610831939291906124d0565b60405180910390fd5b50505050565b61085b83838360405180602001604052806000815250610aab565b505050565b6000600d6000838152602001908152602001600020549050919050565b600061088882610e13565b9050919050565b61089b82600954611193565b6108a760095482610c7f565b600960008154809291906108ba90612536565b919050555060016108ca836108d0565b50505050565b60008073ffffffffffffffffffffffffffffffffffffffff168273ffffffffffffffffffffffffffffffffffffffff16036109435760006040517f89c62b6400000000000000000000000000000000000000000000000000000000815260040161093a9190611f11565b60405180910390fd5b600360008373ffffffffffffffffffffffffffffffffffffffff1673ffffffffffffffffffffffffffffffffffffffff168152602001908152602001600020549050919050565b610992610ef2565b61099c60006111b1565b565b6000600660009054906101000a900473ffffffffffffffffffffffffffffffffffffffff16905090565b6060600180546109d79061249f565b80601f0160208091040260200160405190810160405280929190818152602001828054610a039061249f565b8015610a505780601f10610a2557610100808354040283529160200191610a50565b820191906000526020600020905b815481529060010190602001808311610a3357829003601f168201915b5050505050905090565b610a62610ef2565b80600b9081610a71919061272a565b5050565b610a87610a80610ed8565b8383611277565b5050565b600081600d60008581526020019081526020016000205414905092915050565b610ab684848461073e565b610ac2848484846113e6565b50505050565b6060610ad382610e13565b506000610ade61159d565b90506000815111610afe5760405180602001604052806000815250610b29565b80610b088461162f565b604051602001610b19929190612838565b6040516020818303038152906040525b915050919050565b6000600954905090565b610b43610ef2565b80600760006101000a81548173ffffffffffffffffffffffffffffffffffffffff021916908373ffffffffffffffffffffffffffffffffffffffff16021790555050565b610b8f610ef2565b80600860006101000a81548173ffffffffffffffffffffffffffffffffffffffff021916908373ffffffffffffffffffffffffffffffffffffffff16021790555050565b600d6020528060005260406000206000915090505481565b6000600560008473ffffffffffffffffffffffffffffffffffffffff1673ffffffffffffffffffffffffffffffffffffffff16815260200190815260200160002060008373ffffffffffffffffffffffffffffffffffffffff1673ffffffffffffffffffffffffffffffffffffffff16815260200190815260200160002060009054906101000a900460ff16905092915050565b3373ffffffffffffffffffffffffffffffffffffffff16610c9f836116fd565b73ffffffffffffffffffffffffffffffffffffffff1614610cf5576040517f08c379a0000000000000000000000000000000000000000000000000000000008152600401610cec906128ce565b60405180910390fd5b80600d6000848152602001908152602001600020819055505050565b610d19610ef2565b600073ffffffffffffffffffffffffffffffffffffffff168173ffffffffffffffffffffffffffffffffffffffff1603610d8b5760006040517f1e4fbdf7000000000000000000000000000000000000000000000000000000008152600401610d829190611f11565b60405180910390fd5b610d94816111b1565b50565b610d9f610ef2565b80600c8190555050565b60007f01ffc9a7000000000000000000000000000000000000000000000000000000007bffffffffffffffffffffffffffffffffffffffffffffffffffffffff1916827bffffffffffffffffffffffffffffffffffffffffffffffffffffffff1916149050919050565b600080610e1f836116fd565b9050600073ffffffffffffffffffffffffffffffffffffffff168173ffffffffffffffffffffffffffffffffffffffff1603610e9257826040517f7e273289000000000000000000000000000000000000000000000000000000008152600401610e8991906120c7565b60405180910390fd5b80915050919050565b60006004600083815260200190815260200160002060009054906101000a900473ffffffffffffffffffffffffffffffffffffffff169050919050565b600033905090565b610eed838383600161173a565b505050565b610efa610ed8565b73ffffffffffffffffffffffffffffffffffffffff16610f1861099e565b73ffffffffffffffffffffffffffffffffffffffff1614610f7757610f3b610ed8565b6040517f118cdaa7000000000000000000000000000000000000000000000000000000008152600401610f6e9190611f11565b60405180910390fd5b565b600080610f85846116fd565b9050600073ffffffffffffffffffffffffffffffffffffffff168373ffffffffffffffffffffffffffffffffffffffff1614610fc757610fc68184866118ff565b5b600073ffffffffffffffffffffffffffffffffffffffff168173ffffffffffffffffffffffffffffffffffffffff16146110585761100960008560008061173a565b6001600360008373ffffffffffffffffffffffffffffffffffffffff1673ffffffffffffffffffffffffffffffffffffffff168152602001908152602001600020600082825403925050819055505b600073ffffffffffffffffffffffffffffffffffffffff168573ffffffffffffffffffffffffffffffffffffffff16146110db576001600360008773ffffffffffffffffffffffffffffffffffffffff1673ffffffffffffffffffffffffffffffffffffffff168152602001908152602001600020600082825401925050819055505b846002600086815260200190815260200160002060006101000a81548173ffffffffffffffffffffffffffffffffffffffff021916908373ffffffffffffffffffffffffffffffffffffffff160217905550838573ffffffffffffffffffffffffffffffffffffffff168273ffffffffffffffffffffffffffffffffffffffff167fddf252ad1be2c89b69c2b068fc378daa952ba7f163c4a11628f55a4df523b3ef60405160405180910390a4809150509392505050565b6111ad8282604051806020016040528060008152506119c3565b5050565b6000600660009054906101000a900473ffffffffffffffffffffffffffffffffffffffff16905081600660006101000a81548173ffffffffffffffffffffffffffffffffffffffff021916908373ffffffffffffffffffffffffffffffffffffffff1602179055508173ffffffffffffffffffffffffffffffffffffffff168173ffffffffffffffffffffffffffffffffffffffff167f8be0079c531659141344cd1fd0a4f28419497f9722a3daafe3b4186f6b6457e060405160405180910390a35050565b600073ffffffffffffffffffffffffffffffffffffffff168273ffffffffffffffffffffffffffffffffffffffff16036112e857816040517f5b08ba180000000000000000000000000000000000000000000000000000000081526004016112df9190611f11565b60405180910390fd5b80600560008573ffffffffffffffffffffffffffffffffffffffff1673ffffffffffffffffffffffffffffffffffffffff16815260200190815260200160002060008473ffffffffffffffffffffffffffffffffffffffff1673ffffffffffffffffffffffffffffffffffffffff16815260200190815260200160002060006101000a81548160ff0219169083151502179055508173ffffffffffffffffffffffffffffffffffffffff168373ffffffffffffffffffffffffffffffffffffffff167f17307eab39ab6107e8899845ad3d59bd9653f200f220920489ca2b5937696c31836040516113d99190611da0565b60405180910390a3505050565b60008373ffffffffffffffffffffffffffffffffffffffff163b1115611597578273ffffffffffffffffffffffffffffffffffffffff1663150b7a0261142a610ed8565b8685856040518563ffffffff1660e01b815260040161144c9493929190612943565b6020604051808303816000875af192505050801561148857506040513d601f19601f8201168201806040525081019061148591906129a4565b60015b61150c573d80600081146114b8576040519150601f19603f3d011682016040523d82523d6000602084013e6114bd565b606091505b50600081510361150457836040517f64a0ae920000000000000000000000000000000000000000000000000000000081526004016114fb9190611f11565b60405180910390fd5b805181602001fd5b63150b7a0260e01b7bffffffffffffffffffffffffffffffffffffffffffffffffffffffff1916817bffffffffffffffffffffffffffffffffffffffffffffffffffffffff19161461159557836040517f64a0ae9200000000000000000000000000000000000000000000000000000000815260040161158c9190611f11565b60405180910390fd5b505b50505050565b6060600b80546115ac9061249f565b80601f01602080910402602001604051908101604052809291908181526020018280546115d89061249f565b80156116255780601f106115fa57610100808354040283529160200191611625565b820191906000526020600020905b81548152906001019060200180831161160857829003601f168201915b5050505050905090565b60606000600161163e846119df565b01905060008167ffffffffffffffff81111561165d5761165c6120ec565b5b6040519080825280601f01601f19166020018201604052801561168f5781602001600182028036833780820191505090505b509050600082602001820190505b6001156116f2578080600190039150507f3031323334353637383961626364656600000000000000000000000000000000600a86061a8153600a85816116e6576116e56129d1565b5b0494506000850361169d575b819350505050919050565b60006002600083815260200190815260200160002060009054906101000a900473ffffffffffffffffffffffffffffffffffffffff169050919050565b80806117735750600073ffffffffffffffffffffffffffffffffffffffff168273ffffffffffffffffffffffffffffffffffffffff1614155b156118a757600061178384610e13565b9050600073ffffffffffffffffffffffffffffffffffffffff168373ffffffffffffffffffffffffffffffffffffffff16141580156117ee57508273ffffffffffffffffffffffffffffffffffffffff168173ffffffffffffffffffffffffffffffffffffffff1614155b801561180157506117ff8184610beb565b155b1561184357826040517fa9fbf51f00000000000000000000000000000000000000000000000000000000815260040161183a9190611f11565b60405180910390fd5b81156118a557838573ffffffffffffffffffffffffffffffffffffffff168273ffffffffffffffffffffffffffffffffffffffff167f8c5be1e5ebec7d5bd14f71427d1e84f3dd0314c0f7b2291e5b200ac8c7c3b92560405160405180910390a45b505b836004600085815260200190815260200160002060006101000a81548173ffffffffffffffffffffffffffffffffffffffff021916908373ffffffffffffffffffffffffffffffffffffffff16021790555050505050565b61190a838383611b32565b6119be57600073ffffffffffffffffffffffffffffffffffffffff168373ffffffffffffffffffffffffffffffffffffffff160361197f57806040517f7e27328900000000000000000000000000000000000000000000000000000000815260040161197691906120c7565b60405180910390fd5b81816040517f177e802f0000000000000000000000000000000000000000000000000000000081526004016119b5929190612a00565b60405180910390fd5b505050565b6119cd8383611bf3565b6119da60008484846113e6565b505050565b600080600090507a184f03e93ff9f4daa797ed6e38ed64bf6a1f0100000000000000008310611a3d577a184f03e93ff9f4daa797ed6e38ed64bf6a1f0100000000000000008381611a3357611a326129d1565b5b0492506040810190505b6d04ee2d6d415b85acef81000000008310611a7a576d04ee2d6d415b85acef81000000008381611a7057611a6f6129d1565b5b0492506020810190505b662386f26fc100008310611aa957662386f26fc100008381611a9f57611a9e6129d1565b5b0492506010810190505b6305f5e1008310611ad2576305f5e1008381611ac857611ac76129d1565b5b0492506008810190505b6127108310611af7576127108381611aed57611aec6129d1565b5b0492506004810190505b60648310611b1a5760648381611b1057611b0f6129d1565b5b0492506002810190505b600a8310611b29576001810190505b80915050919050565b60008073ffffffffffffffffffffffffffffffffffffffff168373ffffffffffffffffffffffffffffffffffffffff1614158015611bea57508273ffffffffffffffffffffffffffffffffffffffff168473ffffffffffffffffffffffffffffffffffffffff161480611bab5750611baa8484610beb565b5b80611be957508273ffffffffffffffffffffffffffffffffffffffff16611bd183610e9b565b73ffffffffffffffffffffffffffffffffffffffff16145b5b90509392505050565b600073ffffffffffffffffffffffffffffffffffffffff168273ffffffffffffffffffffffffffffffffffffffff1603611c655760006040517f64a0ae92000000000000000000000000000000000000000000000000000000008152600401611c5c9190611f11565b60405180910390fd5b6000611c7383836000610f79565b9050600073ffffffffffffffffffffffffffffffffffffffff168173ffffffffffffffffffffffffffffffffffffffff1614611ce75760006040517f73c6ac6e000000000000000000000000000000000000000000000000000000008152600401611cde9190611f11565b60405180910390fd5b505050565b6000604051905090565b600080fd5b600080fd5b60007fffffffff0000000000000000000000000000000000000000000000000000000082169050919050565b611d3581611d00565b8114611d4057600080fd5b50565b600081359050611d5281611d2c565b92915050565b600060208284031215611d6e57611d6d611cf6565b5b6000611d7c84828501611d43565b91505092915050565b60008115159050919050565b611d9a81611d85565b82525050565b6000602082019050611db56000830184611d91565b92915050565b600081519050919050565b600082825260208201905092915050565b60005b83811015611df5578082015181840152602081019050611dda565b60008484015250505050565b6000601f19601f8301169050919050565b6000611e1d82611dbb565b611e278185611dc6565b9350611e37818560208601611dd7565b611e4081611e01565b840191505092915050565b60006020820190508181036000830152611e658184611e12565b905092915050565b6000819050919050565b611e8081611e6d565b8114611e8b57600080fd5b50565b600081359050611e9d81611e77565b92915050565b600060208284031215611eb957611eb8611cf6565b5b6000611ec784828501611e8e565b91505092915050565b600073ffffffffffffffffffffffffffffffffffffffff82169050919050565b6000611efb82611ed0565b9050919050565b611f0b81611ef0565b82525050565b6000602082019050611f266000830184611f02565b92915050565b611f3581611ef0565b8114611f4057600080fd5b50565b600081359050611f5281611f2c565b92915050565b60008060408385031215611f6f57611f6e611cf6565b5b6000611f7d85828601611f43565b9250506020611f8e85828601611e8e565b9150509250929050565b600060208284031215611fae57611fad611cf6565b5b6000611fbc84828501611f43565b91505092915050565b600080600060608486031215611fde57611fdd611cf6565b5b6000611fec86828701611f43565b9350506020611ffd86828701611f43565b925050604061200e86828701611e8e565b9150509250925092565b6000819050919050565b61202b81612018565b82525050565b60006020820190506120466000830184612022565b92915050565b61205581612018565b811461206057600080fd5b50565b6000813590506120728161204c565b92915050565b6000806040838503121561208f5761208e611cf6565b5b600061209d85828601611f43565b92505060206120ae85828601612063565b9150509250929050565b6120c181611e6d565b82525050565b60006020820190506120dc60008301846120b8565b92915050565b600080fd5b600080fd5b7f4e487b7100000000000000000000000000000000000000000000000000000000600052604160045260246000fd5b61212482611e01565b810181811067ffffffffffffffff82111715612143576121426120ec565b5b80604052505050565b6000612156611cec565b9050612162828261211b565b919050565b600067ffffffffffffffff821115612182576121816120ec565b5b61218b82611e01565b9050602081019050919050565b82818337600083830152505050565b60006121ba6121b584612167565b61214c565b9050828152602081018484840111156121d6576121d56120e7565b5b6121e1848285612198565b509392505050565b600082601f8301126121fe576121fd6120e2565b5b813561220e8482602086016121a7565b91505092915050565b60006020828403121561222d5761222c611cf6565b5b600082013567ffffffffffffffff81111561224b5761224a611cfb565b5b612257848285016121e9565b91505092915050565b61226981611d85565b811461227457600080fd5b50565b60008135905061228681612260565b92915050565b600080604083850312156122a3576122a2611cf6565b5b60006122b185828601611f43565b92505060206122c285828601612277565b9150509250929050565b600080604083850312156122e3576122e2611cf6565b5b60006122f185828601611e8e565b925050602061230285828601612063565b9150509250929050565b600067ffffffffffffffff821115612327576123266120ec565b5b61233082611e01565b9050602081019050919050565b600061235061234b8461230c565b61214c565b90508281526020810184848401111561236c5761236b6120e7565b5b612377848285612198565b509392505050565b600082601f830112612394576123936120e2565b5b81356123a484826020860161233d565b91505092915050565b600080600080608085870312156123c7576123c6611cf6565b5b60006123d587828801611f43565b94505060206123e687828801611f43565b93505060406123f787828801611e8e565b925050606085013567ffffffffffffffff81111561241857612417611cfb565b5b6124248782880161237f565b91505092959194509250565b6000806040838503121561244757612446611cf6565b5b600061245585828601611f43565b925050602061246685828601611f43565b9150509250929050565b7f4e487b7100000000000000000000000000000000000000000000000000000000600052602260045260246000fd5b600060028204905060018216806124b757607f821691505b6020821081036124ca576124c9612470565b5b50919050565b60006060820190506124e56000830186611f02565b6124f260208301856120b8565b6124ff6040830184611f02565b949350505050565b7f4e487b7100000000000000000000000000000000000000000000000000000000600052601160045260246000fd5b600061254182611e6d565b91507fffffffffffffffffffffffffffffffffffffffffffffffffffffffffffffffff820361257357612572612507565b5b600182019050919050565b60008190508160005260206000209050919050565b60006020601f8301049050919050565b600082821b905092915050565b6000600883026125e07fffffffffffffffffffffffffffffffffffffffffffffffffffffffffffffffff826125a3565b6125ea86836125a3565b95508019841693508086168417925050509392505050565b6000819050919050565b600061262761262261261d84611e6d565b612602565b611e6d565b9050919050565b6000819050919050565b6126418361260c565b61265561264d8261262e565b8484546125b0565b825550505050565b600090565b61266a61265d565b612675818484612638565b505050565b5b818110156126995761268e600082612662565b60018101905061267b565b5050565b601f8211156126de576126af8161257e565b6126b884612593565b810160208510156126c7578190505b6126db6126d385612593565b83018261267a565b50505b505050565b600082821c905092915050565b6000612701600019846008026126e3565b1980831691505092915050565b600061271a83836126f0565b9150826002028217905092915050565b61273382611dbb565b67ffffffffffffffff81111561274c5761274b6120ec565b5b612756825461249f565b61276182828561269d565b600060209050601f8311600181146127945760008415612782578287015190505b61278c858261270e565b8655506127f4565b601f1984166127a28661257e565b60005b828110156127ca578489015182556001820191506020850194506020810190506127a5565b868310156127e757848901516127e3601f8916826126f0565b8355505b6001600288020188555050505b505050505050565b600081905092915050565b600061281282611dbb565b61281c81856127fc565b935061282c818560208601611dd7565b80840191505092915050565b60006128448285612807565b91506128508284612807565b91508190509392505050565b7f43616c6c6572206973206e6f7420746865206f776e6572206f6620746869732060008201527f49442e2043616e6e6f742075706461746520636865636b73756d2e0000000000602082015250565b60006128b8603b83611dc6565b91506128c38261285c565b604082019050919050565b600060208201905081810360008301526128e7816128ab565b9050919050565b600081519050919050565b600082825260208201905092915050565b6000612915826128ee565b61291f81856128f9565b935061292f818560208601611dd7565b61293881611e01565b840191505092915050565b60006080820190506129586000830187611f02565b6129656020830186611f02565b61297260408301856120b8565b8181036060830152612984818461290a565b905095945050505050565b60008151905061299e81611d2c565b92915050565b6000602082840312156129ba576129b9611cf6565b5b60006129c88482850161298f565b91505092915050565b7f4e487b7100000000000000000000000000000000000000000000000000000000600052601260045260246000fd5b6000604082019050612a156000830185611f02565b612a2260208301846120b8565b939250505056fea2646970667358221220c750fad4c8bb53ddb38a901884d5da4206aa84fce707dd8cfb3dd1ffec75452464736f6c63430008180033",
  "linkReferences": {},
  "deployedLinkReferences": {}
}