{
  "_format": "hh-sol-artifact-1",
  "contractName": "Observation",
  "sourceName": "contracts/Observation.sol",
  "abi": [
    {
      "inputs": [
        {
          "internalType": "address",
          "name": "initialOwner",
          "type": "address"
        },
        {
          "internalType": "string",
          "name": "initialBaseURI",
          "type": "string"
        },
        {
          "internalType": "address",
          "name": "gardenAuthContractAddress",
          "type": "address"
        },
        {
          "internalType": "address",
          "name": "badgeContractAddress",
          "type": "address"
        }
      ],
      "stateMutability": "nonpayable",
      "type": "constructor"
    },
    {
      "inputs": [],
      "name": "ERC721EnumerableForbiddenBatchMint",
      "type": "error"
    },
    {
      "inputs": [
        {
          "internalType": "address",
          "name": "sender",
          "type": "address"
        },
        {
          "internalType": "uint256",
          "name": "tokenId",
          "type": "uint256"
        },
        {
          "internalType": "address",
          "name": "owner",
          "type": "address"
        }
      ],
      "name": "ERC721IncorrectOwner",
      "type": "error"
    },
    {
      "inputs": [
        {
          "internalType": "address",
          "name": "operator",
          "type": "address"
        },
        {
          "internalType": "uint256",
          "name": "tokenId",
          "type": "uint256"
        }
      ],
      "name": "ERC721InsufficientApproval",
      "type": "error"
    },
    {
      "inputs": [
        {
          "internalType": "address",
          "name": "approver",
          "type": "address"
        }
      ],
      "name": "ERC721InvalidApprover",
      "type": "error"
    },
    {
      "inputs": [
        {
          "internalType": "address",
          "name": "operator",
          "type": "address"
        }
      ],
      "name": "ERC721InvalidOperator",
      "type": "error"
    },
    {
      "inputs": [
        {
          "internalType": "address",
          "name": "owner",
          "type": "address"
        }
      ],
      "name": "ERC721InvalidOwner",
      "type": "error"
    },
    {
      "inputs": [
        {
          "internalType": "address",
          "name": "receiver",
          "type": "address"
        }
      ],
      "name": "ERC721InvalidReceiver",
      "type": "error"
    },
    {
      "inputs": [
        {
          "internalType": "address",
          "name": "sender",
          "type": "address"
        }
      ],
      "name": "ERC721InvalidSender",
      "type": "error"
    },
    {
      "inputs": [
        {
          "internalType": "uint256",
          "name": "tokenId",
          "type": "uint256"
        }
      ],
      "name": "ERC721NonexistentToken",
      "type": "error"
    },
    {
      "inputs": [
        {
          "internalType": "address",
          "name": "owner",
          "type": "address"
        },
        {
          "internalType": "uint256",
          "name": "index",
          "type": "uint256"
        }
      ],
      "name": "ERC721OutOfBoundsIndex",
      "type": "error"
    },
    {
      "inputs": [
        {
          "internalType": "address",
          "name": "owner",
          "type": "address"
        }
      ],
      "name": "OwnableInvalidOwner",
      "type": "error"
    },
    {
      "inputs": [
        {
          "internalType": "address",
          "name": "account",
          "type": "address"
        }
      ],
      "name": "OwnableUnauthorizedAccount",
      "type": "error"
    },
    {
      "anonymous": false,
      "inputs": [
        {
          "indexed": true,
          "internalType": "address",
          "name": "owner",
          "type": "address"
        },
        {
          "indexed": true,
          "internalType": "address",
          "name": "approved",
          "type": "address"
        },
        {
          "indexed": true,
          "internalType": "uint256",
          "name": "tokenId",
          "type": "uint256"
        }
      ],
      "name": "Approval",
      "type": "event"
    },
    {
      "anonymous": false,
      "inputs": [
        {
          "indexed": true,
          "internalType": "address",
          "name": "owner",
          "type": "address"
        },
        {
          "indexed": true,
          "internalType": "address",
          "name": "operator",
          "type": "address"
        },
        {
          "indexed": false,
          "internalType": "bool",
          "name": "approved",
          "type": "bool"
        }
      ],
      "name": "ApprovalForAll",
      "type": "event"
    },
    {
      "anonymous": false,
      "inputs": [
        {
          "indexed": true,
          "internalType": "address",
          "name": "previousOwner",
          "type": "address"
        },
        {
          "indexed": true,
          "internalType": "address",
          "name": "newOwner",
          "type": "address"
        }
      ],
      "name": "OwnershipTransferred",
      "type": "event"
    },
    {
      "anonymous": false,
      "inputs": [
        {
          "indexed": true,
          "internalType": "address",
          "name": "from",
          "type": "address"
        },
        {
          "indexed": true,
          "internalType": "address",
          "name": "to",
          "type": "address"
        },
        {
          "indexed": true,
          "internalType": "uint256",
          "name": "tokenId",
          "type": "uint256"
        }
      ],
      "name": "Transfer",
      "type": "event"
    },
    {
      "inputs": [
        {
          "internalType": "address",
          "name": "to",
          "type": "address"
        },
        {
          "internalType": "uint256",
          "name": "tokenId",
          "type": "uint256"
        }
      ],
      "name": "approve",
      "outputs": [],
      "stateMutability": "nonpayable",
      "type": "function"
    },
    {
      "inputs": [
        {
          "internalType": "address",
          "name": "owner",
          "type": "address"
        }
      ],
      "name": "balanceOf",
      "outputs": [
        {
          "internalType": "uint256",
          "name": "",
          "type": "uint256"
        }
      ],
      "stateMutability": "view",
      "type": "function"
    },
    {
      "inputs": [
        {
          "internalType": "uint256",
          "name": "",
          "type": "uint256"
        }
      ],
      "name": "checksums",
      "outputs": [
        {
          "internalType": "bytes32",
          "name": "",
          "type": "bytes32"
        }
      ],
      "stateMutability": "view",
      "type": "function"
    },
    {
      "inputs": [
        {
          "internalType": "uint256",
          "name": "tokenId",
          "type": "uint256"
        },
        {
          "internalType": "bytes32",
          "name": "checksum",
          "type": "bytes32"
        }
      ],
      "name": "doesChecksumMatch",
      "outputs": [
        {
          "internalType": "bool",
          "name": "",
          "type": "bool"
        }
      ],
      "stateMutability": "view",
      "type": "function"
    },
    {
      "inputs": [
        {
          "internalType": "uint256",
          "name": "tokenId",
          "type": "uint256"
        }
      ],
      "name": "getApproved",
      "outputs": [
        {
          "internalType": "address",
          "name": "",
          "type": "address"
        }
      ],
      "stateMutability": "view",
      "type": "function"
    },
    {
      "inputs": [
        {
          "internalType": "uint256",
          "name": "tokenId",
          "type": "uint256"
        }
      ],
      "name": "getChecksum",
      "outputs": [
        {
          "internalType": "bytes32",
          "name": "",
          "type": "bytes32"
        }
      ],
      "stateMutability": "view",
      "type": "function"
    },
    {
      "inputs": [],
      "name": "getNextTokenId",
      "outputs": [
        {
          "internalType": "uint256",
          "name": "",
          "type": "uint256"
        }
      ],
      "stateMutability": "view",
      "type": "function"
    },
    {
      "inputs": [
        {
          "internalType": "address",
          "name": "owner",
          "type": "address"
        },
        {
          "internalType": "address",
          "name": "operator",
          "type": "address"
        }
      ],
      "name": "isApprovedForAll",
      "outputs": [
        {
          "internalType": "bool",
          "name": "",
          "type": "bool"
        }
      ],
      "stateMutability": "view",
      "type": "function"
    },
    {
      "inputs": [],
      "name": "name",
      "outputs": [
        {
          "internalType": "string",
          "name": "",
          "type": "string"
        }
      ],
      "stateMutability": "view",
      "type": "function"
    },
    {
      "inputs": [],
      "name": "owner",
      "outputs": [
        {
          "internalType": "address",
          "name": "",
          "type": "address"
        }
      ],
      "stateMutability": "view",
      "type": "function"
    },
    {
      "inputs": [
        {
          "internalType": "uint256",
          "name": "tokenId",
          "type": "uint256"
        }
      ],
      "name": "ownerOf",
      "outputs": [
        {
          "internalType": "address",
          "name": "",
          "type": "address"
        }
      ],
      "stateMutability": "view",
      "type": "function"
    },
    {
      "inputs": [
        {
          "internalType": "address",
          "name": "owner",
          "type": "address"
        }
      ],
      "name": "ownersTokens",
      "outputs": [
        {
          "internalType": "uint256[]",
          "name": "",
          "type": "uint256[]"
        }
      ],
      "stateMutability": "view",
      "type": "function"
    },
    {
      "inputs": [],
      "name": "renounceOwnership",
      "outputs": [],
      "stateMutability": "nonpayable",
      "type": "function"
    },
    {
      "inputs": [
        {
          "internalType": "address",
          "name": "mintTo",
          "type": "address"
        },
        {
          "internalType": "bytes32",
          "name": "metadataChecksum",
          "type": "bytes32"
        }
      ],
      "name": "safeMint",
      "outputs": [],
      "stateMutability": "nonpayable",
      "type": "function"
    },
    {
      "inputs": [
        {
          "internalType": "address",
          "name": "from",
          "type": "address"
        },
        {
          "internalType": "address",
          "name": "to",
          "type": "address"
        },
        {
          "internalType": "uint256",
          "name": "tokenId",
          "type": "uint256"
        }
      ],
      "name": "safeTransferFrom",
      "outputs": [],
      "stateMutability": "nonpayable",
      "type": "function"
    },
    {
      "inputs": [
        {
          "internalType": "address",
          "name": "from",
          "type": "address"
        },
        {
          "internalType": "address",
          "name": "to",
          "type": "address"
        },
        {
          "internalType": "uint256",
          "name": "tokenId",
          "type": "uint256"
        },
        {
          "internalType": "bytes",
          "name": "data",
          "type": "bytes"
        }
      ],
      "name": "safeTransferFrom",
      "outputs": [],
      "stateMutability": "nonpayable",
      "type": "function"
    },
    {
      "inputs": [
        {
          "internalType": "address",
          "name": "operator",
          "type": "address"
        },
        {
          "internalType": "bool",
          "name": "approved",
          "type": "bool"
        }
      ],
      "name": "setApprovalForAll",
      "outputs": [],
      "stateMutability": "nonpayable",
      "type": "function"
    },
    {
      "inputs": [
        {
          "internalType": "address",
          "name": "newBadgeContract",
          "type": "address"
        }
      ],
      "name": "setBadgeContractAddress",
      "outputs": [],
      "stateMutability": "nonpayable",
      "type": "function"
    },
    {
      "inputs": [
        {
          "internalType": "string",
          "name": "newBaseURI",
          "type": "string"
        }
      ],
      "name": "setBaseUri",
      "outputs": [],
      "stateMutability": "nonpayable",
      "type": "function"
    },
    {
      "inputs": [
        {
          "internalType": "address",
          "name": "newGardenExplorerAddress",
          "type": "address"
        }
      ],
      "name": "setGardenAuthContractAddress",
      "outputs": [],
      "stateMutability": "nonpayable",
      "type": "function"
    },
    {
      "inputs": [
        {
          "internalType": "uint256",
          "name": "newMintPrice",
          "type": "uint256"
        }
      ],
      "name": "setMintPrice",
      "outputs": [],
      "stateMutability": "nonpayable",
      "type": "function"
    },
    {
      "inputs": [
        {
          "internalType": "bytes4",
          "name": "interfaceId",
          "type": "bytes4"
        }
      ],
      "name": "supportsInterface",
      "outputs": [
        {
          "internalType": "bool",
          "name": "",
          "type": "bool"
        }
      ],
      "stateMutability": "view",
      "type": "function"
    },
    {
      "inputs": [],
      "name": "symbol",
      "outputs": [
        {
          "internalType": "string",
          "name": "",
          "type": "string"
        }
      ],
      "stateMutability": "view",
      "type": "function"
    },
    {
      "inputs": [
        {
          "internalType": "uint256",
          "name": "index",
          "type": "uint256"
        }
      ],
      "name": "tokenByIndex",
      "outputs": [
        {
          "internalType": "uint256",
          "name": "",
          "type": "uint256"
        }
      ],
      "stateMutability": "view",
      "type": "function"
    },
    {
      "inputs": [
        {
          "internalType": "address",
          "name": "owner",
          "type": "address"
        },
        {
          "internalType": "uint256",
          "name": "index",
          "type": "uint256"
        }
      ],
      "name": "tokenOfOwnerByIndex",
      "outputs": [
        {
          "internalType": "uint256",
          "name": "",
          "type": "uint256"
        }
      ],
      "stateMutability": "view",
      "type": "function"
    },
    {
      "inputs": [
        {
          "internalType": "uint256",
          "name": "tokenId",
          "type": "uint256"
        }
      ],
      "name": "tokenURI",
      "outputs": [
        {
          "internalType": "string",
          "name": "",
          "type": "string"
        }
      ],
      "stateMutability": "view",
      "type": "function"
    },
    {
      "inputs": [],
      "name": "totalSupply",
      "outputs": [
        {
          "internalType": "uint256",
          "name": "",
          "type": "uint256"
        }
      ],
      "stateMutability": "view",
      "type": "function"
    },
    {
      "inputs": [
        {
          "internalType": "address",
          "name": "from",
          "type": "address"
        },
        {
          "internalType": "address",
          "name": "to",
          "type": "address"
        },
        {
          "internalType": "uint256",
          "name": "tokenId",
          "type": "uint256"
        }
      ],
      "name": "transferFrom",
      "outputs": [],
      "stateMutability": "nonpayable",
      "type": "function"
    },
    {
      "inputs": [
        {
          "internalType": "address",
          "name": "newOwner",
          "type": "address"
        }
      ],
      "name": "transferOwnership",
      "outputs": [],
      "stateMutability": "nonpayable",
      "type": "function"
    },
    {
      "inputs": [
        {
          "internalType": "uint256",
          "name": "tokenId",
          "type": "uint256"
        },
        {
          "internalType": "bytes32",
          "name": "newChecksum",
          "type": "bytes32"
        }
      ],
      "name": "updateChecksum",
      "outputs": [],
      "stateMutability": "nonpayable",
      "type": "function"
    },
    {
      "inputs": [
        {
          "internalType": "address",
          "name": "newGardenExplorer",
          "type": "address"
        }
      ],
      "name": "updateGardenExplorer",
      "outputs": [],
      "stateMutability": "nonpayable",
      "type": "function"
    }
  ],
  "bytecode": "0x60806040526000600b556000600d553480156200001b57600080fd5b5060405162004cde38038062004cde8339818101604052810190620000419190620004b7565b836040518060400160405280601b81526020017f47617264656e204578706c6f726572204f62736572766174696f6e00000000008152506040518060400160405280600781526020017f4f425345525645000000000000000000000000000000000000000000000000008152508160009081620000bf919062000793565b508060019081620000d1919062000793565b505050600073ffffffffffffffffffffffffffffffffffffffff168173ffffffffffffffffffffffffffffffffffffffff1603620001495760006040517f1e4fbdf70000000000000000000000000000000000000000000000000000000081526004016200014091906200088b565b60405180910390fd5b6200015a81620001f960201b60201c565b5081600f60006101000a81548173ffffffffffffffffffffffffffffffffffffffff021916908373ffffffffffffffffffffffffffffffffffffffff16021790555080601060006101000a81548173ffffffffffffffffffffffffffffffffffffffff021916908373ffffffffffffffffffffffffffffffffffffffff16021790555082600c9081620001ee919062000793565b5050505050620008a8565b6000600a60009054906101000a900473ffffffffffffffffffffffffffffffffffffffff16905081600a60006101000a81548173ffffffffffffffffffffffffffffffffffffffff021916908373ffffffffffffffffffffffffffffffffffffffff1602179055508173ffffffffffffffffffffffffffffffffffffffff168173ffffffffffffffffffffffffffffffffffffffff167f8be0079c531659141344cd1fd0a4f28419497f9722a3daafe3b4186f6b6457e060405160405180910390a35050565b6000604051905090565b600080fd5b600080fd5b600073ffffffffffffffffffffffffffffffffffffffff82169050919050565b60006200030082620002d3565b9050919050565b6200031281620002f3565b81146200031e57600080fd5b50565b600081519050620003328162000307565b92915050565b600080fd5b600080fd5b6000601f19601f8301169050919050565b7f4e487b7100000000000000000000000000000000000000000000000000000000600052604160045260246000fd5b6200038d8262000342565b810181811067ffffffffffffffff82111715620003af57620003ae62000353565b5b80604052505050565b6000620003c4620002bf565b9050620003d2828262000382565b919050565b600067ffffffffffffffff821115620003f557620003f462000353565b5b620004008262000342565b9050602081019050919050565b60005b838110156200042d57808201518184015260208101905062000410565b60008484015250505050565b6000620004506200044a84620003d7565b620003b8565b9050828152602081018484840111156200046f576200046e6200033d565b5b6200047c8482856200040d565b509392505050565b600082601f8301126200049c576200049b62000338565b5b8151620004ae84826020860162000439565b91505092915050565b60008060008060808587031215620004d457620004d3620002c9565b5b6000620004e48782880162000321565b945050602085015167ffffffffffffffff811115620005085762000507620002ce565b5b620005168782880162000484565b9350506040620005298782880162000321565b92505060606200053c8782880162000321565b91505092959194509250565b600081519050919050565b7f4e487b7100000000000000000000000000000000000000000000000000000000600052602260045260246000fd5b600060028204905060018216806200059b57607f821691505b602082108103620005b157620005b062000553565b5b50919050565b60008190508160005260206000209050919050565b60006020601f8301049050919050565b600082821b905092915050565b6000600883026200061b7fffffffffffffffffffffffffffffffffffffffffffffffffffffffffffffffff82620005dc565b620006278683620005dc565b95508019841693508086168417925050509392505050565b6000819050919050565b6000819050919050565b6000620006746200066e62000668846200063f565b62000649565b6200063f565b9050919050565b6000819050919050565b620006908362000653565b620006a86200069f826200067b565b848454620005e9565b825550505050565b600090565b620006bf620006b0565b620006cc81848462000685565b505050565b5b81811015620006f457620006e8600082620006b5565b600181019050620006d2565b5050565b601f82111562000743576200070d81620005b7565b6200071884620005cc565b8101602085101562000728578190505b620007406200073785620005cc565b830182620006d1565b50505b505050565b600082821c905092915050565b6000620007686000198460080262000748565b1980831691505092915050565b600062000783838362000755565b9150826002028217905092915050565b6200079e8262000548565b67ffffffffffffffff811115620007ba57620007b962000353565b5b620007c6825462000582565b620007d3828285620006f8565b600060209050601f8311600181146200080b5760008415620007f6578287015190505b62000802858262000775565b86555062000872565b601f1984166200081b86620005b7565b60005b8281101562000845578489015182556001820191506020850194506020810190506200081e565b8683101562000865578489015162000861601f89168262000755565b8355505b6001600288020188555050505b505050505050565b6200088581620002f3565b82525050565b6000602082019050620008a260008301846200087a565b92915050565b61442680620008b86000396000f3fe608060405234801561001057600080fd5b50600436106101e55760003560e01c80638da5cb5b1161010f578063d712b744116100a2578063e985e9c511610071578063e985e9c5146105b2578063f1139bf7146105e2578063f2fde38b146105fe578063f4a0a5281461061a576101e5565b8063d712b7441461051a578063daff94e91461054a578063dedfbaa114610566578063e8eae3cf14610582576101e5565b8063ab6dad7f116100de578063ab6dad7f14610480578063b88d4fde146104b0578063c87b56dd146104cc578063caa0f92a146104fc576101e5565b80638da5cb5b1461040c57806395d89b411461042a578063a0bcfc7f14610448578063a22cb46514610464576101e5565b80632f745c59116101875780636352211e116101565780636352211e1461038657806367d51cc4146103b657806370a08231146103d2578063715018a614610402576101e5565b80632f745c59146102da57806342842e0e1461030a5780634c9c2757146103265780634f6ccce714610356576101e5565b8063095ea7b3116101c3578063095ea7b31461026857806318160ddd14610284578063217b595e146102a257806323b872dd146102be576101e5565b806301ffc9a7146101ea57806306fdde031461021a578063081812fc14610238575b600080fd5b61020460048036038101906101ff9190613113565b610636565b604051610211919061315b565b60405180910390f35b610222610648565b60405161022f9190613206565b60405180910390f35b610252600480360381019061024d919061325e565b6106da565b60405161025f91906132cc565b60405180910390f35b610282600480360381019061027d9190613313565b6106f6565b005b61028c61070c565b6040516102999190613362565b60405180910390f35b6102bc60048036038101906102b7919061337d565b610719565b005b6102d860048036038101906102d391906133aa565b610765565b005b6102f460048036038101906102ef9190613313565b610867565b6040516103019190613362565b60405180910390f35b610324600480360381019061031f91906133aa565b610910565b005b610340600480360381019061033b919061325e565b610930565b60405161034d9190613416565b60405180910390f35b610370600480360381019061036b919061325e565b61094d565b60405161037d9190613362565b60405180910390f35b6103a0600480360381019061039b919061325e565b6109c3565b6040516103ad91906132cc565b60405180910390f35b6103d060048036038101906103cb919061345d565b6109d5565b005b6103ec60048036038101906103e7919061337d565b610af0565b6040516103f99190613362565b60405180910390f35b61040a610baa565b005b610414610bbe565b60405161042191906132cc565b60405180910390f35b610432610be8565b60405161043f9190613206565b60405180910390f35b610462600480360381019061045d91906135d2565b610c7a565b005b61047e60048036038101906104799190613647565b610c95565b005b61049a60048036038101906104959190613687565b610cab565b6040516104a7919061315b565b60405180910390f35b6104ca60048036038101906104c59190613768565b610ccb565b005b6104e660048036038101906104e1919061325e565b610ce8565b6040516104f39190613206565b60405180910390f35b610504610d51565b6040516105119190613362565b60405180910390f35b610534600480360381019061052f919061337d565b610d5b565b60405161054191906138a9565b60405180910390f35b610564600480360381019061055f919061337d565b610e03565b005b610580600480360381019061057b919061337d565b610e4f565b005b61059c6004803603810190610597919061325e565b610e9b565b6040516105a99190613416565b60405180910390f35b6105cc60048036038101906105c791906138cb565b610eb3565b6040516105d9919061315b565b60405180910390f35b6105fc60048036038101906105f79190613687565b610f47565b005b6106186004803603810190610613919061337d565b610fd9565b005b610634600480360381019061062f919061325e565b61105f565b005b600061064182611071565b9050919050565b6060600080546106579061393a565b80601f01602080910402602001604051908101604052809291908181526020018280546106839061393a565b80156106d05780601f106106a5576101008083540402835291602001916106d0565b820191906000526020600020905b8154815290600101906020018083116106b357829003601f168201915b5050505050905090565b60006106e5826110eb565b506106ef82611173565b9050919050565b61070882826107036111b0565b6111b8565b5050565b6000600880549050905090565b6107216111ca565b80600f60006101000a81548173ffffffffffffffffffffffffffffffffffffffff021916908373ffffffffffffffffffffffffffffffffffffffff16021790555050565b600073ffffffffffffffffffffffffffffffffffffffff168273ffffffffffffffffffffffffffffffffffffffff16036107d75760006040517f64a0ae920000000000000000000000000000000000000000000000000000000081526004016107ce91906132cc565b60405180910390fd5b60006107eb83836107e66111b0565b611251565b90508373ffffffffffffffffffffffffffffffffffffffff168173ffffffffffffffffffffffffffffffffffffffff1614610861578382826040517f64283d7b0000000000000000000000000000000000000000000000000000000081526004016108589392919061396b565b60405180910390fd5b50505050565b600061087283610af0565b82106108b75782826040517fa57d13dc0000000000000000000000000000000000000000000000000000000081526004016108ae9291906139a2565b60405180910390fd5b600660008473ffffffffffffffffffffffffffffffffffffffff1673ffffffffffffffffffffffffffffffffffffffff168152602001908152602001600020600083815260200190815260200160002054905092915050565b61092b83838360405180602001604052806000815250610ccb565b505050565b6000600e6000838152602001908152602001600020549050919050565b600061095761070c565b821061099d576000826040517fa57d13dc0000000000000000000000000000000000000000000000000000000081526004016109949291906139a2565b60405180910390fd5b600882815481106109b1576109b06139cb565b5b90600052602060002001549050919050565b60006109ce826110eb565b9050919050565b6000600f60009054906101000a900473ffffffffffffffffffffffffffffffffffffffff1673ffffffffffffffffffffffffffffffffffffffff166370a08231846040518263ffffffff1660e01b8152600401610a3291906132cc565b602060405180830381865afa158015610a4f573d6000803e3d6000fd5b505050506040513d601f19601f82011682018060405250810190610a739190613a0f565b11610ab3576040517f08c379a0000000000000000000000000000000000000000000000000000000008152600401610aaa90613aae565b60405180910390fd5b610abf82600b54611267565b610acb600b5482610f47565b610ad482611285565b600b6000815480929190610ae790613afd565b91905055505050565b60008073ffffffffffffffffffffffffffffffffffffffff168273ffffffffffffffffffffffffffffffffffffffff1603610b635760006040517f89c62b64000000000000000000000000000000000000000000000000000000008152600401610b5a91906132cc565b60405180910390fd5b600360008373ffffffffffffffffffffffffffffffffffffffff1673ffffffffffffffffffffffffffffffffffffffff168152602001908152602001600020549050919050565b610bb26111ca565b610bbc6000611de3565b565b6000600a60009054906101000a900473ffffffffffffffffffffffffffffffffffffffff16905090565b606060018054610bf79061393a565b80601f0160208091040260200160405190810160405280929190818152602001828054610c239061393a565b8015610c705780601f10610c4557610100808354040283529160200191610c70565b820191906000526020600020905b815481529060010190602001808311610c5357829003601f168201915b5050505050905090565b610c826111ca565b80600c9081610c919190613cf1565b5050565b610ca7610ca06111b0565b8383611ea9565b5050565b600081600e60008581526020019081526020016000205414905092915050565b610cd6848484610765565b610ce284848484612018565b50505050565b6060610cf3826110eb565b506000610cfe6121cf565b90506000815111610d1e5760405180602001604052806000815250610d49565b80610d2884612261565b604051602001610d39929190613dff565b6040516020818303038152906040525b915050919050565b6000600b54905090565b60606000610d6883610af0565b905060008167ffffffffffffffff811115610d8657610d856134a7565b5b604051908082528060200260200182016040528015610db45781602001602082028036833780820191505090505b50905060005b82811015610df857610dcc8582610867565b828281518110610ddf57610dde6139cb565b5b6020026020010181815250508080600101915050610dba565b508092505050919050565b610e0b6111ca565b80600f60006101000a81548173ffffffffffffffffffffffffffffffffffffffff021916908373ffffffffffffffffffffffffffffffffffffffff16021790555050565b610e576111ca565b80601060006101000a81548173ffffffffffffffffffffffffffffffffffffffff021916908373ffffffffffffffffffffffffffffffffffffffff16021790555050565b600e6020528060005260406000206000915090505481565b6000600560008473ffffffffffffffffffffffffffffffffffffffff1673ffffffffffffffffffffffffffffffffffffffff16815260200190815260200160002060008373ffffffffffffffffffffffffffffffffffffffff1673ffffffffffffffffffffffffffffffffffffffff16815260200190815260200160002060009054906101000a900460ff16905092915050565b3373ffffffffffffffffffffffffffffffffffffffff16610f678361232f565b73ffffffffffffffffffffffffffffffffffffffff1614610fbd576040517f08c379a0000000000000000000000000000000000000000000000000000000008152600401610fb490613e95565b60405180910390fd5b80600e6000848152602001908152602001600020819055505050565b610fe16111ca565b600073ffffffffffffffffffffffffffffffffffffffff168173ffffffffffffffffffffffffffffffffffffffff16036110535760006040517f1e4fbdf700000000000000000000000000000000000000000000000000000000815260040161104a91906132cc565b60405180910390fd5b61105c81611de3565b50565b6110676111ca565b80600d8190555050565b60007f780e9d63000000000000000000000000000000000000000000000000000000007bffffffffffffffffffffffffffffffffffffffffffffffffffffffff1916827bffffffffffffffffffffffffffffffffffffffffffffffffffffffff191614806110e457506110e38261236c565b5b9050919050565b6000806110f78361232f565b9050600073ffffffffffffffffffffffffffffffffffffffff168173ffffffffffffffffffffffffffffffffffffffff160361116a57826040517f7e2732890000000000000000000000000000000000000000000000000000000081526004016111619190613362565b60405180910390fd5b80915050919050565b60006004600083815260200190815260200160002060009054906101000a900473ffffffffffffffffffffffffffffffffffffffff169050919050565b600033905090565b6111c5838383600161244e565b505050565b6111d26111b0565b73ffffffffffffffffffffffffffffffffffffffff166111f0610bbe565b73ffffffffffffffffffffffffffffffffffffffff161461124f576112136111b0565b6040517f118cdaa700000000000000000000000000000000000000000000000000000000815260040161124691906132cc565b60405180910390fd5b565b600061125e848484612613565b90509392505050565b611281828260405180602001604052806000815250612730565b5050565b600061129082610af0565b9050600181036113d357601060009054906101000a900473ffffffffffffffffffffffffffffffffffffffff1673ffffffffffffffffffffffffffffffffffffffff16634c6a70ce8360016040518363ffffffff1660e01b81526004016112f8929190613ef0565b602060405180830381865afa158015611315573d6000803e3d6000fd5b505050506040513d601f19601f820116820180604052508101906113399190613f2e565b6113ce57601060009054906101000a900473ffffffffffffffffffffffffffffffffffffffff1673ffffffffffffffffffffffffffffffffffffffff166317872b218360016040518363ffffffff1660e01b815260040161139b929190613ef0565b600060405180830381600087803b1580156113b557600080fd5b505af11580156113c9573d6000803e3d6000fd5b505050505b611ddf565b6003810361151457601060009054906101000a900473ffffffffffffffffffffffffffffffffffffffff1673ffffffffffffffffffffffffffffffffffffffff16634c6a70ce8360026040518363ffffffff1660e01b8152600401611439929190613f96565b602060405180830381865afa158015611456573d6000803e3d6000fd5b505050506040513d601f19601f8201168201806040525081019061147a9190613f2e565b61150f57601060009054906101000a900473ffffffffffffffffffffffffffffffffffffffff1673ffffffffffffffffffffffffffffffffffffffff166317872b218360026040518363ffffffff1660e01b81526004016114dc929190613f96565b600060405180830381600087803b1580156114f657600080fd5b505af115801561150a573d6000803e3d6000fd5b505050505b611dde565b6005810361165557601060009054906101000a900473ffffffffffffffffffffffffffffffffffffffff1673ffffffffffffffffffffffffffffffffffffffff16634c6a70ce8360036040518363ffffffff1660e01b815260040161157a929190613ffa565b602060405180830381865afa158015611597573d6000803e3d6000fd5b505050506040513d601f19601f820116820180604052508101906115bb9190613f2e565b61165057601060009054906101000a900473ffffffffffffffffffffffffffffffffffffffff1673ffffffffffffffffffffffffffffffffffffffff166317872b218360036040518363ffffffff1660e01b815260040161161d929190613ffa565b600060405180830381600087803b15801561163757600080fd5b505af115801561164b573d6000803e3d6000fd5b505050505b611ddd565b600a810361179657601060009054906101000a900473ffffffffffffffffffffffffffffffffffffffff1673ffffffffffffffffffffffffffffffffffffffff16634c6a70ce8360046040518363ffffffff1660e01b81526004016116bb92919061405e565b602060405180830381865afa1580156116d8573d6000803e3d6000fd5b505050506040513d601f19601f820116820180604052508101906116fc9190613f2e565b61179157601060009054906101000a900473ffffffffffffffffffffffffffffffffffffffff1673ffffffffffffffffffffffffffffffffffffffff166317872b218360046040518363ffffffff1660e01b815260040161175e92919061405e565b600060405180830381600087803b15801561177857600080fd5b505af115801561178c573d6000803e3d6000fd5b505050505b611ddc565b601481036118d757601060009054906101000a900473ffffffffffffffffffffffffffffffffffffffff1673ffffffffffffffffffffffffffffffffffffffff16634c6a70ce8360056040518363ffffffff1660e01b81526004016117fc9291906140c2565b602060405180830381865afa158015611819573d6000803e3d6000fd5b505050506040513d601f19601f8201168201806040525081019061183d9190613f2e565b6118d257601060009054906101000a900473ffffffffffffffffffffffffffffffffffffffff1673ffffffffffffffffffffffffffffffffffffffff166317872b218360056040518363ffffffff1660e01b815260040161189f9291906140c2565b600060405180830381600087803b1580156118b957600080fd5b505af11580156118cd573d6000803e3d6000fd5b505050505b611ddb565b601e8103611a1857601060009054906101000a900473ffffffffffffffffffffffffffffffffffffffff1673ffffffffffffffffffffffffffffffffffffffff16634c6a70ce8360066040518363ffffffff1660e01b815260040161193d929190614126565b602060405180830381865afa15801561195a573d6000803e3d6000fd5b505050506040513d601f19601f8201168201806040525081019061197e9190613f2e565b611a1357601060009054906101000a900473ffffffffffffffffffffffffffffffffffffffff1673ffffffffffffffffffffffffffffffffffffffff166317872b218360066040518363ffffffff1660e01b81526004016119e0929190614126565b600060405180830381600087803b1580156119fa57600080fd5b505af1158015611a0e573d6000803e3d6000fd5b505050505b611dda565b60328103611b5957601060009054906101000a900473ffffffffffffffffffffffffffffffffffffffff1673ffffffffffffffffffffffffffffffffffffffff16634c6a70ce8360076040518363ffffffff1660e01b8152600401611a7e92919061418a565b602060405180830381865afa158015611a9b573d6000803e3d6000fd5b505050506040513d601f19601f82011682018060405250810190611abf9190613f2e565b611b5457601060009054906101000a900473ffffffffffffffffffffffffffffffffffffffff1673ffffffffffffffffffffffffffffffffffffffff166317872b218360076040518363ffffffff1660e01b8152600401611b2192919061418a565b600060405180830381600087803b158015611b3b57600080fd5b505af1158015611b4f573d6000803e3d6000fd5b505050505b611dd9565b604b8103611c9a57601060009054906101000a900473ffffffffffffffffffffffffffffffffffffffff1673ffffffffffffffffffffffffffffffffffffffff16634c6a70ce8360086040518363ffffffff1660e01b8152600401611bbf9291906141ee565b602060405180830381865afa158015611bdc573d6000803e3d6000fd5b505050506040513d601f19601f82011682018060405250810190611c009190613f2e565b611c9557601060009054906101000a900473ffffffffffffffffffffffffffffffffffffffff1673ffffffffffffffffffffffffffffffffffffffff166317872b218360086040518363ffffffff1660e01b8152600401611c629291906141ee565b600060405180830381600087803b158015611c7c57600080fd5b505af1158015611c90573d6000803e3d6000fd5b505050505b611dd8565b60648103611dd757601060009054906101000a900473ffffffffffffffffffffffffffffffffffffffff1673ffffffffffffffffffffffffffffffffffffffff16634c6a70ce8360096040518363ffffffff1660e01b8152600401611d00929190614252565b602060405180830381865afa158015611d1d573d6000803e3d6000fd5b505050506040513d601f19601f82011682018060405250810190611d419190613f2e565b611dd657601060009054906101000a900473ffffffffffffffffffffffffffffffffffffffff1673ffffffffffffffffffffffffffffffffffffffff166317872b218360096040518363ffffffff1660e01b8152600401611da3929190614252565b600060405180830381600087803b158015611dbd57600080fd5b505af1158015611dd1573d6000803e3d6000fd5b505050505b5b5b5b5b5b5b5b5b5b5050565b6000600a60009054906101000a900473ffffffffffffffffffffffffffffffffffffffff16905081600a60006101000a81548173ffffffffffffffffffffffffffffffffffffffff021916908373ffffffffffffffffffffffffffffffffffffffff1602179055508173ffffffffffffffffffffffffffffffffffffffff168173ffffffffffffffffffffffffffffffffffffffff167f8be0079c531659141344cd1fd0a4f28419497f9722a3daafe3b4186f6b6457e060405160405180910390a35050565b600073ffffffffffffffffffffffffffffffffffffffff168273ffffffffffffffffffffffffffffffffffffffff1603611f1a57816040517f5b08ba18000000000000000000000000000000000000000000000000000000008152600401611f1191906132cc565b60405180910390fd5b80600560008573ffffffffffffffffffffffffffffffffffffffff1673ffffffffffffffffffffffffffffffffffffffff16815260200190815260200160002060008473ffffffffffffffffffffffffffffffffffffffff1673ffffffffffffffffffffffffffffffffffffffff16815260200190815260200160002060006101000a81548160ff0219169083151502179055508173ffffffffffffffffffffffffffffffffffffffff168373ffffffffffffffffffffffffffffffffffffffff167f17307eab39ab6107e8899845ad3d59bd9653f200f220920489ca2b5937696c318360405161200b919061315b565b60405180910390a3505050565b60008373ffffffffffffffffffffffffffffffffffffffff163b11156121c9578273ffffffffffffffffffffffffffffffffffffffff1663150b7a0261205c6111b0565b8685856040518563ffffffff1660e01b815260040161207e94939291906142d0565b6020604051808303816000875af19250505080156120ba57506040513d601f19601f820116820180604052508101906120b79190614331565b60015b61213e573d80600081146120ea576040519150601f19603f3d011682016040523d82523d6000602084013e6120ef565b606091505b50600081510361213657836040517f64a0ae9200000000000000000000000000000000000000000000000000000000815260040161212d91906132cc565b60405180910390fd5b805181602001fd5b63150b7a0260e01b7bffffffffffffffffffffffffffffffffffffffffffffffffffffffff1916817bffffffffffffffffffffffffffffffffffffffffffffffffffffffff1916146121c757836040517f64a0ae920000000000000000000000000000000000000000000000000000000081526004016121be91906132cc565b60405180910390fd5b505b50505050565b6060600c80546121de9061393a565b80601f016020809104026020016040519081016040528092919081815260200182805461220a9061393a565b80156122575780601f1061222c57610100808354040283529160200191612257565b820191906000526020600020905b81548152906001019060200180831161223a57829003601f168201915b5050505050905090565b6060600060016122708461274c565b01905060008167ffffffffffffffff81111561228f5761228e6134a7565b5b6040519080825280601f01601f1916602001820160405280156122c15781602001600182028036833780820191505090505b509050600082602001820190505b600115612324578080600190039150507f3031323334353637383961626364656600000000000000000000000000000000600a86061a8153600a85816123185761231761435e565b5b049450600085036122cf575b819350505050919050565b60006002600083815260200190815260200160002060009054906101000a900473ffffffffffffffffffffffffffffffffffffffff169050919050565b60007f80ac58cd000000000000000000000000000000000000000000000000000000007bffffffffffffffffffffffffffffffffffffffffffffffffffffffff1916827bffffffffffffffffffffffffffffffffffffffffffffffffffffffff1916148061243757507f5b5e139f000000000000000000000000000000000000000000000000000000007bffffffffffffffffffffffffffffffffffffffffffffffffffffffff1916827bffffffffffffffffffffffffffffffffffffffffffffffffffffffff1916145b8061244757506124468261289f565b5b9050919050565b80806124875750600073ffffffffffffffffffffffffffffffffffffffff168273ffffffffffffffffffffffffffffffffffffffff1614155b156125bb576000612497846110eb565b9050600073ffffffffffffffffffffffffffffffffffffffff168373ffffffffffffffffffffffffffffffffffffffff161415801561250257508273ffffffffffffffffffffffffffffffffffffffff168173ffffffffffffffffffffffffffffffffffffffff1614155b801561251557506125138184610eb3565b155b1561255757826040517fa9fbf51f00000000000000000000000000000000000000000000000000000000815260040161254e91906132cc565b60405180910390fd5b81156125b957838573ffffffffffffffffffffffffffffffffffffffff168273ffffffffffffffffffffffffffffffffffffffff167f8c5be1e5ebec7d5bd14f71427d1e84f3dd0314c0f7b2291e5b200ac8c7c3b92560405160405180910390a45b505b836004600085815260200190815260200160002060006101000a81548173ffffffffffffffffffffffffffffffffffffffff021916908373ffffffffffffffffffffffffffffffffffffffff16021790555050505050565b600080612621858585612909565b9050600073ffffffffffffffffffffffffffffffffffffffff168173ffffffffffffffffffffffffffffffffffffffff16036126655761266084612b23565b6126a4565b8473ffffffffffffffffffffffffffffffffffffffff168173ffffffffffffffffffffffffffffffffffffffff16146126a3576126a28185612b6c565b5b5b600073ffffffffffffffffffffffffffffffffffffffff168573ffffffffffffffffffffffffffffffffffffffff16036126e6576126e184612ccd565b612725565b8473ffffffffffffffffffffffffffffffffffffffff168173ffffffffffffffffffffffffffffffffffffffff1614612724576127238585612d9e565b5b5b809150509392505050565b61273a8383612e29565b6127476000848484612018565b505050565b600080600090507a184f03e93ff9f4daa797ed6e38ed64bf6a1f01000000000000000083106127aa577a184f03e93ff9f4daa797ed6e38ed64bf6a1f01000000000000000083816127a05761279f61435e565b5b0492506040810190505b6d04ee2d6d415b85acef810000000083106127e7576d04ee2d6d415b85acef810000000083816127dd576127dc61435e565b5b0492506020810190505b662386f26fc10000831061281657662386f26fc10000838161280c5761280b61435e565b5b0492506010810190505b6305f5e100831061283f576305f5e10083816128355761283461435e565b5b0492506008810190505b612710831061286457612710838161285a5761285961435e565b5b0492506004810190505b60648310612887576064838161287d5761287c61435e565b5b0492506002810190505b600a8310612896576001810190505b80915050919050565b60007f01ffc9a7000000000000000000000000000000000000000000000000000000007bffffffffffffffffffffffffffffffffffffffffffffffffffffffff1916827bffffffffffffffffffffffffffffffffffffffffffffffffffffffff1916149050919050565b6000806129158461232f565b9050600073ffffffffffffffffffffffffffffffffffffffff168373ffffffffffffffffffffffffffffffffffffffff161461295757612956818486612f22565b5b600073ffffffffffffffffffffffffffffffffffffffff168173ffffffffffffffffffffffffffffffffffffffff16146129e85761299960008560008061244e565b6001600360008373ffffffffffffffffffffffffffffffffffffffff1673ffffffffffffffffffffffffffffffffffffffff168152602001908152602001600020600082825403925050819055505b600073ffffffffffffffffffffffffffffffffffffffff168573ffffffffffffffffffffffffffffffffffffffff1614612a6b576001600360008773ffffffffffffffffffffffffffffffffffffffff1673ffffffffffffffffffffffffffffffffffffffff168152602001908152602001600020600082825401925050819055505b846002600086815260200190815260200160002060006101000a81548173ffffffffffffffffffffffffffffffffffffffff021916908373ffffffffffffffffffffffffffffffffffffffff160217905550838573ffffffffffffffffffffffffffffffffffffffff168273ffffffffffffffffffffffffffffffffffffffff167fddf252ad1be2c89b69c2b068fc378daa952ba7f163c4a11628f55a4df523b3ef60405160405180910390a4809150509392505050565b6008805490506009600083815260200190815260200160002081905550600881908060018154018082558091505060019003906000526020600020016000909190919091505550565b6000612b7783610af0565b9050600060076000848152602001908152602001600020549050818114612c5c576000600660008673ffffffffffffffffffffffffffffffffffffffff1673ffffffffffffffffffffffffffffffffffffffff168152602001908152602001600020600084815260200190815260200160002054905080600660008773ffffffffffffffffffffffffffffffffffffffff1673ffffffffffffffffffffffffffffffffffffffff168152602001908152602001600020600084815260200190815260200160002081905550816007600083815260200190815260200160002081905550505b6007600084815260200190815260200160002060009055600660008573ffffffffffffffffffffffffffffffffffffffff1673ffffffffffffffffffffffffffffffffffffffff16815260200190815260200160002060008381526020019081526020016000206000905550505050565b60006001600880549050612ce1919061438d565b9050600060096000848152602001908152602001600020549050600060088381548110612d1157612d106139cb565b5b906000526020600020015490508060088381548110612d3357612d326139cb565b5b906000526020600020018190555081600960008381526020019081526020016000208190555060096000858152602001908152602001600020600090556008805480612d8257612d816143c1565b5b6001900381819060005260206000200160009055905550505050565b60006001612dab84610af0565b612db5919061438d565b905081600660008573ffffffffffffffffffffffffffffffffffffffff1673ffffffffffffffffffffffffffffffffffffffff168152602001908152602001600020600083815260200190815260200160002081905550806007600084815260200190815260200160002081905550505050565b600073ffffffffffffffffffffffffffffffffffffffff168273ffffffffffffffffffffffffffffffffffffffff1603612e9b5760006040517f64a0ae92000000000000000000000000000000000000000000000000000000008152600401612e9291906132cc565b60405180910390fd5b6000612ea983836000611251565b9050600073ffffffffffffffffffffffffffffffffffffffff168173ffffffffffffffffffffffffffffffffffffffff1614612f1d5760006040517f73c6ac6e000000000000000000000000000000000000000000000000000000008152600401612f1491906132cc565b60405180910390fd5b505050565b612f2d838383612fe6565b612fe157600073ffffffffffffffffffffffffffffffffffffffff168373ffffffffffffffffffffffffffffffffffffffff1603612fa257806040517f7e273289000000000000000000000000000000000000000000000000000000008152600401612f999190613362565b60405180910390fd5b81816040517f177e802f000000000000000000000000000000000000000000000000000000008152600401612fd89291906139a2565b60405180910390fd5b505050565b60008073ffffffffffffffffffffffffffffffffffffffff168373ffffffffffffffffffffffffffffffffffffffff161415801561309e57508273ffffffffffffffffffffffffffffffffffffffff168473ffffffffffffffffffffffffffffffffffffffff16148061305f575061305e8484610eb3565b5b8061309d57508273ffffffffffffffffffffffffffffffffffffffff1661308583611173565b73ffffffffffffffffffffffffffffffffffffffff16145b5b90509392505050565b6000604051905090565b600080fd5b600080fd5b60007fffffffff0000000000000000000000000000000000000000000000000000000082169050919050565b6130f0816130bb565b81146130fb57600080fd5b50565b60008135905061310d816130e7565b92915050565b600060208284031215613129576131286130b1565b5b6000613137848285016130fe565b91505092915050565b60008115159050919050565b61315581613140565b82525050565b6000602082019050613170600083018461314c565b92915050565b600081519050919050565b600082825260208201905092915050565b60005b838110156131b0578082015181840152602081019050613195565b60008484015250505050565b6000601f19601f8301169050919050565b60006131d882613176565b6131e28185613181565b93506131f2818560208601613192565b6131fb816131bc565b840191505092915050565b6000602082019050818103600083015261322081846131cd565b905092915050565b6000819050919050565b61323b81613228565b811461324657600080fd5b50565b60008135905061325881613232565b92915050565b600060208284031215613274576132736130b1565b5b600061328284828501613249565b91505092915050565b600073ffffffffffffffffffffffffffffffffffffffff82169050919050565b60006132b68261328b565b9050919050565b6132c6816132ab565b82525050565b60006020820190506132e160008301846132bd565b92915050565b6132f0816132ab565b81146132fb57600080fd5b50565b60008135905061330d816132e7565b92915050565b6000806040838503121561332a576133296130b1565b5b6000613338858286016132fe565b925050602061334985828601613249565b9150509250929050565b61335c81613228565b82525050565b60006020820190506133776000830184613353565b92915050565b600060208284031215613393576133926130b1565b5b60006133a1848285016132fe565b91505092915050565b6000806000606084860312156133c3576133c26130b1565b5b60006133d1868287016132fe565b93505060206133e2868287016132fe565b92505060406133f386828701613249565b9150509250925092565b6000819050919050565b613410816133fd565b82525050565b600060208201905061342b6000830184613407565b92915050565b61343a816133fd565b811461344557600080fd5b50565b60008135905061345781613431565b92915050565b60008060408385031215613474576134736130b1565b5b6000613482858286016132fe565b925050602061349385828601613448565b9150509250929050565b600080fd5b600080fd5b7f4e487b7100000000000000000000000000000000000000000000000000000000600052604160045260246000fd5b6134df826131bc565b810181811067ffffffffffffffff821117156134fe576134fd6134a7565b5b80604052505050565b60006135116130a7565b905061351d82826134d6565b919050565b600067ffffffffffffffff82111561353d5761353c6134a7565b5b613546826131bc565b9050602081019050919050565b82818337600083830152505050565b600061357561357084613522565b613507565b905082815260208101848484011115613591576135906134a2565b5b61359c848285613553565b509392505050565b600082601f8301126135b9576135b861349d565b5b81356135c9848260208601613562565b91505092915050565b6000602082840312156135e8576135e76130b1565b5b600082013567ffffffffffffffff811115613606576136056130b6565b5b613612848285016135a4565b91505092915050565b61362481613140565b811461362f57600080fd5b50565b6000813590506136418161361b565b92915050565b6000806040838503121561365e5761365d6130b1565b5b600061366c858286016132fe565b925050602061367d85828601613632565b9150509250929050565b6000806040838503121561369e5761369d6130b1565b5b60006136ac85828601613249565b92505060206136bd85828601613448565b9150509250929050565b600067ffffffffffffffff8211156136e2576136e16134a7565b5b6136eb826131bc565b9050602081019050919050565b600061370b613706846136c7565b613507565b905082815260208101848484011115613727576137266134a2565b5b613732848285613553565b509392505050565b600082601f83011261374f5761374e61349d565b5b813561375f8482602086016136f8565b91505092915050565b60008060008060808587031215613782576137816130b1565b5b6000613790878288016132fe565b94505060206137a1878288016132fe565b93505060406137b287828801613249565b925050606085013567ffffffffffffffff8111156137d3576137d26130b6565b5b6137df8782880161373a565b91505092959194509250565b600081519050919050565b600082825260208201905092915050565b6000819050602082019050919050565b61382081613228565b82525050565b60006138328383613817565b60208301905092915050565b6000602082019050919050565b6000613856826137eb565b61386081856137f6565b935061386b83613807565b8060005b8381101561389c5781516138838882613826565b975061388e8361383e565b92505060018101905061386f565b5085935050505092915050565b600060208201905081810360008301526138c3818461384b565b905092915050565b600080604083850312156138e2576138e16130b1565b5b60006138f0858286016132fe565b9250506020613901858286016132fe565b9150509250929050565b7f4e487b7100000000000000000000000000000000000000000000000000000000600052602260045260246000fd5b6000600282049050600182168061395257607f821691505b6020821081036139655761396461390b565b5b50919050565b600060608201905061398060008301866132bd565b61398d6020830185613353565b61399a60408301846132bd565b949350505050565b60006040820190506139b760008301856132bd565b6139c46020830184613353565b9392505050565b7f4e487b7100000000000000000000000000000000000000000000000000000000600052603260045260246000fd5b600081519050613a0981613232565b92915050565b600060208284031215613a2557613a246130b1565b5b6000613a33848285016139fa565b91505092915050565b7f596f75206d757374206f776e20612047617264656e204578706c6f726572207460008201527f6f6b656e20746f206d696e7420616e206f62736572766174696f6e0000000000602082015250565b6000613a98603b83613181565b9150613aa382613a3c565b604082019050919050565b60006020820190508181036000830152613ac781613a8b565b9050919050565b7f4e487b7100000000000000000000000000000000000000000000000000000000600052601160045260246000fd5b6000613b0882613228565b91507fffffffffffffffffffffffffffffffffffffffffffffffffffffffffffffffff8203613b3a57613b39613ace565b5b600182019050919050565b60008190508160005260206000209050919050565b60006020601f8301049050919050565b600082821b905092915050565b600060088302613ba77fffffffffffffffffffffffffffffffffffffffffffffffffffffffffffffffff82613b6a565b613bb18683613b6a565b95508019841693508086168417925050509392505050565b6000819050919050565b6000613bee613be9613be484613228565b613bc9565b613228565b9050919050565b6000819050919050565b613c0883613bd3565b613c1c613c1482613bf5565b848454613b77565b825550505050565b600090565b613c31613c24565b613c3c818484613bff565b505050565b5b81811015613c6057613c55600082613c29565b600181019050613c42565b5050565b601f821115613ca557613c7681613b45565b613c7f84613b5a565b81016020851015613c8e578190505b613ca2613c9a85613b5a565b830182613c41565b50505b505050565b600082821c905092915050565b6000613cc860001984600802613caa565b1980831691505092915050565b6000613ce18383613cb7565b9150826002028217905092915050565b613cfa82613176565b67ffffffffffffffff811115613d1357613d126134a7565b5b613d1d825461393a565b613d28828285613c64565b600060209050601f831160018114613d5b5760008415613d49578287015190505b613d538582613cd5565b865550613dbb565b601f198416613d6986613b45565b60005b82811015613d9157848901518255600182019150602085019450602081019050613d6c565b86831015613dae5784890151613daa601f891682613cb7565b8355505b6001600288020188555050505b505050505050565b600081905092915050565b6000613dd982613176565b613de38185613dc3565b9350613df3818560208601613192565b80840191505092915050565b6000613e0b8285613dce565b9150613e178284613dce565b91508190509392505050565b7f43616c6c6572206973206e6f7420746865206f776e6572206f6620746869732060008201527f49442e2043616e6e6f742075706461746520636865636b73756d2e0000000000602082015250565b6000613e7f603b83613181565b9150613e8a82613e23565b604082019050919050565b60006020820190508181036000830152613eae81613e72565b9050919050565b6000819050919050565b6000613eda613ed5613ed084613eb5565b613bc9565b613228565b9050919050565b613eea81613ebf565b82525050565b6000604082019050613f0560008301856132bd565b613f126020830184613ee1565b9392505050565b600081519050613f288161361b565b92915050565b600060208284031215613f4457613f436130b1565b5b6000613f5284828501613f19565b91505092915050565b6000819050919050565b6000613f80613f7b613f7684613f5b565b613bc9565b613228565b9050919050565b613f9081613f65565b82525050565b6000604082019050613fab60008301856132bd565b613fb86020830184613f87565b9392505050565b6000819050919050565b6000613fe4613fdf613fda84613fbf565b613bc9565b613228565b9050919050565b613ff481613fc9565b82525050565b600060408201905061400f60008301856132bd565b61401c6020830184613feb565b9392505050565b6000819050919050565b600061404861404361403e84614023565b613bc9565b613228565b9050919050565b6140588161402d565b82525050565b600060408201905061407360008301856132bd565b614080602083018461404f565b9392505050565b6000819050919050565b60006140ac6140a76140a284614087565b613bc9565b613228565b9050919050565b6140bc81614091565b82525050565b60006040820190506140d760008301856132bd565b6140e460208301846140b3565b9392505050565b6000819050919050565b600061411061410b614106846140eb565b613bc9565b613228565b9050919050565b614120816140f5565b82525050565b600060408201905061413b60008301856132bd565b6141486020830184614117565b9392505050565b6000819050919050565b600061417461416f61416a8461414f565b613bc9565b613228565b9050919050565b61418481614159565b82525050565b600060408201905061419f60008301856132bd565b6141ac602083018461417b565b9392505050565b6000819050919050565b60006141d86141d36141ce846141b3565b613bc9565b613228565b9050919050565b6141e8816141bd565b82525050565b600060408201905061420360008301856132bd565b61421060208301846141df565b9392505050565b6000819050919050565b600061423c61423761423284614217565b613bc9565b613228565b9050919050565b61424c81614221565b82525050565b600060408201905061426760008301856132bd565b6142746020830184614243565b9392505050565b600081519050919050565b600082825260208201905092915050565b60006142a28261427b565b6142ac8185614286565b93506142bc818560208601613192565b6142c5816131bc565b840191505092915050565b60006080820190506142e560008301876132bd565b6142f260208301866132bd565b6142ff6040830185613353565b81810360608301526143118184614297565b905095945050505050565b60008151905061432b816130e7565b92915050565b600060208284031215614347576143466130b1565b5b60006143558482850161431c565b91505092915050565b7f4e487b7100000000000000000000000000000000000000000000000000000000600052601260045260246000fd5b600061439882613228565b91506143a383613228565b92508282039050818111156143bb576143ba613ace565b5b92915050565b7f4e487b7100000000000000000000000000000000000000000000000000000000600052603160045260246000fdfea26469706673582212200f62e87253b05adfa99913b2c21e1bde8964cf4074de05227b0e6c631434882264736f6c63430008180033",
  "linkReferences": {},
  "deployedLinkReferences": {}
}