{
  "_format": "hh-sol-artifact-1",
  "contractName": "Observation",
  "sourceName": "contracts/Observation.sol",
  "abi": [
    {
      "inputs": [
        {
          "internalType": "address",
          "name": "initialOwner",
          "type": "address"
        },
        {
          "internalType": "string",
          "name": "initialBaseURI",
          "type": "string"
        },
        {
          "internalType": "address",
          "name": "gardenAuthContractAddress",
          "type": "address"
        },
        {
          "internalType": "address",
          "name": "badgeContractAddress",
          "type": "address"
        }
      ],
      "stateMutability": "nonpayable",
      "type": "constructor"
    },
    {
      "inputs": [],
      "name": "ERC721EnumerableForbiddenBatchMint",
      "type": "error"
    },
    {
      "inputs": [
        {
          "internalType": "address",
          "name": "sender",
          "type": "address"
        },
        {
          "internalType": "uint256",
          "name": "tokenId",
          "type": "uint256"
        },
        {
          "internalType": "address",
          "name": "owner",
          "type": "address"
        }
      ],
      "name": "ERC721IncorrectOwner",
      "type": "error"
    },
    {
      "inputs": [
        {
          "internalType": "address",
          "name": "operator",
          "type": "address"
        },
        {
          "internalType": "uint256",
          "name": "tokenId",
          "type": "uint256"
        }
      ],
      "name": "ERC721InsufficientApproval",
      "type": "error"
    },
    {
      "inputs": [
        {
          "internalType": "address",
          "name": "approver",
          "type": "address"
        }
      ],
      "name": "ERC721InvalidApprover",
      "type": "error"
    },
    {
      "inputs": [
        {
          "internalType": "address",
          "name": "operator",
          "type": "address"
        }
      ],
      "name": "ERC721InvalidOperator",
      "type": "error"
    },
    {
      "inputs": [
        {
          "internalType": "address",
          "name": "owner",
          "type": "address"
        }
      ],
      "name": "ERC721InvalidOwner",
      "type": "error"
    },
    {
      "inputs": [
        {
          "internalType": "address",
          "name": "receiver",
          "type": "address"
        }
      ],
      "name": "ERC721InvalidReceiver",
      "type": "error"
    },
    {
      "inputs": [
        {
          "internalType": "address",
          "name": "sender",
          "type": "address"
        }
      ],
      "name": "ERC721InvalidSender",
      "type": "error"
    },
    {
      "inputs": [
        {
          "internalType": "uint256",
          "name": "tokenId",
          "type": "uint256"
        }
      ],
      "name": "ERC721NonexistentToken",
      "type": "error"
    },
    {
      "inputs": [
        {
          "internalType": "address",
          "name": "owner",
          "type": "address"
        },
        {
          "internalType": "uint256",
          "name": "index",
          "type": "uint256"
        }
      ],
      "name": "ERC721OutOfBoundsIndex",
      "type": "error"
    },
    {
      "inputs": [
        {
          "internalType": "address",
          "name": "owner",
          "type": "address"
        }
      ],
      "name": "OwnableInvalidOwner",
      "type": "error"
    },
    {
      "inputs": [
        {
          "internalType": "address",
          "name": "account",
          "type": "address"
        }
      ],
      "name": "OwnableUnauthorizedAccount",
      "type": "error"
    },
    {
      "anonymous": false,
      "inputs": [
        {
          "indexed": true,
          "internalType": "address",
          "name": "owner",
          "type": "address"
        },
        {
          "indexed": true,
          "internalType": "address",
          "name": "approved",
          "type": "address"
        },
        {
          "indexed": true,
          "internalType": "uint256",
          "name": "tokenId",
          "type": "uint256"
        }
      ],
      "name": "Approval",
      "type": "event"
    },
    {
      "anonymous": false,
      "inputs": [
        {
          "indexed": true,
          "internalType": "address",
          "name": "owner",
          "type": "address"
        },
        {
          "indexed": true,
          "internalType": "address",
          "name": "operator",
          "type": "address"
        },
        {
          "indexed": false,
          "internalType": "bool",
          "name": "approved",
          "type": "bool"
        }
      ],
      "name": "ApprovalForAll",
      "type": "event"
    },
    {
      "anonymous": false,
      "inputs": [
        {
          "indexed": true,
          "internalType": "address",
          "name": "previousOwner",
          "type": "address"
        },
        {
          "indexed": true,
          "internalType": "address",
          "name": "newOwner",
          "type": "address"
        }
      ],
      "name": "OwnershipTransferred",
      "type": "event"
    },
    {
      "anonymous": false,
      "inputs": [
        {
          "indexed": true,
          "internalType": "address",
          "name": "from",
          "type": "address"
        },
        {
          "indexed": true,
          "internalType": "address",
          "name": "to",
          "type": "address"
        },
        {
          "indexed": true,
          "internalType": "uint256",
          "name": "tokenId",
          "type": "uint256"
        }
      ],
      "name": "Transfer",
      "type": "event"
    },
    {
      "inputs": [
        {
          "internalType": "address",
          "name": "to",
          "type": "address"
        },
        {
          "internalType": "uint256",
          "name": "tokenId",
          "type": "uint256"
        }
      ],
      "name": "approve",
      "outputs": [],
      "stateMutability": "nonpayable",
      "type": "function"
    },
    {
      "inputs": [
        {
          "internalType": "address",
          "name": "owner",
          "type": "address"
        }
      ],
      "name": "balanceOf",
      "outputs": [
        {
          "internalType": "uint256",
          "name": "",
          "type": "uint256"
        }
      ],
      "stateMutability": "view",
      "type": "function"
    },
    {
      "inputs": [
        {
          "internalType": "uint256",
          "name": "",
          "type": "uint256"
        }
      ],
      "name": "checksums",
      "outputs": [
        {
          "internalType": "bytes32",
          "name": "",
          "type": "bytes32"
        }
      ],
      "stateMutability": "view",
      "type": "function"
    },
    {
      "inputs": [
        {
          "internalType": "address",
          "name": "mintTo",
          "type": "address"
        },
        {
          "internalType": "bytes32",
          "name": "metadataChecksum",
          "type": "bytes32"
        }
      ],
      "name": "createObservation",
      "outputs": [],
      "stateMutability": "nonpayable",
      "type": "function"
    },
    {
      "inputs": [
        {
          "internalType": "uint256",
          "name": "tokenId",
          "type": "uint256"
        },
        {
          "internalType": "bytes32",
          "name": "checksum",
          "type": "bytes32"
        }
      ],
      "name": "doesChecksumMatch",
      "outputs": [
        {
          "internalType": "bool",
          "name": "",
          "type": "bool"
        }
      ],
      "stateMutability": "view",
      "type": "function"
    },
    {
      "inputs": [
        {
          "internalType": "uint256",
          "name": "tokenId",
          "type": "uint256"
        }
      ],
      "name": "getApproved",
      "outputs": [
        {
          "internalType": "address",
          "name": "",
          "type": "address"
        }
      ],
      "stateMutability": "view",
      "type": "function"
    },
    {
      "inputs": [],
      "name": "getBaseUri",
      "outputs": [
        {
          "internalType": "string",
          "name": "",
          "type": "string"
        }
      ],
      "stateMutability": "view",
      "type": "function"
    },
    {
      "inputs": [
        {
          "internalType": "uint256",
          "name": "tokenId",
          "type": "uint256"
        }
      ],
      "name": "getChecksum",
      "outputs": [
        {
          "internalType": "bytes32",
          "name": "",
          "type": "bytes32"
        }
      ],
      "stateMutability": "view",
      "type": "function"
    },
    {
      "inputs": [],
      "name": "getNextTokenId",
      "outputs": [
        {
          "internalType": "uint256",
          "name": "",
          "type": "uint256"
        }
      ],
      "stateMutability": "view",
      "type": "function"
    },
    {
      "inputs": [
        {
          "internalType": "address",
          "name": "owner",
          "type": "address"
        },
        {
          "internalType": "address",
          "name": "operator",
          "type": "address"
        }
      ],
      "name": "isApprovedForAll",
      "outputs": [
        {
          "internalType": "bool",
          "name": "",
          "type": "bool"
        }
      ],
      "stateMutability": "view",
      "type": "function"
    },
    {
      "inputs": [],
      "name": "name",
      "outputs": [
        {
          "internalType": "string",
          "name": "",
          "type": "string"
        }
      ],
      "stateMutability": "view",
      "type": "function"
    },
    {
      "inputs": [],
      "name": "owner",
      "outputs": [
        {
          "internalType": "address",
          "name": "",
          "type": "address"
        }
      ],
      "stateMutability": "view",
      "type": "function"
    },
    {
      "inputs": [
        {
          "internalType": "uint256",
          "name": "tokenId",
          "type": "uint256"
        }
      ],
      "name": "ownerOf",
      "outputs": [
        {
          "internalType": "address",
          "name": "",
          "type": "address"
        }
      ],
      "stateMutability": "view",
      "type": "function"
    },
    {
      "inputs": [
        {
          "internalType": "address",
          "name": "owner",
          "type": "address"
        }
      ],
      "name": "ownersTokens",
      "outputs": [
        {
          "internalType": "uint256[]",
          "name": "",
          "type": "uint256[]"
        }
      ],
      "stateMutability": "view",
      "type": "function"
    },
    {
      "inputs": [],
      "name": "renounceOwnership",
      "outputs": [],
      "stateMutability": "nonpayable",
      "type": "function"
    },
    {
      "inputs": [
        {
          "internalType": "address",
          "name": "from",
          "type": "address"
        },
        {
          "internalType": "address",
          "name": "to",
          "type": "address"
        },
        {
          "internalType": "uint256",
          "name": "tokenId",
          "type": "uint256"
        }
      ],
      "name": "safeTransferFrom",
      "outputs": [],
      "stateMutability": "nonpayable",
      "type": "function"
    },
    {
      "inputs": [
        {
          "internalType": "address",
          "name": "from",
          "type": "address"
        },
        {
          "internalType": "address",
          "name": "to",
          "type": "address"
        },
        {
          "internalType": "uint256",
          "name": "tokenId",
          "type": "uint256"
        },
        {
          "internalType": "bytes",
          "name": "data",
          "type": "bytes"
        }
      ],
      "name": "safeTransferFrom",
      "outputs": [],
      "stateMutability": "nonpayable",
      "type": "function"
    },
    {
      "inputs": [
        {
          "internalType": "address",
          "name": "operator",
          "type": "address"
        },
        {
          "internalType": "bool",
          "name": "approved",
          "type": "bool"
        }
      ],
      "name": "setApprovalForAll",
      "outputs": [],
      "stateMutability": "nonpayable",
      "type": "function"
    },
    {
      "inputs": [
        {
          "internalType": "address",
          "name": "newBadgeContract",
          "type": "address"
        }
      ],
      "name": "setBadgeContractAddress",
      "outputs": [],
      "stateMutability": "nonpayable",
      "type": "function"
    },
    {
      "inputs": [
        {
          "internalType": "string",
          "name": "newBaseURI",
          "type": "string"
        }
      ],
      "name": "setBaseUri",
      "outputs": [],
      "stateMutability": "nonpayable",
      "type": "function"
    },
    {
      "inputs": [
        {
          "internalType": "address",
          "name": "newGardenExplorerAddress",
          "type": "address"
        }
      ],
      "name": "setGardenAuthContractAddress",
      "outputs": [],
      "stateMutability": "nonpayable",
      "type": "function"
    },
    {
      "inputs": [
        {
          "internalType": "uint256",
          "name": "newMintPrice",
          "type": "uint256"
        }
      ],
      "name": "setMintPrice",
      "outputs": [],
      "stateMutability": "nonpayable",
      "type": "function"
    },
    {
      "inputs": [
        {
          "internalType": "bytes4",
          "name": "interfaceId",
          "type": "bytes4"
        }
      ],
      "name": "supportsInterface",
      "outputs": [
        {
          "internalType": "bool",
          "name": "",
          "type": "bool"
        }
      ],
      "stateMutability": "view",
      "type": "function"
    },
    {
      "inputs": [],
      "name": "symbol",
      "outputs": [
        {
          "internalType": "string",
          "name": "",
          "type": "string"
        }
      ],
      "stateMutability": "view",
      "type": "function"
    },
    {
      "inputs": [
        {
          "internalType": "uint256",
          "name": "index",
          "type": "uint256"
        }
      ],
      "name": "tokenByIndex",
      "outputs": [
        {
          "internalType": "uint256",
          "name": "",
          "type": "uint256"
        }
      ],
      "stateMutability": "view",
      "type": "function"
    },
    {
      "inputs": [
        {
          "internalType": "address",
          "name": "owner",
          "type": "address"
        },
        {
          "internalType": "uint256",
          "name": "index",
          "type": "uint256"
        }
      ],
      "name": "tokenOfOwnerByIndex",
      "outputs": [
        {
          "internalType": "uint256",
          "name": "",
          "type": "uint256"
        }
      ],
      "stateMutability": "view",
      "type": "function"
    },
    {
      "inputs": [
        {
          "internalType": "uint256",
          "name": "tokenId",
          "type": "uint256"
        }
      ],
      "name": "tokenURI",
      "outputs": [
        {
          "internalType": "string",
          "name": "",
          "type": "string"
        }
      ],
      "stateMutability": "view",
      "type": "function"
    },
    {
      "inputs": [],
      "name": "totalSupply",
      "outputs": [
        {
          "internalType": "uint256",
          "name": "",
          "type": "uint256"
        }
      ],
      "stateMutability": "view",
      "type": "function"
    },
    {
      "inputs": [
        {
          "internalType": "address",
          "name": "from",
          "type": "address"
        },
        {
          "internalType": "address",
          "name": "to",
          "type": "address"
        },
        {
          "internalType": "uint256",
          "name": "tokenId",
          "type": "uint256"
        }
      ],
      "name": "transferFrom",
      "outputs": [],
      "stateMutability": "nonpayable",
      "type": "function"
    },
    {
      "inputs": [
        {
          "internalType": "address",
          "name": "newOwner",
          "type": "address"
        }
      ],
      "name": "transferOwnership",
      "outputs": [],
      "stateMutability": "nonpayable",
      "type": "function"
    },
    {
      "inputs": [
        {
          "internalType": "uint256",
          "name": "tokenId",
          "type": "uint256"
        },
        {
          "internalType": "bytes32",
          "name": "newChecksum",
          "type": "bytes32"
        }
      ],
      "name": "updateChecksum",
      "outputs": [],
      "stateMutability": "nonpayable",
      "type": "function"
    },
    {
      "inputs": [
        {
          "internalType": "address",
          "name": "newGardenExplorer",
          "type": "address"
        }
      ],
      "name": "updateGardenExplorer",
      "outputs": [],
      "stateMutability": "nonpayable",
      "type": "function"
    }
  ],
  "bytecode": "0x60806040526000600b556000600d553480156200001b57600080fd5b5060405162004f3138038062004f318339818101604052810190620000419190620004b7565b836040518060400160405280601b81526020017f47617264656e204578706c6f726572204f62736572766174696f6e00000000008152506040518060400160405280600781526020017f4f425345525645000000000000000000000000000000000000000000000000008152508160009081620000bf919062000793565b508060019081620000d1919062000793565b505050600073ffffffffffffffffffffffffffffffffffffffff168173ffffffffffffffffffffffffffffffffffffffff1603620001495760006040517f1e4fbdf70000000000000000000000000000000000000000000000000000000081526004016200014091906200088b565b60405180910390fd5b6200015a81620001f960201b60201c565b5081600f60006101000a81548173ffffffffffffffffffffffffffffffffffffffff021916908373ffffffffffffffffffffffffffffffffffffffff16021790555080601060006101000a81548173ffffffffffffffffffffffffffffffffffffffff021916908373ffffffffffffffffffffffffffffffffffffffff16021790555082600c9081620001ee919062000793565b5050505050620008a8565b6000600a60009054906101000a900473ffffffffffffffffffffffffffffffffffffffff16905081600a60006101000a81548173ffffffffffffffffffffffffffffffffffffffff021916908373ffffffffffffffffffffffffffffffffffffffff1602179055508173ffffffffffffffffffffffffffffffffffffffff168173ffffffffffffffffffffffffffffffffffffffff167f8be0079c531659141344cd1fd0a4f28419497f9722a3daafe3b4186f6b6457e060405160405180910390a35050565b6000604051905090565b600080fd5b600080fd5b600073ffffffffffffffffffffffffffffffffffffffff82169050919050565b60006200030082620002d3565b9050919050565b6200031281620002f3565b81146200031e57600080fd5b50565b600081519050620003328162000307565b92915050565b600080fd5b600080fd5b6000601f19601f8301169050919050565b7f4e487b7100000000000000000000000000000000000000000000000000000000600052604160045260246000fd5b6200038d8262000342565b810181811067ffffffffffffffff82111715620003af57620003ae62000353565b5b80604052505050565b6000620003c4620002bf565b9050620003d2828262000382565b919050565b600067ffffffffffffffff821115620003f557620003f462000353565b5b620004008262000342565b9050602081019050919050565b60005b838110156200042d57808201518184015260208101905062000410565b60008484015250505050565b6000620004506200044a84620003d7565b620003b8565b9050828152602081018484840111156200046f576200046e6200033d565b5b6200047c8482856200040d565b509392505050565b600082601f8301126200049c576200049b62000338565b5b8151620004ae84826020860162000439565b91505092915050565b60008060008060808587031215620004d457620004d3620002c9565b5b6000620004e48782880162000321565b945050602085015167ffffffffffffffff811115620005085762000507620002ce565b5b620005168782880162000484565b9350506040620005298782880162000321565b92505060606200053c8782880162000321565b91505092959194509250565b600081519050919050565b7f4e487b7100000000000000000000000000000000000000000000000000000000600052602260045260246000fd5b600060028204905060018216806200059b57607f821691505b602082108103620005b157620005b062000553565b5b50919050565b60008190508160005260206000209050919050565b60006020601f8301049050919050565b600082821b905092915050565b6000600883026200061b7fffffffffffffffffffffffffffffffffffffffffffffffffffffffffffffffff82620005dc565b620006278683620005dc565b95508019841693508086168417925050509392505050565b6000819050919050565b6000819050919050565b6000620006746200066e62000668846200063f565b62000649565b6200063f565b9050919050565b6000819050919050565b620006908362000653565b620006a86200069f826200067b565b848454620005e9565b825550505050565b600090565b620006bf620006b0565b620006cc81848462000685565b505050565b5b81811015620006f457620006e8600082620006b5565b600181019050620006d2565b5050565b601f82111562000743576200070d81620005b7565b6200071884620005cc565b8101602085101562000728578190505b620007406200073785620005cc565b830182620006d1565b50505b505050565b600082821c905092915050565b6000620007686000198460080262000748565b1980831691505092915050565b600062000783838362000755565b9150826002028217905092915050565b6200079e8262000548565b67ffffffffffffffff811115620007ba57620007b962000353565b5b620007c6825462000582565b620007d3828285620006f8565b600060209050601f8311600181146200080b5760008415620007f6578287015190505b62000802858262000775565b86555062000872565b601f1984166200081b86620005b7565b60005b8281101562000845578489015182556001820191506020850194506020810190506200081e565b8683101562000865578489015162000861601f89168262000755565b8355505b6001600288020188555050505b505050505050565b6200088581620002f3565b82525050565b6000602082019050620008a260008301846200087a565b92915050565b61467980620008b86000396000f3fe608060405234801561001057600080fd5b50600436106101f05760003560e01c806395d89b411161010f578063daff94e9116100a2578063f1139bf711610071578063f1139bf7146105ef578063f2fde38b1461060b578063f4a0a52814610627578063f572b00814610643576101f0565b8063daff94e914610557578063dedfbaa114610573578063e8eae3cf1461058f578063e985e9c5146105bf576101f0565b8063b88d4fde116100de578063b88d4fde146104bd578063c87b56dd146104d9578063caa0f92a14610509578063d712b74414610527576101f0565b806395d89b4114610437578063a0bcfc7f14610455578063a22cb46514610471578063ab6dad7f1461048d576101f0565b80632f745c59116101875780636352211e116101565780636352211e146103af57806370a08231146103df578063715018a61461040f5780638da5cb5b14610419576101f0565b80632f745c591461030357806342842e0e146103335780634c9c27571461034f5780634f6ccce71461037f576101f0565b80630cac36b2116101c35780630cac36b21461028f57806318160ddd146102ad578063217b595e146102cb57806323b872dd146102e7576101f0565b806301ffc9a7146101f557806306fdde0314610225578063081812fc14610243578063095ea7b314610273575b600080fd5b61020f600480360381019061020a9190613307565b61065f565b60405161021c919061334f565b60405180910390f35b61022d610671565b60405161023a91906133fa565b60405180910390f35b61025d60048036038101906102589190613452565b610703565b60405161026a91906134c0565b60405180910390f35b61028d60048036038101906102889190613507565b61071f565b005b610297610735565b6040516102a491906133fa565b60405180910390f35b6102b56107c7565b6040516102c29190613556565b60405180910390f35b6102e560048036038101906102e09190613571565b6107d4565b005b61030160048036038101906102fc919061359e565b610820565b005b61031d60048036038101906103189190613507565b610922565b60405161032a9190613556565b60405180910390f35b61034d6004803603810190610348919061359e565b6109cb565b005b61036960048036038101906103649190613452565b6109eb565b604051610376919061360a565b60405180910390f35b61039960048036038101906103949190613452565b610a08565b6040516103a69190613556565b60405180910390f35b6103c960048036038101906103c49190613452565b610a7e565b6040516103d691906134c0565b60405180910390f35b6103f960048036038101906103f49190613571565b610a90565b6040516104069190613556565b60405180910390f35b610417610b4a565b005b610421610b5e565b60405161042e91906134c0565b60405180910390f35b61043f610b88565b60405161044c91906133fa565b60405180910390f35b61046f600480360381019061046a919061375a565b610c1a565b005b61048b600480360381019061048691906137cf565b610c35565b005b6104a760048036038101906104a2919061383b565b610c4b565b6040516104b4919061334f565b60405180910390f35b6104d760048036038101906104d2919061391c565b610c6b565b005b6104f360048036038101906104ee9190613452565b610c88565b60405161050091906133fa565b60405180910390f35b610511610cf1565b60405161051e9190613556565b60405180910390f35b610541600480360381019061053c9190613571565b610cfb565b60405161054e9190613a5d565b60405180910390f35b610571600480360381019061056c9190613571565b610da3565b005b61058d60048036038101906105889190613571565b610def565b005b6105a960048036038101906105a49190613452565b610e3b565b6040516105b6919061360a565b60405180910390f35b6105d960048036038101906105d49190613a7f565b610e53565b6040516105e6919061334f565b60405180910390f35b6106096004803603810190610604919061383b565b610ee7565b005b61062560048036038101906106209190613571565b610f79565b005b610641600480360381019061063c9190613452565b610fff565b005b61065d60048036038101906106589190613abf565b611011565b005b600061066a8261113a565b9050919050565b60606000805461068090613b2e565b80601f01602080910402602001604051908101604052809291908181526020018280546106ac90613b2e565b80156106f95780601f106106ce576101008083540402835291602001916106f9565b820191906000526020600020905b8154815290600101906020018083116106dc57829003601f168201915b5050505050905090565b600061070e826111b4565b506107188261123c565b9050919050565b610731828261072c611279565b611281565b5050565b6060600c805461074490613b2e565b80601f016020809104026020016040519081016040528092919081815260200182805461077090613b2e565b80156107bd5780601f10610792576101008083540402835291602001916107bd565b820191906000526020600020905b8154815290600101906020018083116107a057829003601f168201915b5050505050905090565b6000600880549050905090565b6107dc611293565b80600f60006101000a81548173ffffffffffffffffffffffffffffffffffffffff021916908373ffffffffffffffffffffffffffffffffffffffff16021790555050565b600073ffffffffffffffffffffffffffffffffffffffff168273ffffffffffffffffffffffffffffffffffffffff16036108925760006040517f64a0ae9200000000000000000000000000000000000000000000000000000000815260040161088991906134c0565b60405180910390fd5b60006108a683836108a1611279565b61131a565b90508373ffffffffffffffffffffffffffffffffffffffff168173ffffffffffffffffffffffffffffffffffffffff161461091c578382826040517f64283d7b00000000000000000000000000000000000000000000000000000000815260040161091393929190613b5f565b60405180910390fd5b50505050565b600061092d83610a90565b82106109725782826040517fa57d13dc000000000000000000000000000000000000000000000000000000008152600401610969929190613b96565b60405180910390fd5b600660008473ffffffffffffffffffffffffffffffffffffffff1673ffffffffffffffffffffffffffffffffffffffff168152602001908152602001600020600083815260200190815260200160002054905092915050565b6109e683838360405180602001604052806000815250610c6b565b505050565b6000600e6000838152602001908152602001600020549050919050565b6000610a126107c7565b8210610a58576000826040517fa57d13dc000000000000000000000000000000000000000000000000000000008152600401610a4f929190613b96565b60405180910390fd5b60088281548110610a6c57610a6b613bbf565b5b90600052602060002001549050919050565b6000610a89826111b4565b9050919050565b60008073ffffffffffffffffffffffffffffffffffffffff168273ffffffffffffffffffffffffffffffffffffffff1603610b035760006040517f89c62b64000000000000000000000000000000000000000000000000000000008152600401610afa91906134c0565b60405180910390fd5b600360008373ffffffffffffffffffffffffffffffffffffffff1673ffffffffffffffffffffffffffffffffffffffff168152602001908152602001600020549050919050565b610b52611293565b610b5c6000611330565b565b6000600a60009054906101000a900473ffffffffffffffffffffffffffffffffffffffff16905090565b606060018054610b9790613b2e565b80601f0160208091040260200160405190810160405280929190818152602001828054610bc390613b2e565b8015610c105780601f10610be557610100808354040283529160200191610c10565b820191906000526020600020905b815481529060010190602001808311610bf357829003601f168201915b5050505050905090565b610c22611293565b80600c9081610c319190613d9a565b5050565b610c47610c40611279565b83836113f6565b5050565b600081600e60008581526020019081526020016000205414905092915050565b610c76848484610820565b610c8284848484611565565b50505050565b6060610c93826111b4565b506000610c9e61171c565b90506000815111610cbe5760405180602001604052806000815250610ce9565b80610cc8846117ae565b604051602001610cd9929190613ea8565b6040516020818303038152906040525b915050919050565b6000600b54905090565b60606000610d0883610a90565b905060008167ffffffffffffffff811115610d2657610d2561362f565b5b604051908082528060200260200182016040528015610d545781602001602082028036833780820191505090505b50905060005b82811015610d9857610d6c8582610922565b828281518110610d7f57610d7e613bbf565b5b6020026020010181815250508080600101915050610d5a565b508092505050919050565b610dab611293565b80600f60006101000a81548173ffffffffffffffffffffffffffffffffffffffff021916908373ffffffffffffffffffffffffffffffffffffffff16021790555050565b610df7611293565b80601060006101000a81548173ffffffffffffffffffffffffffffffffffffffff021916908373ffffffffffffffffffffffffffffffffffffffff16021790555050565b600e6020528060005260406000206000915090505481565b6000600560008473ffffffffffffffffffffffffffffffffffffffff1673ffffffffffffffffffffffffffffffffffffffff16815260200190815260200160002060008373ffffffffffffffffffffffffffffffffffffffff1673ffffffffffffffffffffffffffffffffffffffff16815260200190815260200160002060009054906101000a900460ff16905092915050565b3373ffffffffffffffffffffffffffffffffffffffff16610f078361187c565b73ffffffffffffffffffffffffffffffffffffffff1614610f5d576040517f08c379a0000000000000000000000000000000000000000000000000000000008152600401610f5490613f3e565b60405180910390fd5b80600e6000848152602001908152602001600020819055505050565b610f81611293565b600073ffffffffffffffffffffffffffffffffffffffff168173ffffffffffffffffffffffffffffffffffffffff1603610ff35760006040517f1e4fbdf7000000000000000000000000000000000000000000000000000000008152600401610fea91906134c0565b60405180910390fd5b610ffc81611330565b50565b611007611293565b80600d8190555050565b6000600f60009054906101000a900473ffffffffffffffffffffffffffffffffffffffff1673ffffffffffffffffffffffffffffffffffffffff166370a08231846040518263ffffffff1660e01b815260040161106e91906134c0565b602060405180830381865afa15801561108b573d6000803e3d6000fd5b505050506040513d601f19601f820116820180604052508101906110af9190613f73565b116110ef576040517f08c379a00000000000000000000000000000000000000000000000000000000081526004016110e690614012565b60405180910390fd5b6110fb82600b546118b9565b80600e6000600b5481526020019081526020016000208190555061111e826118d7565b600b600081548092919061113190614061565b91905055505050565b60007f780e9d63000000000000000000000000000000000000000000000000000000007bffffffffffffffffffffffffffffffffffffffffffffffffffffffff1916827bffffffffffffffffffffffffffffffffffffffffffffffffffffffff191614806111ad57506111ac82612474565b5b9050919050565b6000806111c08361187c565b9050600073ffffffffffffffffffffffffffffffffffffffff168173ffffffffffffffffffffffffffffffffffffffff160361123357826040517f7e27328900000000000000000000000000000000000000000000000000000000815260040161122a9190613556565b60405180910390fd5b80915050919050565b60006004600083815260200190815260200160002060009054906101000a900473ffffffffffffffffffffffffffffffffffffffff169050919050565b600033905090565b61128e8383836001612556565b505050565b61129b611279565b73ffffffffffffffffffffffffffffffffffffffff166112b9610b5e565b73ffffffffffffffffffffffffffffffffffffffff1614611318576112dc611279565b6040517f118cdaa700000000000000000000000000000000000000000000000000000000815260040161130f91906134c0565b60405180910390fd5b565b600061132784848461271b565b90509392505050565b6000600a60009054906101000a900473ffffffffffffffffffffffffffffffffffffffff16905081600a60006101000a81548173ffffffffffffffffffffffffffffffffffffffff021916908373ffffffffffffffffffffffffffffffffffffffff1602179055508173ffffffffffffffffffffffffffffffffffffffff168173ffffffffffffffffffffffffffffffffffffffff167f8be0079c531659141344cd1fd0a4f28419497f9722a3daafe3b4186f6b6457e060405160405180910390a35050565b600073ffffffffffffffffffffffffffffffffffffffff168273ffffffffffffffffffffffffffffffffffffffff160361146757816040517f5b08ba1800000000000000000000000000000000000000000000000000000000815260040161145e91906134c0565b60405180910390fd5b80600560008573ffffffffffffffffffffffffffffffffffffffff1673ffffffffffffffffffffffffffffffffffffffff16815260200190815260200160002060008473ffffffffffffffffffffffffffffffffffffffff1673ffffffffffffffffffffffffffffffffffffffff16815260200190815260200160002060006101000a81548160ff0219169083151502179055508173ffffffffffffffffffffffffffffffffffffffff168373ffffffffffffffffffffffffffffffffffffffff167f17307eab39ab6107e8899845ad3d59bd9653f200f220920489ca2b5937696c3183604051611558919061334f565b60405180910390a3505050565b60008373ffffffffffffffffffffffffffffffffffffffff163b1115611716578273ffffffffffffffffffffffffffffffffffffffff1663150b7a026115a9611279565b8685856040518563ffffffff1660e01b81526004016115cb94939291906140fe565b6020604051808303816000875af192505050801561160757506040513d601f19601f82011682018060405250810190611604919061415f565b60015b61168b573d8060008114611637576040519150601f19603f3d011682016040523d82523d6000602084013e61163c565b606091505b50600081510361168357836040517f64a0ae9200000000000000000000000000000000000000000000000000000000815260040161167a91906134c0565b60405180910390fd5b805181602001fd5b63150b7a0260e01b7bffffffffffffffffffffffffffffffffffffffffffffffffffffffff1916817bffffffffffffffffffffffffffffffffffffffffffffffffffffffff19161461171457836040517f64a0ae9200000000000000000000000000000000000000000000000000000000815260040161170b91906134c0565b60405180910390fd5b505b50505050565b6060600c805461172b90613b2e565b80601f016020809104026020016040519081016040528092919081815260200182805461175790613b2e565b80156117a45780601f10611779576101008083540402835291602001916117a4565b820191906000526020600020905b81548152906001019060200180831161178757829003601f168201915b5050505050905090565b6060600060016117bd84612838565b01905060008167ffffffffffffffff8111156117dc576117db61362f565b5b6040519080825280601f01601f19166020018201604052801561180e5781602001600182028036833780820191505090505b509050600082602001820190505b600115611871578080600190039150507f3031323334353637383961626364656600000000000000000000000000000000600a86061a8153600a85816118655761186461418c565b5b0494506000850361181c575b819350505050919050565b60006002600083815260200190815260200160002060009054906101000a900473ffffffffffffffffffffffffffffffffffffffff169050919050565b6118d382826040518060200160405280600081525061298b565b5050565b60006118e282610a90565b90506119236040518060400160405280601381526020017f4f62736572766174696f6e20636f756e743a2000000000000000000000000000815250826129a7565b60018103611a6457601060009054906101000a900473ffffffffffffffffffffffffffffffffffffffff1673ffffffffffffffffffffffffffffffffffffffff16634c6a70ce8360016040518363ffffffff1660e01b81526004016119899291906141f6565b602060405180830381865afa1580156119a6573d6000803e3d6000fd5b505050506040513d601f19601f820116820180604052508101906119ca9190614234565b611a5f57601060009054906101000a900473ffffffffffffffffffffffffffffffffffffffff1673ffffffffffffffffffffffffffffffffffffffff166317872b218360016040518363ffffffff1660e01b8152600401611a2c9291906141f6565b600060405180830381600087803b158015611a4657600080fd5b505af1158015611a5a573d6000803e3d6000fd5b505050505b612470565b60038103611ba557601060009054906101000a900473ffffffffffffffffffffffffffffffffffffffff1673ffffffffffffffffffffffffffffffffffffffff16634c6a70ce8360026040518363ffffffff1660e01b8152600401611aca92919061429c565b602060405180830381865afa158015611ae7573d6000803e3d6000fd5b505050506040513d601f19601f82011682018060405250810190611b0b9190614234565b611ba057601060009054906101000a900473ffffffffffffffffffffffffffffffffffffffff1673ffffffffffffffffffffffffffffffffffffffff166317872b218360026040518363ffffffff1660e01b8152600401611b6d92919061429c565b600060405180830381600087803b158015611b8757600080fd5b505af1158015611b9b573d6000803e3d6000fd5b505050505b61246f565b60058103611ce657601060009054906101000a900473ffffffffffffffffffffffffffffffffffffffff1673ffffffffffffffffffffffffffffffffffffffff16634c6a70ce8360036040518363ffffffff1660e01b8152600401611c0b929190614300565b602060405180830381865afa158015611c28573d6000803e3d6000fd5b505050506040513d601f19601f82011682018060405250810190611c4c9190614234565b611ce157601060009054906101000a900473ffffffffffffffffffffffffffffffffffffffff1673ffffffffffffffffffffffffffffffffffffffff166317872b218360036040518363ffffffff1660e01b8152600401611cae929190614300565b600060405180830381600087803b158015611cc857600080fd5b505af1158015611cdc573d6000803e3d6000fd5b505050505b61246e565b600a8103611e2757601060009054906101000a900473ffffffffffffffffffffffffffffffffffffffff1673ffffffffffffffffffffffffffffffffffffffff16634c6a70ce8360046040518363ffffffff1660e01b8152600401611d4c929190614364565b602060405180830381865afa158015611d69573d6000803e3d6000fd5b505050506040513d601f19601f82011682018060405250810190611d8d9190614234565b611e2257601060009054906101000a900473ffffffffffffffffffffffffffffffffffffffff1673ffffffffffffffffffffffffffffffffffffffff166317872b218360046040518363ffffffff1660e01b8152600401611def929190614364565b600060405180830381600087803b158015611e0957600080fd5b505af1158015611e1d573d6000803e3d6000fd5b505050505b61246d565b60148103611f6857601060009054906101000a900473ffffffffffffffffffffffffffffffffffffffff1673ffffffffffffffffffffffffffffffffffffffff16634c6a70ce8360056040518363ffffffff1660e01b8152600401611e8d9291906143c8565b602060405180830381865afa158015611eaa573d6000803e3d6000fd5b505050506040513d601f19601f82011682018060405250810190611ece9190614234565b611f6357601060009054906101000a900473ffffffffffffffffffffffffffffffffffffffff1673ffffffffffffffffffffffffffffffffffffffff166317872b218360056040518363ffffffff1660e01b8152600401611f309291906143c8565b600060405180830381600087803b158015611f4a57600080fd5b505af1158015611f5e573d6000803e3d6000fd5b505050505b61246c565b601e81036120a957601060009054906101000a900473ffffffffffffffffffffffffffffffffffffffff1673ffffffffffffffffffffffffffffffffffffffff16634c6a70ce8360066040518363ffffffff1660e01b8152600401611fce92919061442c565b602060405180830381865afa158015611feb573d6000803e3d6000fd5b505050506040513d601f19601f8201168201806040525081019061200f9190614234565b6120a457601060009054906101000a900473ffffffffffffffffffffffffffffffffffffffff1673ffffffffffffffffffffffffffffffffffffffff166317872b218360066040518363ffffffff1660e01b815260040161207192919061442c565b600060405180830381600087803b15801561208b57600080fd5b505af115801561209f573d6000803e3d6000fd5b505050505b61246b565b603281036121ea57601060009054906101000a900473ffffffffffffffffffffffffffffffffffffffff1673ffffffffffffffffffffffffffffffffffffffff16634c6a70ce8360076040518363ffffffff1660e01b815260040161210f929190614490565b602060405180830381865afa15801561212c573d6000803e3d6000fd5b505050506040513d601f19601f820116820180604052508101906121509190614234565b6121e557601060009054906101000a900473ffffffffffffffffffffffffffffffffffffffff1673ffffffffffffffffffffffffffffffffffffffff166317872b218360076040518363ffffffff1660e01b81526004016121b2929190614490565b600060405180830381600087803b1580156121cc57600080fd5b505af11580156121e0573d6000803e3d6000fd5b505050505b61246a565b604b810361232b57601060009054906101000a900473ffffffffffffffffffffffffffffffffffffffff1673ffffffffffffffffffffffffffffffffffffffff16634c6a70ce8360086040518363ffffffff1660e01b81526004016122509291906144f4565b602060405180830381865afa15801561226d573d6000803e3d6000fd5b505050506040513d601f19601f820116820180604052508101906122919190614234565b61232657601060009054906101000a900473ffffffffffffffffffffffffffffffffffffffff1673ffffffffffffffffffffffffffffffffffffffff166317872b218360086040518363ffffffff1660e01b81526004016122f39291906144f4565b600060405180830381600087803b15801561230d57600080fd5b505af1158015612321573d6000803e3d6000fd5b505050505b612469565b6064810361246857601060009054906101000a900473ffffffffffffffffffffffffffffffffffffffff1673ffffffffffffffffffffffffffffffffffffffff16634c6a70ce8360096040518363ffffffff1660e01b8152600401612391929190614558565b602060405180830381865afa1580156123ae573d6000803e3d6000fd5b505050506040513d601f19601f820116820180604052508101906123d29190614234565b61246757601060009054906101000a900473ffffffffffffffffffffffffffffffffffffffff1673ffffffffffffffffffffffffffffffffffffffff166317872b218360096040518363ffffffff1660e01b8152600401612434929190614558565b600060405180830381600087803b15801561244e57600080fd5b505af1158015612462573d6000803e3d6000fd5b505050505b5b5b5b5b5b5b5b5b5b5050565b60007f80ac58cd000000000000000000000000000000000000000000000000000000007bffffffffffffffffffffffffffffffffffffffffffffffffffffffff1916827bffffffffffffffffffffffffffffffffffffffffffffffffffffffff1916148061253f57507f5b5e139f000000000000000000000000000000000000000000000000000000007bffffffffffffffffffffffffffffffffffffffffffffffffffffffff1916827bffffffffffffffffffffffffffffffffffffffffffffffffffffffff1916145b8061254f575061254e82612a43565b5b9050919050565b808061258f5750600073ffffffffffffffffffffffffffffffffffffffff168273ffffffffffffffffffffffffffffffffffffffff1614155b156126c357600061259f846111b4565b9050600073ffffffffffffffffffffffffffffffffffffffff168373ffffffffffffffffffffffffffffffffffffffff161415801561260a57508273ffffffffffffffffffffffffffffffffffffffff168173ffffffffffffffffffffffffffffffffffffffff1614155b801561261d575061261b8184610e53565b155b1561265f57826040517fa9fbf51f00000000000000000000000000000000000000000000000000000000815260040161265691906134c0565b60405180910390fd5b81156126c157838573ffffffffffffffffffffffffffffffffffffffff168273ffffffffffffffffffffffffffffffffffffffff167f8c5be1e5ebec7d5bd14f71427d1e84f3dd0314c0f7b2291e5b200ac8c7c3b92560405160405180910390a45b505b836004600085815260200190815260200160002060006101000a81548173ffffffffffffffffffffffffffffffffffffffff021916908373ffffffffffffffffffffffffffffffffffffffff16021790555050505050565b600080612729858585612aad565b9050600073ffffffffffffffffffffffffffffffffffffffff168173ffffffffffffffffffffffffffffffffffffffff160361276d5761276884612cc7565b6127ac565b8473ffffffffffffffffffffffffffffffffffffffff168173ffffffffffffffffffffffffffffffffffffffff16146127ab576127aa8185612d10565b5b5b600073ffffffffffffffffffffffffffffffffffffffff168573ffffffffffffffffffffffffffffffffffffffff16036127ee576127e984612e71565b61282d565b8473ffffffffffffffffffffffffffffffffffffffff168173ffffffffffffffffffffffffffffffffffffffff161461282c5761282b8585612f42565b5b5b809150509392505050565b600080600090507a184f03e93ff9f4daa797ed6e38ed64bf6a1f0100000000000000008310612896577a184f03e93ff9f4daa797ed6e38ed64bf6a1f010000000000000000838161288c5761288b61418c565b5b0492506040810190505b6d04ee2d6d415b85acef810000000083106128d3576d04ee2d6d415b85acef810000000083816128c9576128c861418c565b5b0492506020810190505b662386f26fc10000831061290257662386f26fc1000083816128f8576128f761418c565b5b0492506010810190505b6305f5e100831061292b576305f5e10083816129215761292061418c565b5b0492506008810190505b61271083106129505761271083816129465761294561418c565b5b0492506004810190505b6064831061297357606483816129695761296861418c565b5b0492506002810190505b600a8310612982576001810190505b80915050919050565b6129958383612fcd565b6129a26000848484611565565b505050565b612a3f82826040516024016129bd929190614581565b6040516020818303038152906040527fb60e72cc000000000000000000000000000000000000000000000000000000007bffffffffffffffffffffffffffffffffffffffffffffffffffffffff19166020820180517bffffffffffffffffffffffffffffffffffffffffffffffffffffffff83818316178352505050506130c6565b5050565b60007f01ffc9a7000000000000000000000000000000000000000000000000000000007bffffffffffffffffffffffffffffffffffffffffffffffffffffffff1916827bffffffffffffffffffffffffffffffffffffffffffffffffffffffff1916149050919050565b600080612ab98461187c565b9050600073ffffffffffffffffffffffffffffffffffffffff168373ffffffffffffffffffffffffffffffffffffffff1614612afb57612afa8184866130e0565b5b600073ffffffffffffffffffffffffffffffffffffffff168173ffffffffffffffffffffffffffffffffffffffff1614612b8c57612b3d600085600080612556565b6001600360008373ffffffffffffffffffffffffffffffffffffffff1673ffffffffffffffffffffffffffffffffffffffff168152602001908152602001600020600082825403925050819055505b600073ffffffffffffffffffffffffffffffffffffffff168573ffffffffffffffffffffffffffffffffffffffff1614612c0f576001600360008773ffffffffffffffffffffffffffffffffffffffff1673ffffffffffffffffffffffffffffffffffffffff168152602001908152602001600020600082825401925050819055505b846002600086815260200190815260200160002060006101000a81548173ffffffffffffffffffffffffffffffffffffffff021916908373ffffffffffffffffffffffffffffffffffffffff160217905550838573ffffffffffffffffffffffffffffffffffffffff168273ffffffffffffffffffffffffffffffffffffffff167fddf252ad1be2c89b69c2b068fc378daa952ba7f163c4a11628f55a4df523b3ef60405160405180910390a4809150509392505050565b6008805490506009600083815260200190815260200160002081905550600881908060018154018082558091505060019003906000526020600020016000909190919091505550565b6000612d1b83610a90565b9050600060076000848152602001908152602001600020549050818114612e00576000600660008673ffffffffffffffffffffffffffffffffffffffff1673ffffffffffffffffffffffffffffffffffffffff168152602001908152602001600020600084815260200190815260200160002054905080600660008773ffffffffffffffffffffffffffffffffffffffff1673ffffffffffffffffffffffffffffffffffffffff168152602001908152602001600020600084815260200190815260200160002081905550816007600083815260200190815260200160002081905550505b6007600084815260200190815260200160002060009055600660008573ffffffffffffffffffffffffffffffffffffffff1673ffffffffffffffffffffffffffffffffffffffff16815260200190815260200160002060008381526020019081526020016000206000905550505050565b60006001600880549050612e8591906145b1565b9050600060096000848152602001908152602001600020549050600060088381548110612eb557612eb4613bbf565b5b906000526020600020015490508060088381548110612ed757612ed6613bbf565b5b906000526020600020018190555081600960008381526020019081526020016000208190555060096000858152602001908152602001600020600090556008805480612f2657612f256145e5565b5b6001900381819060005260206000200160009055905550505050565b60006001612f4f84610a90565b612f5991906145b1565b905081600660008573ffffffffffffffffffffffffffffffffffffffff1673ffffffffffffffffffffffffffffffffffffffff168152602001908152602001600020600083815260200190815260200160002081905550806007600084815260200190815260200160002081905550505050565b600073ffffffffffffffffffffffffffffffffffffffff168273ffffffffffffffffffffffffffffffffffffffff160361303f5760006040517f64a0ae9200000000000000000000000000000000000000000000000000000000815260040161303691906134c0565b60405180910390fd5b600061304d8383600061131a565b9050600073ffffffffffffffffffffffffffffffffffffffff168173ffffffffffffffffffffffffffffffffffffffff16146130c15760006040517f73c6ac6e0000000000000000000000000000000000000000000000000000000081526004016130b891906134c0565b60405180910390fd5b505050565b6130dd816130d56131a46131c5565b63ffffffff16565b50565b6130eb8383836131d0565b61319f57600073ffffffffffffffffffffffffffffffffffffffff168373ffffffffffffffffffffffffffffffffffffffff160361316057806040517f7e2732890000000000000000000000000000000000000000000000000000000081526004016131579190613556565b60405180910390fd5b81816040517f177e802f000000000000000000000000000000000000000000000000000000008152600401613196929190613b96565b60405180910390fd5b505050565b60006a636f6e736f6c652e6c6f679050600080835160208501845afa505050565b613291819050919050565b60008073ffffffffffffffffffffffffffffffffffffffff168373ffffffffffffffffffffffffffffffffffffffff161415801561328857508273ffffffffffffffffffffffffffffffffffffffff168473ffffffffffffffffffffffffffffffffffffffff16148061324957506132488484610e53565b5b8061328757508273ffffffffffffffffffffffffffffffffffffffff1661326f8361123c565b73ffffffffffffffffffffffffffffffffffffffff16145b5b90509392505050565b613299614614565b565b6000604051905090565b600080fd5b600080fd5b60007fffffffff0000000000000000000000000000000000000000000000000000000082169050919050565b6132e4816132af565b81146132ef57600080fd5b50565b600081359050613301816132db565b92915050565b60006020828403121561331d5761331c6132a5565b5b600061332b848285016132f2565b91505092915050565b60008115159050919050565b61334981613334565b82525050565b60006020820190506133646000830184613340565b92915050565b600081519050919050565b600082825260208201905092915050565b60005b838110156133a4578082015181840152602081019050613389565b60008484015250505050565b6000601f19601f8301169050919050565b60006133cc8261336a565b6133d68185613375565b93506133e6818560208601613386565b6133ef816133b0565b840191505092915050565b6000602082019050818103600083015261341481846133c1565b905092915050565b6000819050919050565b61342f8161341c565b811461343a57600080fd5b50565b60008135905061344c81613426565b92915050565b600060208284031215613468576134676132a5565b5b60006134768482850161343d565b91505092915050565b600073ffffffffffffffffffffffffffffffffffffffff82169050919050565b60006134aa8261347f565b9050919050565b6134ba8161349f565b82525050565b60006020820190506134d560008301846134b1565b92915050565b6134e48161349f565b81146134ef57600080fd5b50565b600081359050613501816134db565b92915050565b6000806040838503121561351e5761351d6132a5565b5b600061352c858286016134f2565b925050602061353d8582860161343d565b9150509250929050565b6135508161341c565b82525050565b600060208201905061356b6000830184613547565b92915050565b600060208284031215613587576135866132a5565b5b6000613595848285016134f2565b91505092915050565b6000806000606084860312156135b7576135b66132a5565b5b60006135c5868287016134f2565b93505060206135d6868287016134f2565b92505060406135e78682870161343d565b9150509250925092565b6000819050919050565b613604816135f1565b82525050565b600060208201905061361f60008301846135fb565b92915050565b600080fd5b600080fd5b7f4e487b7100000000000000000000000000000000000000000000000000000000600052604160045260246000fd5b613667826133b0565b810181811067ffffffffffffffff821117156136865761368561362f565b5b80604052505050565b600061369961329b565b90506136a5828261365e565b919050565b600067ffffffffffffffff8211156136c5576136c461362f565b5b6136ce826133b0565b9050602081019050919050565b82818337600083830152505050565b60006136fd6136f8846136aa565b61368f565b9050828152602081018484840111156137195761371861362a565b5b6137248482856136db565b509392505050565b600082601f83011261374157613740613625565b5b81356137518482602086016136ea565b91505092915050565b6000602082840312156137705761376f6132a5565b5b600082013567ffffffffffffffff81111561378e5761378d6132aa565b5b61379a8482850161372c565b91505092915050565b6137ac81613334565b81146137b757600080fd5b50565b6000813590506137c9816137a3565b92915050565b600080604083850312156137e6576137e56132a5565b5b60006137f4858286016134f2565b9250506020613805858286016137ba565b9150509250929050565b613818816135f1565b811461382357600080fd5b50565b6000813590506138358161380f565b92915050565b60008060408385031215613852576138516132a5565b5b60006138608582860161343d565b925050602061387185828601613826565b9150509250929050565b600067ffffffffffffffff8211156138965761389561362f565b5b61389f826133b0565b9050602081019050919050565b60006138bf6138ba8461387b565b61368f565b9050828152602081018484840111156138db576138da61362a565b5b6138e68482856136db565b509392505050565b600082601f83011261390357613902613625565b5b81356139138482602086016138ac565b91505092915050565b60008060008060808587031215613936576139356132a5565b5b6000613944878288016134f2565b9450506020613955878288016134f2565b93505060406139668782880161343d565b925050606085013567ffffffffffffffff811115613987576139866132aa565b5b613993878288016138ee565b91505092959194509250565b600081519050919050565b600082825260208201905092915050565b6000819050602082019050919050565b6139d48161341c565b82525050565b60006139e683836139cb565b60208301905092915050565b6000602082019050919050565b6000613a0a8261399f565b613a1481856139aa565b9350613a1f836139bb565b8060005b83811015613a50578151613a3788826139da565b9750613a42836139f2565b925050600181019050613a23565b5085935050505092915050565b60006020820190508181036000830152613a7781846139ff565b905092915050565b60008060408385031215613a9657613a956132a5565b5b6000613aa4858286016134f2565b9250506020613ab5858286016134f2565b9150509250929050565b60008060408385031215613ad657613ad56132a5565b5b6000613ae4858286016134f2565b9250506020613af585828601613826565b9150509250929050565b7f4e487b7100000000000000000000000000000000000000000000000000000000600052602260045260246000fd5b60006002820490506001821680613b4657607f821691505b602082108103613b5957613b58613aff565b5b50919050565b6000606082019050613b7460008301866134b1565b613b816020830185613547565b613b8e60408301846134b1565b949350505050565b6000604082019050613bab60008301856134b1565b613bb86020830184613547565b9392505050565b7f4e487b7100000000000000000000000000000000000000000000000000000000600052603260045260246000fd5b60008190508160005260206000209050919050565b60006020601f8301049050919050565b600082821b905092915050565b600060088302613c507fffffffffffffffffffffffffffffffffffffffffffffffffffffffffffffffff82613c13565b613c5a8683613c13565b95508019841693508086168417925050509392505050565b6000819050919050565b6000613c97613c92613c8d8461341c565b613c72565b61341c565b9050919050565b6000819050919050565b613cb183613c7c565b613cc5613cbd82613c9e565b848454613c20565b825550505050565b600090565b613cda613ccd565b613ce5818484613ca8565b505050565b5b81811015613d0957613cfe600082613cd2565b600181019050613ceb565b5050565b601f821115613d4e57613d1f81613bee565b613d2884613c03565b81016020851015613d37578190505b613d4b613d4385613c03565b830182613cea565b50505b505050565b600082821c905092915050565b6000613d7160001984600802613d53565b1980831691505092915050565b6000613d8a8383613d60565b9150826002028217905092915050565b613da38261336a565b67ffffffffffffffff811115613dbc57613dbb61362f565b5b613dc68254613b2e565b613dd1828285613d0d565b600060209050601f831160018114613e045760008415613df2578287015190505b613dfc8582613d7e565b865550613e64565b601f198416613e1286613bee565b60005b82811015613e3a57848901518255600182019150602085019450602081019050613e15565b86831015613e575784890151613e53601f891682613d60565b8355505b6001600288020188555050505b505050505050565b600081905092915050565b6000613e828261336a565b613e8c8185613e6c565b9350613e9c818560208601613386565b80840191505092915050565b6000613eb48285613e77565b9150613ec08284613e77565b91508190509392505050565b7f43616c6c6572206973206e6f7420746865206f776e6572206f6620746869732060008201527f49442e2043616e6e6f742075706461746520636865636b73756d2e0000000000602082015250565b6000613f28603b83613375565b9150613f3382613ecc565b604082019050919050565b60006020820190508181036000830152613f5781613f1b565b9050919050565b600081519050613f6d81613426565b92915050565b600060208284031215613f8957613f886132a5565b5b6000613f9784828501613f5e565b91505092915050565b7f596f75206d757374206f776e20612047617264656e204578706c6f726572207460008201527f6f6b656e20746f206d696e7420616e206f62736572766174696f6e0000000000602082015250565b6000613ffc603b83613375565b915061400782613fa0565b604082019050919050565b6000602082019050818103600083015261402b81613fef565b9050919050565b7f4e487b7100000000000000000000000000000000000000000000000000000000600052601160045260246000fd5b600061406c8261341c565b91507fffffffffffffffffffffffffffffffffffffffffffffffffffffffffffffffff820361409e5761409d614032565b5b600182019050919050565b600081519050919050565b600082825260208201905092915050565b60006140d0826140a9565b6140da81856140b4565b93506140ea818560208601613386565b6140f3816133b0565b840191505092915050565b600060808201905061411360008301876134b1565b61412060208301866134b1565b61412d6040830185613547565b818103606083015261413f81846140c5565b905095945050505050565b600081519050614159816132db565b92915050565b600060208284031215614175576141746132a5565b5b60006141838482850161414a565b91505092915050565b7f4e487b7100000000000000000000000000000000000000000000000000000000600052601260045260246000fd5b6000819050919050565b60006141e06141db6141d6846141bb565b613c72565b61341c565b9050919050565b6141f0816141c5565b82525050565b600060408201905061420b60008301856134b1565b61421860208301846141e7565b9392505050565b60008151905061422e816137a3565b92915050565b60006020828403121561424a576142496132a5565b5b60006142588482850161421f565b91505092915050565b6000819050919050565b600061428661428161427c84614261565b613c72565b61341c565b9050919050565b6142968161426b565b82525050565b60006040820190506142b160008301856134b1565b6142be602083018461428d565b9392505050565b6000819050919050565b60006142ea6142e56142e0846142c5565b613c72565b61341c565b9050919050565b6142fa816142cf565b82525050565b600060408201905061431560008301856134b1565b61432260208301846142f1565b9392505050565b6000819050919050565b600061434e61434961434484614329565b613c72565b61341c565b9050919050565b61435e81614333565b82525050565b600060408201905061437960008301856134b1565b6143866020830184614355565b9392505050565b6000819050919050565b60006143b26143ad6143a88461438d565b613c72565b61341c565b9050919050565b6143c281614397565b82525050565b60006040820190506143dd60008301856134b1565b6143ea60208301846143b9565b9392505050565b6000819050919050565b600061441661441161440c846143f1565b613c72565b61341c565b9050919050565b614426816143fb565b82525050565b600060408201905061444160008301856134b1565b61444e602083018461441d565b9392505050565b6000819050919050565b600061447a61447561447084614455565b613c72565b61341c565b9050919050565b61448a8161445f565b82525050565b60006040820190506144a560008301856134b1565b6144b26020830184614481565b9392505050565b6000819050919050565b60006144de6144d96144d4846144b9565b613c72565b61341c565b9050919050565b6144ee816144c3565b82525050565b600060408201905061450960008301856134b1565b61451660208301846144e5565b9392505050565b6000819050919050565b600061454261453d6145388461451d565b613c72565b61341c565b9050919050565b61455281614527565b82525050565b600060408201905061456d60008301856134b1565b61457a6020830184614549565b9392505050565b6000604082019050818103600083015261459b81856133c1565b90506145aa6020830184613547565b9392505050565b60006145bc8261341c565b91506145c78361341c565b92508282039050818111156145df576145de614032565b5b92915050565b7f4e487b7100000000000000000000000000000000000000000000000000000000600052603160045260246000fd5b7f4e487b7100000000000000000000000000000000000000000000000000000000600052605160045260246000fdfea26469706673582212209c37b53c088ccca0dcc4f93c896fbb921b02bc2014192a8d370980d7f0f4b4b464736f6c63430008180033",
  "linkReferences": {},
  "deployedLinkReferences": {}
}