{
  "_format": "hh-sol-artifact-1",
  "contractName": "GardenExplorer",
  "sourceName": "contracts/GardenExplorer.sol",
  "abi": [
    {
      "inputs": [
        {
          "internalType": "address",
          "name": "initialOwner",
          "type": "address"
        },
        {
          "internalType": "string",
          "name": "initialBaseURI",
          "type": "string"
        }
      ],
      "stateMutability": "nonpayable",
      "type": "constructor"
    },
    {
      "inputs": [
        {
          "internalType": "address",
          "name": "sender",
          "type": "address"
        },
        {
          "internalType": "uint256",
          "name": "tokenId",
          "type": "uint256"
        },
        {
          "internalType": "address",
          "name": "owner",
          "type": "address"
        }
      ],
      "name": "ERC721IncorrectOwner",
      "type": "error"
    },
    {
      "inputs": [
        {
          "internalType": "address",
          "name": "operator",
          "type": "address"
        },
        {
          "internalType": "uint256",
          "name": "tokenId",
          "type": "uint256"
        }
      ],
      "name": "ERC721InsufficientApproval",
      "type": "error"
    },
    {
      "inputs": [
        {
          "internalType": "address",
          "name": "approver",
          "type": "address"
        }
      ],
      "name": "ERC721InvalidApprover",
      "type": "error"
    },
    {
      "inputs": [
        {
          "internalType": "address",
          "name": "operator",
          "type": "address"
        }
      ],
      "name": "ERC721InvalidOperator",
      "type": "error"
    },
    {
      "inputs": [
        {
          "internalType": "address",
          "name": "owner",
          "type": "address"
        }
      ],
      "name": "ERC721InvalidOwner",
      "type": "error"
    },
    {
      "inputs": [
        {
          "internalType": "address",
          "name": "receiver",
          "type": "address"
        }
      ],
      "name": "ERC721InvalidReceiver",
      "type": "error"
    },
    {
      "inputs": [
        {
          "internalType": "address",
          "name": "sender",
          "type": "address"
        }
      ],
      "name": "ERC721InvalidSender",
      "type": "error"
    },
    {
      "inputs": [
        {
          "internalType": "uint256",
          "name": "tokenId",
          "type": "uint256"
        }
      ],
      "name": "ERC721NonexistentToken",
      "type": "error"
    },
    {
      "inputs": [
        {
          "internalType": "address",
          "name": "owner",
          "type": "address"
        }
      ],
      "name": "OwnableInvalidOwner",
      "type": "error"
    },
    {
      "inputs": [
        {
          "internalType": "address",
          "name": "account",
          "type": "address"
        }
      ],
      "name": "OwnableUnauthorizedAccount",
      "type": "error"
    },
    {
      "anonymous": false,
      "inputs": [
        {
          "indexed": true,
          "internalType": "address",
          "name": "owner",
          "type": "address"
        },
        {
          "indexed": true,
          "internalType": "address",
          "name": "approved",
          "type": "address"
        },
        {
          "indexed": true,
          "internalType": "uint256",
          "name": "tokenId",
          "type": "uint256"
        }
      ],
      "name": "Approval",
      "type": "event"
    },
    {
      "anonymous": false,
      "inputs": [
        {
          "indexed": true,
          "internalType": "address",
          "name": "owner",
          "type": "address"
        },
        {
          "indexed": true,
          "internalType": "address",
          "name": "operator",
          "type": "address"
        },
        {
          "indexed": false,
          "internalType": "bool",
          "name": "approved",
          "type": "bool"
        }
      ],
      "name": "ApprovalForAll",
      "type": "event"
    },
    {
      "anonymous": false,
      "inputs": [
        {
          "indexed": true,
          "internalType": "address",
          "name": "previousOwner",
          "type": "address"
        },
        {
          "indexed": true,
          "internalType": "address",
          "name": "newOwner",
          "type": "address"
        }
      ],
      "name": "OwnershipTransferred",
      "type": "event"
    },
    {
      "anonymous": false,
      "inputs": [
        {
          "indexed": true,
          "internalType": "address",
          "name": "from",
          "type": "address"
        },
        {
          "indexed": true,
          "internalType": "address",
          "name": "to",
          "type": "address"
        },
        {
          "indexed": true,
          "internalType": "uint256",
          "name": "tokenId",
          "type": "uint256"
        }
      ],
      "name": "Transfer",
      "type": "event"
    },
    {
      "inputs": [
        {
          "internalType": "address",
          "name": "to",
          "type": "address"
        },
        {
          "internalType": "uint256",
          "name": "tokenId",
          "type": "uint256"
        }
      ],
      "name": "approve",
      "outputs": [],
      "stateMutability": "nonpayable",
      "type": "function"
    },
    {
      "inputs": [
        {
          "internalType": "address",
          "name": "owner",
          "type": "address"
        }
      ],
      "name": "balanceOf",
      "outputs": [
        {
          "internalType": "uint256",
          "name": "",
          "type": "uint256"
        }
      ],
      "stateMutability": "view",
      "type": "function"
    },
    {
      "inputs": [
        {
          "internalType": "uint256",
          "name": "tokenId",
          "type": "uint256"
        }
      ],
      "name": "getApproved",
      "outputs": [
        {
          "internalType": "address",
          "name": "",
          "type": "address"
        }
      ],
      "stateMutability": "view",
      "type": "function"
    },
    {
      "inputs": [
        {
          "internalType": "address",
          "name": "owner",
          "type": "address"
        },
        {
          "internalType": "address",
          "name": "operator",
          "type": "address"
        }
      ],
      "name": "isApprovedForAll",
      "outputs": [
        {
          "internalType": "bool",
          "name": "",
          "type": "bool"
        }
      ],
      "stateMutability": "view",
      "type": "function"
    },
    {
      "inputs": [],
      "name": "mintPrice",
      "outputs": [
        {
          "internalType": "uint256",
          "name": "",
          "type": "uint256"
        }
      ],
      "stateMutability": "view",
      "type": "function"
    },
    {
      "inputs": [],
      "name": "name",
      "outputs": [
        {
          "internalType": "string",
          "name": "",
          "type": "string"
        }
      ],
      "stateMutability": "view",
      "type": "function"
    },
    {
      "inputs": [],
      "name": "owner",
      "outputs": [
        {
          "internalType": "address",
          "name": "",
          "type": "address"
        }
      ],
      "stateMutability": "view",
      "type": "function"
    },
    {
      "inputs": [
        {
          "internalType": "uint256",
          "name": "tokenId",
          "type": "uint256"
        }
      ],
      "name": "ownerOf",
      "outputs": [
        {
          "internalType": "address",
          "name": "",
          "type": "address"
        }
      ],
      "stateMutability": "view",
      "type": "function"
    },
    {
      "inputs": [],
      "name": "renounceOwnership",
      "outputs": [],
      "stateMutability": "nonpayable",
      "type": "function"
    },
    {
      "inputs": [],
      "name": "safeMint",
      "outputs": [],
      "stateMutability": "payable",
      "type": "function"
    },
    {
      "inputs": [
        {
          "internalType": "address",
          "name": "from",
          "type": "address"
        },
        {
          "internalType": "address",
          "name": "to",
          "type": "address"
        },
        {
          "internalType": "uint256",
          "name": "tokenId",
          "type": "uint256"
        }
      ],
      "name": "safeTransferFrom",
      "outputs": [],
      "stateMutability": "nonpayable",
      "type": "function"
    },
    {
      "inputs": [
        {
          "internalType": "address",
          "name": "from",
          "type": "address"
        },
        {
          "internalType": "address",
          "name": "to",
          "type": "address"
        },
        {
          "internalType": "uint256",
          "name": "tokenId",
          "type": "uint256"
        },
        {
          "internalType": "bytes",
          "name": "data",
          "type": "bytes"
        }
      ],
      "name": "safeTransferFrom",
      "outputs": [],
      "stateMutability": "nonpayable",
      "type": "function"
    },
    {
      "inputs": [
        {
          "internalType": "address",
          "name": "operator",
          "type": "address"
        },
        {
          "internalType": "bool",
          "name": "approved",
          "type": "bool"
        }
      ],
      "name": "setApprovalForAll",
      "outputs": [],
      "stateMutability": "nonpayable",
      "type": "function"
    },
    {
      "inputs": [
        {
          "internalType": "bytes4",
          "name": "interfaceId",
          "type": "bytes4"
        }
      ],
      "name": "supportsInterface",
      "outputs": [
        {
          "internalType": "bool",
          "name": "",
          "type": "bool"
        }
      ],
      "stateMutability": "view",
      "type": "function"
    },
    {
      "inputs": [],
      "name": "symbol",
      "outputs": [
        {
          "internalType": "string",
          "name": "",
          "type": "string"
        }
      ],
      "stateMutability": "view",
      "type": "function"
    },
    {
      "inputs": [
        {
          "internalType": "uint256",
          "name": "tokenId",
          "type": "uint256"
        }
      ],
      "name": "tokenURI",
      "outputs": [
        {
          "internalType": "string",
          "name": "",
          "type": "string"
        }
      ],
      "stateMutability": "view",
      "type": "function"
    },
    {
      "inputs": [
        {
          "internalType": "address",
          "name": "from",
          "type": "address"
        },
        {
          "internalType": "address",
          "name": "to",
          "type": "address"
        },
        {
          "internalType": "uint256",
          "name": "tokenId",
          "type": "uint256"
        }
      ],
      "name": "transferFrom",
      "outputs": [],
      "stateMutability": "nonpayable",
      "type": "function"
    },
    {
      "inputs": [
        {
          "internalType": "address",
          "name": "newOwner",
          "type": "address"
        }
      ],
      "name": "transferOwnership",
      "outputs": [],
      "stateMutability": "nonpayable",
      "type": "function"
    },
    {
      "inputs": [
        {
          "internalType": "string",
          "name": "newBaseURI",
          "type": "string"
        }
      ],
      "name": "updateBaseUri",
      "outputs": [],
      "stateMutability": "nonpayable",
      "type": "function"
    }
  ],
  "bytecode": "0x608060405266b1a2bc2ec500006008553480156200001c57600080fd5b5060405162002f8c38038062002f8c833981810160405281019062000042919062000434565b816040518060400160405280600f81526020017f47617264656e204578706c6f72657200000000000000000000000000000000008152506040518060400160405280600781526020017f4558504c4f5245000000000000000000000000000000000000000000000000008152508160009081620000c09190620006e5565b508060019081620000d29190620006e5565b505050600073ffffffffffffffffffffffffffffffffffffffff168173ffffffffffffffffffffffffffffffffffffffff16036200014a5760006040517f1e4fbdf7000000000000000000000000000000000000000000000000000000008152600401620001419190620007dd565b60405180910390fd5b6200015b816200017660201b60201c565b5080600990816200016d9190620006e5565b505050620007fa565b6000600660009054906101000a900473ffffffffffffffffffffffffffffffffffffffff16905081600660006101000a81548173ffffffffffffffffffffffffffffffffffffffff021916908373ffffffffffffffffffffffffffffffffffffffff1602179055508173ffffffffffffffffffffffffffffffffffffffff168173ffffffffffffffffffffffffffffffffffffffff167f8be0079c531659141344cd1fd0a4f28419497f9722a3daafe3b4186f6b6457e060405160405180910390a35050565b6000604051905090565b600080fd5b600080fd5b600073ffffffffffffffffffffffffffffffffffffffff82169050919050565b60006200027d8262000250565b9050919050565b6200028f8162000270565b81146200029b57600080fd5b50565b600081519050620002af8162000284565b92915050565b600080fd5b600080fd5b6000601f19601f8301169050919050565b7f4e487b7100000000000000000000000000000000000000000000000000000000600052604160045260246000fd5b6200030a82620002bf565b810181811067ffffffffffffffff821117156200032c576200032b620002d0565b5b80604052505050565b6000620003416200023c565b90506200034f8282620002ff565b919050565b600067ffffffffffffffff821115620003725762000371620002d0565b5b6200037d82620002bf565b9050602081019050919050565b60005b83811015620003aa5780820151818401526020810190506200038d565b60008484015250505050565b6000620003cd620003c78462000354565b62000335565b905082815260208101848484011115620003ec57620003eb620002ba565b5b620003f98482856200038a565b509392505050565b600082601f830112620004195762000418620002b5565b5b81516200042b848260208601620003b6565b91505092915050565b600080604083850312156200044e576200044d62000246565b5b60006200045e858286016200029e565b925050602083015167ffffffffffffffff8111156200048257620004816200024b565b5b620004908582860162000401565b9150509250929050565b600081519050919050565b7f4e487b7100000000000000000000000000000000000000000000000000000000600052602260045260246000fd5b60006002820490506001821680620004ed57607f821691505b602082108103620005035762000502620004a5565b5b50919050565b60008190508160005260206000209050919050565b60006020601f8301049050919050565b600082821b905092915050565b6000600883026200056d7fffffffffffffffffffffffffffffffffffffffffffffffffffffffffffffffff826200052e565b6200057986836200052e565b95508019841693508086168417925050509392505050565b6000819050919050565b6000819050919050565b6000620005c6620005c0620005ba8462000591565b6200059b565b62000591565b9050919050565b6000819050919050565b620005e283620005a5565b620005fa620005f182620005cd565b8484546200053b565b825550505050565b600090565b6200061162000602565b6200061e818484620005d7565b505050565b5b8181101562000646576200063a60008262000607565b60018101905062000624565b5050565b601f82111562000695576200065f8162000509565b6200066a846200051e565b810160208510156200067a578190505b6200069262000689856200051e565b83018262000623565b50505b505050565b600082821c905092915050565b6000620006ba600019846008026200069a565b1980831691505092915050565b6000620006d58383620006a7565b9150826002028217905092915050565b620006f0826200049a565b67ffffffffffffffff8111156200070c576200070b620002d0565b5b620007188254620004d4565b620007258282856200064a565b600060209050601f8311600181146200075d576000841562000748578287015190505b620007548582620006c7565b865550620007c4565b601f1984166200076d8662000509565b60005b82811015620007975784890151825560018201915060208501945060208101905062000770565b86831015620007b75784890151620007b3601f891682620006a7565b8355505b6001600288020188555050505b505050505050565b620007d78162000270565b82525050565b6000602082019050620007f46000830184620007cc565b92915050565b612782806200080a6000396000f3fe6080604052600436106101145760003560e01c80636871ee40116100a0578063a22cb46511610064578063a22cb4651461037e578063b88d4fde146103a7578063c87b56dd146103d0578063e985e9c51461040d578063f2fde38b1461044a57610114565b80636871ee40146102ca57806370a08231146102d4578063715018a6146103115780638da5cb5b1461032857806395d89b411461035357610114565b806323b872dd116100e757806323b872dd146101e757806339f7e37f1461021057806342842e0e146102395780636352211e146102625780636817c76c1461029f57610114565b806301ffc9a71461011957806306fdde0314610156578063081812fc14610181578063095ea7b3146101be575b600080fd5b34801561012557600080fd5b50610140600480360381019061013b9190611b15565b610473565b60405161014d9190611b5d565b60405180910390f35b34801561016257600080fd5b5061016b610555565b6040516101789190611c08565b60405180910390f35b34801561018d57600080fd5b506101a860048036038101906101a39190611c60565b6105e7565b6040516101b59190611cce565b60405180910390f35b3480156101ca57600080fd5b506101e560048036038101906101e09190611d15565b610603565b005b3480156101f357600080fd5b5061020e60048036038101906102099190611d55565b610619565b005b34801561021c57600080fd5b5061023760048036038101906102329190611edd565b61071b565b005b34801561024557600080fd5b50610260600480360381019061025b9190611d55565b610736565b005b34801561026e57600080fd5b5061028960048036038101906102849190611c60565b610756565b6040516102969190611cce565b60405180910390f35b3480156102ab57600080fd5b506102b4610768565b6040516102c19190611f35565b60405180910390f35b6102d261076e565b005b3480156102e057600080fd5b506102fb60048036038101906102f69190611f50565b610826565b6040516103089190611f35565b60405180910390f35b34801561031d57600080fd5b506103266108e0565b005b34801561033457600080fd5b5061033d6108f4565b60405161034a9190611cce565b60405180910390f35b34801561035f57600080fd5b5061036861091e565b6040516103759190611c08565b60405180910390f35b34801561038a57600080fd5b506103a560048036038101906103a09190611fa9565b6109b0565b005b3480156103b357600080fd5b506103ce60048036038101906103c9919061208a565b6109c6565b005b3480156103dc57600080fd5b506103f760048036038101906103f29190611c60565b6109e3565b6040516104049190611c08565b60405180910390f35b34801561041957600080fd5b50610434600480360381019061042f919061210d565b610a4c565b6040516104419190611b5d565b60405180910390f35b34801561045657600080fd5b50610471600480360381019061046c9190611f50565b610ae0565b005b60007f80ac58cd000000000000000000000000000000000000000000000000000000007bffffffffffffffffffffffffffffffffffffffffffffffffffffffff1916827bffffffffffffffffffffffffffffffffffffffffffffffffffffffff1916148061053e57507f5b5e139f000000000000000000000000000000000000000000000000000000007bffffffffffffffffffffffffffffffffffffffffffffffffffffffff1916827bffffffffffffffffffffffffffffffffffffffffffffffffffffffff1916145b8061054e575061054d82610b66565b5b9050919050565b6060600080546105649061217c565b80601f01602080910402602001604051908101604052809291908181526020018280546105909061217c565b80156105dd5780601f106105b2576101008083540402835291602001916105dd565b820191906000526020600020905b8154815290600101906020018083116105c057829003601f168201915b5050505050905090565b60006105f282610bd0565b506105fc82610c58565b9050919050565b6106158282610610610c95565b610c9d565b5050565b600073ffffffffffffffffffffffffffffffffffffffff168273ffffffffffffffffffffffffffffffffffffffff160361068b5760006040517f64a0ae920000000000000000000000000000000000000000000000000000000081526004016106829190611cce565b60405180910390fd5b600061069f838361069a610c95565b610caf565b90508373ffffffffffffffffffffffffffffffffffffffff168173ffffffffffffffffffffffffffffffffffffffff1614610715578382826040517f64283d7b00000000000000000000000000000000000000000000000000000000815260040161070c939291906121ad565b60405180910390fd5b50505050565b610723610ec9565b80600990816107329190612390565b5050565b610751838383604051806020016040528060008152506109c6565b505050565b600061076182610bd0565b9050919050565b60085481565b6008543410156107b3576040517f08c379a00000000000000000000000000000000000000000000000000000000081526004016107aa906124ae565b60405180910390fd5b60006107be33610826565b146107fe576040517f08c379a00000000000000000000000000000000000000000000000000000000081526004016107f59061251a565b60405180910390fd5b60006007600081548092919061081390612569565b9190505590506108233382610f50565b50565b60008073ffffffffffffffffffffffffffffffffffffffff168273ffffffffffffffffffffffffffffffffffffffff16036108995760006040517f89c62b640000000000000000000000000000000000000000000000000000000081526004016108909190611cce565b60405180910390fd5b600360008373ffffffffffffffffffffffffffffffffffffffff1673ffffffffffffffffffffffffffffffffffffffff168152602001908152602001600020549050919050565b6108e8610ec9565b6108f26000610f6e565b565b6000600660009054906101000a900473ffffffffffffffffffffffffffffffffffffffff16905090565b60606001805461092d9061217c565b80601f01602080910402602001604051908101604052809291908181526020018280546109599061217c565b80156109a65780601f1061097b576101008083540402835291602001916109a6565b820191906000526020600020905b81548152906001019060200180831161098957829003601f168201915b5050505050905090565b6109c26109bb610c95565b8383611034565b5050565b6109d1848484610619565b6109dd848484846111a3565b50505050565b60606109ee82610bd0565b5060006109f961135a565b90506000815111610a195760405180602001604052806000815250610a44565b80610a23846113ec565b604051602001610a349291906125ed565b6040516020818303038152906040525b915050919050565b6000600560008473ffffffffffffffffffffffffffffffffffffffff1673ffffffffffffffffffffffffffffffffffffffff16815260200190815260200160002060008373ffffffffffffffffffffffffffffffffffffffff1673ffffffffffffffffffffffffffffffffffffffff16815260200190815260200160002060009054906101000a900460ff16905092915050565b610ae8610ec9565b600073ffffffffffffffffffffffffffffffffffffffff168173ffffffffffffffffffffffffffffffffffffffff1603610b5a5760006040517f1e4fbdf7000000000000000000000000000000000000000000000000000000008152600401610b519190611cce565b60405180910390fd5b610b6381610f6e565b50565b60007f01ffc9a7000000000000000000000000000000000000000000000000000000007bffffffffffffffffffffffffffffffffffffffffffffffffffffffff1916827bffffffffffffffffffffffffffffffffffffffffffffffffffffffff1916149050919050565b600080610bdc836114ba565b9050600073ffffffffffffffffffffffffffffffffffffffff168173ffffffffffffffffffffffffffffffffffffffff1603610c4f57826040517f7e273289000000000000000000000000000000000000000000000000000000008152600401610c469190611f35565b60405180910390fd5b80915050919050565b60006004600083815260200190815260200160002060009054906101000a900473ffffffffffffffffffffffffffffffffffffffff169050919050565b600033905090565b610caa83838360016114f7565b505050565b600080610cbb846114ba565b9050600073ffffffffffffffffffffffffffffffffffffffff168373ffffffffffffffffffffffffffffffffffffffff1614610cfd57610cfc8184866116bc565b5b600073ffffffffffffffffffffffffffffffffffffffff168173ffffffffffffffffffffffffffffffffffffffff1614610d8e57610d3f6000856000806114f7565b6001600360008373ffffffffffffffffffffffffffffffffffffffff1673ffffffffffffffffffffffffffffffffffffffff168152602001908152602001600020600082825403925050819055505b600073ffffffffffffffffffffffffffffffffffffffff168573ffffffffffffffffffffffffffffffffffffffff1614610e11576001600360008773ffffffffffffffffffffffffffffffffffffffff1673ffffffffffffffffffffffffffffffffffffffff168152602001908152602001600020600082825401925050819055505b846002600086815260200190815260200160002060006101000a81548173ffffffffffffffffffffffffffffffffffffffff021916908373ffffffffffffffffffffffffffffffffffffffff160217905550838573ffffffffffffffffffffffffffffffffffffffff168273ffffffffffffffffffffffffffffffffffffffff167fddf252ad1be2c89b69c2b068fc378daa952ba7f163c4a11628f55a4df523b3ef60405160405180910390a4809150509392505050565b610ed1610c95565b73ffffffffffffffffffffffffffffffffffffffff16610eef6108f4565b73ffffffffffffffffffffffffffffffffffffffff1614610f4e57610f12610c95565b6040517f118cdaa7000000000000000000000000000000000000000000000000000000008152600401610f459190611cce565b60405180910390fd5b565b610f6a828260405180602001604052806000815250611780565b5050565b6000600660009054906101000a900473ffffffffffffffffffffffffffffffffffffffff16905081600660006101000a81548173ffffffffffffffffffffffffffffffffffffffff021916908373ffffffffffffffffffffffffffffffffffffffff1602179055508173ffffffffffffffffffffffffffffffffffffffff168173ffffffffffffffffffffffffffffffffffffffff167f8be0079c531659141344cd1fd0a4f28419497f9722a3daafe3b4186f6b6457e060405160405180910390a35050565b600073ffffffffffffffffffffffffffffffffffffffff168273ffffffffffffffffffffffffffffffffffffffff16036110a557816040517f5b08ba1800000000000000000000000000000000000000000000000000000000815260040161109c9190611cce565b60405180910390fd5b80600560008573ffffffffffffffffffffffffffffffffffffffff1673ffffffffffffffffffffffffffffffffffffffff16815260200190815260200160002060008473ffffffffffffffffffffffffffffffffffffffff1673ffffffffffffffffffffffffffffffffffffffff16815260200190815260200160002060006101000a81548160ff0219169083151502179055508173ffffffffffffffffffffffffffffffffffffffff168373ffffffffffffffffffffffffffffffffffffffff167f17307eab39ab6107e8899845ad3d59bd9653f200f220920489ca2b5937696c31836040516111969190611b5d565b60405180910390a3505050565b60008373ffffffffffffffffffffffffffffffffffffffff163b1115611354578273ffffffffffffffffffffffffffffffffffffffff1663150b7a026111e7610c95565b8685856040518563ffffffff1660e01b81526004016112099493929190612666565b6020604051808303816000875af192505050801561124557506040513d601f19601f8201168201806040525081019061124291906126c7565b60015b6112c9573d8060008114611275576040519150601f19603f3d011682016040523d82523d6000602084013e61127a565b606091505b5060008151036112c157836040517f64a0ae920000000000000000000000000000000000000000000000000000000081526004016112b89190611cce565b60405180910390fd5b805181602001fd5b63150b7a0260e01b7bffffffffffffffffffffffffffffffffffffffffffffffffffffffff1916817bffffffffffffffffffffffffffffffffffffffffffffffffffffffff19161461135257836040517f64a0ae920000000000000000000000000000000000000000000000000000000081526004016113499190611cce565b60405180910390fd5b505b50505050565b6060600980546113699061217c565b80601f01602080910402602001604051908101604052809291908181526020018280546113959061217c565b80156113e25780601f106113b7576101008083540402835291602001916113e2565b820191906000526020600020905b8154815290600101906020018083116113c557829003601f168201915b5050505050905090565b6060600060016113fb8461179c565b01905060008167ffffffffffffffff81111561141a57611419611db2565b5b6040519080825280601f01601f19166020018201604052801561144c5781602001600182028036833780820191505090505b509050600082602001820190505b6001156114af578080600190039150507f3031323334353637383961626364656600000000000000000000000000000000600a86061a8153600a85816114a3576114a26126f4565b5b0494506000850361145a575b819350505050919050565b60006002600083815260200190815260200160002060009054906101000a900473ffffffffffffffffffffffffffffffffffffffff169050919050565b80806115305750600073ffffffffffffffffffffffffffffffffffffffff168273ffffffffffffffffffffffffffffffffffffffff1614155b1561166457600061154084610bd0565b9050600073ffffffffffffffffffffffffffffffffffffffff168373ffffffffffffffffffffffffffffffffffffffff16141580156115ab57508273ffffffffffffffffffffffffffffffffffffffff168173ffffffffffffffffffffffffffffffffffffffff1614155b80156115be57506115bc8184610a4c565b155b1561160057826040517fa9fbf51f0000000000000000000000000000000000000000000000000000000081526004016115f79190611cce565b60405180910390fd5b811561166257838573ffffffffffffffffffffffffffffffffffffffff168273ffffffffffffffffffffffffffffffffffffffff167f8c5be1e5ebec7d5bd14f71427d1e84f3dd0314c0f7b2291e5b200ac8c7c3b92560405160405180910390a45b505b836004600085815260200190815260200160002060006101000a81548173ffffffffffffffffffffffffffffffffffffffff021916908373ffffffffffffffffffffffffffffffffffffffff16021790555050505050565b6116c78383836118ef565b61177b57600073ffffffffffffffffffffffffffffffffffffffff168373ffffffffffffffffffffffffffffffffffffffff160361173c57806040517f7e2732890000000000000000000000000000000000000000000000000000000081526004016117339190611f35565b60405180910390fd5b81816040517f177e802f000000000000000000000000000000000000000000000000000000008152600401611772929190612723565b60405180910390fd5b505050565b61178a83836119b0565b61179760008484846111a3565b505050565b600080600090507a184f03e93ff9f4daa797ed6e38ed64bf6a1f01000000000000000083106117fa577a184f03e93ff9f4daa797ed6e38ed64bf6a1f01000000000000000083816117f0576117ef6126f4565b5b0492506040810190505b6d04ee2d6d415b85acef81000000008310611837576d04ee2d6d415b85acef8100000000838161182d5761182c6126f4565b5b0492506020810190505b662386f26fc10000831061186657662386f26fc10000838161185c5761185b6126f4565b5b0492506010810190505b6305f5e100831061188f576305f5e1008381611885576118846126f4565b5b0492506008810190505b61271083106118b45761271083816118aa576118a96126f4565b5b0492506004810190505b606483106118d757606483816118cd576118cc6126f4565b5b0492506002810190505b600a83106118e6576001810190505b80915050919050565b60008073ffffffffffffffffffffffffffffffffffffffff168373ffffffffffffffffffffffffffffffffffffffff16141580156119a757508273ffffffffffffffffffffffffffffffffffffffff168473ffffffffffffffffffffffffffffffffffffffff16148061196857506119678484610a4c565b5b806119a657508273ffffffffffffffffffffffffffffffffffffffff1661198e83610c58565b73ffffffffffffffffffffffffffffffffffffffff16145b5b90509392505050565b600073ffffffffffffffffffffffffffffffffffffffff168273ffffffffffffffffffffffffffffffffffffffff1603611a225760006040517f64a0ae92000000000000000000000000000000000000000000000000000000008152600401611a199190611cce565b60405180910390fd5b6000611a3083836000610caf565b9050600073ffffffffffffffffffffffffffffffffffffffff168173ffffffffffffffffffffffffffffffffffffffff1614611aa45760006040517f73c6ac6e000000000000000000000000000000000000000000000000000000008152600401611a9b9190611cce565b60405180910390fd5b505050565b6000604051905090565b600080fd5b600080fd5b60007fffffffff0000000000000000000000000000000000000000000000000000000082169050919050565b611af281611abd565b8114611afd57600080fd5b50565b600081359050611b0f81611ae9565b92915050565b600060208284031215611b2b57611b2a611ab3565b5b6000611b3984828501611b00565b91505092915050565b60008115159050919050565b611b5781611b42565b82525050565b6000602082019050611b726000830184611b4e565b92915050565b600081519050919050565b600082825260208201905092915050565b60005b83811015611bb2578082015181840152602081019050611b97565b60008484015250505050565b6000601f19601f8301169050919050565b6000611bda82611b78565b611be48185611b83565b9350611bf4818560208601611b94565b611bfd81611bbe565b840191505092915050565b60006020820190508181036000830152611c228184611bcf565b905092915050565b6000819050919050565b611c3d81611c2a565b8114611c4857600080fd5b50565b600081359050611c5a81611c34565b92915050565b600060208284031215611c7657611c75611ab3565b5b6000611c8484828501611c4b565b91505092915050565b600073ffffffffffffffffffffffffffffffffffffffff82169050919050565b6000611cb882611c8d565b9050919050565b611cc881611cad565b82525050565b6000602082019050611ce36000830184611cbf565b92915050565b611cf281611cad565b8114611cfd57600080fd5b50565b600081359050611d0f81611ce9565b92915050565b60008060408385031215611d2c57611d2b611ab3565b5b6000611d3a85828601611d00565b9250506020611d4b85828601611c4b565b9150509250929050565b600080600060608486031215611d6e57611d6d611ab3565b5b6000611d7c86828701611d00565b9350506020611d8d86828701611d00565b9250506040611d9e86828701611c4b565b9150509250925092565b600080fd5b600080fd5b7f4e487b7100000000000000000000000000000000000000000000000000000000600052604160045260246000fd5b611dea82611bbe565b810181811067ffffffffffffffff82111715611e0957611e08611db2565b5b80604052505050565b6000611e1c611aa9565b9050611e288282611de1565b919050565b600067ffffffffffffffff821115611e4857611e47611db2565b5b611e5182611bbe565b9050602081019050919050565b82818337600083830152505050565b6000611e80611e7b84611e2d565b611e12565b905082815260208101848484011115611e9c57611e9b611dad565b5b611ea7848285611e5e565b509392505050565b600082601f830112611ec457611ec3611da8565b5b8135611ed4848260208601611e6d565b91505092915050565b600060208284031215611ef357611ef2611ab3565b5b600082013567ffffffffffffffff811115611f1157611f10611ab8565b5b611f1d84828501611eaf565b91505092915050565b611f2f81611c2a565b82525050565b6000602082019050611f4a6000830184611f26565b92915050565b600060208284031215611f6657611f65611ab3565b5b6000611f7484828501611d00565b91505092915050565b611f8681611b42565b8114611f9157600080fd5b50565b600081359050611fa381611f7d565b92915050565b60008060408385031215611fc057611fbf611ab3565b5b6000611fce85828601611d00565b9250506020611fdf85828601611f94565b9150509250929050565b600067ffffffffffffffff82111561200457612003611db2565b5b61200d82611bbe565b9050602081019050919050565b600061202d61202884611fe9565b611e12565b90508281526020810184848401111561204957612048611dad565b5b612054848285611e5e565b509392505050565b600082601f83011261207157612070611da8565b5b813561208184826020860161201a565b91505092915050565b600080600080608085870312156120a4576120a3611ab3565b5b60006120b287828801611d00565b94505060206120c387828801611d00565b93505060406120d487828801611c4b565b925050606085013567ffffffffffffffff8111156120f5576120f4611ab8565b5b6121018782880161205c565b91505092959194509250565b6000806040838503121561212457612123611ab3565b5b600061213285828601611d00565b925050602061214385828601611d00565b9150509250929050565b7f4e487b7100000000000000000000000000000000000000000000000000000000600052602260045260246000fd5b6000600282049050600182168061219457607f821691505b6020821081036121a7576121a661214d565b5b50919050565b60006060820190506121c26000830186611cbf565b6121cf6020830185611f26565b6121dc6040830184611cbf565b949350505050565b60008190508160005260206000209050919050565b60006020601f8301049050919050565b600082821b905092915050565b6000600883026122467fffffffffffffffffffffffffffffffffffffffffffffffffffffffffffffffff82612209565b6122508683612209565b95508019841693508086168417925050509392505050565b6000819050919050565b600061228d61228861228384611c2a565b612268565b611c2a565b9050919050565b6000819050919050565b6122a783612272565b6122bb6122b382612294565b848454612216565b825550505050565b600090565b6122d06122c3565b6122db81848461229e565b505050565b5b818110156122ff576122f46000826122c8565b6001810190506122e1565b5050565b601f82111561234457612315816121e4565b61231e846121f9565b8101602085101561232d578190505b612341612339856121f9565b8301826122e0565b50505b505050565b600082821c905092915050565b600061236760001984600802612349565b1980831691505092915050565b60006123808383612356565b9150826002028217905092915050565b61239982611b78565b67ffffffffffffffff8111156123b2576123b1611db2565b5b6123bc825461217c565b6123c7828285612303565b600060209050601f8311600181146123fa57600084156123e8578287015190505b6123f28582612374565b86555061245a565b601f198416612408866121e4565b60005b828110156124305784890151825560018201915060208501945060208101905061240b565b8683101561244d5784890151612449601f891682612356565b8355505b6001600288020188555050505b505050505050565b7f496e73756666696369656e742045746865722073656e74000000000000000000600082015250565b6000612498601783611b83565b91506124a382612462565b602082019050919050565b600060208201905081810360008301526124c78161248b565b9050919050565b7f596f7520616c7265616479206f776e20612067617264656e0000000000000000600082015250565b6000612504601883611b83565b915061250f826124ce565b602082019050919050565b60006020820190508181036000830152612533816124f7565b9050919050565b7f4e487b7100000000000000000000000000000000000000000000000000000000600052601160045260246000fd5b600061257482611c2a565b91507fffffffffffffffffffffffffffffffffffffffffffffffffffffffffffffffff82036125a6576125a561253a565b5b600182019050919050565b600081905092915050565b60006125c782611b78565b6125d181856125b1565b93506125e1818560208601611b94565b80840191505092915050565b60006125f982856125bc565b915061260582846125bc565b91508190509392505050565b600081519050919050565b600082825260208201905092915050565b600061263882612611565b612642818561261c565b9350612652818560208601611b94565b61265b81611bbe565b840191505092915050565b600060808201905061267b6000830187611cbf565b6126886020830186611cbf565b6126956040830185611f26565b81810360608301526126a7818461262d565b905095945050505050565b6000815190506126c181611ae9565b92915050565b6000602082840312156126dd576126dc611ab3565b5b60006126eb848285016126b2565b91505092915050565b7f4e487b7100000000000000000000000000000000000000000000000000000000600052601260045260246000fd5b60006040820190506127386000830185611cbf565b6127456020830184611f26565b939250505056fea2646970667358221220826da7b432839066aa3e62e9289f4cfe551ff179a373b7d37c7179b63e200f0a64736f6c63430008180033",
  "linkReferences": {},
  "deployedLinkReferences": {}
}