{
  "_format": "hh-sol-artifact-1",
  "contractName": "GardenExplorerBadges",
  "sourceName": "contracts/GardenBadges.sol",
  "abi": [
    {
      "inputs": [
        {
          "internalType": "address",
          "name": "initialOwner",
          "type": "address"
        },
        {
          "internalType": "string",
          "name": "uri",
          "type": "string"
        }
      ],
      "stateMutability": "nonpayable",
      "type": "constructor"
    },
    {
      "inputs": [
        {
          "internalType": "address",
          "name": "sender",
          "type": "address"
        },
        {
          "internalType": "uint256",
          "name": "balance",
          "type": "uint256"
        },
        {
          "internalType": "uint256",
          "name": "needed",
          "type": "uint256"
        },
        {
          "internalType": "uint256",
          "name": "tokenId",
          "type": "uint256"
        }
      ],
      "name": "ERC1155InsufficientBalance",
      "type": "error"
    },
    {
      "inputs": [
        {
          "internalType": "address",
          "name": "approver",
          "type": "address"
        }
      ],
      "name": "ERC1155InvalidApprover",
      "type": "error"
    },
    {
      "inputs": [
        {
          "internalType": "uint256",
          "name": "idsLength",
          "type": "uint256"
        },
        {
          "internalType": "uint256",
          "name": "valuesLength",
          "type": "uint256"
        }
      ],
      "name": "ERC1155InvalidArrayLength",
      "type": "error"
    },
    {
      "inputs": [
        {
          "internalType": "address",
          "name": "operator",
          "type": "address"
        }
      ],
      "name": "ERC1155InvalidOperator",
      "type": "error"
    },
    {
      "inputs": [
        {
          "internalType": "address",
          "name": "receiver",
          "type": "address"
        }
      ],
      "name": "ERC1155InvalidReceiver",
      "type": "error"
    },
    {
      "inputs": [
        {
          "internalType": "address",
          "name": "sender",
          "type": "address"
        }
      ],
      "name": "ERC1155InvalidSender",
      "type": "error"
    },
    {
      "inputs": [
        {
          "internalType": "address",
          "name": "operator",
          "type": "address"
        },
        {
          "internalType": "address",
          "name": "owner",
          "type": "address"
        }
      ],
      "name": "ERC1155MissingApprovalForAll",
      "type": "error"
    },
    {
      "inputs": [
        {
          "internalType": "address",
          "name": "owner",
          "type": "address"
        }
      ],
      "name": "OwnableInvalidOwner",
      "type": "error"
    },
    {
      "inputs": [
        {
          "internalType": "address",
          "name": "account",
          "type": "address"
        }
      ],
      "name": "OwnableUnauthorizedAccount",
      "type": "error"
    },
    {
      "anonymous": false,
      "inputs": [
        {
          "indexed": true,
          "internalType": "address",
          "name": "account",
          "type": "address"
        },
        {
          "indexed": true,
          "internalType": "address",
          "name": "operator",
          "type": "address"
        },
        {
          "indexed": false,
          "internalType": "bool",
          "name": "approved",
          "type": "bool"
        }
      ],
      "name": "ApprovalForAll",
      "type": "event"
    },
    {
      "anonymous": false,
      "inputs": [
        {
          "indexed": true,
          "internalType": "address",
          "name": "previousOwner",
          "type": "address"
        },
        {
          "indexed": true,
          "internalType": "address",
          "name": "newOwner",
          "type": "address"
        }
      ],
      "name": "OwnershipTransferred",
      "type": "event"
    },
    {
      "anonymous": false,
      "inputs": [
        {
          "indexed": true,
          "internalType": "address",
          "name": "operator",
          "type": "address"
        },
        {
          "indexed": true,
          "internalType": "address",
          "name": "from",
          "type": "address"
        },
        {
          "indexed": true,
          "internalType": "address",
          "name": "to",
          "type": "address"
        },
        {
          "indexed": false,
          "internalType": "uint256[]",
          "name": "ids",
          "type": "uint256[]"
        },
        {
          "indexed": false,
          "internalType": "uint256[]",
          "name": "values",
          "type": "uint256[]"
        }
      ],
      "name": "TransferBatch",
      "type": "event"
    },
    {
      "anonymous": false,
      "inputs": [
        {
          "indexed": true,
          "internalType": "address",
          "name": "operator",
          "type": "address"
        },
        {
          "indexed": true,
          "internalType": "address",
          "name": "from",
          "type": "address"
        },
        {
          "indexed": true,
          "internalType": "address",
          "name": "to",
          "type": "address"
        },
        {
          "indexed": false,
          "internalType": "uint256",
          "name": "id",
          "type": "uint256"
        },
        {
          "indexed": false,
          "internalType": "uint256",
          "name": "value",
          "type": "uint256"
        }
      ],
      "name": "TransferSingle",
      "type": "event"
    },
    {
      "anonymous": false,
      "inputs": [
        {
          "indexed": false,
          "internalType": "string",
          "name": "value",
          "type": "string"
        },
        {
          "indexed": true,
          "internalType": "uint256",
          "name": "id",
          "type": "uint256"
        }
      ],
      "name": "URI",
      "type": "event"
    },
    {
      "inputs": [],
      "name": "NEXT_BADGE_ID",
      "outputs": [
        {
          "internalType": "uint256",
          "name": "",
          "type": "uint256"
        }
      ],
      "stateMutability": "view",
      "type": "function"
    },
    {
      "inputs": [
        {
          "internalType": "uint256",
          "name": "supply",
          "type": "uint256"
        },
        {
          "internalType": "string",
          "name": "name",
          "type": "string"
        }
      ],
      "name": "addNewBadge",
      "outputs": [],
      "stateMutability": "nonpayable",
      "type": "function"
    },
    {
      "inputs": [
        {
          "internalType": "address",
          "name": "to",
          "type": "address"
        },
        {
          "internalType": "uint256",
          "name": "badgeId",
          "type": "uint256"
        }
      ],
      "name": "awardBadge",
      "outputs": [],
      "stateMutability": "nonpayable",
      "type": "function"
    },
    {
      "inputs": [
        {
          "internalType": "uint256",
          "name": "",
          "type": "uint256"
        }
      ],
      "name": "badgeNames",
      "outputs": [
        {
          "internalType": "string",
          "name": "",
          "type": "string"
        }
      ],
      "stateMutability": "view",
      "type": "function"
    },
    {
      "inputs": [
        {
          "internalType": "address",
          "name": "account",
          "type": "address"
        },
        {
          "internalType": "uint256",
          "name": "id",
          "type": "uint256"
        }
      ],
      "name": "balanceOf",
      "outputs": [
        {
          "internalType": "uint256",
          "name": "",
          "type": "uint256"
        }
      ],
      "stateMutability": "view",
      "type": "function"
    },
    {
      "inputs": [
        {
          "internalType": "address[]",
          "name": "accounts",
          "type": "address[]"
        },
        {
          "internalType": "uint256[]",
          "name": "ids",
          "type": "uint256[]"
        }
      ],
      "name": "balanceOfBatch",
      "outputs": [
        {
          "internalType": "uint256[]",
          "name": "",
          "type": "uint256[]"
        }
      ],
      "stateMutability": "view",
      "type": "function"
    },
    {
      "inputs": [
        {
          "internalType": "address",
          "name": "account",
          "type": "address"
        }
      ],
      "name": "getBadgesAwarded",
      "outputs": [
        {
          "components": [
            {
              "internalType": "string",
              "name": "name",
              "type": "string"
            },
            {
              "internalType": "uint256",
              "name": "tokenId",
              "type": "uint256"
            }
          ],
          "internalType": "struct Badge[]",
          "name": "",
          "type": "tuple[]"
        }
      ],
      "stateMutability": "view",
      "type": "function"
    },
    {
      "inputs": [
        {
          "internalType": "address",
          "name": "account",
          "type": "address"
        },
        {
          "internalType": "uint256",
          "name": "badgeId",
          "type": "uint256"
        }
      ],
      "name": "hasBadge",
      "outputs": [
        {
          "internalType": "bool",
          "name": "",
          "type": "bool"
        }
      ],
      "stateMutability": "view",
      "type": "function"
    },
    {
      "inputs": [
        {
          "internalType": "address",
          "name": "account",
          "type": "address"
        },
        {
          "internalType": "address",
          "name": "operator",
          "type": "address"
        }
      ],
      "name": "isApprovedForAll",
      "outputs": [
        {
          "internalType": "bool",
          "name": "",
          "type": "bool"
        }
      ],
      "stateMutability": "view",
      "type": "function"
    },
    {
      "inputs": [],
      "name": "owner",
      "outputs": [
        {
          "internalType": "address",
          "name": "",
          "type": "address"
        }
      ],
      "stateMutability": "view",
      "type": "function"
    },
    {
      "inputs": [],
      "name": "renounceOwnership",
      "outputs": [],
      "stateMutability": "nonpayable",
      "type": "function"
    },
    {
      "inputs": [
        {
          "internalType": "address",
          "name": "from",
          "type": "address"
        },
        {
          "internalType": "address",
          "name": "to",
          "type": "address"
        },
        {
          "internalType": "uint256[]",
          "name": "ids",
          "type": "uint256[]"
        },
        {
          "internalType": "uint256[]",
          "name": "values",
          "type": "uint256[]"
        },
        {
          "internalType": "bytes",
          "name": "data",
          "type": "bytes"
        }
      ],
      "name": "safeBatchTransferFrom",
      "outputs": [],
      "stateMutability": "nonpayable",
      "type": "function"
    },
    {
      "inputs": [
        {
          "internalType": "address",
          "name": "from",
          "type": "address"
        },
        {
          "internalType": "address",
          "name": "to",
          "type": "address"
        },
        {
          "internalType": "uint256",
          "name": "id",
          "type": "uint256"
        },
        {
          "internalType": "uint256",
          "name": "value",
          "type": "uint256"
        },
        {
          "internalType": "bytes",
          "name": "data",
          "type": "bytes"
        }
      ],
      "name": "safeTransferFrom",
      "outputs": [],
      "stateMutability": "nonpayable",
      "type": "function"
    },
    {
      "inputs": [
        {
          "internalType": "address",
          "name": "operator",
          "type": "address"
        },
        {
          "internalType": "bool",
          "name": "approved",
          "type": "bool"
        }
      ],
      "name": "setApprovalForAll",
      "outputs": [],
      "stateMutability": "nonpayable",
      "type": "function"
    },
    {
      "inputs": [
        {
          "internalType": "bytes4",
          "name": "interfaceId",
          "type": "bytes4"
        }
      ],
      "name": "supportsInterface",
      "outputs": [
        {
          "internalType": "bool",
          "name": "",
          "type": "bool"
        }
      ],
      "stateMutability": "view",
      "type": "function"
    },
    {
      "inputs": [
        {
          "internalType": "address",
          "name": "newOwner",
          "type": "address"
        }
      ],
      "name": "transferOwnership",
      "outputs": [],
      "stateMutability": "nonpayable",
      "type": "function"
    },
    {
      "inputs": [
        {
          "internalType": "uint256",
          "name": "badgeId",
          "type": "uint256"
        },
        {
          "internalType": "string",
          "name": "newName",
          "type": "string"
        }
      ],
      "name": "updateBadgeName",
      "outputs": [],
      "stateMutability": "nonpayable",
      "type": "function"
    },
    {
      "inputs": [
        {
          "internalType": "uint256",
          "name": "badgeId",
          "type": "uint256"
        },
        {
          "internalType": "uint256",
          "name": "newSupply",
          "type": "uint256"
        }
      ],
      "name": "updateSupply",
      "outputs": [],
      "stateMutability": "nonpayable",
      "type": "function"
    },
    {
      "inputs": [
        {
          "internalType": "uint256",
          "name": "",
          "type": "uint256"
        }
      ],
      "name": "uri",
      "outputs": [
        {
          "internalType": "string",
          "name": "",
          "type": "string"
        }
      ],
      "stateMutability": "view",
      "type": "function"
    }
  ],
  "bytecode": "0x608060405260006004553480156200001657600080fd5b50604051620048493803806200484983398181016040528101906200003c9190620010e5565b81816200004f81620003ad60201b60201c565b50600073ffffffffffffffffffffffffffffffffffffffff168173ffffffffffffffffffffffffffffffffffffffff1603620000c55760006040517f1e4fbdf7000000000000000000000000000000000000000000000000000000008152600401620000bc91906200115c565b60405180910390fd5b620000d681620003c260201b60201c565b506000612710905062000125816040518060400160405280600f81526020017f47657474696e67205374617274656400000000000000000000000000000000008152506200048860201b60201c565b6200016c816040518060400160405280601581526020017f5370726f7574696e6720616e20496e74657265737400000000000000000000008152506200048860201b60201c565b620001b3816040518060400160405280601281526020017f42756464696e67204e61747572616c69737400000000000000000000000000008152506200048860201b60201c565b620001fa816040518060400160405280600d81526020017f547261696c20547261636b6572000000000000000000000000000000000000008152506200048860201b60201c565b62000241816040518060400160405280600c81526020017f4b65656e205761746368657200000000000000000000000000000000000000008152506200048860201b60201c565b62000288816040518060400160405280600a81526020017f53686172702045796564000000000000000000000000000000000000000000008152506200048860201b60201c565b620002cf816040518060400160405280601081526020017f536561736f6e65642053706f74746572000000000000000000000000000000008152506200048860201b60201c565b62000316816040518060400160405280601381526020017f457870657269656e63656420547261636b6572000000000000000000000000008152506200048860201b60201c565b6200035d816040518060400160405280601a81526020017f54686520417274206f662053697474696e672051756965746c790000000000008152506200048860201b60201c565b620003a4816040518060400160405280600f81526020017f4d6173746572204f6273657276657200000000000000000000000000000000008152506200048860201b60201c565b505050620018b8565b8060029081620003be9190620013c4565b5050565b6000600360009054906101000a900473ffffffffffffffffffffffffffffffffffffffff16905081600360006101000a81548173ffffffffffffffffffffffffffffffffffffffff021916908373ffffffffffffffffffffffffffffffffffffffff1602179055508173ffffffffffffffffffffffffffffffffffffffff168173ffffffffffffffffffffffffffffffffffffffff167f8be0079c531659141344cd1fd0a4f28419497f9722a3daafe3b4186f6b6457e060405160405180910390a35050565b620004986200050060201b60201c565b620004bd306004548460405180602001604052806000815250620005a260201b60201c565b806005600060045481526020019081526020016000209081620004e19190620013c4565b5060046000815480929190620004f790620014da565b91905055505050565b620005106200064e60201b60201c565b73ffffffffffffffffffffffffffffffffffffffff16620005366200065660201b60201c565b73ffffffffffffffffffffffffffffffffffffffff1614620005a057620005626200064e60201b60201c565b6040517f118cdaa70000000000000000000000000000000000000000000000000000000081526004016200059791906200115c565b60405180910390fd5b565b600073ffffffffffffffffffffffffffffffffffffffff168473ffffffffffffffffffffffffffffffffffffffff1603620006175760006040517f57f447ce0000000000000000000000000000000000000000000000000000000081526004016200060e91906200115c565b60405180910390fd5b6000806200062c85856200068060201b60201c565b9150915062000646600087848487620006b060201b60201c565b505050505050565b600033905090565b6000600360009054906101000a900473ffffffffffffffffffffffffffffffffffffffff16905090565b60608060405191506001825283602083015260408201905060018152826020820152604081016040529250929050565b620006c4858585856200078960201b60201c565b600073ffffffffffffffffffffffffffffffffffffffff168473ffffffffffffffffffffffffffffffffffffffff1614620007825760006200070b6200064e60201b60201c565b90506001845103620007695760006200072f60008662000b5360201b90919060201c565b905060006200074960008662000b5360201b90919060201c565b90506200076183898985858962000b6760201b60201c565b505062000780565b6200077f81878787878762000d2a60201b60201c565b5b505b5050505050565b8051825114620007d657815181516040517f5b059991000000000000000000000000000000000000000000000000000000008152600401620007cd92919062001538565b60405180910390fd5b6000620007e86200064e60201b60201c565b905060005b835181101562000a045760006200080e828662000b5360201b90919060201c565b9050600062000827838662000b5360201b90919060201c565b9050600073ffffffffffffffffffffffffffffffffffffffff168873ffffffffffffffffffffffffffffffffffffffff16146200095857600080600084815260200190815260200160002060008a73ffffffffffffffffffffffffffffffffffffffff1673ffffffffffffffffffffffffffffffffffffffff168152602001908152602001600020549050818110156200090057888183856040517f03dee4c5000000000000000000000000000000000000000000000000000000008152600401620008f7949392919062001565565b60405180910390fd5b81810360008085815260200190815260200160002060008b73ffffffffffffffffffffffffffffffffffffffff1673ffffffffffffffffffffffffffffffffffffffff16815260200190815260200160002081905550505b600073ffffffffffffffffffffffffffffffffffffffff168773ffffffffffffffffffffffffffffffffffffffff1614620009f6578060008084815260200190815260200160002060008973ffffffffffffffffffffffffffffffffffffffff1673ffffffffffffffffffffffffffffffffffffffff1681526020019081526020016000206000828254620009ee9190620015b2565b925050819055505b5050806001019050620007ed565b50600183510362000acb57600062000a2760008562000b5360201b90919060201c565b9050600062000a4160008562000b5360201b90919060201c565b90508573ffffffffffffffffffffffffffffffffffffffff168773ffffffffffffffffffffffffffffffffffffffff168473ffffffffffffffffffffffffffffffffffffffff167fc3d58168c5ae7397731d063d5bbf3d657854427343f4c083240f7aacaa2d0f62858560405162000abb92919062001538565b60405180910390a4505062000b4c565b8373ffffffffffffffffffffffffffffffffffffffff168573ffffffffffffffffffffffffffffffffffffffff168273ffffffffffffffffffffffffffffffffffffffff167f4a39dc06d4c0dbc64b70af90fd698a233a518aa5d07e595d983b8c0526c8f7fb868660405162000b43929190620016bb565b60405180910390a45b5050505050565b600060208202602084010151905092915050565b60008473ffffffffffffffffffffffffffffffffffffffff163b111562000d22578373ffffffffffffffffffffffffffffffffffffffff1663f23a6e6187878686866040518663ffffffff1660e01b815260040162000bcb95949392919062001753565b6020604051808303816000875af192505050801562000c0a57506040513d601f19601f8201168201806040525081019062000c07919062001814565b60015b62000c94573d806000811462000c3d576040519150601f19603f3d011682016040523d82523d6000602084013e62000c42565b606091505b50600081510362000c8c57846040517f57f447ce00000000000000000000000000000000000000000000000000000000815260040162000c8391906200115c565b60405180910390fd5b805181602001fd5b63f23a6e6160e01b7bffffffffffffffffffffffffffffffffffffffffffffffffffffffff1916817bffffffffffffffffffffffffffffffffffffffffffffffffffffffff19161462000d2057846040517f57f447ce00000000000000000000000000000000000000000000000000000000815260040162000d1791906200115c565b60405180910390fd5b505b505050505050565b60008473ffffffffffffffffffffffffffffffffffffffff163b111562000ee5578373ffffffffffffffffffffffffffffffffffffffff1663bc197c8187878686866040518663ffffffff1660e01b815260040162000d8e95949392919062001846565b6020604051808303816000875af192505050801562000dcd57506040513d601f19601f8201168201806040525081019062000dca919062001814565b60015b62000e57573d806000811462000e00576040519150601f19603f3d011682016040523d82523d6000602084013e62000e05565b606091505b50600081510362000e4f57846040517f57f447ce00000000000000000000000000000000000000000000000000000000815260040162000e4691906200115c565b60405180910390fd5b805181602001fd5b63bc197c8160e01b7bffffffffffffffffffffffffffffffffffffffffffffffffffffffff1916817bffffffffffffffffffffffffffffffffffffffffffffffffffffffff19161462000ee357846040517f57f447ce00000000000000000000000000000000000000000000000000000000815260040162000eda91906200115c565b60405180910390fd5b505b505050505050565b6000604051905090565b600080fd5b600080fd5b600073ffffffffffffffffffffffffffffffffffffffff82169050919050565b600062000f2e8262000f01565b9050919050565b62000f408162000f21565b811462000f4c57600080fd5b50565b60008151905062000f608162000f35565b92915050565b600080fd5b600080fd5b6000601f19601f8301169050919050565b7f4e487b7100000000000000000000000000000000000000000000000000000000600052604160045260246000fd5b62000fbb8262000f70565b810181811067ffffffffffffffff8211171562000fdd5762000fdc62000f81565b5b80604052505050565b600062000ff262000eed565b905062001000828262000fb0565b919050565b600067ffffffffffffffff82111562001023576200102262000f81565b5b6200102e8262000f70565b9050602081019050919050565b60005b838110156200105b5780820151818401526020810190506200103e565b60008484015250505050565b60006200107e620010788462001005565b62000fe6565b9050828152602081018484840111156200109d576200109c62000f6b565b5b620010aa8482856200103b565b509392505050565b600082601f830112620010ca57620010c962000f66565b5b8151620010dc84826020860162001067565b91505092915050565b60008060408385031215620010ff57620010fe62000ef7565b5b60006200110f8582860162000f4f565b925050602083015167ffffffffffffffff81111562001133576200113262000efc565b5b6200114185828601620010b2565b9150509250929050565b620011568162000f21565b82525050565b60006020820190506200117360008301846200114b565b92915050565b600081519050919050565b7f4e487b7100000000000000000000000000000000000000000000000000000000600052602260045260246000fd5b60006002820490506001821680620011cc57607f821691505b602082108103620011e257620011e162001184565b5b50919050565b60008190508160005260206000209050919050565b60006020601f8301049050919050565b600082821b905092915050565b6000600883026200124c7fffffffffffffffffffffffffffffffffffffffffffffffffffffffffffffffff826200120d565b6200125886836200120d565b95508019841693508086168417925050509392505050565b6000819050919050565b6000819050919050565b6000620012a56200129f620012998462001270565b6200127a565b62001270565b9050919050565b6000819050919050565b620012c18362001284565b620012d9620012d082620012ac565b8484546200121a565b825550505050565b600090565b620012f0620012e1565b620012fd818484620012b6565b505050565b5b81811015620013255762001319600082620012e6565b60018101905062001303565b5050565b601f82111562001374576200133e81620011e8565b6200134984620011fd565b8101602085101562001359578190505b620013716200136885620011fd565b83018262001302565b50505b505050565b600082821c905092915050565b6000620013996000198460080262001379565b1980831691505092915050565b6000620013b4838362001386565b9150826002028217905092915050565b620013cf8262001179565b67ffffffffffffffff811115620013eb57620013ea62000f81565b5b620013f78254620011b3565b6200140482828562001329565b600060209050601f8311600181146200143c576000841562001427578287015190505b620014338582620013a6565b865550620014a3565b601f1984166200144c86620011e8565b60005b8281101562001476578489015182556001820191506020850194506020810190506200144f565b8683101562001496578489015162001492601f89168262001386565b8355505b6001600288020188555050505b505050505050565b7f4e487b7100000000000000000000000000000000000000000000000000000000600052601160045260246000fd5b6000620014e78262001270565b91507fffffffffffffffffffffffffffffffffffffffffffffffffffffffffffffffff82036200151c576200151b620014ab565b5b600182019050919050565b620015328162001270565b82525050565b60006040820190506200154f600083018562001527565b6200155e602083018462001527565b9392505050565b60006080820190506200157c60008301876200114b565b6200158b602083018662001527565b6200159a604083018562001527565b620015a9606083018462001527565b95945050505050565b6000620015bf8262001270565b9150620015cc8362001270565b9250828201905080821115620015e757620015e6620014ab565b5b92915050565b600081519050919050565b600082825260208201905092915050565b6000819050602082019050919050565b620016248162001270565b82525050565b600062001638838362001619565b60208301905092915050565b6000602082019050919050565b60006200165e82620015ed565b6200166a8185620015f8565b9350620016778362001609565b8060005b83811015620016ae5781516200169288826200162a565b97506200169f8362001644565b9250506001810190506200167b565b5085935050505092915050565b60006040820190508181036000830152620016d7818562001651565b90508181036020830152620016ed818462001651565b90509392505050565b600081519050919050565b600082825260208201905092915050565b60006200171f82620016f6565b6200172b818562001701565b93506200173d8185602086016200103b565b620017488162000f70565b840191505092915050565b600060a0820190506200176a60008301886200114b565b6200177960208301876200114b565b62001788604083018662001527565b62001797606083018562001527565b8181036080830152620017ab818462001712565b90509695505050505050565b60007fffffffff0000000000000000000000000000000000000000000000000000000082169050919050565b620017ee81620017b7565b8114620017fa57600080fd5b50565b6000815190506200180e81620017e3565b92915050565b6000602082840312156200182d576200182c62000ef7565b5b60006200183d84828501620017fd565b91505092915050565b600060a0820190506200185d60008301886200114b565b6200186c60208301876200114b565b818103604083015262001880818662001651565b9050818103606083015262001896818562001651565b90508181036080830152620018ac818462001712565b90509695505050505050565b612f8180620018c86000396000f3fe608060405234801561001057600080fd5b50600436106101205760003560e01c8063715018a6116100ad578063d9983b4911610071578063d9983b4914610317578063e985e9c514610347578063f242432a14610377578063f2fde38b14610393578063f9007a48146103af57610120565b8063715018a61461029b5780638da5cb5b146102a55780639e2dcbfd146102c3578063a22cb465146102df578063d3abac03146102fb57610120565b8063159a23ee116100f4578063159a23ee146101d357806317872b21146102035780632eb2c2d61461021f5780634c6a70ce1461023b5780634e1273f41461026b57610120565b8062fdd58e1461012557806301ffc9a7146101555780630e89341c1461018557806311304728146101b5575b600080fd5b61013f600480360381019061013a9190611d5f565b6103cb565b60405161014c9190611dae565b60405180910390f35b61016f600480360381019061016a9190611e21565b610425565b60405161017c9190611e69565b60405180910390f35b61019f600480360381019061019a9190611e84565b610507565b6040516101ac9190611f41565b60405180910390f35b6101bd61059b565b6040516101ca9190611dae565b60405180910390f35b6101ed60048036038101906101e89190611f63565b6105a1565b6040516101fa91906120e8565b60405180910390f35b61021d60048036038101906102189190611d5f565b610748565b005b61023960048036038101906102349190612307565b610894565b005b61025560048036038101906102509190611d5f565b61093c565b6040516102629190611e69565b60405180910390f35b61028560048036038101906102809190612499565b610952565b60405161029291906125c0565b60405180910390f35b6102a3610a5b565b005b6102ad610a6f565b6040516102ba91906125f1565b60405180910390f35b6102dd60048036038101906102d8919061260c565b610a99565b005b6102f960048036038101906102f49190612678565b610ac0565b005b61031560048036038101906103109190612759565b610ad6565b005b610331600480360381019061032c9190611e84565b610b03565b60405161033e9190611f41565b60405180910390f35b610361600480360381019061035c91906127b5565b610ba3565b60405161036e9190611e69565b60405180910390f35b610391600480360381019061038c91906127f5565b610c37565b005b6103ad60048036038101906103a89190611f63565b610cdf565b005b6103c960048036038101906103c49190612759565b610d65565b005b600080600083815260200190815260200160002060008473ffffffffffffffffffffffffffffffffffffffff1673ffffffffffffffffffffffffffffffffffffffff16815260200190815260200160002054905092915050565b60007fd9b67a26000000000000000000000000000000000000000000000000000000007bffffffffffffffffffffffffffffffffffffffffffffffffffffffff1916827bffffffffffffffffffffffffffffffffffffffffffffffffffffffff191614806104f057507f0e89341c000000000000000000000000000000000000000000000000000000007bffffffffffffffffffffffffffffffffffffffffffffffffffffffff1916827bffffffffffffffffffffffffffffffffffffffffffffffffffffffff1916145b8061050057506104ff82610dc9565b5b9050919050565b606060028054610516906128bb565b80601f0160208091040260200160405190810160405280929190818152602001828054610542906128bb565b801561058f5780601f106105645761010080835404028352916020019161058f565b820191906000526020600020905b81548152906001019060200180831161057257829003601f168201915b50505050509050919050565b60045481565b60606000805b6004548110156105dc576105bb848261093c565b156105cf5781806105cb9061291b565b9250505b80806001019150506105a7565b5060008167ffffffffffffffff8111156105f9576105f861210f565b5b60405190808252806020026020018201604052801561063257816020015b61061f611c93565b8152602001906001900390816106175790505b5090506000805b60045481101561073c5761064d868261093c565b1561072f57604051806040016040528060056000848152602001908152602001600020805461067b906128bb565b80601f01602080910402602001604051908101604052809291908181526020018280546106a7906128bb565b80156106f45780601f106106c9576101008083540402835291602001916106f4565b820191906000526020600020905b8154815290600101906020018083116106d757829003601f168201915b505050505081526020018281525083838151811061071557610714612963565b5b6020026020010181905250818061072b9061291b565b9250505b8080600101915050610639565b50819350505050919050565b60001515610756838361093c565b151514610798576040517f08c379a000000000000000000000000000000000000000000000000000000000815260040161078f906129de565b60405180910390fd5b6108736040518060400160405280601781526020017f4177617264696e6720626164676520257320746f2025730000000000000000008152506005600084815260200190815260200160002080546107ef906128bb565b80601f016020809104026020016040519081016040528092919081815260200182805461081b906128bb565b80156108685780601f1061083d57610100808354040283529160200191610868565b820191906000526020600020905b81548152906001019060200180831161084b57829003601f168201915b505050505084610e33565b610890308383600160405180602001604052806000815250610ed2565b5050565b600061089e610fdd565b90508073ffffffffffffffffffffffffffffffffffffffff168673ffffffffffffffffffffffffffffffffffffffff16141580156108e357506108e18682610ba3565b155b156109275780866040517fe237d92200000000000000000000000000000000000000000000000000000000815260040161091e9291906129fe565b60405180910390fd5b6109348686868686610fe5565b505050505050565b60008061094984846103cb565b11905092915050565b6060815183511461099e57815183516040517f5b059991000000000000000000000000000000000000000000000000000000008152600401610995929190612a27565b60405180910390fd5b6000835167ffffffffffffffff8111156109bb576109ba61210f565b5b6040519080825280602002602001820160405280156109e95781602001602082028036833780820191505090505b50905060005b8451811015610a5057610a26610a0e82876110dd90919063ffffffff16565b610a2183876110f190919063ffffffff16565b6103cb565b828281518110610a3957610a38612963565b5b6020026020010181815250508060010190506109ef565b508091505092915050565b610a63611105565b610a6d600061118c565b565b6000600360009054906101000a900473ffffffffffffffffffffffffffffffffffffffff16905090565b610aa1611105565b610abc33838360405180602001604052806000815250611252565b5050565b610ad2610acb610fdd565b83836112eb565b5050565b610ade611105565b80600560008481526020019081526020016000209081610afe9190612bfc565b505050565b60056020528060005260406000206000915090508054610b22906128bb565b80601f0160208091040260200160405190810160405280929190818152602001828054610b4e906128bb565b8015610b9b5780601f10610b7057610100808354040283529160200191610b9b565b820191906000526020600020905b815481529060010190602001808311610b7e57829003601f168201915b505050505081565b6000600160008473ffffffffffffffffffffffffffffffffffffffff1673ffffffffffffffffffffffffffffffffffffffff16815260200190815260200160002060008373ffffffffffffffffffffffffffffffffffffffff1673ffffffffffffffffffffffffffffffffffffffff16815260200190815260200160002060009054906101000a900460ff16905092915050565b6000610c41610fdd565b90508073ffffffffffffffffffffffffffffffffffffffff168673ffffffffffffffffffffffffffffffffffffffff1614158015610c865750610c848682610ba3565b155b15610cca5780866040517fe237d922000000000000000000000000000000000000000000000000000000008152600401610cc19291906129fe565b60405180910390fd5b610cd78686868686610ed2565b505050505050565b610ce7611105565b600073ffffffffffffffffffffffffffffffffffffffff168173ffffffffffffffffffffffffffffffffffffffff1603610d595760006040517f1e4fbdf7000000000000000000000000000000000000000000000000000000008152600401610d5091906125f1565b60405180910390fd5b610d628161118c565b50565b610d6d611105565b610d8a306004548460405180602001604052806000815250611252565b806005600060045481526020019081526020016000209081610dac9190612bfc565b5060046000815480929190610dc09061291b565b91905055505050565b60007f01ffc9a7000000000000000000000000000000000000000000000000000000007bffffffffffffffffffffffffffffffffffffffffffffffffffffffff1916827bffffffffffffffffffffffffffffffffffffffffffffffffffffffff1916149050919050565b610ecd838383604051602401610e4b93929190612cce565b6040516020818303038152906040527f95ed0195000000000000000000000000000000000000000000000000000000007bffffffffffffffffffffffffffffffffffffffffffffffffffffffff19166020820180517bffffffffffffffffffffffffffffffffffffffffffffffffffffffff838183161783525050505061145b565b505050565b600073ffffffffffffffffffffffffffffffffffffffff168473ffffffffffffffffffffffffffffffffffffffff1603610f445760006040517f57f447ce000000000000000000000000000000000000000000000000000000008152600401610f3b91906125f1565b60405180910390fd5b600073ffffffffffffffffffffffffffffffffffffffff168573ffffffffffffffffffffffffffffffffffffffff1603610fb65760006040517f01a83514000000000000000000000000000000000000000000000000000000008152600401610fad91906125f1565b60405180910390fd5b600080610fc38585611475565b91509150610fd487878484876114a5565b50505050505050565b600033905090565b600073ffffffffffffffffffffffffffffffffffffffff168473ffffffffffffffffffffffffffffffffffffffff16036110575760006040517f57f447ce00000000000000000000000000000000000000000000000000000000815260040161104e91906125f1565b60405180910390fd5b600073ffffffffffffffffffffffffffffffffffffffff168573ffffffffffffffffffffffffffffffffffffffff16036110c95760006040517f01a835140000000000000000000000000000000000000000000000000000000081526004016110c091906125f1565b60405180910390fd5b6110d685858585856114a5565b5050505050565b600060208202602084010151905092915050565b600060208202602084010151905092915050565b61110d610fdd565b73ffffffffffffffffffffffffffffffffffffffff1661112b610a6f565b73ffffffffffffffffffffffffffffffffffffffff161461118a5761114e610fdd565b6040517f118cdaa700000000000000000000000000000000000000000000000000000000815260040161118191906125f1565b60405180910390fd5b565b6000600360009054906101000a900473ffffffffffffffffffffffffffffffffffffffff16905081600360006101000a81548173ffffffffffffffffffffffffffffffffffffffff021916908373ffffffffffffffffffffffffffffffffffffffff1602179055508173ffffffffffffffffffffffffffffffffffffffff168173ffffffffffffffffffffffffffffffffffffffff167f8be0079c531659141344cd1fd0a4f28419497f9722a3daafe3b4186f6b6457e060405160405180910390a35050565b600073ffffffffffffffffffffffffffffffffffffffff168473ffffffffffffffffffffffffffffffffffffffff16036112c45760006040517f57f447ce0000000000000000000000000000000000000000000000000000000081526004016112bb91906125f1565b60405180910390fd5b6000806112d18585611475565b915091506112e36000878484876114a5565b505050505050565b600073ffffffffffffffffffffffffffffffffffffffff168273ffffffffffffffffffffffffffffffffffffffff160361135d5760006040517fced3e10000000000000000000000000000000000000000000000000000000000815260040161135491906125f1565b60405180910390fd5b80600160008573ffffffffffffffffffffffffffffffffffffffff1673ffffffffffffffffffffffffffffffffffffffff16815260200190815260200160002060008473ffffffffffffffffffffffffffffffffffffffff1673ffffffffffffffffffffffffffffffffffffffff16815260200190815260200160002060006101000a81548160ff0219169083151502179055508173ffffffffffffffffffffffffffffffffffffffff168373ffffffffffffffffffffffffffffffffffffffff167f17307eab39ab6107e8899845ad3d59bd9653f200f220920489ca2b5937696c318360405161144e9190611e69565b60405180910390a3505050565b6114728161146a611557611578565b63ffffffff16565b50565b60608060405191506001825283602083015260408201905060018152826020820152604081016040529250929050565b6114b185858585611583565b600073ffffffffffffffffffffffffffffffffffffffff168473ffffffffffffffffffffffffffffffffffffffff16146115505760006114ef610fdd565b9050600184510361153f5760006115106000866110f190919063ffffffff16565b905060006115286000866110f190919063ffffffff16565b905061153883898985858961192b565b505061154e565b61154d818787878787611adf565b5b505b5050505050565b60006a636f6e736f6c652e6c6f679050600080835160208501845afa505050565b611cad819050919050565b80518251146115cd57815181516040517f5b0599910000000000000000000000000000000000000000000000000000000081526004016115c4929190612a27565b60405180910390fd5b60006115d7610fdd565b905060005b83518110156117e65760006115fa82866110f190919063ffffffff16565b9050600061161183866110f190919063ffffffff16565b9050600073ffffffffffffffffffffffffffffffffffffffff168873ffffffffffffffffffffffffffffffffffffffff161461173e57600080600084815260200190815260200160002060008a73ffffffffffffffffffffffffffffffffffffffff1673ffffffffffffffffffffffffffffffffffffffff168152602001908152602001600020549050818110156116e657888183856040517f03dee4c50000000000000000000000000000000000000000000000000000000081526004016116dd9493929190612d13565b60405180910390fd5b81810360008085815260200190815260200160002060008b73ffffffffffffffffffffffffffffffffffffffff1673ffffffffffffffffffffffffffffffffffffffff16815260200190815260200160002081905550505b600073ffffffffffffffffffffffffffffffffffffffff168773ffffffffffffffffffffffffffffffffffffffff16146117d9578060008084815260200190815260200160002060008973ffffffffffffffffffffffffffffffffffffffff1673ffffffffffffffffffffffffffffffffffffffff16815260200190815260200160002060008282546117d19190612d58565b925050819055505b50508060010190506115dc565b5060018351036118a55760006118066000856110f190919063ffffffff16565b9050600061181e6000856110f190919063ffffffff16565b90508573ffffffffffffffffffffffffffffffffffffffff168773ffffffffffffffffffffffffffffffffffffffff168473ffffffffffffffffffffffffffffffffffffffff167fc3d58168c5ae7397731d063d5bbf3d657854427343f4c083240f7aacaa2d0f628585604051611896929190612a27565b60405180910390a45050611924565b8373ffffffffffffffffffffffffffffffffffffffff168573ffffffffffffffffffffffffffffffffffffffff168273ffffffffffffffffffffffffffffffffffffffff167f4a39dc06d4c0dbc64b70af90fd698a233a518aa5d07e595d983b8c0526c8f7fb868660405161191b929190612d8c565b60405180910390a45b5050505050565b60008473ffffffffffffffffffffffffffffffffffffffff163b1115611ad7578373ffffffffffffffffffffffffffffffffffffffff1663f23a6e6187878686866040518663ffffffff1660e01b815260040161198c959493929190612e18565b6020604051808303816000875af19250505080156119c857506040513d601f19601f820116820180604052508101906119c59190612e87565b60015b611a4c573d80600081146119f8576040519150601f19603f3d011682016040523d82523d6000602084013e6119fd565b606091505b506000815103611a4457846040517f57f447ce000000000000000000000000000000000000000000000000000000008152600401611a3b91906125f1565b60405180910390fd5b805181602001fd5b63f23a6e6160e01b7bffffffffffffffffffffffffffffffffffffffffffffffffffffffff1916817bffffffffffffffffffffffffffffffffffffffffffffffffffffffff191614611ad557846040517f57f447ce000000000000000000000000000000000000000000000000000000008152600401611acc91906125f1565b60405180910390fd5b505b505050505050565b60008473ffffffffffffffffffffffffffffffffffffffff163b1115611c8b578373ffffffffffffffffffffffffffffffffffffffff1663bc197c8187878686866040518663ffffffff1660e01b8152600401611b40959493929190612eb4565b6020604051808303816000875af1925050508015611b7c57506040513d601f19601f82011682018060405250810190611b799190612e87565b60015b611c00573d8060008114611bac576040519150601f19603f3d011682016040523d82523d6000602084013e611bb1565b606091505b506000815103611bf857846040517f57f447ce000000000000000000000000000000000000000000000000000000008152600401611bef91906125f1565b60405180910390fd5b805181602001fd5b63bc197c8160e01b7bffffffffffffffffffffffffffffffffffffffffffffffffffffffff1916817bffffffffffffffffffffffffffffffffffffffffffffffffffffffff191614611c8957846040517f57f447ce000000000000000000000000000000000000000000000000000000008152600401611c8091906125f1565b60405180910390fd5b505b505050505050565b604051806040016040528060608152602001600081525090565b611cb5612f1c565b565b6000604051905090565b600080fd5b600080fd5b600073ffffffffffffffffffffffffffffffffffffffff82169050919050565b6000611cf682611ccb565b9050919050565b611d0681611ceb565b8114611d1157600080fd5b50565b600081359050611d2381611cfd565b92915050565b6000819050919050565b611d3c81611d29565b8114611d4757600080fd5b50565b600081359050611d5981611d33565b92915050565b60008060408385031215611d7657611d75611cc1565b5b6000611d8485828601611d14565b9250506020611d9585828601611d4a565b9150509250929050565b611da881611d29565b82525050565b6000602082019050611dc36000830184611d9f565b92915050565b60007fffffffff0000000000000000000000000000000000000000000000000000000082169050919050565b611dfe81611dc9565b8114611e0957600080fd5b50565b600081359050611e1b81611df5565b92915050565b600060208284031215611e3757611e36611cc1565b5b6000611e4584828501611e0c565b91505092915050565b60008115159050919050565b611e6381611e4e565b82525050565b6000602082019050611e7e6000830184611e5a565b92915050565b600060208284031215611e9a57611e99611cc1565b5b6000611ea884828501611d4a565b91505092915050565b600081519050919050565b600082825260208201905092915050565b60005b83811015611eeb578082015181840152602081019050611ed0565b60008484015250505050565b6000601f19601f8301169050919050565b6000611f1382611eb1565b611f1d8185611ebc565b9350611f2d818560208601611ecd565b611f3681611ef7565b840191505092915050565b60006020820190508181036000830152611f5b8184611f08565b905092915050565b600060208284031215611f7957611f78611cc1565b5b6000611f8784828501611d14565b91505092915050565b600081519050919050565b600082825260208201905092915050565b6000819050602082019050919050565b600082825260208201905092915050565b6000611fd882611eb1565b611fe28185611fbc565b9350611ff2818560208601611ecd565b611ffb81611ef7565b840191505092915050565b61200f81611d29565b82525050565b600060408301600083015184820360008601526120328282611fcd565b91505060208301516120476020860182612006565b508091505092915050565b600061205e8383612015565b905092915050565b6000602082019050919050565b600061207e82611f90565b6120888185611f9b565b93508360208202850161209a85611fac565b8060005b858110156120d657848403895281516120b78582612052565b94506120c283612066565b925060208a0199505060018101905061209e565b50829750879550505050505092915050565b600060208201905081810360008301526121028184612073565b905092915050565b600080fd5b7f4e487b7100000000000000000000000000000000000000000000000000000000600052604160045260246000fd5b61214782611ef7565b810181811067ffffffffffffffff821117156121665761216561210f565b5b80604052505050565b6000612179611cb7565b9050612185828261213e565b919050565b600067ffffffffffffffff8211156121a5576121a461210f565b5b602082029050602081019050919050565b600080fd5b60006121ce6121c98461218a565b61216f565b905080838252602082019050602084028301858111156121f1576121f06121b6565b5b835b8181101561221a57806122068882611d4a565b8452602084019350506020810190506121f3565b5050509392505050565b600082601f8301126122395761223861210a565b5b81356122498482602086016121bb565b91505092915050565b600080fd5b600067ffffffffffffffff8211156122725761227161210f565b5b61227b82611ef7565b9050602081019050919050565b82818337600083830152505050565b60006122aa6122a584612257565b61216f565b9050828152602081018484840111156122c6576122c5612252565b5b6122d1848285612288565b509392505050565b600082601f8301126122ee576122ed61210a565b5b81356122fe848260208601612297565b91505092915050565b600080600080600060a0868803121561232357612322611cc1565b5b600061233188828901611d14565b955050602061234288828901611d14565b945050604086013567ffffffffffffffff81111561236357612362611cc6565b5b61236f88828901612224565b935050606086013567ffffffffffffffff8111156123905761238f611cc6565b5b61239c88828901612224565b925050608086013567ffffffffffffffff8111156123bd576123bc611cc6565b5b6123c9888289016122d9565b9150509295509295909350565b600067ffffffffffffffff8211156123f1576123f061210f565b5b602082029050602081019050919050565b6000612415612410846123d6565b61216f565b90508083825260208201905060208402830185811115612438576124376121b6565b5b835b81811015612461578061244d8882611d14565b84526020840193505060208101905061243a565b5050509392505050565b600082601f8301126124805761247f61210a565b5b8135612490848260208601612402565b91505092915050565b600080604083850312156124b0576124af611cc1565b5b600083013567ffffffffffffffff8111156124ce576124cd611cc6565b5b6124da8582860161246b565b925050602083013567ffffffffffffffff8111156124fb576124fa611cc6565b5b61250785828601612224565b9150509250929050565b600081519050919050565b600082825260208201905092915050565b6000819050602082019050919050565b60006125498383612006565b60208301905092915050565b6000602082019050919050565b600061256d82612511565b612577818561251c565b93506125828361252d565b8060005b838110156125b357815161259a888261253d565b97506125a583612555565b925050600181019050612586565b5085935050505092915050565b600060208201905081810360008301526125da8184612562565b905092915050565b6125eb81611ceb565b82525050565b600060208201905061260660008301846125e2565b92915050565b6000806040838503121561262357612622611cc1565b5b600061263185828601611d4a565b925050602061264285828601611d4a565b9150509250929050565b61265581611e4e565b811461266057600080fd5b50565b6000813590506126728161264c565b92915050565b6000806040838503121561268f5761268e611cc1565b5b600061269d85828601611d14565b92505060206126ae85828601612663565b9150509250929050565b600067ffffffffffffffff8211156126d3576126d261210f565b5b6126dc82611ef7565b9050602081019050919050565b60006126fc6126f7846126b8565b61216f565b90508281526020810184848401111561271857612717612252565b5b612723848285612288565b509392505050565b600082601f8301126127405761273f61210a565b5b81356127508482602086016126e9565b91505092915050565b600080604083850312156127705761276f611cc1565b5b600061277e85828601611d4a565b925050602083013567ffffffffffffffff81111561279f5761279e611cc6565b5b6127ab8582860161272b565b9150509250929050565b600080604083850312156127cc576127cb611cc1565b5b60006127da85828601611d14565b92505060206127eb85828601611d14565b9150509250929050565b600080600080600060a0868803121561281157612810611cc1565b5b600061281f88828901611d14565b955050602061283088828901611d14565b945050604061284188828901611d4a565b935050606061285288828901611d4a565b925050608086013567ffffffffffffffff81111561287357612872611cc6565b5b61287f888289016122d9565b9150509295509295909350565b7f4e487b7100000000000000000000000000000000000000000000000000000000600052602260045260246000fd5b600060028204905060018216806128d357607f821691505b6020821081036128e6576128e561288c565b5b50919050565b7f4e487b7100000000000000000000000000000000000000000000000000000000600052601160045260246000fd5b600061292682611d29565b91507fffffffffffffffffffffffffffffffffffffffffffffffffffffffffffffffff8203612958576129576128ec565b5b600182019050919050565b7f4e487b7100000000000000000000000000000000000000000000000000000000600052603260045260246000fd5b7f426164676520616c726561647920617761726465640000000000000000000000600082015250565b60006129c8601583611ebc565b91506129d382612992565b602082019050919050565b600060208201905081810360008301526129f7816129bb565b9050919050565b6000604082019050612a1360008301856125e2565b612a2060208301846125e2565b9392505050565b6000604082019050612a3c6000830185611d9f565b612a496020830184611d9f565b9392505050565b60008190508160005260206000209050919050565b60006020601f8301049050919050565b600082821b905092915050565b600060088302612ab27fffffffffffffffffffffffffffffffffffffffffffffffffffffffffffffffff82612a75565b612abc8683612a75565b95508019841693508086168417925050509392505050565b6000819050919050565b6000612af9612af4612aef84611d29565b612ad4565b611d29565b9050919050565b6000819050919050565b612b1383612ade565b612b27612b1f82612b00565b848454612a82565b825550505050565b600090565b612b3c612b2f565b612b47818484612b0a565b505050565b5b81811015612b6b57612b60600082612b34565b600181019050612b4d565b5050565b601f821115612bb057612b8181612a50565b612b8a84612a65565b81016020851015612b99578190505b612bad612ba585612a65565b830182612b4c565b50505b505050565b600082821c905092915050565b6000612bd360001984600802612bb5565b1980831691505092915050565b6000612bec8383612bc2565b9150826002028217905092915050565b612c0582611eb1565b67ffffffffffffffff811115612c1e57612c1d61210f565b5b612c2882546128bb565b612c33828285612b6f565b600060209050601f831160018114612c665760008415612c54578287015190505b612c5e8582612be0565b865550612cc6565b601f198416612c7486612a50565b60005b82811015612c9c57848901518255600182019150602085019450602081019050612c77565b86831015612cb95784890151612cb5601f891682612bc2565b8355505b6001600288020188555050505b505050505050565b60006060820190508181036000830152612ce88186611f08565b90508181036020830152612cfc8185611f08565b9050612d0b60408301846125e2565b949350505050565b6000608082019050612d2860008301876125e2565b612d356020830186611d9f565b612d426040830185611d9f565b612d4f6060830184611d9f565b95945050505050565b6000612d6382611d29565b9150612d6e83611d29565b9250828201905080821115612d8657612d856128ec565b5b92915050565b60006040820190508181036000830152612da68185612562565b90508181036020830152612dba8184612562565b90509392505050565b600081519050919050565b600082825260208201905092915050565b6000612dea82612dc3565b612df48185612dce565b9350612e04818560208601611ecd565b612e0d81611ef7565b840191505092915050565b600060a082019050612e2d60008301886125e2565b612e3a60208301876125e2565b612e476040830186611d9f565b612e546060830185611d9f565b8181036080830152612e668184612ddf565b90509695505050505050565b600081519050612e8181611df5565b92915050565b600060208284031215612e9d57612e9c611cc1565b5b6000612eab84828501612e72565b91505092915050565b600060a082019050612ec960008301886125e2565b612ed660208301876125e2565b8181036040830152612ee88186612562565b90508181036060830152612efc8185612562565b90508181036080830152612f108184612ddf565b90509695505050505050565b7f4e487b7100000000000000000000000000000000000000000000000000000000600052605160045260246000fdfea2646970667358221220cd6fd441bf2fe48abb9ac4c845c5c7fc050dd3869a1969a58d2b771bc9fede0f64736f6c63430008180033",
  "linkReferences": {},
  "deployedLinkReferences": {}
}