{
  "_format": "hh-sol-artifact-1",
  "contractName": "GardenExplorer",
  "sourceName": "contracts/GardenExplorer.sol",
  "abi": [
    {
      "inputs": [
        {
          "internalType": "address",
          "name": "initialOwner",
          "type": "address"
        }
      ],
      "stateMutability": "nonpayable",
      "type": "constructor"
    },
    {
      "inputs": [
        {
          "internalType": "address",
          "name": "sender",
          "type": "address"
        },
        {
          "internalType": "uint256",
          "name": "tokenId",
          "type": "uint256"
        },
        {
          "internalType": "address",
          "name": "owner",
          "type": "address"
        }
      ],
      "name": "ERC721IncorrectOwner",
      "type": "error"
    },
    {
      "inputs": [
        {
          "internalType": "address",
          "name": "operator",
          "type": "address"
        },
        {
          "internalType": "uint256",
          "name": "tokenId",
          "type": "uint256"
        }
      ],
      "name": "ERC721InsufficientApproval",
      "type": "error"
    },
    {
      "inputs": [
        {
          "internalType": "address",
          "name": "approver",
          "type": "address"
        }
      ],
      "name": "ERC721InvalidApprover",
      "type": "error"
    },
    {
      "inputs": [
        {
          "internalType": "address",
          "name": "operator",
          "type": "address"
        }
      ],
      "name": "ERC721InvalidOperator",
      "type": "error"
    },
    {
      "inputs": [
        {
          "internalType": "address",
          "name": "owner",
          "type": "address"
        }
      ],
      "name": "ERC721InvalidOwner",
      "type": "error"
    },
    {
      "inputs": [
        {
          "internalType": "address",
          "name": "receiver",
          "type": "address"
        }
      ],
      "name": "ERC721InvalidReceiver",
      "type": "error"
    },
    {
      "inputs": [
        {
          "internalType": "address",
          "name": "sender",
          "type": "address"
        }
      ],
      "name": "ERC721InvalidSender",
      "type": "error"
    },
    {
      "inputs": [
        {
          "internalType": "uint256",
          "name": "tokenId",
          "type": "uint256"
        }
      ],
      "name": "ERC721NonexistentToken",
      "type": "error"
    },
    {
      "inputs": [
        {
          "internalType": "address",
          "name": "owner",
          "type": "address"
        }
      ],
      "name": "OwnableInvalidOwner",
      "type": "error"
    },
    {
      "inputs": [
        {
          "internalType": "address",
          "name": "account",
          "type": "address"
        }
      ],
      "name": "OwnableUnauthorizedAccount",
      "type": "error"
    },
    {
      "anonymous": false,
      "inputs": [
        {
          "indexed": true,
          "internalType": "address",
          "name": "owner",
          "type": "address"
        },
        {
          "indexed": true,
          "internalType": "address",
          "name": "approved",
          "type": "address"
        },
        {
          "indexed": true,
          "internalType": "uint256",
          "name": "tokenId",
          "type": "uint256"
        }
      ],
      "name": "Approval",
      "type": "event"
    },
    {
      "anonymous": false,
      "inputs": [
        {
          "indexed": true,
          "internalType": "address",
          "name": "owner",
          "type": "address"
        },
        {
          "indexed": true,
          "internalType": "address",
          "name": "operator",
          "type": "address"
        },
        {
          "indexed": false,
          "internalType": "bool",
          "name": "approved",
          "type": "bool"
        }
      ],
      "name": "ApprovalForAll",
      "type": "event"
    },
    {
      "anonymous": false,
      "inputs": [
        {
          "indexed": true,
          "internalType": "address",
          "name": "previousOwner",
          "type": "address"
        },
        {
          "indexed": true,
          "internalType": "address",
          "name": "newOwner",
          "type": "address"
        }
      ],
      "name": "OwnershipTransferred",
      "type": "event"
    },
    {
      "anonymous": false,
      "inputs": [
        {
          "indexed": true,
          "internalType": "address",
          "name": "from",
          "type": "address"
        },
        {
          "indexed": true,
          "internalType": "address",
          "name": "to",
          "type": "address"
        },
        {
          "indexed": true,
          "internalType": "uint256",
          "name": "tokenId",
          "type": "uint256"
        }
      ],
      "name": "Transfer",
      "type": "event"
    },
    {
      "inputs": [
        {
          "internalType": "address",
          "name": "to",
          "type": "address"
        },
        {
          "internalType": "uint256",
          "name": "tokenId",
          "type": "uint256"
        }
      ],
      "name": "approve",
      "outputs": [],
      "stateMutability": "nonpayable",
      "type": "function"
    },
    {
      "inputs": [
        {
          "internalType": "address",
          "name": "owner",
          "type": "address"
        }
      ],
      "name": "balanceOf",
      "outputs": [
        {
          "internalType": "uint256",
          "name": "",
          "type": "uint256"
        }
      ],
      "stateMutability": "view",
      "type": "function"
    },
    {
      "inputs": [
        {
          "internalType": "uint256",
          "name": "tokenId",
          "type": "uint256"
        }
      ],
      "name": "getApproved",
      "outputs": [
        {
          "internalType": "address",
          "name": "",
          "type": "address"
        }
      ],
      "stateMutability": "view",
      "type": "function"
    },
    {
      "inputs": [
        {
          "internalType": "address",
          "name": "owner",
          "type": "address"
        },
        {
          "internalType": "address",
          "name": "operator",
          "type": "address"
        }
      ],
      "name": "isApprovedForAll",
      "outputs": [
        {
          "internalType": "bool",
          "name": "",
          "type": "bool"
        }
      ],
      "stateMutability": "view",
      "type": "function"
    },
    {
      "inputs": [],
      "name": "mintPrice",
      "outputs": [
        {
          "internalType": "uint256",
          "name": "",
          "type": "uint256"
        }
      ],
      "stateMutability": "view",
      "type": "function"
    },
    {
      "inputs": [],
      "name": "name",
      "outputs": [
        {
          "internalType": "string",
          "name": "",
          "type": "string"
        }
      ],
      "stateMutability": "view",
      "type": "function"
    },
    {
      "inputs": [],
      "name": "owner",
      "outputs": [
        {
          "internalType": "address",
          "name": "",
          "type": "address"
        }
      ],
      "stateMutability": "view",
      "type": "function"
    },
    {
      "inputs": [
        {
          "internalType": "uint256",
          "name": "tokenId",
          "type": "uint256"
        }
      ],
      "name": "ownerOf",
      "outputs": [
        {
          "internalType": "address",
          "name": "",
          "type": "address"
        }
      ],
      "stateMutability": "view",
      "type": "function"
    },
    {
      "inputs": [],
      "name": "renounceOwnership",
      "outputs": [],
      "stateMutability": "nonpayable",
      "type": "function"
    },
    {
      "inputs": [],
      "name": "safeMint",
      "outputs": [],
      "stateMutability": "payable",
      "type": "function"
    },
    {
      "inputs": [
        {
          "internalType": "address",
          "name": "from",
          "type": "address"
        },
        {
          "internalType": "address",
          "name": "to",
          "type": "address"
        },
        {
          "internalType": "uint256",
          "name": "tokenId",
          "type": "uint256"
        }
      ],
      "name": "safeTransferFrom",
      "outputs": [],
      "stateMutability": "nonpayable",
      "type": "function"
    },
    {
      "inputs": [
        {
          "internalType": "address",
          "name": "from",
          "type": "address"
        },
        {
          "internalType": "address",
          "name": "to",
          "type": "address"
        },
        {
          "internalType": "uint256",
          "name": "tokenId",
          "type": "uint256"
        },
        {
          "internalType": "bytes",
          "name": "data",
          "type": "bytes"
        }
      ],
      "name": "safeTransferFrom",
      "outputs": [],
      "stateMutability": "nonpayable",
      "type": "function"
    },
    {
      "inputs": [
        {
          "internalType": "address",
          "name": "operator",
          "type": "address"
        },
        {
          "internalType": "bool",
          "name": "approved",
          "type": "bool"
        }
      ],
      "name": "setApprovalForAll",
      "outputs": [],
      "stateMutability": "nonpayable",
      "type": "function"
    },
    {
      "inputs": [
        {
          "internalType": "bytes4",
          "name": "interfaceId",
          "type": "bytes4"
        }
      ],
      "name": "supportsInterface",
      "outputs": [
        {
          "internalType": "bool",
          "name": "",
          "type": "bool"
        }
      ],
      "stateMutability": "view",
      "type": "function"
    },
    {
      "inputs": [],
      "name": "symbol",
      "outputs": [
        {
          "internalType": "string",
          "name": "",
          "type": "string"
        }
      ],
      "stateMutability": "view",
      "type": "function"
    },
    {
      "inputs": [
        {
          "internalType": "uint256",
          "name": "tokenId",
          "type": "uint256"
        }
      ],
      "name": "tokenURI",
      "outputs": [
        {
          "internalType": "string",
          "name": "",
          "type": "string"
        }
      ],
      "stateMutability": "view",
      "type": "function"
    },
    {
      "inputs": [
        {
          "internalType": "address",
          "name": "from",
          "type": "address"
        },
        {
          "internalType": "address",
          "name": "to",
          "type": "address"
        },
        {
          "internalType": "uint256",
          "name": "tokenId",
          "type": "uint256"
        }
      ],
      "name": "transferFrom",
      "outputs": [],
      "stateMutability": "nonpayable",
      "type": "function"
    },
    {
      "inputs": [
        {
          "internalType": "address",
          "name": "newOwner",
          "type": "address"
        }
      ],
      "name": "transferOwnership",
      "outputs": [],
      "stateMutability": "nonpayable",
      "type": "function"
    }
  ],
  "bytecode": "0x608060405266b1a2bc2ec500006008553480156200001c57600080fd5b506040516200295638038062002956833981810160405281019062000042919062000293565b806040518060400160405280600f81526020017f47617264656e204578706c6f72657200000000000000000000000000000000008152506040518060400160405280600781526020017f4558504c4f5245000000000000000000000000000000000000000000000000008152508160009081620000c091906200053f565b508060019081620000d291906200053f565b505050600073ffffffffffffffffffffffffffffffffffffffff168173ffffffffffffffffffffffffffffffffffffffff16036200014a5760006040517f1e4fbdf700000000000000000000000000000000000000000000000000000000815260040162000141919062000637565b60405180910390fd5b6200015b816200016360201b60201c565b505062000654565b6000600660009054906101000a900473ffffffffffffffffffffffffffffffffffffffff16905081600660006101000a81548173ffffffffffffffffffffffffffffffffffffffff021916908373ffffffffffffffffffffffffffffffffffffffff1602179055508173ffffffffffffffffffffffffffffffffffffffff168173ffffffffffffffffffffffffffffffffffffffff167f8be0079c531659141344cd1fd0a4f28419497f9722a3daafe3b4186f6b6457e060405160405180910390a35050565b600080fd5b600073ffffffffffffffffffffffffffffffffffffffff82169050919050565b60006200025b826200022e565b9050919050565b6200026d816200024e565b81146200027957600080fd5b50565b6000815190506200028d8162000262565b92915050565b600060208284031215620002ac57620002ab62000229565b5b6000620002bc848285016200027c565b91505092915050565b600081519050919050565b7f4e487b7100000000000000000000000000000000000000000000000000000000600052604160045260246000fd5b7f4e487b7100000000000000000000000000000000000000000000000000000000600052602260045260246000fd5b600060028204905060018216806200034757607f821691505b6020821081036200035d576200035c620002ff565b5b50919050565b60008190508160005260206000209050919050565b60006020601f8301049050919050565b600082821b905092915050565b600060088302620003c77fffffffffffffffffffffffffffffffffffffffffffffffffffffffffffffffff8262000388565b620003d3868362000388565b95508019841693508086168417925050509392505050565b6000819050919050565b6000819050919050565b6000620004206200041a6200041484620003eb565b620003f5565b620003eb565b9050919050565b6000819050919050565b6200043c83620003ff565b620004546200044b8262000427565b84845462000395565b825550505050565b600090565b6200046b6200045c565b6200047881848462000431565b505050565b5b81811015620004a0576200049460008262000461565b6001810190506200047e565b5050565b601f821115620004ef57620004b98162000363565b620004c48462000378565b81016020851015620004d4578190505b620004ec620004e38562000378565b8301826200047d565b50505b505050565b600082821c905092915050565b60006200051460001984600802620004f4565b1980831691505092915050565b60006200052f838362000501565b9150826002028217905092915050565b6200054a82620002c5565b67ffffffffffffffff811115620005665762000565620002d0565b5b6200057282546200032e565b6200057f828285620004a4565b600060209050601f831160018114620005b75760008415620005a2578287015190505b620005ae858262000521565b8655506200061e565b601f198416620005c78662000363565b60005b82811015620005f157848901518255600182019150602085019450602081019050620005ca565b868310156200061157848901516200060d601f89168262000501565b8355505b6001600288020188555050505b505050505050565b62000631816200024e565b82525050565b60006020820190506200064e600083018462000626565b92915050565b6122f280620006646000396000f3fe6080604052600436106101095760003560e01c806370a0823111610095578063a22cb46511610064578063a22cb4651461034a578063b88d4fde14610373578063c87b56dd1461039c578063e985e9c5146103d9578063f2fde38b1461041657610109565b806370a08231146102a0578063715018a6146102dd5780638da5cb5b146102f457806395d89b411461031f57610109565b806323b872dd116100dc57806323b872dd146101dc57806342842e0e146102055780636352211e1461022e5780636817c76c1461026b5780636871ee401461029657610109565b806301ffc9a71461010e57806306fdde031461014b578063081812fc14610176578063095ea7b3146101b3575b600080fd5b34801561011a57600080fd5b5061013560048036038101906101309190611a09565b61043f565b6040516101429190611a51565b60405180910390f35b34801561015757600080fd5b50610160610521565b60405161016d9190611afc565b60405180910390f35b34801561018257600080fd5b5061019d60048036038101906101989190611b54565b6105b3565b6040516101aa9190611bc2565b60405180910390f35b3480156101bf57600080fd5b506101da60048036038101906101d59190611c09565b6105cf565b005b3480156101e857600080fd5b5061020360048036038101906101fe9190611c49565b6105e5565b005b34801561021157600080fd5b5061022c60048036038101906102279190611c49565b6106e7565b005b34801561023a57600080fd5b5061025560048036038101906102509190611b54565b610707565b6040516102629190611bc2565b60405180910390f35b34801561027757600080fd5b50610280610719565b60405161028d9190611cab565b60405180910390f35b61029e61071f565b005b3480156102ac57600080fd5b506102c760048036038101906102c29190611cc6565b61078c565b6040516102d49190611cab565b60405180910390f35b3480156102e957600080fd5b506102f2610846565b005b34801561030057600080fd5b5061030961085a565b6040516103169190611bc2565b60405180910390f35b34801561032b57600080fd5b50610334610884565b6040516103419190611afc565b60405180910390f35b34801561035657600080fd5b50610371600480360381019061036c9190611d1f565b610916565b005b34801561037f57600080fd5b5061039a60048036038101906103959190611e94565b61092c565b005b3480156103a857600080fd5b506103c360048036038101906103be9190611b54565b610949565b6040516103d09190611afc565b60405180910390f35b3480156103e557600080fd5b5061040060048036038101906103fb9190611f17565b6109b2565b60405161040d9190611a51565b60405180910390f35b34801561042257600080fd5b5061043d60048036038101906104389190611cc6565b610a46565b005b60007f80ac58cd000000000000000000000000000000000000000000000000000000007bffffffffffffffffffffffffffffffffffffffffffffffffffffffff1916827bffffffffffffffffffffffffffffffffffffffffffffffffffffffff1916148061050a57507f5b5e139f000000000000000000000000000000000000000000000000000000007bffffffffffffffffffffffffffffffffffffffffffffffffffffffff1916827bffffffffffffffffffffffffffffffffffffffffffffffffffffffff1916145b8061051a575061051982610acc565b5b9050919050565b60606000805461053090611f86565b80601f016020809104026020016040519081016040528092919081815260200182805461055c90611f86565b80156105a95780601f1061057e576101008083540402835291602001916105a9565b820191906000526020600020905b81548152906001019060200180831161058c57829003601f168201915b5050505050905090565b60006105be82610b36565b506105c882610bbe565b9050919050565b6105e182826105dc610bfb565b610c03565b5050565b600073ffffffffffffffffffffffffffffffffffffffff168273ffffffffffffffffffffffffffffffffffffffff16036106575760006040517f64a0ae9200000000000000000000000000000000000000000000000000000000815260040161064e9190611bc2565b60405180910390fd5b600061066b8383610666610bfb565b610c15565b90508373ffffffffffffffffffffffffffffffffffffffff168173ffffffffffffffffffffffffffffffffffffffff16146106e1578382826040517f64283d7b0000000000000000000000000000000000000000000000000000000081526004016106d893929190611fb7565b60405180910390fd5b50505050565b6107028383836040518060200160405280600081525061092c565b505050565b600061071282610b36565b9050919050565b60085481565b600854341015610764576040517f08c379a000000000000000000000000000000000000000000000000000000000815260040161075b9061203a565b60405180910390fd5b60006007600081548092919061077990612089565b9190505590506107893382610e2f565b50565b60008073ffffffffffffffffffffffffffffffffffffffff168273ffffffffffffffffffffffffffffffffffffffff16036107ff5760006040517f89c62b640000000000000000000000000000000000000000000000000000000081526004016107f69190611bc2565b60405180910390fd5b600360008373ffffffffffffffffffffffffffffffffffffffff1673ffffffffffffffffffffffffffffffffffffffff168152602001908152602001600020549050919050565b61084e610e4d565b6108586000610ed4565b565b6000600660009054906101000a900473ffffffffffffffffffffffffffffffffffffffff16905090565b60606001805461089390611f86565b80601f01602080910402602001604051908101604052809291908181526020018280546108bf90611f86565b801561090c5780601f106108e15761010080835404028352916020019161090c565b820191906000526020600020905b8154815290600101906020018083116108ef57829003601f168201915b5050505050905090565b610928610921610bfb565b8383610f9a565b5050565b6109378484846105e5565b61094384848484611109565b50505050565b606061095482610b36565b50600061095f6112c0565b9050600081511161097f57604051806020016040528060008152506109aa565b80610989846112e0565b60405160200161099a92919061210d565b6040516020818303038152906040525b915050919050565b6000600560008473ffffffffffffffffffffffffffffffffffffffff1673ffffffffffffffffffffffffffffffffffffffff16815260200190815260200160002060008373ffffffffffffffffffffffffffffffffffffffff1673ffffffffffffffffffffffffffffffffffffffff16815260200190815260200160002060009054906101000a900460ff16905092915050565b610a4e610e4d565b600073ffffffffffffffffffffffffffffffffffffffff168173ffffffffffffffffffffffffffffffffffffffff1603610ac05760006040517f1e4fbdf7000000000000000000000000000000000000000000000000000000008152600401610ab79190611bc2565b60405180910390fd5b610ac981610ed4565b50565b60007f01ffc9a7000000000000000000000000000000000000000000000000000000007bffffffffffffffffffffffffffffffffffffffffffffffffffffffff1916827bffffffffffffffffffffffffffffffffffffffffffffffffffffffff1916149050919050565b600080610b42836113ae565b9050600073ffffffffffffffffffffffffffffffffffffffff168173ffffffffffffffffffffffffffffffffffffffff1603610bb557826040517f7e273289000000000000000000000000000000000000000000000000000000008152600401610bac9190611cab565b60405180910390fd5b80915050919050565b60006004600083815260200190815260200160002060009054906101000a900473ffffffffffffffffffffffffffffffffffffffff169050919050565b600033905090565b610c1083838360016113eb565b505050565b600080610c21846113ae565b9050600073ffffffffffffffffffffffffffffffffffffffff168373ffffffffffffffffffffffffffffffffffffffff1614610c6357610c628184866115b0565b5b600073ffffffffffffffffffffffffffffffffffffffff168173ffffffffffffffffffffffffffffffffffffffff1614610cf457610ca56000856000806113eb565b6001600360008373ffffffffffffffffffffffffffffffffffffffff1673ffffffffffffffffffffffffffffffffffffffff168152602001908152602001600020600082825403925050819055505b600073ffffffffffffffffffffffffffffffffffffffff168573ffffffffffffffffffffffffffffffffffffffff1614610d77576001600360008773ffffffffffffffffffffffffffffffffffffffff1673ffffffffffffffffffffffffffffffffffffffff168152602001908152602001600020600082825401925050819055505b846002600086815260200190815260200160002060006101000a81548173ffffffffffffffffffffffffffffffffffffffff021916908373ffffffffffffffffffffffffffffffffffffffff160217905550838573ffffffffffffffffffffffffffffffffffffffff168273ffffffffffffffffffffffffffffffffffffffff167fddf252ad1be2c89b69c2b068fc378daa952ba7f163c4a11628f55a4df523b3ef60405160405180910390a4809150509392505050565b610e49828260405180602001604052806000815250611674565b5050565b610e55610bfb565b73ffffffffffffffffffffffffffffffffffffffff16610e7361085a565b73ffffffffffffffffffffffffffffffffffffffff1614610ed257610e96610bfb565b6040517f118cdaa7000000000000000000000000000000000000000000000000000000008152600401610ec99190611bc2565b60405180910390fd5b565b6000600660009054906101000a900473ffffffffffffffffffffffffffffffffffffffff16905081600660006101000a81548173ffffffffffffffffffffffffffffffffffffffff021916908373ffffffffffffffffffffffffffffffffffffffff1602179055508173ffffffffffffffffffffffffffffffffffffffff168173ffffffffffffffffffffffffffffffffffffffff167f8be0079c531659141344cd1fd0a4f28419497f9722a3daafe3b4186f6b6457e060405160405180910390a35050565b600073ffffffffffffffffffffffffffffffffffffffff168273ffffffffffffffffffffffffffffffffffffffff160361100b57816040517f5b08ba180000000000000000000000000000000000000000000000000000000081526004016110029190611bc2565b60405180910390fd5b80600560008573ffffffffffffffffffffffffffffffffffffffff1673ffffffffffffffffffffffffffffffffffffffff16815260200190815260200160002060008473ffffffffffffffffffffffffffffffffffffffff1673ffffffffffffffffffffffffffffffffffffffff16815260200190815260200160002060006101000a81548160ff0219169083151502179055508173ffffffffffffffffffffffffffffffffffffffff168373ffffffffffffffffffffffffffffffffffffffff167f17307eab39ab6107e8899845ad3d59bd9653f200f220920489ca2b5937696c31836040516110fc9190611a51565b60405180910390a3505050565b60008373ffffffffffffffffffffffffffffffffffffffff163b11156112ba578273ffffffffffffffffffffffffffffffffffffffff1663150b7a0261114d610bfb565b8685856040518563ffffffff1660e01b815260040161116f9493929190612186565b6020604051808303816000875af19250505080156111ab57506040513d601f19601f820116820180604052508101906111a891906121e7565b60015b61122f573d80600081146111db576040519150601f19603f3d011682016040523d82523d6000602084013e6111e0565b606091505b50600081510361122757836040517f64a0ae9200000000000000000000000000000000000000000000000000000000815260040161121e9190611bc2565b60405180910390fd5b805181602001fd5b63150b7a0260e01b7bffffffffffffffffffffffffffffffffffffffffffffffffffffffff1916817bffffffffffffffffffffffffffffffffffffffffffffffffffffffff1916146112b857836040517f64a0ae920000000000000000000000000000000000000000000000000000000081526004016112af9190611bc2565b60405180910390fd5b505b50505050565b606060405180608001604052806050815260200161226d60509139905090565b6060600060016112ef84611690565b01905060008167ffffffffffffffff81111561130e5761130d611d69565b5b6040519080825280601f01601f1916602001820160405280156113405781602001600182028036833780820191505090505b509050600082602001820190505b6001156113a3578080600190039150507f3031323334353637383961626364656600000000000000000000000000000000600a86061a8153600a858161139757611396612214565b5b0494506000850361134e575b819350505050919050565b60006002600083815260200190815260200160002060009054906101000a900473ffffffffffffffffffffffffffffffffffffffff169050919050565b80806114245750600073ffffffffffffffffffffffffffffffffffffffff168273ffffffffffffffffffffffffffffffffffffffff1614155b1561155857600061143484610b36565b9050600073ffffffffffffffffffffffffffffffffffffffff168373ffffffffffffffffffffffffffffffffffffffff161415801561149f57508273ffffffffffffffffffffffffffffffffffffffff168173ffffffffffffffffffffffffffffffffffffffff1614155b80156114b257506114b081846109b2565b155b156114f457826040517fa9fbf51f0000000000000000000000000000000000000000000000000000000081526004016114eb9190611bc2565b60405180910390fd5b811561155657838573ffffffffffffffffffffffffffffffffffffffff168273ffffffffffffffffffffffffffffffffffffffff167f8c5be1e5ebec7d5bd14f71427d1e84f3dd0314c0f7b2291e5b200ac8c7c3b92560405160405180910390a45b505b836004600085815260200190815260200160002060006101000a81548173ffffffffffffffffffffffffffffffffffffffff021916908373ffffffffffffffffffffffffffffffffffffffff16021790555050505050565b6115bb8383836117e3565b61166f57600073ffffffffffffffffffffffffffffffffffffffff168373ffffffffffffffffffffffffffffffffffffffff160361163057806040517f7e2732890000000000000000000000000000000000000000000000000000000081526004016116279190611cab565b60405180910390fd5b81816040517f177e802f000000000000000000000000000000000000000000000000000000008152600401611666929190612243565b60405180910390fd5b505050565b61167e83836118a4565b61168b6000848484611109565b505050565b600080600090507a184f03e93ff9f4daa797ed6e38ed64bf6a1f01000000000000000083106116ee577a184f03e93ff9f4daa797ed6e38ed64bf6a1f01000000000000000083816116e4576116e3612214565b5b0492506040810190505b6d04ee2d6d415b85acef8100000000831061172b576d04ee2d6d415b85acef8100000000838161172157611720612214565b5b0492506020810190505b662386f26fc10000831061175a57662386f26fc1000083816117505761174f612214565b5b0492506010810190505b6305f5e1008310611783576305f5e100838161177957611778612214565b5b0492506008810190505b61271083106117a857612710838161179e5761179d612214565b5b0492506004810190505b606483106117cb57606483816117c1576117c0612214565b5b0492506002810190505b600a83106117da576001810190505b80915050919050565b60008073ffffffffffffffffffffffffffffffffffffffff168373ffffffffffffffffffffffffffffffffffffffff161415801561189b57508273ffffffffffffffffffffffffffffffffffffffff168473ffffffffffffffffffffffffffffffffffffffff16148061185c575061185b84846109b2565b5b8061189a57508273ffffffffffffffffffffffffffffffffffffffff1661188283610bbe565b73ffffffffffffffffffffffffffffffffffffffff16145b5b90509392505050565b600073ffffffffffffffffffffffffffffffffffffffff168273ffffffffffffffffffffffffffffffffffffffff16036119165760006040517f64a0ae9200000000000000000000000000000000000000000000000000000000815260040161190d9190611bc2565b60405180910390fd5b600061192483836000610c15565b9050600073ffffffffffffffffffffffffffffffffffffffff168173ffffffffffffffffffffffffffffffffffffffff16146119985760006040517f73c6ac6e00000000000000000000000000000000000000000000000000000000815260040161198f9190611bc2565b60405180910390fd5b505050565b6000604051905090565b600080fd5b600080fd5b60007fffffffff0000000000000000000000000000000000000000000000000000000082169050919050565b6119e6816119b1565b81146119f157600080fd5b50565b600081359050611a03816119dd565b92915050565b600060208284031215611a1f57611a1e6119a7565b5b6000611a2d848285016119f4565b91505092915050565b60008115159050919050565b611a4b81611a36565b82525050565b6000602082019050611a666000830184611a42565b92915050565b600081519050919050565b600082825260208201905092915050565b60005b83811015611aa6578082015181840152602081019050611a8b565b60008484015250505050565b6000601f19601f8301169050919050565b6000611ace82611a6c565b611ad88185611a77565b9350611ae8818560208601611a88565b611af181611ab2565b840191505092915050565b60006020820190508181036000830152611b168184611ac3565b905092915050565b6000819050919050565b611b3181611b1e565b8114611b3c57600080fd5b50565b600081359050611b4e81611b28565b92915050565b600060208284031215611b6a57611b696119a7565b5b6000611b7884828501611b3f565b91505092915050565b600073ffffffffffffffffffffffffffffffffffffffff82169050919050565b6000611bac82611b81565b9050919050565b611bbc81611ba1565b82525050565b6000602082019050611bd76000830184611bb3565b92915050565b611be681611ba1565b8114611bf157600080fd5b50565b600081359050611c0381611bdd565b92915050565b60008060408385031215611c2057611c1f6119a7565b5b6000611c2e85828601611bf4565b9250506020611c3f85828601611b3f565b9150509250929050565b600080600060608486031215611c6257611c616119a7565b5b6000611c7086828701611bf4565b9350506020611c8186828701611bf4565b9250506040611c9286828701611b3f565b9150509250925092565b611ca581611b1e565b82525050565b6000602082019050611cc06000830184611c9c565b92915050565b600060208284031215611cdc57611cdb6119a7565b5b6000611cea84828501611bf4565b91505092915050565b611cfc81611a36565b8114611d0757600080fd5b50565b600081359050611d1981611cf3565b92915050565b60008060408385031215611d3657611d356119a7565b5b6000611d4485828601611bf4565b9250506020611d5585828601611d0a565b9150509250929050565b600080fd5b600080fd5b7f4e487b7100000000000000000000000000000000000000000000000000000000600052604160045260246000fd5b611da182611ab2565b810181811067ffffffffffffffff82111715611dc057611dbf611d69565b5b80604052505050565b6000611dd361199d565b9050611ddf8282611d98565b919050565b600067ffffffffffffffff821115611dff57611dfe611d69565b5b611e0882611ab2565b9050602081019050919050565b82818337600083830152505050565b6000611e37611e3284611de4565b611dc9565b905082815260208101848484011115611e5357611e52611d64565b5b611e5e848285611e15565b509392505050565b600082601f830112611e7b57611e7a611d5f565b5b8135611e8b848260208601611e24565b91505092915050565b60008060008060808587031215611eae57611ead6119a7565b5b6000611ebc87828801611bf4565b9450506020611ecd87828801611bf4565b9350506040611ede87828801611b3f565b925050606085013567ffffffffffffffff811115611eff57611efe6119ac565b5b611f0b87828801611e66565b91505092959194509250565b60008060408385031215611f2e57611f2d6119a7565b5b6000611f3c85828601611bf4565b9250506020611f4d85828601611bf4565b9150509250929050565b7f4e487b7100000000000000000000000000000000000000000000000000000000600052602260045260246000fd5b60006002820490506001821680611f9e57607f821691505b602082108103611fb157611fb0611f57565b5b50919050565b6000606082019050611fcc6000830186611bb3565b611fd96020830185611c9c565b611fe66040830184611bb3565b949350505050565b7f496e73756666696369656e742045746865722073656e74000000000000000000600082015250565b6000612024601783611a77565b915061202f82611fee565b602082019050919050565b6000602082019050818103600083015261205381612017565b9050919050565b7f4e487b7100000000000000000000000000000000000000000000000000000000600052601160045260246000fd5b600061209482611b1e565b91507fffffffffffffffffffffffffffffffffffffffffffffffffffffffffffffffff82036120c6576120c561205a565b5b600182019050919050565b600081905092915050565b60006120e782611a6c565b6120f181856120d1565b9350612101818560208601611a88565b80840191505092915050565b600061211982856120dc565b915061212582846120dc565b91508190509392505050565b600081519050919050565b600082825260208201905092915050565b600061215882612131565b612162818561213c565b9350612172818560208601611a88565b61217b81611ab2565b840191505092915050565b600060808201905061219b6000830187611bb3565b6121a86020830186611bb3565b6121b56040830185611c9c565b81810360608301526121c7818461214d565b905095945050505050565b6000815190506121e1816119dd565b92915050565b6000602082840312156121fd576121fc6119a7565b5b600061220b848285016121d2565b91505092915050565b7f4e487b7100000000000000000000000000000000000000000000000000000000600052601260045260246000fd5b60006040820190506122586000830185611bb3565b6122656020830184611c9c565b939250505056fe697066733a2f2f516d5a3647344834776a66783867714557364477503641783170664243455547477168654d774269633538454d6a2f67617264656e4d657461646174612e6a736f6e3f6e667449643da26469706673582212209fe81d5f90bec6b30b0a5e145754ee79c27300f2bb52a1a607adbf506d37d7c364736f6c63430008180033",
  "linkReferences": {},
  "deployedLinkReferences": {}
}